{
	"contracts/Aquaroom.sol": {
		"aquaroom": {
			"abi": [
				{
					"inputs": [],
					"stateMutability": "nonpayable",
					"type": "constructor"
				},
				{
					"anonymous": false,
					"inputs": [
						{
							"indexed": false,
							"internalType": "string[]",
							"name": "datesBooked",
							"type": "string[]"
						},
						{
							"indexed": false,
							"internalType": "uint256",
							"name": "id",
							"type": "uint256"
						},
						{
							"indexed": false,
							"internalType": "address",
							"name": "booker",
							"type": "address"
						},
						{
							"indexed": false,
							"internalType": "string",
							"name": "city",
							"type": "string"
						},
						{
							"indexed": false,
							"internalType": "string",
							"name": "imgUrl",
							"type": "string"
						}
					],
					"name": "newDatesBooked",
					"type": "event"
				},
				{
					"anonymous": false,
					"inputs": [
						{
							"indexed": false,
							"internalType": "string",
							"name": "name",
							"type": "string"
						},
						{
							"indexed": false,
							"internalType": "string",
							"name": "city",
							"type": "string"
						},
						{
							"indexed": false,
							"internalType": "string",
							"name": "lat",
							"type": "string"
						},
						{
							"indexed": false,
							"internalType": "string",
							"name": "long",
							"type": "string"
						},
						{
							"indexed": false,
							"internalType": "string",
							"name": "unoDescription",
							"type": "string"
						},
						{
							"indexed": false,
							"internalType": "string",
							"name": "dosDescription",
							"type": "string"
						},
						{
							"indexed": false,
							"internalType": "string",
							"name": "imgUrl",
							"type": "string"
						},
						{
							"indexed": false,
							"internalType": "uint256",
							"name": "maxGuests",
							"type": "uint256"
						},
						{
							"indexed": false,
							"internalType": "uint256",
							"name": "pricePerDay",
							"type": "uint256"
						},
						{
							"indexed": false,
							"internalType": "string[]",
							"name": "datesBooked",
							"type": "string[]"
						},
						{
							"indexed": false,
							"internalType": "uint256",
							"name": "id",
							"type": "uint256"
						},
						{
							"indexed": false,
							"internalType": "address",
							"name": "renter",
							"type": "address"
						}
					],
					"name": "rentalCreated",
					"type": "event"
				},
				{
					"inputs": [
						{
							"internalType": "uint256",
							"name": "id",
							"type": "uint256"
						},
						{
							"internalType": "string[]",
							"name": "newBookings",
							"type": "string[]"
						}
					],
					"name": "addDatesBooked",
					"outputs": [],
					"stateMutability": "payable",
					"type": "function"
				},
				{
					"inputs": [
						{
							"internalType": "string",
							"name": "name",
							"type": "string"
						},
						{
							"internalType": "string",
							"name": "city",
							"type": "string"
						},
						{
							"internalType": "string",
							"name": "lat",
							"type": "string"
						},
						{
							"internalType": "string",
							"name": "long",
							"type": "string"
						},
						{
							"internalType": "string",
							"name": "unoDescription",
							"type": "string"
						},
						{
							"internalType": "string",
							"name": "dosDescription",
							"type": "string"
						},
						{
							"internalType": "string",
							"name": "imgUrl",
							"type": "string"
						},
						{
							"internalType": "uint256",
							"name": "maxGuests",
							"type": "uint256"
						},
						{
							"internalType": "uint256",
							"name": "pricePerDay",
							"type": "uint256"
						},
						{
							"internalType": "string[]",
							"name": "datesBooked",
							"type": "string[]"
						}
					],
					"name": "addRentels",
					"outputs": [],
					"stateMutability": "nonpayable",
					"type": "function"
				},
				{
					"inputs": [],
					"name": "owner",
					"outputs": [
						{
							"internalType": "address",
							"name": "",
							"type": "address"
						}
					],
					"stateMutability": "view",
					"type": "function"
				},
				{
					"inputs": [
						{
							"internalType": "uint256",
							"name": "",
							"type": "uint256"
						}
					],
					"name": "rentalIds",
					"outputs": [
						{
							"internalType": "uint256",
							"name": "",
							"type": "uint256"
						}
					],
					"stateMutability": "view",
					"type": "function"
				}
			],
			"devdoc": {
				"kind": "dev",
				"methods": {},
				"version": 1
			},
			"evm": {
				"assembly": "    /* \"contracts/Aquaroom.sol\":60:3505  contract aquaroom {\r... */\n  mstore(0x40, 0x80)\n    /* \"contracts/Aquaroom.sol\":146:220  constructor () {\r... */\n  callvalue\n  dup1\n  iszero\n  tag_1\n  jumpi\n  0x00\n  dup1\n  revert\ntag_1:\n  pop\n    /* \"contracts/Aquaroom.sol\":182:183  0 */\n  0x00\n    /* \"contracts/Aquaroom.sol\":172:179  counter */\n  0x01\n    /* \"contracts/Aquaroom.sol\":172:183  counter = 0 */\n  dup2\n  swap1\n  sstore\n  pop\n    /* \"contracts/Aquaroom.sol\":202:212  msg.sender */\n  caller\n    /* \"contracts/Aquaroom.sol\":194:199  owner */\n  0x00\n  dup1\n    /* \"contracts/Aquaroom.sol\":194:212  owner = msg.sender */\n  0x0100\n  exp\n  dup2\n  sload\n  dup2\n  0xffffffffffffffffffffffffffffffffffffffff\n  mul\n  not\n  and\n  swap1\n  dup4\n  0xffffffffffffffffffffffffffffffffffffffff\n  and\n  mul\n  or\n  swap1\n  sstore\n  pop\n    /* \"contracts/Aquaroom.sol\":60:3505  contract aquaroom {\r... */\n  dataSize(sub_0)\n  dup1\n  dataOffset(sub_0)\n  0x00\n  codecopy\n  0x00\n  return\nstop\n\nsub_0: assembly {\n        /* \"contracts/Aquaroom.sol\":60:3505  contract aquaroom {\r... */\n      mstore(0x40, 0x80)\n      jumpi(tag_1, lt(calldatasize, 0x04))\n      shr(0xe0, calldataload(0x00))\n      dup1\n      0x2a23bb72\n      eq\n      tag_2\n      jumpi\n      dup1\n      0x611fa0a8\n      eq\n      tag_3\n      jumpi\n      dup1\n      0x8da5cb5b\n      eq\n      tag_4\n      jumpi\n      dup1\n      0xebfa74c9\n      eq\n      tag_5\n      jumpi\n    tag_1:\n      0x00\n      dup1\n      revert\n        /* \"contracts/Aquaroom.sol\":2989:3500  function addDatesBooked(uint256 id, string[] memory newBookings) public payable {\r... */\n    tag_2:\n      tag_6\n      0x04\n      dup1\n      calldatasize\n      sub\n      dup2\n      add\n      swap1\n      tag_7\n      swap2\n      swap1\n      tag_8\n      jump\t// in\n    tag_7:\n      tag_9\n      jump\t// in\n    tag_6:\n      stop\n        /* \"contracts/Aquaroom.sol\":1162:2517  function addRentels(\r... */\n    tag_3:\n      callvalue\n      dup1\n      iszero\n      tag_10\n      jumpi\n      0x00\n      dup1\n      revert\n    tag_10:\n      pop\n      tag_11\n      0x04\n      dup1\n      calldatasize\n      sub\n      dup2\n      add\n      swap1\n      tag_12\n      swap2\n      swap1\n      tag_13\n      jump\t// in\n    tag_12:\n      tag_14\n      jump\t// in\n    tag_11:\n      stop\n        /* \"contracts/Aquaroom.sol\":87:107  address public owner */\n    tag_4:\n      callvalue\n      dup1\n      iszero\n      tag_15\n      jumpi\n      0x00\n      dup1\n      revert\n    tag_15:\n      pop\n      tag_16\n      tag_17\n      jump\t// in\n    tag_16:\n      mload(0x40)\n      tag_18\n      swap2\n      swap1\n      tag_19\n      jump\t// in\n    tag_18:\n      mload(0x40)\n      dup1\n      swap2\n      sub\n      swap1\n      return\n        /* \"contracts/Aquaroom.sol\":1127:1153  uint256[] public rentalIds */\n    tag_5:\n      callvalue\n      dup1\n      iszero\n      tag_20\n      jumpi\n      0x00\n      dup1\n      revert\n    tag_20:\n      pop\n      tag_21\n      0x04\n      dup1\n      calldatasize\n      sub\n      dup2\n      add\n      swap1\n      tag_22\n      swap2\n      swap1\n      tag_23\n      jump\t// in\n    tag_22:\n      tag_24\n      jump\t// in\n    tag_21:\n      mload(0x40)\n      tag_25\n      swap2\n      swap1\n      tag_26\n      jump\t// in\n    tag_25:\n      mload(0x40)\n      dup1\n      swap2\n      sub\n      swap1\n      return\n        /* \"contracts/Aquaroom.sol\":2989:3500  function addDatesBooked(uint256 id, string[] memory newBookings) public payable {\r... */\n    tag_9:\n        /* \"contracts/Aquaroom.sol\":3093:3100  counter */\n      sload(0x01)\n        /* \"contracts/Aquaroom.sol\":3088:3090  id */\n      dup3\n        /* \"contracts/Aquaroom.sol\":3088:3100  id < counter */\n      lt\n        /* \"contracts/Aquaroom.sol\":3080:3119  require(id < counter, \"No such Rental\") */\n      tag_28\n      jumpi\n      mload(0x40)\n      0x08c379a000000000000000000000000000000000000000000000000000000000\n      dup2\n      mstore\n      0x04\n      add\n      tag_29\n      swap1\n      tag_30\n      jump\t// in\n    tag_29:\n      mload(0x40)\n      dup1\n      swap2\n      sub\n      swap1\n      revert\n    tag_28:\n        /* \"contracts/Aquaroom.sol\":3138:3168  checkBookings(id, newBookings) */\n      tag_31\n        /* \"contracts/Aquaroom.sol\":3152:3154  id */\n      dup3\n        /* \"contracts/Aquaroom.sol\":3156:3167  newBookings */\n      dup3\n        /* \"contracts/Aquaroom.sol\":3138:3151  checkBookings */\n      tag_32\n        /* \"contracts/Aquaroom.sol\":3138:3168  checkBookings(id, newBookings) */\n      jump\t// in\n    tag_31:\n        /* \"contracts/Aquaroom.sol\":3130:3206  require(checkBookings(id, newBookings), \"Already booked for requested date\") */\n      tag_33\n      jumpi\n      mload(0x40)\n      0x08c379a000000000000000000000000000000000000000000000000000000000\n      dup2\n      mstore\n      0x04\n      add\n      tag_34\n      swap1\n      tag_35\n      jump\t// in\n    tag_34:\n      mload(0x40)\n      dup1\n      swap2\n      sub\n      swap1\n      revert\n    tag_33:\n        /* \"contracts/Aquaroom.sol\":3275:3286  newBookings */\n      dup1\n        /* \"contracts/Aquaroom.sol\":3275:3293  newBookings.length */\n      mload\n        /* \"contracts/Aquaroom.sol\":3265:3272  1 ether */\n      0x0de0b6b3a7640000\n        /* \"contracts/Aquaroom.sol\":3239:3246  rentals */\n      0x02\n        /* \"contracts/Aquaroom.sol\":3239:3250  rentals[id] */\n      0x00\n        /* \"contracts/Aquaroom.sol\":3247:3249  id */\n      dup6\n        /* \"contracts/Aquaroom.sol\":3239:3250  rentals[id] */\n      dup2\n      mstore\n      0x20\n      add\n      swap1\n      dup2\n      mstore\n      0x20\n      add\n      0x00\n      keccak256\n        /* \"contracts/Aquaroom.sol\":3239:3262  rentals[id].pricePerDay */\n      0x08\n      add\n      sload\n        /* \"contracts/Aquaroom.sol\":3239:3272  rentals[id].pricePerDay * 1 ether */\n      tag_36\n      swap2\n      swap1\n      tag_37\n      jump\t// in\n    tag_36:\n        /* \"contracts/Aquaroom.sol\":3239:3293  rentals[id].pricePerDay * 1 ether * newBookings.length */\n      tag_38\n      swap2\n      swap1\n      tag_37\n      jump\t// in\n    tag_38:\n        /* \"contracts/Aquaroom.sol\":3225:3234  msg.value */\n      callvalue\n        /* \"contracts/Aquaroom.sol\":3225:3294  msg.value == (rentals[id].pricePerDay * 1 ether * newBookings.length) */\n      eq\n        /* \"contracts/Aquaroom.sol\":3217:3363  require(msg.value == (rentals[id].pricePerDay * 1 ether * newBookings.length), \"Please submit the asking price in order to complete the purchase\") */\n      tag_39\n      jumpi\n      mload(0x40)\n      0x08c379a000000000000000000000000000000000000000000000000000000000\n      dup2\n      mstore\n      0x04\n      add\n      tag_40\n      swap1\n      tag_41\n      jump\t// in\n    tag_40:\n      mload(0x40)\n      dup1\n      swap2\n      sub\n      swap1\n      revert\n    tag_39:\n        /* \"contracts/Aquaroom.sol\":3381:3387  uint i */\n      0x00\n        /* \"contracts/Aquaroom.sol\":3376:3493  for (uint i = 0; i < newBookings.length; i++) {\r... */\n    tag_42:\n        /* \"contracts/Aquaroom.sol\":3397:3408  newBookings */\n      dup2\n        /* \"contracts/Aquaroom.sol\":3397:3415  newBookings.length */\n      mload\n        /* \"contracts/Aquaroom.sol\":3393:3394  i */\n      dup2\n        /* \"contracts/Aquaroom.sol\":3393:3415  i < newBookings.length */\n      lt\n        /* \"contracts/Aquaroom.sol\":3376:3493  for (uint i = 0; i < newBookings.length; i++) {\r... */\n      iszero\n      tag_43\n      jumpi\n        /* \"contracts/Aquaroom.sol\":3437:3444  rentals */\n      0x02\n        /* \"contracts/Aquaroom.sol\":3437:3448  rentals[id] */\n      0x00\n        /* \"contracts/Aquaroom.sol\":3445:3447  id */\n      dup5\n        /* \"contracts/Aquaroom.sol\":3437:3448  rentals[id] */\n      dup2\n      mstore\n      0x20\n      add\n      swap1\n      dup2\n      mstore\n      0x20\n      add\n      0x00\n      keccak256\n        /* \"contracts/Aquaroom.sol\":3437:3460  rentals[id].datesBooked */\n      0x09\n      add\n        /* \"contracts/Aquaroom.sol\":3466:3477  newBookings */\n      dup3\n        /* \"contracts/Aquaroom.sol\":3478:3479  i */\n      dup3\n        /* \"contracts/Aquaroom.sol\":3466:3480  newBookings[i] */\n      dup2\n      mload\n      dup2\n      lt\n      tag_45\n      jumpi\n      tag_46\n      tag_47\n      jump\t// in\n    tag_46:\n    tag_45:\n      0x20\n      mul\n      0x20\n      add\n      add\n      mload\n        /* \"contracts/Aquaroom.sol\":3437:3481  rentals[id].datesBooked.push(newBookings[i]) */\n      swap1\n      dup1\n      0x01\n      dup2\n      sload\n      add\n      dup1\n      dup3\n      sstore\n      dup1\n      swap2\n      pop\n      pop\n      0x01\n      swap1\n      sub\n      swap1\n      0x00\n      mstore\n      keccak256(0x00, 0x20)\n      add\n      0x00\n      swap1\n      swap2\n      swap1\n      swap2\n      swap1\n      swap2\n      pop\n      swap1\n      dup1\n      mload\n      swap1\n      0x20\n      add\n      swap1\n      tag_49\n      swap3\n      swap2\n      swap1\n      tag_50\n      jump\t// in\n    tag_49:\n      pop\n        /* \"contracts/Aquaroom.sol\":3417:3420  i++ */\n      dup1\n      dup1\n      tag_51\n      swap1\n      tag_52\n      jump\t// in\n    tag_51:\n      swap2\n      pop\n      pop\n        /* \"contracts/Aquaroom.sol\":3376:3493  for (uint i = 0; i < newBookings.length; i++) {\r... */\n      jump(tag_42)\n    tag_43:\n      pop\n        /* \"contracts/Aquaroom.sol\":2989:3500  function addDatesBooked(uint256 id, string[] memory newBookings) public payable {\r... */\n      pop\n      pop\n      jump\t// out\n        /* \"contracts/Aquaroom.sol\":1162:2517  function addRentels(\r... */\n    tag_14:\n        /* \"contracts/Aquaroom.sol\":1549:1554  owner */\n      0x00\n      dup1\n      sload\n      swap1\n      0x0100\n      exp\n      swap1\n      div\n      0xffffffffffffffffffffffffffffffffffffffff\n      and\n        /* \"contracts/Aquaroom.sol\":1535:1554  msg.sender == owner */\n      0xffffffffffffffffffffffffffffffffffffffff\n      and\n        /* \"contracts/Aquaroom.sol\":1535:1545  msg.sender */\n      caller\n        /* \"contracts/Aquaroom.sol\":1535:1554  msg.sender == owner */\n      0xffffffffffffffffffffffffffffffffffffffff\n      and\n      eq\n        /* \"contracts/Aquaroom.sol\":1527:1614  require(msg.sender == owner, \"Only the owner of the smart contract can put up rentals\") */\n      tag_54\n      jumpi\n      mload(0x40)\n      0x08c379a000000000000000000000000000000000000000000000000000000000\n      dup2\n      mstore\n      0x04\n      add\n      tag_55\n      swap1\n      tag_56\n      jump\t// in\n    tag_55:\n      mload(0x40)\n      dup1\n      swap2\n      sub\n      swap1\n      revert\n    tag_54:\n        /* \"contracts/Aquaroom.sol\":1625:1653  rentalInfo storage newRental */\n      0x00\n        /* \"contracts/Aquaroom.sol\":1656:1663  rentals */\n      0x02\n        /* \"contracts/Aquaroom.sol\":1656:1672  rentals[counter] */\n      0x00\n        /* \"contracts/Aquaroom.sol\":1664:1671  counter */\n      sload(0x01)\n        /* \"contracts/Aquaroom.sol\":1656:1672  rentals[counter] */\n      dup2\n      mstore\n      0x20\n      add\n      swap1\n      dup2\n      mstore\n      0x20\n      add\n      0x00\n      keccak256\n        /* \"contracts/Aquaroom.sol\":1625:1672  rentalInfo storage newRental = rentals[counter] */\n      swap1\n      pop\n        /* \"contracts/Aquaroom.sol\":1700:1704  name */\n      dup11\n        /* \"contracts/Aquaroom.sol\":1683:1692  newRental */\n      dup2\n        /* \"contracts/Aquaroom.sol\":1683:1697  newRental.name */\n      0x00\n      add\n        /* \"contracts/Aquaroom.sol\":1683:1704  newRental.name = name */\n      swap1\n      dup1\n      mload\n      swap1\n      0x20\n      add\n      swap1\n      tag_57\n      swap3\n      swap2\n      swap1\n      tag_50\n      jump\t// in\n    tag_57:\n      pop\n        /* \"contracts/Aquaroom.sol\":1732:1736  city */\n      dup10\n        /* \"contracts/Aquaroom.sol\":1715:1724  newRental */\n      dup2\n        /* \"contracts/Aquaroom.sol\":1715:1729  newRental.city */\n      0x01\n      add\n        /* \"contracts/Aquaroom.sol\":1715:1736  newRental.city = city */\n      swap1\n      dup1\n      mload\n      swap1\n      0x20\n      add\n      swap1\n      tag_58\n      swap3\n      swap2\n      swap1\n      tag_50\n      jump\t// in\n    tag_58:\n      pop\n        /* \"contracts/Aquaroom.sol\":1763:1766  lat */\n      dup9\n        /* \"contracts/Aquaroom.sol\":1747:1756  newRental */\n      dup2\n        /* \"contracts/Aquaroom.sol\":1747:1760  newRental.lat */\n      0x02\n      add\n        /* \"contracts/Aquaroom.sol\":1747:1766  newRental.lat = lat */\n      swap1\n      dup1\n      mload\n      swap1\n      0x20\n      add\n      swap1\n      tag_59\n      swap3\n      swap2\n      swap1\n      tag_50\n      jump\t// in\n    tag_59:\n      pop\n        /* \"contracts/Aquaroom.sol\":1794:1798  long */\n      dup8\n        /* \"contracts/Aquaroom.sol\":1777:1786  newRental */\n      dup2\n        /* \"contracts/Aquaroom.sol\":1777:1791  newRental.long */\n      0x03\n      add\n        /* \"contracts/Aquaroom.sol\":1777:1798  newRental.long = long */\n      swap1\n      dup1\n      mload\n      swap1\n      0x20\n      add\n      swap1\n      tag_60\n      swap3\n      swap2\n      swap1\n      tag_50\n      jump\t// in\n    tag_60:\n      pop\n        /* \"contracts/Aquaroom.sol\":1836:1850  unoDescription */\n      dup7\n        /* \"contracts/Aquaroom.sol\":1809:1818  newRental */\n      dup2\n        /* \"contracts/Aquaroom.sol\":1809:1833  newRental.unoDescription */\n      0x04\n      add\n        /* \"contracts/Aquaroom.sol\":1809:1850  newRental.unoDescription = unoDescription */\n      swap1\n      dup1\n      mload\n      swap1\n      0x20\n      add\n      swap1\n      tag_61\n      swap3\n      swap2\n      swap1\n      tag_50\n      jump\t// in\n    tag_61:\n      pop\n        /* \"contracts/Aquaroom.sol\":1888:1902  dosDescription */\n      dup6\n        /* \"contracts/Aquaroom.sol\":1861:1870  newRental */\n      dup2\n        /* \"contracts/Aquaroom.sol\":1861:1885  newRental.dosDescription */\n      0x05\n      add\n        /* \"contracts/Aquaroom.sol\":1861:1902  newRental.dosDescription = dosDescription */\n      swap1\n      dup1\n      mload\n      swap1\n      0x20\n      add\n      swap1\n      tag_62\n      swap3\n      swap2\n      swap1\n      tag_50\n      jump\t// in\n    tag_62:\n      pop\n        /* \"contracts/Aquaroom.sol\":1932:1938  imgUrl */\n      dup5\n        /* \"contracts/Aquaroom.sol\":1913:1922  newRental */\n      dup2\n        /* \"contracts/Aquaroom.sol\":1913:1929  newRental.imgUrl */\n      0x06\n      add\n        /* \"contracts/Aquaroom.sol\":1913:1938  newRental.imgUrl = imgUrl */\n      swap1\n      dup1\n      mload\n      swap1\n      0x20\n      add\n      swap1\n      tag_63\n      swap3\n      swap2\n      swap1\n      tag_50\n      jump\t// in\n    tag_63:\n      pop\n        /* \"contracts/Aquaroom.sol\":1971:1980  maxGuests */\n      dup4\n        /* \"contracts/Aquaroom.sol\":1949:1958  newRental */\n      dup2\n        /* \"contracts/Aquaroom.sol\":1949:1968  newRental.maxGuests */\n      0x07\n      add\n        /* \"contracts/Aquaroom.sol\":1949:1980  newRental.maxGuests = maxGuests */\n      dup2\n      swap1\n      sstore\n      pop\n        /* \"contracts/Aquaroom.sol\":2015:2026  pricePerDay */\n      dup3\n        /* \"contracts/Aquaroom.sol\":1991:2000  newRental */\n      dup2\n        /* \"contracts/Aquaroom.sol\":1991:2012  newRental.pricePerDay */\n      0x08\n      add\n        /* \"contracts/Aquaroom.sol\":1991:2026  newRental.pricePerDay = pricePerDay */\n      dup2\n      swap1\n      sstore\n      pop\n        /* \"contracts/Aquaroom.sol\":2061:2072  datesBooked */\n      dup2\n        /* \"contracts/Aquaroom.sol\":2037:2046  newRental */\n      dup2\n        /* \"contracts/Aquaroom.sol\":2037:2058  newRental.datesBooked */\n      0x09\n      add\n        /* \"contracts/Aquaroom.sol\":2037:2072  newRental.datesBooked = datesBooked */\n      swap1\n      dup1\n      mload\n      swap1\n      0x20\n      add\n      swap1\n      tag_64\n      swap3\n      swap2\n      swap1\n      tag_65\n      jump\t// in\n    tag_64:\n      pop\n        /* \"contracts/Aquaroom.sol\":2098:2105  counter */\n      sload(0x01)\n        /* \"contracts/Aquaroom.sol\":2083:2092  newRental */\n      dup2\n        /* \"contracts/Aquaroom.sol\":2083:2095  newRental.id */\n      0x0a\n      add\n        /* \"contracts/Aquaroom.sol\":2083:2105  newRental.id = counter */\n      dup2\n      swap1\n      sstore\n      pop\n        /* \"contracts/Aquaroom.sol\":2135:2140  owner */\n      0x00\n      dup1\n      sload\n      swap1\n      0x0100\n      exp\n      swap1\n      div\n      0xffffffffffffffffffffffffffffffffffffffff\n      and\n        /* \"contracts/Aquaroom.sol\":2116:2125  newRental */\n      dup2\n        /* \"contracts/Aquaroom.sol\":2116:2132  newRental.renter */\n      0x0b\n      add\n      0x00\n        /* \"contracts/Aquaroom.sol\":2116:2140  newRental.renter = owner */\n      0x0100\n      exp\n      dup2\n      sload\n      dup2\n      0xffffffffffffffffffffffffffffffffffffffff\n      mul\n      not\n      and\n      swap1\n      dup4\n      0xffffffffffffffffffffffffffffffffffffffff\n      and\n      mul\n      or\n      swap1\n      sstore\n      pop\n        /* \"contracts/Aquaroom.sol\":2151:2160  rentalIds */\n      0x03\n        /* \"contracts/Aquaroom.sol\":2166:2173  counter */\n      sload(0x01)\n        /* \"contracts/Aquaroom.sol\":2151:2174  rentalIds.push(counter) */\n      swap1\n      dup1\n      0x01\n      dup2\n      sload\n      add\n      dup1\n      dup3\n      sstore\n      dup1\n      swap2\n      pop\n      pop\n      0x01\n      swap1\n      sub\n      swap1\n      0x00\n      mstore\n      keccak256(0x00, 0x20)\n      add\n      0x00\n      swap1\n      swap2\n      swap1\n      swap2\n      swap1\n      swap2\n      pop\n      sstore\n        /* \"contracts/Aquaroom.sol\":2192:2489  rentalCreated (\r... */\n      0xc06f078c3c74d235829af3e011ff5aae487c78ef8d3acca688417ed86ff14591\n        /* \"contracts/Aquaroom.sol\":2221:2225  name */\n      dup12\n        /* \"contracts/Aquaroom.sol\":2240:2244  city */\n      dup12\n        /* \"contracts/Aquaroom.sol\":2259:2262  lat */\n      dup12\n        /* \"contracts/Aquaroom.sol\":2277:2281  long */\n      dup12\n        /* \"contracts/Aquaroom.sol\":2296:2310  unoDescription */\n      dup12\n        /* \"contracts/Aquaroom.sol\":2325:2339  dosDescription */\n      dup12\n        /* \"contracts/Aquaroom.sol\":2354:2360  imgUrl */\n      dup12\n        /* \"contracts/Aquaroom.sol\":2375:2384  maxGuests */\n      dup12\n        /* \"contracts/Aquaroom.sol\":2399:2410  pricePerDay */\n      dup12\n        /* \"contracts/Aquaroom.sol\":2425:2436  datesBooked */\n      dup12\n        /* \"contracts/Aquaroom.sol\":2451:2458  counter */\n      sload(0x01)\n        /* \"contracts/Aquaroom.sol\":2473:2478  owner */\n      0x00\n      dup1\n      sload\n      swap1\n      0x0100\n      exp\n      swap1\n      div\n      0xffffffffffffffffffffffffffffffffffffffff\n      and\n        /* \"contracts/Aquaroom.sol\":2192:2489  rentalCreated (\r... */\n      mload(0x40)\n      tag_67\n      swap13\n      swap12\n      swap11\n      swap10\n      swap9\n      swap8\n      swap7\n      swap6\n      swap5\n      swap4\n      swap3\n      swap2\n      swap1\n      tag_68\n      jump\t// in\n    tag_67:\n      mload(0x40)\n      dup1\n      swap2\n      sub\n      swap1\n      log1\n        /* \"contracts/Aquaroom.sol\":2500:2507  counter */\n      0x01\n      0x00\n        /* \"contracts/Aquaroom.sol\":2500:2509  counter++ */\n      dup2\n      sload\n      dup1\n      swap3\n      swap2\n      swap1\n      tag_69\n      swap1\n      tag_52\n      jump\t// in\n    tag_69:\n      swap2\n      swap1\n      pop\n      sstore\n      pop\n        /* \"contracts/Aquaroom.sol\":1516:2517  {\r... */\n      pop\n        /* \"contracts/Aquaroom.sol\":1162:2517  function addRentels(\r... */\n      pop\n      pop\n      pop\n      pop\n      pop\n      pop\n      pop\n      pop\n      pop\n      pop\n      jump\t// out\n        /* \"contracts/Aquaroom.sol\":87:107  address public owner */\n    tag_17:\n      0x00\n      dup1\n      sload\n      swap1\n      0x0100\n      exp\n      swap1\n      div\n      0xffffffffffffffffffffffffffffffffffffffff\n      and\n      dup2\n      jump\t// out\n        /* \"contracts/Aquaroom.sol\":1127:1153  uint256[] public rentalIds */\n    tag_24:\n      0x03\n      dup2\n      dup2\n      sload\n      dup2\n      lt\n      tag_70\n      jumpi\n      0x00\n      dup1\n      revert\n    tag_70:\n      swap1\n      0x00\n      mstore\n      keccak256(0x00, 0x20)\n      add\n      0x00\n      swap2\n      pop\n      swap1\n      pop\n      sload\n      dup2\n      jump\t// out\n        /* \"contracts/Aquaroom.sol\":2525:2981  function checkBookings(uint256 id, string[] memory newBookings) private view returns (bool) {\r... */\n    tag_32:\n        /* \"contracts/Aquaroom.sol\":2611:2615  bool */\n      0x00\n        /* \"contracts/Aquaroom.sol\":2633:2639  uint i */\n      dup1\n        /* \"contracts/Aquaroom.sol\":2628:2952  for (uint i; i < newBookings.length; i++ ) {\r... */\n    tag_73:\n        /* \"contracts/Aquaroom.sol\":2645:2656  newBookings */\n      dup3\n        /* \"contracts/Aquaroom.sol\":2645:2663  newBookings.length */\n      mload\n        /* \"contracts/Aquaroom.sol\":2641:2642  i */\n      dup2\n        /* \"contracts/Aquaroom.sol\":2641:2663  i < newBookings.length */\n      lt\n        /* \"contracts/Aquaroom.sol\":2628:2952  for (uint i; i < newBookings.length; i++ ) {\r... */\n      iszero\n      tag_74\n      jumpi\n        /* \"contracts/Aquaroom.sol\":2691:2697  uint j */\n      0x00\n        /* \"contracts/Aquaroom.sol\":2686:2941  for (uint j = 0; j < rentals[id].datesBooked.length; j++) {\r... */\n    tag_76:\n        /* \"contracts/Aquaroom.sol\":2707:2714  rentals */\n      0x02\n        /* \"contracts/Aquaroom.sol\":2707:2718  rentals[id] */\n      0x00\n        /* \"contracts/Aquaroom.sol\":2715:2717  id */\n      dup7\n        /* \"contracts/Aquaroom.sol\":2707:2718  rentals[id] */\n      dup2\n      mstore\n      0x20\n      add\n      swap1\n      dup2\n      mstore\n      0x20\n      add\n      0x00\n      keccak256\n        /* \"contracts/Aquaroom.sol\":2707:2730  rentals[id].datesBooked */\n      0x09\n      add\n        /* \"contracts/Aquaroom.sol\":2707:2737  rentals[id].datesBooked.length */\n      dup1\n      sload\n      swap1\n      pop\n        /* \"contracts/Aquaroom.sol\":2703:2704  j */\n      dup2\n        /* \"contracts/Aquaroom.sol\":2703:2737  j < rentals[id].datesBooked.length */\n      lt\n        /* \"contracts/Aquaroom.sol\":2686:2941  for (uint j = 0; j < rentals[id].datesBooked.length; j++) {\r... */\n      iszero\n      tag_77\n      jumpi\n        /* \"contracts/Aquaroom.sol\":2853:2864  newBookings */\n      dup4\n        /* \"contracts/Aquaroom.sol\":2865:2866  i */\n      dup3\n        /* \"contracts/Aquaroom.sol\":2853:2867  newBookings[i] */\n      dup2\n      mload\n      dup2\n      lt\n      tag_79\n      jumpi\n      tag_80\n      tag_47\n      jump\t// in\n    tag_80:\n    tag_79:\n      0x20\n      mul\n      0x20\n      add\n      add\n      mload\n        /* \"contracts/Aquaroom.sol\":2836:2868  abi.encodePacked(newBookings[i]) */\n      add(0x20, mload(0x40))\n      tag_81\n      swap2\n      swap1\n      tag_82\n      jump\t// in\n    tag_81:\n      mload(0x40)\n      0x20\n      dup2\n      dup4\n      sub\n      sub\n      dup2\n      mstore\n      swap1\n      0x40\n      mstore\n        /* \"contracts/Aquaroom.sol\":2826:2869  keccak256(abi.encodePacked(newBookings[i])) */\n      dup1\n      mload\n      swap1\n      0x20\n      add\n      keccak256\n        /* \"contracts/Aquaroom.sol\":2794:2801  rentals */\n      0x02\n        /* \"contracts/Aquaroom.sol\":2794:2805  rentals[id] */\n      0x00\n        /* \"contracts/Aquaroom.sol\":2802:2804  id */\n      dup8\n        /* \"contracts/Aquaroom.sol\":2794:2805  rentals[id] */\n      dup2\n      mstore\n      0x20\n      add\n      swap1\n      dup2\n      mstore\n      0x20\n      add\n      0x00\n      keccak256\n        /* \"contracts/Aquaroom.sol\":2794:2817  rentals[id].datesBooked */\n      0x09\n      add\n        /* \"contracts/Aquaroom.sol\":2818:2819  j */\n      dup3\n        /* \"contracts/Aquaroom.sol\":2794:2820  rentals[id].datesBooked[j] */\n      dup2\n      sload\n      dup2\n      lt\n      tag_83\n      jumpi\n      tag_84\n      tag_47\n      jump\t// in\n    tag_84:\n    tag_83:\n      swap1\n      0x00\n      mstore\n      keccak256(0x00, 0x20)\n      add\n        /* \"contracts/Aquaroom.sol\":2777:2821  abi.encodePacked(rentals[id].datesBooked[j]) */\n      add(0x20, mload(0x40))\n      tag_86\n      swap2\n      swap1\n      tag_87\n      jump\t// in\n    tag_86:\n      mload(0x40)\n      0x20\n      dup2\n      dup4\n      sub\n      sub\n      dup2\n      mstore\n      swap1\n      0x40\n      mstore\n        /* \"contracts/Aquaroom.sol\":2767:2822  keccak256(abi.encodePacked(rentals[id].datesBooked[j])) */\n      dup1\n      mload\n      swap1\n      0x20\n      add\n      keccak256\n        /* \"contracts/Aquaroom.sol\":2767:2869  keccak256(abi.encodePacked(rentals[id].datesBooked[j])) == keccak256(abi.encodePacked(newBookings[i])) */\n      eq\n        /* \"contracts/Aquaroom.sol\":2763:2926  if (keccak256(abi.encodePacked(rentals[id].datesBooked[j])) == keccak256(abi.encodePacked(newBookings[i]))) {\r... */\n      iszero\n      tag_88\n      jumpi\n        /* \"contracts/Aquaroom.sol\":2901:2906  false */\n      0x00\n        /* \"contracts/Aquaroom.sol\":2894:2906  return false */\n      swap3\n      pop\n      pop\n      pop\n      jump(tag_72)\n        /* \"contracts/Aquaroom.sol\":2763:2926  if (keccak256(abi.encodePacked(rentals[id].datesBooked[j])) == keccak256(abi.encodePacked(newBookings[i]))) {\r... */\n    tag_88:\n        /* \"contracts/Aquaroom.sol\":2739:2742  j++ */\n      dup1\n      dup1\n      tag_89\n      swap1\n      tag_52\n      jump\t// in\n    tag_89:\n      swap2\n      pop\n      pop\n        /* \"contracts/Aquaroom.sol\":2686:2941  for (uint j = 0; j < rentals[id].datesBooked.length; j++) {\r... */\n      jump(tag_76)\n    tag_77:\n      pop\n        /* \"contracts/Aquaroom.sol\":2665:2668  i++ */\n      dup1\n      dup1\n      tag_90\n      swap1\n      tag_52\n      jump\t// in\n    tag_90:\n      swap2\n      pop\n      pop\n        /* \"contracts/Aquaroom.sol\":2628:2952  for (uint i; i < newBookings.length; i++ ) {\r... */\n      jump(tag_73)\n    tag_74:\n      pop\n        /* \"contracts/Aquaroom.sol\":2969:2973  true */\n      0x01\n        /* \"contracts/Aquaroom.sol\":2962:2973  return true */\n      swap1\n      pop\n        /* \"contracts/Aquaroom.sol\":2525:2981  function checkBookings(uint256 id, string[] memory newBookings) private view returns (bool) {\r... */\n    tag_72:\n      swap3\n      swap2\n      pop\n      pop\n      jump\t// out\n    tag_50:\n      dup3\n      dup1\n      sload\n      tag_91\n      swap1\n      tag_92\n      jump\t// in\n    tag_91:\n      swap1\n      0x00\n      mstore\n      keccak256(0x00, 0x20)\n      swap1\n      0x1f\n      add\n      0x20\n      swap1\n      div\n      dup2\n      add\n      swap3\n      dup3\n      tag_94\n      jumpi\n      0x00\n      dup6\n      sstore\n      jump(tag_93)\n    tag_94:\n      dup3\n      0x1f\n      lt\n      tag_95\n      jumpi\n      dup1\n      mload\n      not(0xff)\n      and\n      dup4\n      dup1\n      add\n      or\n      dup6\n      sstore\n      jump(tag_93)\n    tag_95:\n      dup3\n      dup1\n      add\n      0x01\n      add\n      dup6\n      sstore\n      dup3\n      iszero\n      tag_93\n      jumpi\n      swap2\n      dup3\n      add\n    tag_96:\n      dup3\n      dup2\n      gt\n      iszero\n      tag_97\n      jumpi\n      dup3\n      mload\n      dup3\n      sstore\n      swap2\n      0x20\n      add\n      swap2\n      swap1\n      0x01\n      add\n      swap1\n      jump(tag_96)\n    tag_97:\n    tag_93:\n      pop\n      swap1\n      pop\n      tag_98\n      swap2\n      swap1\n      tag_99\n      jump\t// in\n    tag_98:\n      pop\n      swap1\n      jump\t// out\n    tag_65:\n      dup3\n      dup1\n      sload\n      dup3\n      dup3\n      sstore\n      swap1\n      0x00\n      mstore\n      keccak256(0x00, 0x20)\n      swap1\n      dup2\n      add\n      swap3\n      dup3\n      iszero\n      tag_100\n      jumpi\n      swap2\n      0x20\n      mul\n      dup3\n      add\n    tag_101:\n      dup3\n      dup2\n      gt\n      iszero\n      tag_102\n      jumpi\n      dup3\n      mload\n      dup3\n      swap1\n      dup1\n      mload\n      swap1\n      0x20\n      add\n      swap1\n      tag_103\n      swap3\n      swap2\n      swap1\n      tag_50\n      jump\t// in\n    tag_103:\n      pop\n      swap2\n      0x20\n      add\n      swap2\n      swap1\n      0x01\n      add\n      swap1\n      jump(tag_101)\n    tag_102:\n    tag_100:\n      pop\n      swap1\n      pop\n      tag_104\n      swap2\n      swap1\n      tag_105\n      jump\t// in\n    tag_104:\n      pop\n      swap1\n      jump\t// out\n    tag_99:\n    tag_106:\n      dup1\n      dup3\n      gt\n      iszero\n      tag_107\n      jumpi\n      0x00\n      dup2\n      0x00\n      swap1\n      sstore\n      pop\n      0x01\n      add\n      jump(tag_106)\n    tag_107:\n      pop\n      swap1\n      jump\t// out\n    tag_105:\n    tag_108:\n      dup1\n      dup3\n      gt\n      iszero\n      tag_109\n      jumpi\n      0x00\n      dup2\n      dup2\n      tag_110\n      swap2\n      swap1\n      tag_111\n      jump\t// in\n    tag_110:\n      pop\n      0x01\n      add\n      jump(tag_108)\n    tag_109:\n      pop\n      swap1\n      jump\t// out\n    tag_111:\n      pop\n      dup1\n      sload\n      tag_112\n      swap1\n      tag_92\n      jump\t// in\n    tag_112:\n      0x00\n      dup3\n      sstore\n      dup1\n      0x1f\n      lt\n      tag_114\n      jumpi\n      pop\n      jump(tag_113)\n    tag_114:\n      0x1f\n      add\n      0x20\n      swap1\n      div\n      swap1\n      0x00\n      mstore\n      keccak256(0x00, 0x20)\n      swap1\n      dup2\n      add\n      swap1\n      tag_115\n      swap2\n      swap1\n      tag_99\n      jump\t// in\n    tag_115:\n    tag_113:\n      pop\n      jump\t// out\n        /* \"#utility.yul\":23:980   */\n    tag_117:\n        /* \"#utility.yul\":129:134   */\n      0x00\n        /* \"#utility.yul\":154:245   */\n      tag_119\n        /* \"#utility.yul\":170:244   */\n      tag_120\n        /* \"#utility.yul\":237:243   */\n      dup5\n        /* \"#utility.yul\":170:244   */\n      tag_121\n      jump\t// in\n    tag_120:\n        /* \"#utility.yul\":154:245   */\n      tag_122\n      jump\t// in\n    tag_119:\n        /* \"#utility.yul\":145:245   */\n      swap1\n      pop\n        /* \"#utility.yul\":265:270   */\n      dup1\n        /* \"#utility.yul\":294:300   */\n      dup4\n        /* \"#utility.yul\":287:292   */\n      dup3\n        /* \"#utility.yul\":280:301   */\n      mstore\n        /* \"#utility.yul\":328:332   */\n      0x20\n        /* \"#utility.yul\":321:326   */\n      dup3\n        /* \"#utility.yul\":317:333   */\n      add\n        /* \"#utility.yul\":310:333   */\n      swap1\n      pop\n        /* \"#utility.yul\":354:360   */\n      dup3\n        /* \"#utility.yul\":404:407   */\n      dup6\n        /* \"#utility.yul\":396:400   */\n      0x20\n        /* \"#utility.yul\":388:394   */\n      dup7\n        /* \"#utility.yul\":384:401   */\n      mul\n        /* \"#utility.yul\":379:382   */\n      dup3\n        /* \"#utility.yul\":375:402   */\n      add\n        /* \"#utility.yul\":372:408   */\n      gt\n        /* \"#utility.yul\":369:512   */\n      iszero\n      tag_123\n      jumpi\n        /* \"#utility.yul\":423:502   */\n      tag_124\n      tag_125\n      jump\t// in\n    tag_124:\n        /* \"#utility.yul\":369:512   */\n    tag_123:\n        /* \"#utility.yul\":536:537   */\n      0x00\n        /* \"#utility.yul\":521:974   */\n    tag_126:\n        /* \"#utility.yul\":546:552   */\n      dup6\n        /* \"#utility.yul\":543:544   */\n      dup2\n        /* \"#utility.yul\":540:553   */\n      lt\n        /* \"#utility.yul\":521:974   */\n      iszero\n      tag_128\n      jumpi\n        /* \"#utility.yul\":628:631   */\n      dup2\n        /* \"#utility.yul\":615:632   */\n      calldataload\n        /* \"#utility.yul\":664:682   */\n      0xffffffffffffffff\n        /* \"#utility.yul\":651:662   */\n      dup2\n        /* \"#utility.yul\":648:683   */\n      gt\n        /* \"#utility.yul\":645:767   */\n      iszero\n      tag_129\n      jumpi\n        /* \"#utility.yul\":686:765   */\n      tag_130\n      tag_131\n      jump\t// in\n    tag_130:\n        /* \"#utility.yul\":645:767   */\n    tag_129:\n        /* \"#utility.yul\":810:821   */\n      dup1\n        /* \"#utility.yul\":802:808   */\n      dup7\n        /* \"#utility.yul\":798:822   */\n      add\n        /* \"#utility.yul\":848:895   */\n      tag_132\n        /* \"#utility.yul\":891:894   */\n      dup10\n        /* \"#utility.yul\":879:889   */\n      dup3\n        /* \"#utility.yul\":848:895   */\n      tag_133\n      jump\t// in\n    tag_132:\n        /* \"#utility.yul\":843:846   */\n      dup6\n        /* \"#utility.yul\":836:896   */\n      mstore\n        /* \"#utility.yul\":925:929   */\n      0x20\n        /* \"#utility.yul\":920:923   */\n      dup6\n        /* \"#utility.yul\":916:930   */\n      add\n        /* \"#utility.yul\":909:930   */\n      swap5\n      pop\n        /* \"#utility.yul\":959:963   */\n      0x20\n        /* \"#utility.yul\":954:957   */\n      dup5\n        /* \"#utility.yul\":950:964   */\n      add\n        /* \"#utility.yul\":943:964   */\n      swap4\n      pop\n        /* \"#utility.yul\":581:974   */\n      pop\n      pop\n        /* \"#utility.yul\":568:569   */\n      0x01\n        /* \"#utility.yul\":565:566   */\n      dup2\n        /* \"#utility.yul\":561:570   */\n      add\n        /* \"#utility.yul\":556:570   */\n      swap1\n      pop\n        /* \"#utility.yul\":521:974   */\n      jump(tag_126)\n    tag_128:\n        /* \"#utility.yul\":525:539   */\n      pop\n        /* \"#utility.yul\":135:980   */\n      pop\n      pop\n        /* \"#utility.yul\":23:980   */\n      swap4\n      swap3\n      pop\n      pop\n      pop\n      jump\t// out\n        /* \"#utility.yul\":986:1398   */\n    tag_134:\n        /* \"#utility.yul\":1064:1069   */\n      0x00\n        /* \"#utility.yul\":1089:1155   */\n      tag_136\n        /* \"#utility.yul\":1105:1154   */\n      tag_137\n        /* \"#utility.yul\":1147:1153   */\n      dup5\n        /* \"#utility.yul\":1105:1154   */\n      tag_138\n      jump\t// in\n    tag_137:\n        /* \"#utility.yul\":1089:1155   */\n      tag_122\n      jump\t// in\n    tag_136:\n        /* \"#utility.yul\":1080:1155   */\n      swap1\n      pop\n        /* \"#utility.yul\":1178:1184   */\n      dup3\n        /* \"#utility.yul\":1171:1176   */\n      dup2\n        /* \"#utility.yul\":1164:1185   */\n      mstore\n        /* \"#utility.yul\":1216:1220   */\n      0x20\n        /* \"#utility.yul\":1209:1214   */\n      dup2\n        /* \"#utility.yul\":1205:1221   */\n      add\n        /* \"#utility.yul\":1254:1257   */\n      dup5\n        /* \"#utility.yul\":1245:1251   */\n      dup5\n        /* \"#utility.yul\":1240:1243   */\n      dup5\n        /* \"#utility.yul\":1236:1252   */\n      add\n        /* \"#utility.yul\":1233:1258   */\n      gt\n        /* \"#utility.yul\":1230:1342   */\n      iszero\n      tag_139\n      jumpi\n        /* \"#utility.yul\":1261:1340   */\n      tag_140\n      tag_141\n      jump\t// in\n    tag_140:\n        /* \"#utility.yul\":1230:1342   */\n    tag_139:\n        /* \"#utility.yul\":1351:1392   */\n      tag_142\n        /* \"#utility.yul\":1385:1391   */\n      dup5\n        /* \"#utility.yul\":1380:1383   */\n      dup3\n        /* \"#utility.yul\":1375:1378   */\n      dup6\n        /* \"#utility.yul\":1351:1392   */\n      tag_143\n      jump\t// in\n    tag_142:\n        /* \"#utility.yul\":1070:1398   */\n      pop\n        /* \"#utility.yul\":986:1398   */\n      swap4\n      swap3\n      pop\n      pop\n      pop\n      jump\t// out\n        /* \"#utility.yul\":1420:1810   */\n    tag_144:\n        /* \"#utility.yul\":1501:1506   */\n      0x00\n        /* \"#utility.yul\":1550:1553   */\n      dup3\n        /* \"#utility.yul\":1543:1547   */\n      0x1f\n        /* \"#utility.yul\":1535:1541   */\n      dup4\n        /* \"#utility.yul\":1531:1548   */\n      add\n        /* \"#utility.yul\":1527:1554   */\n      slt\n        /* \"#utility.yul\":1517:1639   */\n      tag_146\n      jumpi\n        /* \"#utility.yul\":1558:1637   */\n      tag_147\n      tag_131\n      jump\t// in\n    tag_147:\n        /* \"#utility.yul\":1517:1639   */\n    tag_146:\n        /* \"#utility.yul\":1675:1681   */\n      dup2\n        /* \"#utility.yul\":1662:1682   */\n      calldataload\n        /* \"#utility.yul\":1700:1804   */\n      tag_148\n        /* \"#utility.yul\":1800:1803   */\n      dup5\n        /* \"#utility.yul\":1792:1798   */\n      dup3\n        /* \"#utility.yul\":1785:1789   */\n      0x20\n        /* \"#utility.yul\":1777:1783   */\n      dup7\n        /* \"#utility.yul\":1773:1790   */\n      add\n        /* \"#utility.yul\":1700:1804   */\n      tag_117\n      jump\t// in\n    tag_148:\n        /* \"#utility.yul\":1691:1804   */\n      swap2\n      pop\n        /* \"#utility.yul\":1507:1810   */\n      pop\n        /* \"#utility.yul\":1420:1810   */\n      swap3\n      swap2\n      pop\n      pop\n      jump\t// out\n        /* \"#utility.yul\":1830:2170   */\n    tag_133:\n        /* \"#utility.yul\":1886:1891   */\n      0x00\n        /* \"#utility.yul\":1935:1938   */\n      dup3\n        /* \"#utility.yul\":1928:1932   */\n      0x1f\n        /* \"#utility.yul\":1920:1926   */\n      dup4\n        /* \"#utility.yul\":1916:1933   */\n      add\n        /* \"#utility.yul\":1912:1939   */\n      slt\n        /* \"#utility.yul\":1902:2024   */\n      tag_150\n      jumpi\n        /* \"#utility.yul\":1943:2022   */\n      tag_151\n      tag_131\n      jump\t// in\n    tag_151:\n        /* \"#utility.yul\":1902:2024   */\n    tag_150:\n        /* \"#utility.yul\":2060:2066   */\n      dup2\n        /* \"#utility.yul\":2047:2067   */\n      calldataload\n        /* \"#utility.yul\":2085:2164   */\n      tag_152\n        /* \"#utility.yul\":2160:2163   */\n      dup5\n        /* \"#utility.yul\":2152:2158   */\n      dup3\n        /* \"#utility.yul\":2145:2149   */\n      0x20\n        /* \"#utility.yul\":2137:2143   */\n      dup7\n        /* \"#utility.yul\":2133:2150   */\n      add\n        /* \"#utility.yul\":2085:2164   */\n      tag_134\n      jump\t// in\n    tag_152:\n        /* \"#utility.yul\":2076:2164   */\n      swap2\n      pop\n        /* \"#utility.yul\":1892:2170   */\n      pop\n        /* \"#utility.yul\":1830:2170   */\n      swap3\n      swap2\n      pop\n      pop\n      jump\t// out\n        /* \"#utility.yul\":2176:2315   */\n    tag_153:\n        /* \"#utility.yul\":2222:2227   */\n      0x00\n        /* \"#utility.yul\":2260:2266   */\n      dup2\n        /* \"#utility.yul\":2247:2267   */\n      calldataload\n        /* \"#utility.yul\":2238:2267   */\n      swap1\n      pop\n        /* \"#utility.yul\":2276:2309   */\n      tag_155\n        /* \"#utility.yul\":2303:2308   */\n      dup2\n        /* \"#utility.yul\":2276:2309   */\n      tag_156\n      jump\t// in\n    tag_155:\n        /* \"#utility.yul\":2176:2315   */\n      swap3\n      swap2\n      pop\n      pop\n      jump\t// out\n        /* \"#utility.yul\":2321:5452   */\n    tag_13:\n        /* \"#utility.yul\":2566:2572   */\n      0x00\n        /* \"#utility.yul\":2574:2580   */\n      dup1\n        /* \"#utility.yul\":2582:2588   */\n      0x00\n        /* \"#utility.yul\":2590:2596   */\n      dup1\n        /* \"#utility.yul\":2598:2604   */\n      0x00\n        /* \"#utility.yul\":2606:2612   */\n      dup1\n        /* \"#utility.yul\":2614:2620   */\n      0x00\n        /* \"#utility.yul\":2622:2628   */\n      dup1\n        /* \"#utility.yul\":2630:2636   */\n      0x00\n        /* \"#utility.yul\":2638:2644   */\n      dup1\n        /* \"#utility.yul\":2687:2690   */\n      0x0140\n        /* \"#utility.yul\":2675:2684   */\n      dup12\n        /* \"#utility.yul\":2666:2673   */\n      dup14\n        /* \"#utility.yul\":2662:2685   */\n      sub\n        /* \"#utility.yul\":2658:2691   */\n      slt\n        /* \"#utility.yul\":2655:2775   */\n      iszero\n      tag_158\n      jumpi\n        /* \"#utility.yul\":2694:2773   */\n      tag_159\n      tag_160\n      jump\t// in\n    tag_159:\n        /* \"#utility.yul\":2655:2775   */\n    tag_158:\n        /* \"#utility.yul\":2842:2843   */\n      0x00\n        /* \"#utility.yul\":2831:2840   */\n      dup12\n        /* \"#utility.yul\":2827:2844   */\n      add\n        /* \"#utility.yul\":2814:2845   */\n      calldataload\n        /* \"#utility.yul\":2872:2890   */\n      0xffffffffffffffff\n        /* \"#utility.yul\":2864:2870   */\n      dup2\n        /* \"#utility.yul\":2861:2891   */\n      gt\n        /* \"#utility.yul\":2858:2975   */\n      iszero\n      tag_161\n      jumpi\n        /* \"#utility.yul\":2894:2973   */\n      tag_162\n      tag_163\n      jump\t// in\n    tag_162:\n        /* \"#utility.yul\":2858:2975   */\n    tag_161:\n        /* \"#utility.yul\":2999:3062   */\n      tag_164\n        /* \"#utility.yul\":3054:3061   */\n      dup14\n        /* \"#utility.yul\":3045:3051   */\n      dup3\n        /* \"#utility.yul\":3034:3043   */\n      dup15\n        /* \"#utility.yul\":3030:3052   */\n      add\n        /* \"#utility.yul\":2999:3062   */\n      tag_133\n      jump\t// in\n    tag_164:\n        /* \"#utility.yul\":2989:3062   */\n      swap11\n      pop\n        /* \"#utility.yul\":2785:3072   */\n      pop\n        /* \"#utility.yul\":3139:3141   */\n      0x20\n        /* \"#utility.yul\":3128:3137   */\n      dup12\n        /* \"#utility.yul\":3124:3142   */\n      add\n        /* \"#utility.yul\":3111:3143   */\n      calldataload\n        /* \"#utility.yul\":3170:3188   */\n      0xffffffffffffffff\n        /* \"#utility.yul\":3162:3168   */\n      dup2\n        /* \"#utility.yul\":3159:3189   */\n      gt\n        /* \"#utility.yul\":3156:3273   */\n      iszero\n      tag_165\n      jumpi\n        /* \"#utility.yul\":3192:3271   */\n      tag_166\n      tag_163\n      jump\t// in\n    tag_166:\n        /* \"#utility.yul\":3156:3273   */\n    tag_165:\n        /* \"#utility.yul\":3297:3360   */\n      tag_167\n        /* \"#utility.yul\":3352:3359   */\n      dup14\n        /* \"#utility.yul\":3343:3349   */\n      dup3\n        /* \"#utility.yul\":3332:3341   */\n      dup15\n        /* \"#utility.yul\":3328:3350   */\n      add\n        /* \"#utility.yul\":3297:3360   */\n      tag_133\n      jump\t// in\n    tag_167:\n        /* \"#utility.yul\":3287:3360   */\n      swap10\n      pop\n        /* \"#utility.yul\":3082:3370   */\n      pop\n        /* \"#utility.yul\":3437:3439   */\n      0x40\n        /* \"#utility.yul\":3426:3435   */\n      dup12\n        /* \"#utility.yul\":3422:3440   */\n      add\n        /* \"#utility.yul\":3409:3441   */\n      calldataload\n        /* \"#utility.yul\":3468:3486   */\n      0xffffffffffffffff\n        /* \"#utility.yul\":3460:3466   */\n      dup2\n        /* \"#utility.yul\":3457:3487   */\n      gt\n        /* \"#utility.yul\":3454:3571   */\n      iszero\n      tag_168\n      jumpi\n        /* \"#utility.yul\":3490:3569   */\n      tag_169\n      tag_163\n      jump\t// in\n    tag_169:\n        /* \"#utility.yul\":3454:3571   */\n    tag_168:\n        /* \"#utility.yul\":3595:3658   */\n      tag_170\n        /* \"#utility.yul\":3650:3657   */\n      dup14\n        /* \"#utility.yul\":3641:3647   */\n      dup3\n        /* \"#utility.yul\":3630:3639   */\n      dup15\n        /* \"#utility.yul\":3626:3648   */\n      add\n        /* \"#utility.yul\":3595:3658   */\n      tag_133\n      jump\t// in\n    tag_170:\n        /* \"#utility.yul\":3585:3658   */\n      swap9\n      pop\n        /* \"#utility.yul\":3380:3668   */\n      pop\n        /* \"#utility.yul\":3735:3737   */\n      0x60\n        /* \"#utility.yul\":3724:3733   */\n      dup12\n        /* \"#utility.yul\":3720:3738   */\n      add\n        /* \"#utility.yul\":3707:3739   */\n      calldataload\n        /* \"#utility.yul\":3766:3784   */\n      0xffffffffffffffff\n        /* \"#utility.yul\":3758:3764   */\n      dup2\n        /* \"#utility.yul\":3755:3785   */\n      gt\n        /* \"#utility.yul\":3752:3869   */\n      iszero\n      tag_171\n      jumpi\n        /* \"#utility.yul\":3788:3867   */\n      tag_172\n      tag_163\n      jump\t// in\n    tag_172:\n        /* \"#utility.yul\":3752:3869   */\n    tag_171:\n        /* \"#utility.yul\":3893:3956   */\n      tag_173\n        /* \"#utility.yul\":3948:3955   */\n      dup14\n        /* \"#utility.yul\":3939:3945   */\n      dup3\n        /* \"#utility.yul\":3928:3937   */\n      dup15\n        /* \"#utility.yul\":3924:3946   */\n      add\n        /* \"#utility.yul\":3893:3956   */\n      tag_133\n      jump\t// in\n    tag_173:\n        /* \"#utility.yul\":3883:3956   */\n      swap8\n      pop\n        /* \"#utility.yul\":3678:3966   */\n      pop\n        /* \"#utility.yul\":4033:4036   */\n      0x80\n        /* \"#utility.yul\":4022:4031   */\n      dup12\n        /* \"#utility.yul\":4018:4037   */\n      add\n        /* \"#utility.yul\":4005:4038   */\n      calldataload\n        /* \"#utility.yul\":4065:4083   */\n      0xffffffffffffffff\n        /* \"#utility.yul\":4057:4063   */\n      dup2\n        /* \"#utility.yul\":4054:4084   */\n      gt\n        /* \"#utility.yul\":4051:4168   */\n      iszero\n      tag_174\n      jumpi\n        /* \"#utility.yul\":4087:4166   */\n      tag_175\n      tag_163\n      jump\t// in\n    tag_175:\n        /* \"#utility.yul\":4051:4168   */\n    tag_174:\n        /* \"#utility.yul\":4192:4255   */\n      tag_176\n        /* \"#utility.yul\":4247:4254   */\n      dup14\n        /* \"#utility.yul\":4238:4244   */\n      dup3\n        /* \"#utility.yul\":4227:4236   */\n      dup15\n        /* \"#utility.yul\":4223:4245   */\n      add\n        /* \"#utility.yul\":4192:4255   */\n      tag_133\n      jump\t// in\n    tag_176:\n        /* \"#utility.yul\":4182:4255   */\n      swap7\n      pop\n        /* \"#utility.yul\":3976:4265   */\n      pop\n        /* \"#utility.yul\":4332:4335   */\n      0xa0\n        /* \"#utility.yul\":4321:4330   */\n      dup12\n        /* \"#utility.yul\":4317:4336   */\n      add\n        /* \"#utility.yul\":4304:4337   */\n      calldataload\n        /* \"#utility.yul\":4364:4382   */\n      0xffffffffffffffff\n        /* \"#utility.yul\":4356:4362   */\n      dup2\n        /* \"#utility.yul\":4353:4383   */\n      gt\n        /* \"#utility.yul\":4350:4467   */\n      iszero\n      tag_177\n      jumpi\n        /* \"#utility.yul\":4386:4465   */\n      tag_178\n      tag_163\n      jump\t// in\n    tag_178:\n        /* \"#utility.yul\":4350:4467   */\n    tag_177:\n        /* \"#utility.yul\":4491:4554   */\n      tag_179\n        /* \"#utility.yul\":4546:4553   */\n      dup14\n        /* \"#utility.yul\":4537:4543   */\n      dup3\n        /* \"#utility.yul\":4526:4535   */\n      dup15\n        /* \"#utility.yul\":4522:4544   */\n      add\n        /* \"#utility.yul\":4491:4554   */\n      tag_133\n      jump\t// in\n    tag_179:\n        /* \"#utility.yul\":4481:4554   */\n      swap6\n      pop\n        /* \"#utility.yul\":4275:4564   */\n      pop\n        /* \"#utility.yul\":4631:4634   */\n      0xc0\n        /* \"#utility.yul\":4620:4629   */\n      dup12\n        /* \"#utility.yul\":4616:4635   */\n      add\n        /* \"#utility.yul\":4603:4636   */\n      calldataload\n        /* \"#utility.yul\":4663:4681   */\n      0xffffffffffffffff\n        /* \"#utility.yul\":4655:4661   */\n      dup2\n        /* \"#utility.yul\":4652:4682   */\n      gt\n        /* \"#utility.yul\":4649:4766   */\n      iszero\n      tag_180\n      jumpi\n        /* \"#utility.yul\":4685:4764   */\n      tag_181\n      tag_163\n      jump\t// in\n    tag_181:\n        /* \"#utility.yul\":4649:4766   */\n    tag_180:\n        /* \"#utility.yul\":4790:4853   */\n      tag_182\n        /* \"#utility.yul\":4845:4852   */\n      dup14\n        /* \"#utility.yul\":4836:4842   */\n      dup3\n        /* \"#utility.yul\":4825:4834   */\n      dup15\n        /* \"#utility.yul\":4821:4843   */\n      add\n        /* \"#utility.yul\":4790:4853   */\n      tag_133\n      jump\t// in\n    tag_182:\n        /* \"#utility.yul\":4780:4853   */\n      swap5\n      pop\n        /* \"#utility.yul\":4574:4863   */\n      pop\n        /* \"#utility.yul\":4902:4905   */\n      0xe0\n        /* \"#utility.yul\":4929:4982   */\n      tag_183\n        /* \"#utility.yul\":4974:4981   */\n      dup14\n        /* \"#utility.yul\":4965:4971   */\n      dup3\n        /* \"#utility.yul\":4954:4963   */\n      dup15\n        /* \"#utility.yul\":4950:4972   */\n      add\n        /* \"#utility.yul\":4929:4982   */\n      tag_153\n      jump\t// in\n    tag_183:\n        /* \"#utility.yul\":4919:4982   */\n      swap4\n      pop\n        /* \"#utility.yul\":4873:4992   */\n      pop\n        /* \"#utility.yul\":5031:5034   */\n      0x0100\n        /* \"#utility.yul\":5058:5111   */\n      tag_184\n        /* \"#utility.yul\":5103:5110   */\n      dup14\n        /* \"#utility.yul\":5094:5100   */\n      dup3\n        /* \"#utility.yul\":5083:5092   */\n      dup15\n        /* \"#utility.yul\":5079:5101   */\n      add\n        /* \"#utility.yul\":5058:5111   */\n      tag_153\n      jump\t// in\n    tag_184:\n        /* \"#utility.yul\":5048:5111   */\n      swap3\n      pop\n        /* \"#utility.yul\":5002:5121   */\n      pop\n        /* \"#utility.yul\":5188:5191   */\n      0x0120\n        /* \"#utility.yul\":5177:5186   */\n      dup12\n        /* \"#utility.yul\":5173:5192   */\n      add\n        /* \"#utility.yul\":5160:5193   */\n      calldataload\n        /* \"#utility.yul\":5220:5238   */\n      0xffffffffffffffff\n        /* \"#utility.yul\":5212:5218   */\n      dup2\n        /* \"#utility.yul\":5209:5239   */\n      gt\n        /* \"#utility.yul\":5206:5323   */\n      iszero\n      tag_185\n      jumpi\n        /* \"#utility.yul\":5242:5321   */\n      tag_186\n      tag_163\n      jump\t// in\n    tag_186:\n        /* \"#utility.yul\":5206:5323   */\n    tag_185:\n        /* \"#utility.yul\":5347:5435   */\n      tag_187\n        /* \"#utility.yul\":5427:5434   */\n      dup14\n        /* \"#utility.yul\":5418:5424   */\n      dup3\n        /* \"#utility.yul\":5407:5416   */\n      dup15\n        /* \"#utility.yul\":5403:5425   */\n      add\n        /* \"#utility.yul\":5347:5435   */\n      tag_144\n      jump\t// in\n    tag_187:\n        /* \"#utility.yul\":5337:5435   */\n      swap2\n      pop\n        /* \"#utility.yul\":5131:5445   */\n      pop\n        /* \"#utility.yul\":2321:5452   */\n      swap3\n      swap6\n      swap9\n      swap12\n      swap2\n      swap5\n      swap8\n      swap11\n      pop\n      swap3\n      swap6\n      swap9\n      pop\n      jump\t// out\n        /* \"#utility.yul\":5458:5787   */\n    tag_23:\n        /* \"#utility.yul\":5517:5523   */\n      0x00\n        /* \"#utility.yul\":5566:5568   */\n      0x20\n        /* \"#utility.yul\":5554:5563   */\n      dup3\n        /* \"#utility.yul\":5545:5552   */\n      dup5\n        /* \"#utility.yul\":5541:5564   */\n      sub\n        /* \"#utility.yul\":5537:5569   */\n      slt\n        /* \"#utility.yul\":5534:5653   */\n      iszero\n      tag_189\n      jumpi\n        /* \"#utility.yul\":5572:5651   */\n      tag_190\n      tag_160\n      jump\t// in\n    tag_190:\n        /* \"#utility.yul\":5534:5653   */\n    tag_189:\n        /* \"#utility.yul\":5692:5693   */\n      0x00\n        /* \"#utility.yul\":5717:5770   */\n      tag_191\n        /* \"#utility.yul\":5762:5769   */\n      dup5\n        /* \"#utility.yul\":5753:5759   */\n      dup3\n        /* \"#utility.yul\":5742:5751   */\n      dup6\n        /* \"#utility.yul\":5738:5760   */\n      add\n        /* \"#utility.yul\":5717:5770   */\n      tag_153\n      jump\t// in\n    tag_191:\n        /* \"#utility.yul\":5707:5770   */\n      swap2\n      pop\n        /* \"#utility.yul\":5663:5780   */\n      pop\n        /* \"#utility.yul\":5458:5787   */\n      swap3\n      swap2\n      pop\n      pop\n      jump\t// out\n        /* \"#utility.yul\":5793:6497   */\n    tag_8:\n        /* \"#utility.yul\":5896:5902   */\n      0x00\n        /* \"#utility.yul\":5904:5910   */\n      dup1\n        /* \"#utility.yul\":5953:5955   */\n      0x40\n        /* \"#utility.yul\":5941:5950   */\n      dup4\n        /* \"#utility.yul\":5932:5939   */\n      dup6\n        /* \"#utility.yul\":5928:5951   */\n      sub\n        /* \"#utility.yul\":5924:5956   */\n      slt\n        /* \"#utility.yul\":5921:6040   */\n      iszero\n      tag_193\n      jumpi\n        /* \"#utility.yul\":5959:6038   */\n      tag_194\n      tag_160\n      jump\t// in\n    tag_194:\n        /* \"#utility.yul\":5921:6040   */\n    tag_193:\n        /* \"#utility.yul\":6079:6080   */\n      0x00\n        /* \"#utility.yul\":6104:6157   */\n      tag_195\n        /* \"#utility.yul\":6149:6156   */\n      dup6\n        /* \"#utility.yul\":6140:6146   */\n      dup3\n        /* \"#utility.yul\":6129:6138   */\n      dup7\n        /* \"#utility.yul\":6125:6147   */\n      add\n        /* \"#utility.yul\":6104:6157   */\n      tag_153\n      jump\t// in\n    tag_195:\n        /* \"#utility.yul\":6094:6157   */\n      swap3\n      pop\n        /* \"#utility.yul\":6050:6167   */\n      pop\n        /* \"#utility.yul\":6234:6236   */\n      0x20\n        /* \"#utility.yul\":6223:6232   */\n      dup4\n        /* \"#utility.yul\":6219:6237   */\n      add\n        /* \"#utility.yul\":6206:6238   */\n      calldataload\n        /* \"#utility.yul\":6265:6283   */\n      0xffffffffffffffff\n        /* \"#utility.yul\":6257:6263   */\n      dup2\n        /* \"#utility.yul\":6254:6284   */\n      gt\n        /* \"#utility.yul\":6251:6368   */\n      iszero\n      tag_196\n      jumpi\n        /* \"#utility.yul\":6287:6366   */\n      tag_197\n      tag_163\n      jump\t// in\n    tag_197:\n        /* \"#utility.yul\":6251:6368   */\n    tag_196:\n        /* \"#utility.yul\":6392:6480   */\n      tag_198\n        /* \"#utility.yul\":6472:6479   */\n      dup6\n        /* \"#utility.yul\":6463:6469   */\n      dup3\n        /* \"#utility.yul\":6452:6461   */\n      dup7\n        /* \"#utility.yul\":6448:6470   */\n      add\n        /* \"#utility.yul\":6392:6480   */\n      tag_144\n      jump\t// in\n    tag_198:\n        /* \"#utility.yul\":6382:6480   */\n      swap2\n      pop\n        /* \"#utility.yul\":6177:6490   */\n      pop\n        /* \"#utility.yul\":5793:6497   */\n      swap3\n      pop\n      swap3\n      swap1\n      pop\n      jump\t// out\n        /* \"#utility.yul\":6503:6699   */\n    tag_199:\n        /* \"#utility.yul\":6592:6602   */\n      0x00\n        /* \"#utility.yul\":6627:6693   */\n      tag_201\n        /* \"#utility.yul\":6689:6692   */\n      dup4\n        /* \"#utility.yul\":6681:6687   */\n      dup4\n        /* \"#utility.yul\":6627:6693   */\n      tag_202\n      jump\t// in\n    tag_201:\n        /* \"#utility.yul\":6613:6693   */\n      swap1\n      pop\n        /* \"#utility.yul\":6503:6699   */\n      swap3\n      swap2\n      pop\n      pop\n      jump\t// out\n        /* \"#utility.yul\":6705:6823   */\n    tag_203:\n        /* \"#utility.yul\":6792:6816   */\n      tag_205\n        /* \"#utility.yul\":6810:6815   */\n      dup2\n        /* \"#utility.yul\":6792:6816   */\n      tag_206\n      jump\t// in\n    tag_205:\n        /* \"#utility.yul\":6787:6790   */\n      dup3\n        /* \"#utility.yul\":6780:6817   */\n      mstore\n        /* \"#utility.yul\":6705:6823   */\n      pop\n      pop\n      jump\t// out\n        /* \"#utility.yul\":6857:7848   */\n    tag_207:\n        /* \"#utility.yul\":6996:6999   */\n      0x00\n        /* \"#utility.yul\":7025:7089   */\n      tag_209\n        /* \"#utility.yul\":7083:7088   */\n      dup3\n        /* \"#utility.yul\":7025:7089   */\n      tag_210\n      jump\t// in\n    tag_209:\n        /* \"#utility.yul\":7105:7201   */\n      tag_211\n        /* \"#utility.yul\":7194:7200   */\n      dup2\n        /* \"#utility.yul\":7189:7192   */\n      dup6\n        /* \"#utility.yul\":7105:7201   */\n      tag_212\n      jump\t// in\n    tag_211:\n        /* \"#utility.yul\":7098:7201   */\n      swap4\n      pop\n        /* \"#utility.yul\":7227:7230   */\n      dup4\n        /* \"#utility.yul\":7272:7276   */\n      0x20\n        /* \"#utility.yul\":7264:7270   */\n      dup3\n        /* \"#utility.yul\":7260:7277   */\n      mul\n        /* \"#utility.yul\":7255:7258   */\n      dup6\n        /* \"#utility.yul\":7251:7278   */\n      add\n        /* \"#utility.yul\":7302:7368   */\n      tag_213\n        /* \"#utility.yul\":7362:7367   */\n      dup6\n        /* \"#utility.yul\":7302:7368   */\n      tag_214\n      jump\t// in\n    tag_213:\n        /* \"#utility.yul\":7391:7398   */\n      dup1\n        /* \"#utility.yul\":7422:7423   */\n      0x00\n        /* \"#utility.yul\":7407:7803   */\n    tag_215:\n        /* \"#utility.yul\":7432:7438   */\n      dup6\n        /* \"#utility.yul\":7429:7430   */\n      dup2\n        /* \"#utility.yul\":7426:7439   */\n      lt\n        /* \"#utility.yul\":7407:7803   */\n      iszero\n      tag_217\n      jumpi\n        /* \"#utility.yul\":7503:7512   */\n      dup5\n        /* \"#utility.yul\":7497:7501   */\n      dup5\n        /* \"#utility.yul\":7493:7513   */\n      sub\n        /* \"#utility.yul\":7488:7491   */\n      dup10\n        /* \"#utility.yul\":7481:7514   */\n      mstore\n        /* \"#utility.yul\":7554:7560   */\n      dup2\n        /* \"#utility.yul\":7548:7561   */\n      mload\n        /* \"#utility.yul\":7582:7666   */\n      tag_218\n        /* \"#utility.yul\":7661:7665   */\n      dup6\n        /* \"#utility.yul\":7646:7659   */\n      dup3\n        /* \"#utility.yul\":7582:7666   */\n      tag_199\n      jump\t// in\n    tag_218:\n        /* \"#utility.yul\":7574:7666   */\n      swap5\n      pop\n        /* \"#utility.yul\":7689:7759   */\n      tag_219\n        /* \"#utility.yul\":7752:7758   */\n      dup4\n        /* \"#utility.yul\":7689:7759   */\n      tag_220\n      jump\t// in\n    tag_219:\n        /* \"#utility.yul\":7679:7759   */\n      swap3\n      pop\n        /* \"#utility.yul\":7788:7792   */\n      0x20\n        /* \"#utility.yul\":7783:7786   */\n      dup11\n        /* \"#utility.yul\":7779:7793   */\n      add\n        /* \"#utility.yul\":7772:7793   */\n      swap10\n      pop\n        /* \"#utility.yul\":7467:7803   */\n      pop\n        /* \"#utility.yul\":7454:7455   */\n      0x01\n        /* \"#utility.yul\":7451:7452   */\n      dup2\n        /* \"#utility.yul\":7447:7456   */\n      add\n        /* \"#utility.yul\":7442:7456   */\n      swap1\n      pop\n        /* \"#utility.yul\":7407:7803   */\n      jump(tag_215)\n    tag_217:\n        /* \"#utility.yul\":7411:7425   */\n      pop\n        /* \"#utility.yul\":7819:7823   */\n      dup3\n        /* \"#utility.yul\":7812:7823   */\n      swap8\n      pop\n        /* \"#utility.yul\":7839:7842   */\n      dup8\n        /* \"#utility.yul\":7832:7842   */\n      swap6\n      pop\n        /* \"#utility.yul\":7001:7848   */\n      pop\n      pop\n      pop\n      pop\n      pop\n        /* \"#utility.yul\":6857:7848   */\n      swap3\n      swap2\n      pop\n      pop\n      jump\t// out\n        /* \"#utility.yul\":7854:8198   */\n    tag_202:\n        /* \"#utility.yul\":7932:7935   */\n      0x00\n        /* \"#utility.yul\":7960:7999   */\n      tag_222\n        /* \"#utility.yul\":7993:7998   */\n      dup3\n        /* \"#utility.yul\":7960:7999   */\n      tag_223\n      jump\t// in\n    tag_222:\n        /* \"#utility.yul\":8015:8076   */\n      tag_224\n        /* \"#utility.yul\":8069:8075   */\n      dup2\n        /* \"#utility.yul\":8064:8067   */\n      dup6\n        /* \"#utility.yul\":8015:8076   */\n      tag_225\n      jump\t// in\n    tag_224:\n        /* \"#utility.yul\":8008:8076   */\n      swap4\n      pop\n        /* \"#utility.yul\":8085:8137   */\n      tag_226\n        /* \"#utility.yul\":8130:8136   */\n      dup2\n        /* \"#utility.yul\":8125:8128   */\n      dup6\n        /* \"#utility.yul\":8118:8122   */\n      0x20\n        /* \"#utility.yul\":8111:8116   */\n      dup7\n        /* \"#utility.yul\":8107:8123   */\n      add\n        /* \"#utility.yul\":8085:8137   */\n      tag_227\n      jump\t// in\n    tag_226:\n        /* \"#utility.yul\":8162:8191   */\n      tag_228\n        /* \"#utility.yul\":8184:8190   */\n      dup2\n        /* \"#utility.yul\":8162:8191   */\n      tag_229\n      jump\t// in\n    tag_228:\n        /* \"#utility.yul\":8157:8160   */\n      dup5\n        /* \"#utility.yul\":8153:8192   */\n      add\n        /* \"#utility.yul\":8146:8192   */\n      swap2\n      pop\n        /* \"#utility.yul\":7936:8198   */\n      pop\n        /* \"#utility.yul\":7854:8198   */\n      swap3\n      swap2\n      pop\n      pop\n      jump\t// out\n        /* \"#utility.yul\":8204:8568   */\n    tag_230:\n        /* \"#utility.yul\":8292:8295   */\n      0x00\n        /* \"#utility.yul\":8320:8359   */\n      tag_232\n        /* \"#utility.yul\":8353:8358   */\n      dup3\n        /* \"#utility.yul\":8320:8359   */\n      tag_223\n      jump\t// in\n    tag_232:\n        /* \"#utility.yul\":8375:8446   */\n      tag_233\n        /* \"#utility.yul\":8439:8445   */\n      dup2\n        /* \"#utility.yul\":8434:8437   */\n      dup6\n        /* \"#utility.yul\":8375:8446   */\n      tag_234\n      jump\t// in\n    tag_233:\n        /* \"#utility.yul\":8368:8446   */\n      swap4\n      pop\n        /* \"#utility.yul\":8455:8507   */\n      tag_235\n        /* \"#utility.yul\":8500:8506   */\n      dup2\n        /* \"#utility.yul\":8495:8498   */\n      dup6\n        /* \"#utility.yul\":8488:8492   */\n      0x20\n        /* \"#utility.yul\":8481:8486   */\n      dup7\n        /* \"#utility.yul\":8477:8493   */\n      add\n        /* \"#utility.yul\":8455:8507   */\n      tag_227\n      jump\t// in\n    tag_235:\n        /* \"#utility.yul\":8532:8561   */\n      tag_236\n        /* \"#utility.yul\":8554:8560   */\n      dup2\n        /* \"#utility.yul\":8532:8561   */\n      tag_229\n      jump\t// in\n    tag_236:\n        /* \"#utility.yul\":8527:8530   */\n      dup5\n        /* \"#utility.yul\":8523:8562   */\n      add\n        /* \"#utility.yul\":8516:8562   */\n      swap2\n      pop\n        /* \"#utility.yul\":8296:8568   */\n      pop\n        /* \"#utility.yul\":8204:8568   */\n      swap3\n      swap2\n      pop\n      pop\n      jump\t// out\n        /* \"#utility.yul\":8574:8951   */\n    tag_237:\n        /* \"#utility.yul\":8680:8683   */\n      0x00\n        /* \"#utility.yul\":8708:8747   */\n      tag_239\n        /* \"#utility.yul\":8741:8746   */\n      dup3\n        /* \"#utility.yul\":8708:8747   */\n      tag_223\n      jump\t// in\n    tag_239:\n        /* \"#utility.yul\":8763:8852   */\n      tag_240\n        /* \"#utility.yul\":8845:8851   */\n      dup2\n        /* \"#utility.yul\":8840:8843   */\n      dup6\n        /* \"#utility.yul\":8763:8852   */\n      tag_241\n      jump\t// in\n    tag_240:\n        /* \"#utility.yul\":8756:8852   */\n      swap4\n      pop\n        /* \"#utility.yul\":8861:8913   */\n      tag_242\n        /* \"#utility.yul\":8906:8912   */\n      dup2\n        /* \"#utility.yul\":8901:8904   */\n      dup6\n        /* \"#utility.yul\":8894:8898   */\n      0x20\n        /* \"#utility.yul\":8887:8892   */\n      dup7\n        /* \"#utility.yul\":8883:8899   */\n      add\n        /* \"#utility.yul\":8861:8913   */\n      tag_227\n      jump\t// in\n    tag_242:\n        /* \"#utility.yul\":8938:8944   */\n      dup1\n        /* \"#utility.yul\":8933:8936   */\n      dup5\n        /* \"#utility.yul\":8929:8945   */\n      add\n        /* \"#utility.yul\":8922:8945   */\n      swap2\n      pop\n        /* \"#utility.yul\":8684:8951   */\n      pop\n        /* \"#utility.yul\":8574:8951   */\n      swap3\n      swap2\n      pop\n      pop\n      jump\t// out\n        /* \"#utility.yul\":8981:9826   */\n    tag_243:\n        /* \"#utility.yul\":9084:9087   */\n      0x00\n        /* \"#utility.yul\":9121:9126   */\n      dup2\n        /* \"#utility.yul\":9115:9127   */\n      sload\n        /* \"#utility.yul\":9150:9186   */\n      tag_245\n        /* \"#utility.yul\":9176:9185   */\n      dup2\n        /* \"#utility.yul\":9150:9186   */\n      tag_92\n      jump\t// in\n    tag_245:\n        /* \"#utility.yul\":9202:9291   */\n      tag_246\n        /* \"#utility.yul\":9284:9290   */\n      dup2\n        /* \"#utility.yul\":9279:9282   */\n      dup7\n        /* \"#utility.yul\":9202:9291   */\n      tag_241\n      jump\t// in\n    tag_246:\n        /* \"#utility.yul\":9195:9291   */\n      swap5\n      pop\n        /* \"#utility.yul\":9322:9323   */\n      0x01\n        /* \"#utility.yul\":9311:9320   */\n      dup3\n        /* \"#utility.yul\":9307:9324   */\n      and\n        /* \"#utility.yul\":9338:9339   */\n      0x00\n        /* \"#utility.yul\":9333:9470   */\n      dup2\n      eq\n      tag_248\n      jumpi\n        /* \"#utility.yul\":9484:9485   */\n      0x01\n        /* \"#utility.yul\":9479:9820   */\n      dup2\n      eq\n      tag_249\n      jumpi\n        /* \"#utility.yul\":9300:9820   */\n      jump(tag_247)\n        /* \"#utility.yul\":9333:9470   */\n    tag_248:\n        /* \"#utility.yul\":9417:9421   */\n      0xff\n        /* \"#utility.yul\":9413:9422   */\n      not\n        /* \"#utility.yul\":9402:9411   */\n      dup4\n        /* \"#utility.yul\":9398:9423   */\n      and\n        /* \"#utility.yul\":9393:9396   */\n      dup7\n        /* \"#utility.yul\":9386:9424   */\n      mstore\n        /* \"#utility.yul\":9453:9459   */\n      dup2\n        /* \"#utility.yul\":9448:9451   */\n      dup7\n        /* \"#utility.yul\":9444:9460   */\n      add\n        /* \"#utility.yul\":9437:9460   */\n      swap4\n      pop\n        /* \"#utility.yul\":9333:9470   */\n      jump(tag_247)\n        /* \"#utility.yul\":9479:9820   */\n    tag_249:\n        /* \"#utility.yul\":9546:9584   */\n      tag_250\n        /* \"#utility.yul\":9578:9583   */\n      dup6\n        /* \"#utility.yul\":9546:9584   */\n      tag_251\n      jump\t// in\n    tag_250:\n        /* \"#utility.yul\":9606:9607   */\n      0x00\n        /* \"#utility.yul\":9620:9774   */\n    tag_252:\n        /* \"#utility.yul\":9634:9640   */\n      dup4\n        /* \"#utility.yul\":9631:9632   */\n      dup2\n        /* \"#utility.yul\":9628:9641   */\n      lt\n        /* \"#utility.yul\":9620:9774   */\n      iszero\n      tag_254\n      jumpi\n        /* \"#utility.yul\":9708:9715   */\n      dup2\n        /* \"#utility.yul\":9702:9716   */\n      sload\n        /* \"#utility.yul\":9698:9699   */\n      dup2\n        /* \"#utility.yul\":9693:9696   */\n      dup10\n        /* \"#utility.yul\":9689:9700   */\n      add\n        /* \"#utility.yul\":9682:9717   */\n      mstore\n        /* \"#utility.yul\":9758:9759   */\n      0x01\n        /* \"#utility.yul\":9749:9756   */\n      dup3\n        /* \"#utility.yul\":9745:9760   */\n      add\n        /* \"#utility.yul\":9734:9760   */\n      swap2\n      pop\n        /* \"#utility.yul\":9656:9660   */\n      0x20\n        /* \"#utility.yul\":9653:9654   */\n      dup2\n        /* \"#utility.yul\":9649:9661   */\n      add\n        /* \"#utility.yul\":9644:9661   */\n      swap1\n      pop\n        /* \"#utility.yul\":9620:9774   */\n      jump(tag_252)\n    tag_254:\n        /* \"#utility.yul\":9803:9809   */\n      dup4\n        /* \"#utility.yul\":9798:9801   */\n      dup9\n        /* \"#utility.yul\":9794:9810   */\n      add\n        /* \"#utility.yul\":9787:9810   */\n      swap6\n      pop\n        /* \"#utility.yul\":9486:9820   */\n      pop\n      pop\n        /* \"#utility.yul\":9300:9820   */\n    tag_247:\n      pop\n        /* \"#utility.yul\":9088:9826   */\n      pop\n      pop\n        /* \"#utility.yul\":8981:9826   */\n      swap3\n      swap2\n      pop\n      pop\n      jump\t// out\n        /* \"#utility.yul\":9832:10198   */\n    tag_255:\n        /* \"#utility.yul\":9974:9977   */\n      0x00\n        /* \"#utility.yul\":9995:10062   */\n      tag_257\n        /* \"#utility.yul\":10059:10061   */\n      0x0e\n        /* \"#utility.yul\":10054:10057   */\n      dup4\n        /* \"#utility.yul\":9995:10062   */\n      tag_234\n      jump\t// in\n    tag_257:\n        /* \"#utility.yul\":9988:10062   */\n      swap2\n      pop\n        /* \"#utility.yul\":10071:10164   */\n      tag_258\n        /* \"#utility.yul\":10160:10163   */\n      dup3\n        /* \"#utility.yul\":10071:10164   */\n      tag_259\n      jump\t// in\n    tag_258:\n        /* \"#utility.yul\":10189:10191   */\n      0x20\n        /* \"#utility.yul\":10184:10187   */\n      dup3\n        /* \"#utility.yul\":10180:10192   */\n      add\n        /* \"#utility.yul\":10173:10192   */\n      swap1\n      pop\n        /* \"#utility.yul\":9832:10198   */\n      swap2\n      swap1\n      pop\n      jump\t// out\n        /* \"#utility.yul\":10204:10570   */\n    tag_260:\n        /* \"#utility.yul\":10346:10349   */\n      0x00\n        /* \"#utility.yul\":10367:10434   */\n      tag_262\n        /* \"#utility.yul\":10431:10433   */\n      0x40\n        /* \"#utility.yul\":10426:10429   */\n      dup4\n        /* \"#utility.yul\":10367:10434   */\n      tag_234\n      jump\t// in\n    tag_262:\n        /* \"#utility.yul\":10360:10434   */\n      swap2\n      pop\n        /* \"#utility.yul\":10443:10536   */\n      tag_263\n        /* \"#utility.yul\":10532:10535   */\n      dup3\n        /* \"#utility.yul\":10443:10536   */\n      tag_264\n      jump\t// in\n    tag_263:\n        /* \"#utility.yul\":10561:10563   */\n      0x40\n        /* \"#utility.yul\":10556:10559   */\n      dup3\n        /* \"#utility.yul\":10552:10564   */\n      add\n        /* \"#utility.yul\":10545:10564   */\n      swap1\n      pop\n        /* \"#utility.yul\":10204:10570   */\n      swap2\n      swap1\n      pop\n      jump\t// out\n        /* \"#utility.yul\":10576:10942   */\n    tag_265:\n        /* \"#utility.yul\":10718:10721   */\n      0x00\n        /* \"#utility.yul\":10739:10806   */\n      tag_267\n        /* \"#utility.yul\":10803:10805   */\n      0x37\n        /* \"#utility.yul\":10798:10801   */\n      dup4\n        /* \"#utility.yul\":10739:10806   */\n      tag_234\n      jump\t// in\n    tag_267:\n        /* \"#utility.yul\":10732:10806   */\n      swap2\n      pop\n        /* \"#utility.yul\":10815:10908   */\n      tag_268\n        /* \"#utility.yul\":10904:10907   */\n      dup3\n        /* \"#utility.yul\":10815:10908   */\n      tag_269\n      jump\t// in\n    tag_268:\n        /* \"#utility.yul\":10933:10935   */\n      0x40\n        /* \"#utility.yul\":10928:10931   */\n      dup3\n        /* \"#utility.yul\":10924:10936   */\n      add\n        /* \"#utility.yul\":10917:10936   */\n      swap1\n      pop\n        /* \"#utility.yul\":10576:10942   */\n      swap2\n      swap1\n      pop\n      jump\t// out\n        /* \"#utility.yul\":10948:11314   */\n    tag_270:\n        /* \"#utility.yul\":11090:11093   */\n      0x00\n        /* \"#utility.yul\":11111:11178   */\n      tag_272\n        /* \"#utility.yul\":11175:11177   */\n      0x21\n        /* \"#utility.yul\":11170:11173   */\n      dup4\n        /* \"#utility.yul\":11111:11178   */\n      tag_234\n      jump\t// in\n    tag_272:\n        /* \"#utility.yul\":11104:11178   */\n      swap2\n      pop\n        /* \"#utility.yul\":11187:11280   */\n      tag_273\n        /* \"#utility.yul\":11276:11279   */\n      dup3\n        /* \"#utility.yul\":11187:11280   */\n      tag_274\n      jump\t// in\n    tag_273:\n        /* \"#utility.yul\":11305:11307   */\n      0x40\n        /* \"#utility.yul\":11300:11303   */\n      dup3\n        /* \"#utility.yul\":11296:11308   */\n      add\n        /* \"#utility.yul\":11289:11308   */\n      swap1\n      pop\n        /* \"#utility.yul\":10948:11314   */\n      swap2\n      swap1\n      pop\n      jump\t// out\n        /* \"#utility.yul\":11320:11438   */\n    tag_275:\n        /* \"#utility.yul\":11407:11431   */\n      tag_277\n        /* \"#utility.yul\":11425:11430   */\n      dup2\n        /* \"#utility.yul\":11407:11431   */\n      tag_278\n      jump\t// in\n    tag_277:\n        /* \"#utility.yul\":11402:11405   */\n      dup3\n        /* \"#utility.yul\":11395:11432   */\n      mstore\n        /* \"#utility.yul\":11320:11438   */\n      pop\n      pop\n      jump\t// out\n        /* \"#utility.yul\":11444:11719   */\n    tag_82:\n        /* \"#utility.yul\":11576:11579   */\n      0x00\n        /* \"#utility.yul\":11598:11693   */\n      tag_280\n        /* \"#utility.yul\":11689:11692   */\n      dup3\n        /* \"#utility.yul\":11680:11686   */\n      dup5\n        /* \"#utility.yul\":11598:11693   */\n      tag_237\n      jump\t// in\n    tag_280:\n        /* \"#utility.yul\":11591:11693   */\n      swap2\n      pop\n        /* \"#utility.yul\":11710:11713   */\n      dup2\n        /* \"#utility.yul\":11703:11713   */\n      swap1\n      pop\n        /* \"#utility.yul\":11444:11719   */\n      swap3\n      swap2\n      pop\n      pop\n      jump\t// out\n        /* \"#utility.yul\":11725:11994   */\n    tag_87:\n        /* \"#utility.yul\":11854:11857   */\n      0x00\n        /* \"#utility.yul\":11876:11968   */\n      tag_282\n        /* \"#utility.yul\":11964:11967   */\n      dup3\n        /* \"#utility.yul\":11955:11961   */\n      dup5\n        /* \"#utility.yul\":11876:11968   */\n      tag_243\n      jump\t// in\n    tag_282:\n        /* \"#utility.yul\":11869:11968   */\n      swap2\n      pop\n        /* \"#utility.yul\":11985:11988   */\n      dup2\n        /* \"#utility.yul\":11978:11988   */\n      swap1\n      pop\n        /* \"#utility.yul\":11725:11994   */\n      swap3\n      swap2\n      pop\n      pop\n      jump\t// out\n        /* \"#utility.yul\":12000:12222   */\n    tag_19:\n        /* \"#utility.yul\":12093:12097   */\n      0x00\n        /* \"#utility.yul\":12131:12133   */\n      0x20\n        /* \"#utility.yul\":12120:12129   */\n      dup3\n        /* \"#utility.yul\":12116:12134   */\n      add\n        /* \"#utility.yul\":12108:12134   */\n      swap1\n      pop\n        /* \"#utility.yul\":12144:12215   */\n      tag_284\n        /* \"#utility.yul\":12212:12213   */\n      0x00\n        /* \"#utility.yul\":12201:12210   */\n      dup4\n        /* \"#utility.yul\":12197:12214   */\n      add\n        /* \"#utility.yul\":12188:12194   */\n      dup5\n        /* \"#utility.yul\":12144:12215   */\n      tag_203\n      jump\t// in\n    tag_284:\n        /* \"#utility.yul\":12000:12222   */\n      swap3\n      swap2\n      pop\n      pop\n      jump\t// out\n        /* \"#utility.yul\":12228:14501   */\n    tag_68:\n        /* \"#utility.yul\":12841:12845   */\n      0x00\n        /* \"#utility.yul\":12879:12882   */\n      0x0180\n        /* \"#utility.yul\":12868:12877   */\n      dup3\n        /* \"#utility.yul\":12864:12883   */\n      add\n        /* \"#utility.yul\":12856:12883   */\n      swap1\n      pop\n        /* \"#utility.yul\":12929:12938   */\n      dup2\n        /* \"#utility.yul\":12923:12927   */\n      dup2\n        /* \"#utility.yul\":12919:12939   */\n      sub\n        /* \"#utility.yul\":12915:12916   */\n      0x00\n        /* \"#utility.yul\":12904:12913   */\n      dup4\n        /* \"#utility.yul\":12900:12917   */\n      add\n        /* \"#utility.yul\":12893:12940   */\n      mstore\n        /* \"#utility.yul\":12957:13035   */\n      tag_286\n        /* \"#utility.yul\":13030:13034   */\n      dup2\n        /* \"#utility.yul\":13021:13027   */\n      dup16\n        /* \"#utility.yul\":12957:13035   */\n      tag_230\n      jump\t// in\n    tag_286:\n        /* \"#utility.yul\":12949:13035   */\n      swap1\n      pop\n        /* \"#utility.yul\":13082:13091   */\n      dup2\n        /* \"#utility.yul\":13076:13080   */\n      dup2\n        /* \"#utility.yul\":13072:13092   */\n      sub\n        /* \"#utility.yul\":13067:13069   */\n      0x20\n        /* \"#utility.yul\":13056:13065   */\n      dup4\n        /* \"#utility.yul\":13052:13070   */\n      add\n        /* \"#utility.yul\":13045:13093   */\n      mstore\n        /* \"#utility.yul\":13110:13188   */\n      tag_287\n        /* \"#utility.yul\":13183:13187   */\n      dup2\n        /* \"#utility.yul\":13174:13180   */\n      dup15\n        /* \"#utility.yul\":13110:13188   */\n      tag_230\n      jump\t// in\n    tag_287:\n        /* \"#utility.yul\":13102:13188   */\n      swap1\n      pop\n        /* \"#utility.yul\":13235:13244   */\n      dup2\n        /* \"#utility.yul\":13229:13233   */\n      dup2\n        /* \"#utility.yul\":13225:13245   */\n      sub\n        /* \"#utility.yul\":13220:13222   */\n      0x40\n        /* \"#utility.yul\":13209:13218   */\n      dup4\n        /* \"#utility.yul\":13205:13223   */\n      add\n        /* \"#utility.yul\":13198:13246   */\n      mstore\n        /* \"#utility.yul\":13263:13341   */\n      tag_288\n        /* \"#utility.yul\":13336:13340   */\n      dup2\n        /* \"#utility.yul\":13327:13333   */\n      dup14\n        /* \"#utility.yul\":13263:13341   */\n      tag_230\n      jump\t// in\n    tag_288:\n        /* \"#utility.yul\":13255:13341   */\n      swap1\n      pop\n        /* \"#utility.yul\":13388:13397   */\n      dup2\n        /* \"#utility.yul\":13382:13386   */\n      dup2\n        /* \"#utility.yul\":13378:13398   */\n      sub\n        /* \"#utility.yul\":13373:13375   */\n      0x60\n        /* \"#utility.yul\":13362:13371   */\n      dup4\n        /* \"#utility.yul\":13358:13376   */\n      add\n        /* \"#utility.yul\":13351:13399   */\n      mstore\n        /* \"#utility.yul\":13416:13494   */\n      tag_289\n        /* \"#utility.yul\":13489:13493   */\n      dup2\n        /* \"#utility.yul\":13480:13486   */\n      dup13\n        /* \"#utility.yul\":13416:13494   */\n      tag_230\n      jump\t// in\n    tag_289:\n        /* \"#utility.yul\":13408:13494   */\n      swap1\n      pop\n        /* \"#utility.yul\":13542:13551   */\n      dup2\n        /* \"#utility.yul\":13536:13540   */\n      dup2\n        /* \"#utility.yul\":13532:13552   */\n      sub\n        /* \"#utility.yul\":13526:13529   */\n      0x80\n        /* \"#utility.yul\":13515:13524   */\n      dup4\n        /* \"#utility.yul\":13511:13530   */\n      add\n        /* \"#utility.yul\":13504:13553   */\n      mstore\n        /* \"#utility.yul\":13570:13648   */\n      tag_290\n        /* \"#utility.yul\":13643:13647   */\n      dup2\n        /* \"#utility.yul\":13634:13640   */\n      dup12\n        /* \"#utility.yul\":13570:13648   */\n      tag_230\n      jump\t// in\n    tag_290:\n        /* \"#utility.yul\":13562:13648   */\n      swap1\n      pop\n        /* \"#utility.yul\":13696:13705   */\n      dup2\n        /* \"#utility.yul\":13690:13694   */\n      dup2\n        /* \"#utility.yul\":13686:13706   */\n      sub\n        /* \"#utility.yul\":13680:13683   */\n      0xa0\n        /* \"#utility.yul\":13669:13678   */\n      dup4\n        /* \"#utility.yul\":13665:13684   */\n      add\n        /* \"#utility.yul\":13658:13707   */\n      mstore\n        /* \"#utility.yul\":13724:13802   */\n      tag_291\n        /* \"#utility.yul\":13797:13801   */\n      dup2\n        /* \"#utility.yul\":13788:13794   */\n      dup11\n        /* \"#utility.yul\":13724:13802   */\n      tag_230\n      jump\t// in\n    tag_291:\n        /* \"#utility.yul\":13716:13802   */\n      swap1\n      pop\n        /* \"#utility.yul\":13850:13859   */\n      dup2\n        /* \"#utility.yul\":13844:13848   */\n      dup2\n        /* \"#utility.yul\":13840:13860   */\n      sub\n        /* \"#utility.yul\":13834:13837   */\n      0xc0\n        /* \"#utility.yul\":13823:13832   */\n      dup4\n        /* \"#utility.yul\":13819:13838   */\n      add\n        /* \"#utility.yul\":13812:13861   */\n      mstore\n        /* \"#utility.yul\":13878:13956   */\n      tag_292\n        /* \"#utility.yul\":13951:13955   */\n      dup2\n        /* \"#utility.yul\":13942:13948   */\n      dup10\n        /* \"#utility.yul\":13878:13956   */\n      tag_230\n      jump\t// in\n    tag_292:\n        /* \"#utility.yul\":13870:13956   */\n      swap1\n      pop\n        /* \"#utility.yul\":13966:14039   */\n      tag_293\n        /* \"#utility.yul\":14034:14037   */\n      0xe0\n        /* \"#utility.yul\":14023:14032   */\n      dup4\n        /* \"#utility.yul\":14019:14038   */\n      add\n        /* \"#utility.yul\":14010:14016   */\n      dup9\n        /* \"#utility.yul\":13966:14039   */\n      tag_275\n      jump\t// in\n    tag_293:\n        /* \"#utility.yul\":14049:14122   */\n      tag_294\n        /* \"#utility.yul\":14117:14120   */\n      0x0100\n        /* \"#utility.yul\":14106:14115   */\n      dup4\n        /* \"#utility.yul\":14102:14121   */\n      add\n        /* \"#utility.yul\":14093:14099   */\n      dup8\n        /* \"#utility.yul\":14049:14122   */\n      tag_275\n      jump\t// in\n    tag_294:\n        /* \"#utility.yul\":14170:14179   */\n      dup2\n        /* \"#utility.yul\":14164:14168   */\n      dup2\n        /* \"#utility.yul\":14160:14180   */\n      sub\n        /* \"#utility.yul\":14154:14157   */\n      0x0120\n        /* \"#utility.yul\":14143:14152   */\n      dup4\n        /* \"#utility.yul\":14139:14158   */\n      add\n        /* \"#utility.yul\":14132:14181   */\n      mstore\n        /* \"#utility.yul\":14198:14326   */\n      tag_295\n        /* \"#utility.yul\":14321:14325   */\n      dup2\n        /* \"#utility.yul\":14312:14318   */\n      dup7\n        /* \"#utility.yul\":14198:14326   */\n      tag_207\n      jump\t// in\n    tag_295:\n        /* \"#utility.yul\":14190:14326   */\n      swap1\n      pop\n        /* \"#utility.yul\":14336:14410   */\n      tag_296\n        /* \"#utility.yul\":14405:14408   */\n      0x0140\n        /* \"#utility.yul\":14394:14403   */\n      dup4\n        /* \"#utility.yul\":14390:14409   */\n      add\n        /* \"#utility.yul\":14380:14387   */\n      dup6\n        /* \"#utility.yul\":14336:14410   */\n      tag_275\n      jump\t// in\n    tag_296:\n        /* \"#utility.yul\":14420:14494   */\n      tag_297\n        /* \"#utility.yul\":14489:14492   */\n      0x0160\n        /* \"#utility.yul\":14478:14487   */\n      dup4\n        /* \"#utility.yul\":14474:14493   */\n      add\n        /* \"#utility.yul\":14464:14471   */\n      dup5\n        /* \"#utility.yul\":14420:14494   */\n      tag_203\n      jump\t// in\n    tag_297:\n        /* \"#utility.yul\":12228:14501   */\n      swap14\n      swap13\n      pop\n      pop\n      pop\n      pop\n      pop\n      pop\n      pop\n      pop\n      pop\n      pop\n      pop\n      pop\n      pop\n      jump\t// out\n        /* \"#utility.yul\":14507:14926   */\n    tag_30:\n        /* \"#utility.yul\":14673:14677   */\n      0x00\n        /* \"#utility.yul\":14711:14713   */\n      0x20\n        /* \"#utility.yul\":14700:14709   */\n      dup3\n        /* \"#utility.yul\":14696:14714   */\n      add\n        /* \"#utility.yul\":14688:14714   */\n      swap1\n      pop\n        /* \"#utility.yul\":14760:14769   */\n      dup2\n        /* \"#utility.yul\":14754:14758   */\n      dup2\n        /* \"#utility.yul\":14750:14770   */\n      sub\n        /* \"#utility.yul\":14746:14747   */\n      0x00\n        /* \"#utility.yul\":14735:14744   */\n      dup4\n        /* \"#utility.yul\":14731:14748   */\n      add\n        /* \"#utility.yul\":14724:14771   */\n      mstore\n        /* \"#utility.yul\":14788:14919   */\n      tag_299\n        /* \"#utility.yul\":14914:14918   */\n      dup2\n        /* \"#utility.yul\":14788:14919   */\n      tag_255\n      jump\t// in\n    tag_299:\n        /* \"#utility.yul\":14780:14919   */\n      swap1\n      pop\n        /* \"#utility.yul\":14507:14926   */\n      swap2\n      swap1\n      pop\n      jump\t// out\n        /* \"#utility.yul\":14932:15351   */\n    tag_41:\n        /* \"#utility.yul\":15098:15102   */\n      0x00\n        /* \"#utility.yul\":15136:15138   */\n      0x20\n        /* \"#utility.yul\":15125:15134   */\n      dup3\n        /* \"#utility.yul\":15121:15139   */\n      add\n        /* \"#utility.yul\":15113:15139   */\n      swap1\n      pop\n        /* \"#utility.yul\":15185:15194   */\n      dup2\n        /* \"#utility.yul\":15179:15183   */\n      dup2\n        /* \"#utility.yul\":15175:15195   */\n      sub\n        /* \"#utility.yul\":15171:15172   */\n      0x00\n        /* \"#utility.yul\":15160:15169   */\n      dup4\n        /* \"#utility.yul\":15156:15173   */\n      add\n        /* \"#utility.yul\":15149:15196   */\n      mstore\n        /* \"#utility.yul\":15213:15344   */\n      tag_301\n        /* \"#utility.yul\":15339:15343   */\n      dup2\n        /* \"#utility.yul\":15213:15344   */\n      tag_260\n      jump\t// in\n    tag_301:\n        /* \"#utility.yul\":15205:15344   */\n      swap1\n      pop\n        /* \"#utility.yul\":14932:15351   */\n      swap2\n      swap1\n      pop\n      jump\t// out\n        /* \"#utility.yul\":15357:15776   */\n    tag_56:\n        /* \"#utility.yul\":15523:15527   */\n      0x00\n        /* \"#utility.yul\":15561:15563   */\n      0x20\n        /* \"#utility.yul\":15550:15559   */\n      dup3\n        /* \"#utility.yul\":15546:15564   */\n      add\n        /* \"#utility.yul\":15538:15564   */\n      swap1\n      pop\n        /* \"#utility.yul\":15610:15619   */\n      dup2\n        /* \"#utility.yul\":15604:15608   */\n      dup2\n        /* \"#utility.yul\":15600:15620   */\n      sub\n        /* \"#utility.yul\":15596:15597   */\n      0x00\n        /* \"#utility.yul\":15585:15594   */\n      dup4\n        /* \"#utility.yul\":15581:15598   */\n      add\n        /* \"#utility.yul\":15574:15621   */\n      mstore\n        /* \"#utility.yul\":15638:15769   */\n      tag_303\n        /* \"#utility.yul\":15764:15768   */\n      dup2\n        /* \"#utility.yul\":15638:15769   */\n      tag_265\n      jump\t// in\n    tag_303:\n        /* \"#utility.yul\":15630:15769   */\n      swap1\n      pop\n        /* \"#utility.yul\":15357:15776   */\n      swap2\n      swap1\n      pop\n      jump\t// out\n        /* \"#utility.yul\":15782:16201   */\n    tag_35:\n        /* \"#utility.yul\":15948:15952   */\n      0x00\n        /* \"#utility.yul\":15986:15988   */\n      0x20\n        /* \"#utility.yul\":15975:15984   */\n      dup3\n        /* \"#utility.yul\":15971:15989   */\n      add\n        /* \"#utility.yul\":15963:15989   */\n      swap1\n      pop\n        /* \"#utility.yul\":16035:16044   */\n      dup2\n        /* \"#utility.yul\":16029:16033   */\n      dup2\n        /* \"#utility.yul\":16025:16045   */\n      sub\n        /* \"#utility.yul\":16021:16022   */\n      0x00\n        /* \"#utility.yul\":16010:16019   */\n      dup4\n        /* \"#utility.yul\":16006:16023   */\n      add\n        /* \"#utility.yul\":15999:16046   */\n      mstore\n        /* \"#utility.yul\":16063:16194   */\n      tag_305\n        /* \"#utility.yul\":16189:16193   */\n      dup2\n        /* \"#utility.yul\":16063:16194   */\n      tag_270\n      jump\t// in\n    tag_305:\n        /* \"#utility.yul\":16055:16194   */\n      swap1\n      pop\n        /* \"#utility.yul\":15782:16201   */\n      swap2\n      swap1\n      pop\n      jump\t// out\n        /* \"#utility.yul\":16207:16429   */\n    tag_26:\n        /* \"#utility.yul\":16300:16304   */\n      0x00\n        /* \"#utility.yul\":16338:16340   */\n      0x20\n        /* \"#utility.yul\":16327:16336   */\n      dup3\n        /* \"#utility.yul\":16323:16341   */\n      add\n        /* \"#utility.yul\":16315:16341   */\n      swap1\n      pop\n        /* \"#utility.yul\":16351:16422   */\n      tag_307\n        /* \"#utility.yul\":16419:16420   */\n      0x00\n        /* \"#utility.yul\":16408:16417   */\n      dup4\n        /* \"#utility.yul\":16404:16421   */\n      add\n        /* \"#utility.yul\":16395:16401   */\n      dup5\n        /* \"#utility.yul\":16351:16422   */\n      tag_275\n      jump\t// in\n    tag_307:\n        /* \"#utility.yul\":16207:16429   */\n      swap3\n      swap2\n      pop\n      pop\n      jump\t// out\n        /* \"#utility.yul\":16435:16564   */\n    tag_122:\n        /* \"#utility.yul\":16469:16475   */\n      0x00\n        /* \"#utility.yul\":16496:16516   */\n      tag_309\n      tag_310\n      jump\t// in\n    tag_309:\n        /* \"#utility.yul\":16486:16516   */\n      swap1\n      pop\n        /* \"#utility.yul\":16525:16558   */\n      tag_311\n        /* \"#utility.yul\":16553:16557   */\n      dup3\n        /* \"#utility.yul\":16545:16551   */\n      dup3\n        /* \"#utility.yul\":16525:16558   */\n      tag_312\n      jump\t// in\n    tag_311:\n        /* \"#utility.yul\":16435:16564   */\n      swap2\n      swap1\n      pop\n      jump\t// out\n        /* \"#utility.yul\":16570:16645   */\n    tag_310:\n        /* \"#utility.yul\":16603:16609   */\n      0x00\n        /* \"#utility.yul\":16636:16638   */\n      0x40\n        /* \"#utility.yul\":16630:16639   */\n      mload\n        /* \"#utility.yul\":16620:16639   */\n      swap1\n      pop\n        /* \"#utility.yul\":16570:16645   */\n      swap1\n      jump\t// out\n        /* \"#utility.yul\":16651:16972   */\n    tag_121:\n        /* \"#utility.yul\":16738:16742   */\n      0x00\n        /* \"#utility.yul\":16828:16846   */\n      0xffffffffffffffff\n        /* \"#utility.yul\":16820:16826   */\n      dup3\n        /* \"#utility.yul\":16817:16847   */\n      gt\n        /* \"#utility.yul\":16814:16870   */\n      iszero\n      tag_315\n      jumpi\n        /* \"#utility.yul\":16850:16868   */\n      tag_316\n      tag_317\n      jump\t// in\n    tag_316:\n        /* \"#utility.yul\":16814:16870   */\n    tag_315:\n        /* \"#utility.yul\":16900:16904   */\n      0x20\n        /* \"#utility.yul\":16892:16898   */\n      dup3\n        /* \"#utility.yul\":16888:16905   */\n      mul\n        /* \"#utility.yul\":16880:16905   */\n      swap1\n      pop\n        /* \"#utility.yul\":16960:16964   */\n      0x20\n        /* \"#utility.yul\":16954:16958   */\n      dup2\n        /* \"#utility.yul\":16950:16965   */\n      add\n        /* \"#utility.yul\":16942:16965   */\n      swap1\n      pop\n        /* \"#utility.yul\":16651:16972   */\n      swap2\n      swap1\n      pop\n      jump\t// out\n        /* \"#utility.yul\":16978:17286   */\n    tag_138:\n        /* \"#utility.yul\":17040:17044   */\n      0x00\n        /* \"#utility.yul\":17130:17148   */\n      0xffffffffffffffff\n        /* \"#utility.yul\":17122:17128   */\n      dup3\n        /* \"#utility.yul\":17119:17149   */\n      gt\n        /* \"#utility.yul\":17116:17172   */\n      iszero\n      tag_319\n      jumpi\n        /* \"#utility.yul\":17152:17170   */\n      tag_320\n      tag_317\n      jump\t// in\n    tag_320:\n        /* \"#utility.yul\":17116:17172   */\n    tag_319:\n        /* \"#utility.yul\":17190:17219   */\n      tag_321\n        /* \"#utility.yul\":17212:17218   */\n      dup3\n        /* \"#utility.yul\":17190:17219   */\n      tag_229\n      jump\t// in\n    tag_321:\n        /* \"#utility.yul\":17182:17219   */\n      swap1\n      pop\n        /* \"#utility.yul\":17274:17278   */\n      0x20\n        /* \"#utility.yul\":17268:17272   */\n      dup2\n        /* \"#utility.yul\":17264:17279   */\n      add\n        /* \"#utility.yul\":17256:17279   */\n      swap1\n      pop\n        /* \"#utility.yul\":16978:17286   */\n      swap2\n      swap1\n      pop\n      jump\t// out\n        /* \"#utility.yul\":17292:17434   */\n    tag_214:\n        /* \"#utility.yul\":17369:17373   */\n      0x00\n        /* \"#utility.yul\":17392:17395   */\n      dup2\n        /* \"#utility.yul\":17384:17395   */\n      swap1\n      pop\n        /* \"#utility.yul\":17422:17426   */\n      0x20\n        /* \"#utility.yul\":17417:17420   */\n      dup3\n        /* \"#utility.yul\":17413:17427   */\n      add\n        /* \"#utility.yul\":17405:17427   */\n      swap1\n      pop\n        /* \"#utility.yul\":17292:17434   */\n      swap2\n      swap1\n      pop\n      jump\t// out\n        /* \"#utility.yul\":17440:17581   */\n    tag_251:\n        /* \"#utility.yul\":17489:17493   */\n      0x00\n        /* \"#utility.yul\":17512:17515   */\n      dup2\n        /* \"#utility.yul\":17504:17515   */\n      swap1\n      pop\n        /* \"#utility.yul\":17535:17538   */\n      dup2\n        /* \"#utility.yul\":17532:17533   */\n      0x00\n        /* \"#utility.yul\":17525:17539   */\n      mstore\n        /* \"#utility.yul\":17569:17573   */\n      0x20\n        /* \"#utility.yul\":17566:17567   */\n      0x00\n        /* \"#utility.yul\":17556:17574   */\n      keccak256\n        /* \"#utility.yul\":17548:17574   */\n      swap1\n      pop\n        /* \"#utility.yul\":17440:17581   */\n      swap2\n      swap1\n      pop\n      jump\t// out\n        /* \"#utility.yul\":17587:17711   */\n    tag_210:\n        /* \"#utility.yul\":17664:17670   */\n      0x00\n        /* \"#utility.yul\":17698:17703   */\n      dup2\n        /* \"#utility.yul\":17692:17704   */\n      mload\n        /* \"#utility.yul\":17682:17704   */\n      swap1\n      pop\n        /* \"#utility.yul\":17587:17711   */\n      swap2\n      swap1\n      pop\n      jump\t// out\n        /* \"#utility.yul\":17717:17816   */\n    tag_223:\n        /* \"#utility.yul\":17769:17775   */\n      0x00\n        /* \"#utility.yul\":17803:17808   */\n      dup2\n        /* \"#utility.yul\":17797:17809   */\n      mload\n        /* \"#utility.yul\":17787:17809   */\n      swap1\n      pop\n        /* \"#utility.yul\":17717:17816   */\n      swap2\n      swap1\n      pop\n      jump\t// out\n        /* \"#utility.yul\":17822:17945   */\n    tag_220:\n        /* \"#utility.yul\":17902:17906   */\n      0x00\n        /* \"#utility.yul\":17934:17938   */\n      0x20\n        /* \"#utility.yul\":17929:17932   */\n      dup3\n        /* \"#utility.yul\":17925:17939   */\n      add\n        /* \"#utility.yul\":17917:17939   */\n      swap1\n      pop\n        /* \"#utility.yul\":17822:17945   */\n      swap2\n      swap1\n      pop\n      jump\t// out\n        /* \"#utility.yul\":17951:18145   */\n    tag_212:\n        /* \"#utility.yul\":18060:18071   */\n      0x00\n        /* \"#utility.yul\":18094:18100   */\n      dup3\n        /* \"#utility.yul\":18089:18092   */\n      dup3\n        /* \"#utility.yul\":18082:18101   */\n      mstore\n        /* \"#utility.yul\":18134:18138   */\n      0x20\n        /* \"#utility.yul\":18129:18132   */\n      dup3\n        /* \"#utility.yul\":18125:18139   */\n      add\n        /* \"#utility.yul\":18110:18139   */\n      swap1\n      pop\n        /* \"#utility.yul\":17951:18145   */\n      swap3\n      swap2\n      pop\n      pop\n      jump\t// out\n        /* \"#utility.yul\":18151:18310   */\n    tag_225:\n        /* \"#utility.yul\":18225:18236   */\n      0x00\n        /* \"#utility.yul\":18259:18265   */\n      dup3\n        /* \"#utility.yul\":18254:18257   */\n      dup3\n        /* \"#utility.yul\":18247:18266   */\n      mstore\n        /* \"#utility.yul\":18299:18303   */\n      0x20\n        /* \"#utility.yul\":18294:18297   */\n      dup3\n        /* \"#utility.yul\":18290:18304   */\n      add\n        /* \"#utility.yul\":18275:18304   */\n      swap1\n      pop\n        /* \"#utility.yul\":18151:18310   */\n      swap3\n      swap2\n      pop\n      pop\n      jump\t// out\n        /* \"#utility.yul\":18316:18485   */\n    tag_234:\n        /* \"#utility.yul\":18400:18411   */\n      0x00\n        /* \"#utility.yul\":18434:18440   */\n      dup3\n        /* \"#utility.yul\":18429:18432   */\n      dup3\n        /* \"#utility.yul\":18422:18441   */\n      mstore\n        /* \"#utility.yul\":18474:18478   */\n      0x20\n        /* \"#utility.yul\":18469:18472   */\n      dup3\n        /* \"#utility.yul\":18465:18479   */\n      add\n        /* \"#utility.yul\":18450:18479   */\n      swap1\n      pop\n        /* \"#utility.yul\":18316:18485   */\n      swap3\n      swap2\n      pop\n      pop\n      jump\t// out\n        /* \"#utility.yul\":18491:18639   */\n    tag_241:\n        /* \"#utility.yul\":18593:18604   */\n      0x00\n        /* \"#utility.yul\":18630:18633   */\n      dup2\n        /* \"#utility.yul\":18615:18633   */\n      swap1\n      pop\n        /* \"#utility.yul\":18491:18639   */\n      swap3\n      swap2\n      pop\n      pop\n      jump\t// out\n        /* \"#utility.yul\":18645:18993   */\n    tag_37:\n        /* \"#utility.yul\":18685:18692   */\n      0x00\n        /* \"#utility.yul\":18708:18728   */\n      tag_332\n        /* \"#utility.yul\":18726:18727   */\n      dup3\n        /* \"#utility.yul\":18708:18728   */\n      tag_278\n      jump\t// in\n    tag_332:\n        /* \"#utility.yul\":18703:18728   */\n      swap2\n      pop\n        /* \"#utility.yul\":18742:18762   */\n      tag_333\n        /* \"#utility.yul\":18760:18761   */\n      dup4\n        /* \"#utility.yul\":18742:18762   */\n      tag_278\n      jump\t// in\n    tag_333:\n        /* \"#utility.yul\":18737:18762   */\n      swap3\n      pop\n        /* \"#utility.yul\":18930:18931   */\n      dup2\n        /* \"#utility.yul\":18862:18928   */\n      0xffffffffffffffffffffffffffffffffffffffffffffffffffffffffffffffff\n        /* \"#utility.yul\":18858:18932   */\n      div\n        /* \"#utility.yul\":18855:18856   */\n      dup4\n        /* \"#utility.yul\":18852:18933   */\n      gt\n        /* \"#utility.yul\":18847:18848   */\n      dup3\n        /* \"#utility.yul\":18840:18849   */\n      iszero\n        /* \"#utility.yul\":18833:18850   */\n      iszero\n        /* \"#utility.yul\":18829:18934   */\n      and\n        /* \"#utility.yul\":18826:18957   */\n      iszero\n      tag_334\n      jumpi\n        /* \"#utility.yul\":18937:18955   */\n      tag_335\n      tag_336\n      jump\t// in\n    tag_335:\n        /* \"#utility.yul\":18826:18957   */\n    tag_334:\n        /* \"#utility.yul\":18985:18986   */\n      dup3\n        /* \"#utility.yul\":18982:18983   */\n      dup3\n        /* \"#utility.yul\":18978:18987   */\n      mul\n        /* \"#utility.yul\":18967:18987   */\n      swap1\n      pop\n        /* \"#utility.yul\":18645:18993   */\n      swap3\n      swap2\n      pop\n      pop\n      jump\t// out\n        /* \"#utility.yul\":18999:19095   */\n    tag_206:\n        /* \"#utility.yul\":19036:19043   */\n      0x00\n        /* \"#utility.yul\":19065:19089   */\n      tag_338\n        /* \"#utility.yul\":19083:19088   */\n      dup3\n        /* \"#utility.yul\":19065:19089   */\n      tag_339\n      jump\t// in\n    tag_338:\n        /* \"#utility.yul\":19054:19089   */\n      swap1\n      pop\n        /* \"#utility.yul\":18999:19095   */\n      swap2\n      swap1\n      pop\n      jump\t// out\n        /* \"#utility.yul\":19101:19227   */\n    tag_339:\n        /* \"#utility.yul\":19138:19145   */\n      0x00\n        /* \"#utility.yul\":19178:19220   */\n      0xffffffffffffffffffffffffffffffffffffffff\n        /* \"#utility.yul\":19171:19176   */\n      dup3\n        /* \"#utility.yul\":19167:19221   */\n      and\n        /* \"#utility.yul\":19156:19221   */\n      swap1\n      pop\n        /* \"#utility.yul\":19101:19227   */\n      swap2\n      swap1\n      pop\n      jump\t// out\n        /* \"#utility.yul\":19233:19310   */\n    tag_278:\n        /* \"#utility.yul\":19270:19277   */\n      0x00\n        /* \"#utility.yul\":19299:19304   */\n      dup2\n        /* \"#utility.yul\":19288:19304   */\n      swap1\n      pop\n        /* \"#utility.yul\":19233:19310   */\n      swap2\n      swap1\n      pop\n      jump\t// out\n        /* \"#utility.yul\":19316:19470   */\n    tag_143:\n        /* \"#utility.yul\":19400:19406   */\n      dup3\n        /* \"#utility.yul\":19395:19398   */\n      dup2\n        /* \"#utility.yul\":19390:19393   */\n      dup4\n        /* \"#utility.yul\":19377:19407   */\n      calldatacopy\n        /* \"#utility.yul\":19462:19463   */\n      0x00\n        /* \"#utility.yul\":19453:19459   */\n      dup4\n        /* \"#utility.yul\":19448:19451   */\n      dup4\n        /* \"#utility.yul\":19444:19460   */\n      add\n        /* \"#utility.yul\":19437:19464   */\n      mstore\n        /* \"#utility.yul\":19316:19470   */\n      pop\n      pop\n      pop\n      jump\t// out\n        /* \"#utility.yul\":19476:19783   */\n    tag_227:\n        /* \"#utility.yul\":19544:19545   */\n      0x00\n        /* \"#utility.yul\":19554:19667   */\n    tag_344:\n        /* \"#utility.yul\":19568:19574   */\n      dup4\n        /* \"#utility.yul\":19565:19566   */\n      dup2\n        /* \"#utility.yul\":19562:19575   */\n      lt\n        /* \"#utility.yul\":19554:19667   */\n      iszero\n      tag_346\n      jumpi\n        /* \"#utility.yul\":19653:19654   */\n      dup1\n        /* \"#utility.yul\":19648:19651   */\n      dup3\n        /* \"#utility.yul\":19644:19655   */\n      add\n        /* \"#utility.yul\":19638:19656   */\n      mload\n        /* \"#utility.yul\":19634:19635   */\n      dup2\n        /* \"#utility.yul\":19629:19632   */\n      dup5\n        /* \"#utility.yul\":19625:19636   */\n      add\n        /* \"#utility.yul\":19618:19657   */\n      mstore\n        /* \"#utility.yul\":19590:19592   */\n      0x20\n        /* \"#utility.yul\":19587:19588   */\n      dup2\n        /* \"#utility.yul\":19583:19593   */\n      add\n        /* \"#utility.yul\":19578:19593   */\n      swap1\n      pop\n        /* \"#utility.yul\":19554:19667   */\n      jump(tag_344)\n    tag_346:\n        /* \"#utility.yul\":19685:19691   */\n      dup4\n        /* \"#utility.yul\":19682:19683   */\n      dup2\n        /* \"#utility.yul\":19679:19692   */\n      gt\n        /* \"#utility.yul\":19676:19777   */\n      iszero\n      tag_347\n      jumpi\n        /* \"#utility.yul\":19765:19766   */\n      0x00\n        /* \"#utility.yul\":19756:19762   */\n      dup5\n        /* \"#utility.yul\":19751:19754   */\n      dup5\n        /* \"#utility.yul\":19747:19763   */\n      add\n        /* \"#utility.yul\":19740:19767   */\n      mstore\n        /* \"#utility.yul\":19676:19777   */\n    tag_347:\n        /* \"#utility.yul\":19525:19783   */\n      pop\n        /* \"#utility.yul\":19476:19783   */\n      pop\n      pop\n      pop\n      jump\t// out\n        /* \"#utility.yul\":19789:20109   */\n    tag_92:\n        /* \"#utility.yul\":19833:19839   */\n      0x00\n        /* \"#utility.yul\":19870:19871   */\n      0x02\n        /* \"#utility.yul\":19864:19868   */\n      dup3\n        /* \"#utility.yul\":19860:19872   */\n      div\n        /* \"#utility.yul\":19850:19872   */\n      swap1\n      pop\n        /* \"#utility.yul\":19917:19918   */\n      0x01\n        /* \"#utility.yul\":19911:19915   */\n      dup3\n        /* \"#utility.yul\":19907:19919   */\n      and\n        /* \"#utility.yul\":19938:19956   */\n      dup1\n        /* \"#utility.yul\":19928:20009   */\n      tag_349\n      jumpi\n        /* \"#utility.yul\":19994:19998   */\n      0x7f\n        /* \"#utility.yul\":19986:19992   */\n      dup3\n        /* \"#utility.yul\":19982:19999   */\n      and\n        /* \"#utility.yul\":19972:19999   */\n      swap2\n      pop\n        /* \"#utility.yul\":19928:20009   */\n    tag_349:\n        /* \"#utility.yul\":20056:20058   */\n      0x20\n        /* \"#utility.yul\":20048:20054   */\n      dup3\n        /* \"#utility.yul\":20045:20059   */\n      lt\n        /* \"#utility.yul\":20025:20043   */\n      dup2\n        /* \"#utility.yul\":20022:20060   */\n      eq\n        /* \"#utility.yul\":20019:20103   */\n      iszero\n      tag_350\n      jumpi\n        /* \"#utility.yul\":20075:20093   */\n      tag_351\n      tag_352\n      jump\t// in\n    tag_351:\n        /* \"#utility.yul\":20019:20103   */\n    tag_350:\n        /* \"#utility.yul\":19840:20109   */\n      pop\n        /* \"#utility.yul\":19789:20109   */\n      swap2\n      swap1\n      pop\n      jump\t// out\n        /* \"#utility.yul\":20115:20396   */\n    tag_312:\n        /* \"#utility.yul\":20198:20225   */\n      tag_354\n        /* \"#utility.yul\":20220:20224   */\n      dup3\n        /* \"#utility.yul\":20198:20225   */\n      tag_229\n      jump\t// in\n    tag_354:\n        /* \"#utility.yul\":20190:20196   */\n      dup2\n        /* \"#utility.yul\":20186:20226   */\n      add\n        /* \"#utility.yul\":20328:20334   */\n      dup2\n        /* \"#utility.yul\":20316:20326   */\n      dup2\n        /* \"#utility.yul\":20313:20335   */\n      lt\n        /* \"#utility.yul\":20292:20310   */\n      0xffffffffffffffff\n        /* \"#utility.yul\":20280:20290   */\n      dup3\n        /* \"#utility.yul\":20277:20311   */\n      gt\n        /* \"#utility.yul\":20274:20336   */\n      or\n        /* \"#utility.yul\":20271:20359   */\n      iszero\n      tag_355\n      jumpi\n        /* \"#utility.yul\":20339:20357   */\n      tag_356\n      tag_317\n      jump\t// in\n    tag_356:\n        /* \"#utility.yul\":20271:20359   */\n    tag_355:\n        /* \"#utility.yul\":20379:20389   */\n      dup1\n        /* \"#utility.yul\":20375:20377   */\n      0x40\n        /* \"#utility.yul\":20368:20390   */\n      mstore\n        /* \"#utility.yul\":20158:20396   */\n      pop\n        /* \"#utility.yul\":20115:20396   */\n      pop\n      pop\n      jump\t// out\n        /* \"#utility.yul\":20402:20635   */\n    tag_52:\n        /* \"#utility.yul\":20441:20444   */\n      0x00\n        /* \"#utility.yul\":20464:20488   */\n      tag_358\n        /* \"#utility.yul\":20482:20487   */\n      dup3\n        /* \"#utility.yul\":20464:20488   */\n      tag_278\n      jump\t// in\n    tag_358:\n        /* \"#utility.yul\":20455:20488   */\n      swap2\n      pop\n        /* \"#utility.yul\":20510:20576   */\n      0xffffffffffffffffffffffffffffffffffffffffffffffffffffffffffffffff\n        /* \"#utility.yul\":20503:20508   */\n      dup3\n        /* \"#utility.yul\":20500:20577   */\n      eq\n        /* \"#utility.yul\":20497:20600   */\n      iszero\n      tag_359\n      jumpi\n        /* \"#utility.yul\":20580:20598   */\n      tag_360\n      tag_336\n      jump\t// in\n    tag_360:\n        /* \"#utility.yul\":20497:20600   */\n    tag_359:\n        /* \"#utility.yul\":20627:20628   */\n      0x01\n        /* \"#utility.yul\":20620:20625   */\n      dup3\n        /* \"#utility.yul\":20616:20629   */\n      add\n        /* \"#utility.yul\":20609:20629   */\n      swap1\n      pop\n        /* \"#utility.yul\":20402:20635   */\n      swap2\n      swap1\n      pop\n      jump\t// out\n        /* \"#utility.yul\":20641:20821   */\n    tag_336:\n        /* \"#utility.yul\":20689:20766   */\n      0x4e487b7100000000000000000000000000000000000000000000000000000000\n        /* \"#utility.yul\":20686:20687   */\n      0x00\n        /* \"#utility.yul\":20679:20767   */\n      mstore\n        /* \"#utility.yul\":20786:20790   */\n      0x11\n        /* \"#utility.yul\":20783:20784   */\n      0x04\n        /* \"#utility.yul\":20776:20791   */\n      mstore\n        /* \"#utility.yul\":20810:20814   */\n      0x24\n        /* \"#utility.yul\":20807:20808   */\n      0x00\n        /* \"#utility.yul\":20800:20815   */\n      revert\n        /* \"#utility.yul\":20827:21007   */\n    tag_352:\n        /* \"#utility.yul\":20875:20952   */\n      0x4e487b7100000000000000000000000000000000000000000000000000000000\n        /* \"#utility.yul\":20872:20873   */\n      0x00\n        /* \"#utility.yul\":20865:20953   */\n      mstore\n        /* \"#utility.yul\":20972:20976   */\n      0x22\n        /* \"#utility.yul\":20969:20970   */\n      0x04\n        /* \"#utility.yul\":20962:20977   */\n      mstore\n        /* \"#utility.yul\":20996:21000   */\n      0x24\n        /* \"#utility.yul\":20993:20994   */\n      0x00\n        /* \"#utility.yul\":20986:21001   */\n      revert\n        /* \"#utility.yul\":21013:21193   */\n    tag_47:\n        /* \"#utility.yul\":21061:21138   */\n      0x4e487b7100000000000000000000000000000000000000000000000000000000\n        /* \"#utility.yul\":21058:21059   */\n      0x00\n        /* \"#utility.yul\":21051:21139   */\n      mstore\n        /* \"#utility.yul\":21158:21162   */\n      0x32\n        /* \"#utility.yul\":21155:21156   */\n      0x04\n        /* \"#utility.yul\":21148:21163   */\n      mstore\n        /* \"#utility.yul\":21182:21186   */\n      0x24\n        /* \"#utility.yul\":21179:21180   */\n      0x00\n        /* \"#utility.yul\":21172:21187   */\n      revert\n        /* \"#utility.yul\":21199:21379   */\n    tag_317:\n        /* \"#utility.yul\":21247:21324   */\n      0x4e487b7100000000000000000000000000000000000000000000000000000000\n        /* \"#utility.yul\":21244:21245   */\n      0x00\n        /* \"#utility.yul\":21237:21325   */\n      mstore\n        /* \"#utility.yul\":21344:21348   */\n      0x41\n        /* \"#utility.yul\":21341:21342   */\n      0x04\n        /* \"#utility.yul\":21334:21349   */\n      mstore\n        /* \"#utility.yul\":21368:21372   */\n      0x24\n        /* \"#utility.yul\":21365:21366   */\n      0x00\n        /* \"#utility.yul\":21358:21373   */\n      revert\n        /* \"#utility.yul\":21385:21502   */\n    tag_131:\n        /* \"#utility.yul\":21494:21495   */\n      0x00\n        /* \"#utility.yul\":21491:21492   */\n      dup1\n        /* \"#utility.yul\":21484:21496   */\n      revert\n        /* \"#utility.yul\":21508:21625   */\n    tag_125:\n        /* \"#utility.yul\":21617:21618   */\n      0x00\n        /* \"#utility.yul\":21614:21615   */\n      dup1\n        /* \"#utility.yul\":21607:21619   */\n      revert\n        /* \"#utility.yul\":21631:21748   */\n    tag_141:\n        /* \"#utility.yul\":21740:21741   */\n      0x00\n        /* \"#utility.yul\":21737:21738   */\n      dup1\n        /* \"#utility.yul\":21730:21742   */\n      revert\n        /* \"#utility.yul\":21754:21871   */\n    tag_163:\n        /* \"#utility.yul\":21863:21864   */\n      0x00\n        /* \"#utility.yul\":21860:21861   */\n      dup1\n        /* \"#utility.yul\":21853:21865   */\n      revert\n        /* \"#utility.yul\":21877:21994   */\n    tag_160:\n        /* \"#utility.yul\":21986:21987   */\n      0x00\n        /* \"#utility.yul\":21983:21984   */\n      dup1\n        /* \"#utility.yul\":21976:21988   */\n      revert\n        /* \"#utility.yul\":22000:22102   */\n    tag_229:\n        /* \"#utility.yul\":22041:22047   */\n      0x00\n        /* \"#utility.yul\":22092:22094   */\n      0x1f\n        /* \"#utility.yul\":22088:22095   */\n      not\n        /* \"#utility.yul\":22083:22085   */\n      0x1f\n        /* \"#utility.yul\":22076:22081   */\n      dup4\n        /* \"#utility.yul\":22072:22086   */\n      add\n        /* \"#utility.yul\":22068:22096   */\n      and\n        /* \"#utility.yul\":22058:22096   */\n      swap1\n      pop\n        /* \"#utility.yul\":22000:22102   */\n      swap2\n      swap1\n      pop\n      jump\t// out\n        /* \"#utility.yul\":22108:22272   */\n    tag_259:\n        /* \"#utility.yul\":22248:22264   */\n      0x4e6f20737563682052656e74616c000000000000000000000000000000000000\n        /* \"#utility.yul\":22244:22245   */\n      0x00\n        /* \"#utility.yul\":22236:22242   */\n      dup3\n        /* \"#utility.yul\":22232:22246   */\n      add\n        /* \"#utility.yul\":22225:22265   */\n      mstore\n        /* \"#utility.yul\":22108:22272   */\n      pop\n      jump\t// out\n        /* \"#utility.yul\":22278:22529   */\n    tag_264:\n        /* \"#utility.yul\":22418:22452   */\n      0x506c65617365207375626d6974207468652061736b696e672070726963652069\n        /* \"#utility.yul\":22414:22415   */\n      0x00\n        /* \"#utility.yul\":22406:22412   */\n      dup3\n        /* \"#utility.yul\":22402:22416   */\n      add\n        /* \"#utility.yul\":22395:22453   */\n      mstore\n        /* \"#utility.yul\":22487:22521   */\n      0x6e206f7264657220746f20636f6d706c65746520746865207075726368617365\n        /* \"#utility.yul\":22482:22484   */\n      0x20\n        /* \"#utility.yul\":22474:22480   */\n      dup3\n        /* \"#utility.yul\":22470:22485   */\n      add\n        /* \"#utility.yul\":22463:22522   */\n      mstore\n        /* \"#utility.yul\":22278:22529   */\n      pop\n      jump\t// out\n        /* \"#utility.yul\":22535:22777   */\n    tag_269:\n        /* \"#utility.yul\":22675:22709   */\n      0x4f6e6c7920746865206f776e6572206f662074686520736d61727420636f6e74\n        /* \"#utility.yul\":22671:22672   */\n      0x00\n        /* \"#utility.yul\":22663:22669   */\n      dup3\n        /* \"#utility.yul\":22659:22673   */\n      add\n        /* \"#utility.yul\":22652:22710   */\n      mstore\n        /* \"#utility.yul\":22744:22769   */\n      0x726163742063616e207075742075702072656e74616c73000000000000000000\n        /* \"#utility.yul\":22739:22741   */\n      0x20\n        /* \"#utility.yul\":22731:22737   */\n      dup3\n        /* \"#utility.yul\":22727:22742   */\n      add\n        /* \"#utility.yul\":22720:22770   */\n      mstore\n        /* \"#utility.yul\":22535:22777   */\n      pop\n      jump\t// out\n        /* \"#utility.yul\":22783:23003   */\n    tag_274:\n        /* \"#utility.yul\":22923:22957   */\n      0x416c726561647920626f6f6b656420666f722072657175657374656420646174\n        /* \"#utility.yul\":22919:22920   */\n      0x00\n        /* \"#utility.yul\":22911:22917   */\n      dup3\n        /* \"#utility.yul\":22907:22921   */\n      add\n        /* \"#utility.yul\":22900:22958   */\n      mstore\n        /* \"#utility.yul\":22992:22995   */\n      0x6500000000000000000000000000000000000000000000000000000000000000\n        /* \"#utility.yul\":22987:22989   */\n      0x20\n        /* \"#utility.yul\":22979:22985   */\n      dup3\n        /* \"#utility.yul\":22975:22990   */\n      add\n        /* \"#utility.yul\":22968:22996   */\n      mstore\n        /* \"#utility.yul\":22783:23003   */\n      pop\n      jump\t// out\n        /* \"#utility.yul\":23009:23131   */\n    tag_156:\n        /* \"#utility.yul\":23082:23106   */\n      tag_376\n        /* \"#utility.yul\":23100:23105   */\n      dup2\n        /* \"#utility.yul\":23082:23106   */\n      tag_278\n      jump\t// in\n    tag_376:\n        /* \"#utility.yul\":23075:23080   */\n      dup2\n        /* \"#utility.yul\":23072:23107   */\n      eq\n        /* \"#utility.yul\":23062:23125   */\n      tag_377\n      jumpi\n        /* \"#utility.yul\":23121:23122   */\n      0x00\n        /* \"#utility.yul\":23118:23119   */\n      dup1\n        /* \"#utility.yul\":23111:23123   */\n      revert\n        /* \"#utility.yul\":23062:23125   */\n    tag_377:\n        /* \"#utility.yul\":23009:23131   */\n      pop\n      jump\t// out\n\n    auxdata: 0xa26469706673582212208b3b4e8662caf2d3c01d7887254c72384790530fc7c0dc1fb5e7d6761af70b0464736f6c63430008070033\n}\n",
				"bytecode": {
					"linkReferences": {},
					"object": "608060405234801561001057600080fd5b506000600181905550336000806101000a81548173ffffffffffffffffffffffffffffffffffffffff021916908373ffffffffffffffffffffffffffffffffffffffff160217905550611477806100686000396000f3fe60806040526004361061003f5760003560e01c80632a23bb7214610044578063611fa0a8146100605780638da5cb5b14610089578063ebfa74c9146100b4575b600080fd5b61005e60048036038101906100599190610b1b565b6100f1565b005b34801561006c57600080fd5b506100876004803603810190610082919061092f565b610283565b005b34801561009557600080fd5b5061009e610531565b6040516100ab9190610dfa565b60405180910390f35b3480156100c057600080fd5b506100db60048036038101906100d69190610aee565b610555565b6040516100e89190610f87565b60405180910390f35b6001548210610135576040517f08c379a000000000000000000000000000000000000000000000000000000000815260040161012c90610f07565b60405180910390fd5b61013f8282610579565b61017e576040517f08c379a000000000000000000000000000000000000000000000000000000000815260040161017590610f67565b60405180910390fd5b8051670de0b6b3a764000060026000858152602001908152602001600020600801546101aa91906110aa565b6101b491906110aa565b34146101f5576040517f08c379a00000000000000000000000000000000000000000000000000000000081526004016101ec90610f27565b60405180910390fd5b60005b815181101561027e576002600084815260200190815260200160002060090182828151811061022a5761022961128c565b5b602002602001015190806001815401808255809150506001900390600052602060002001600090919091909150908051906020019061026a929190610687565b508080610276906111e5565b9150506101f8565b505050565b60008054906101000a900473ffffffffffffffffffffffffffffffffffffffff1673ffffffffffffffffffffffffffffffffffffffff163373ffffffffffffffffffffffffffffffffffffffff1614610311576040517f08c379a000000000000000000000000000000000000000000000000000000000815260040161030890610f47565b60405180910390fd5b600060026000600154815260200190815260200160002090508a816000019080519060200190610342929190610687565b508981600101908051906020019061035b929190610687565b5088816002019080519060200190610374929190610687565b508781600301908051906020019061038d929190610687565b50868160040190805190602001906103a6929190610687565b50858160050190805190602001906103bf929190610687565b50848160060190805190602001906103d8929190610687565b508381600701819055508281600801819055508181600901908051906020019061040392919061070d565b5060015481600a018190555060008054906101000a900473ffffffffffffffffffffffffffffffffffffffff1681600b0160006101000a81548173ffffffffffffffffffffffffffffffffffffffff021916908373ffffffffffffffffffffffffffffffffffffffff160217905550600360015490806001815401808255809150506001900390600052602060002001600090919091909150557fc06f078c3c74d235829af3e011ff5aae487c78ef8d3acca688417ed86ff145918b8b8b8b8b8b8b8b8b8b60015460008054906101000a900473ffffffffffffffffffffffffffffffffffffffff166040516105049c9b9a99989796959493929190610e15565b60405180910390a16001600081548092919061051f906111e5565b91905055505050505050505050505050565b60008054906101000a900473ffffffffffffffffffffffffffffffffffffffff1681565b6003818154811061056557600080fd5b906000526020600020016000915090505481565b6000805b825181101561067b5760005b6002600086815260200190815260200160002060090180549050811015610667578382815181106105bd576105bc61128c565b5b60200260200101516040516020016105d59190610dcc565b604051602081830303815290604052805190602001206002600087815260200190815260200160002060090182815481106106135761061261128c565b5b9060005260206000200160405160200161062d9190610de3565b60405160208183030381529060405280519060200120141561065457600092505050610681565b808061065f906111e5565b915050610589565b508080610673906111e5565b91505061057d565b50600190505b92915050565b82805461069390611182565b90600052602060002090601f0160209004810192826106b557600085556106fc565b82601f106106ce57805160ff19168380011785556106fc565b828001600101855582156106fc579182015b828111156106fb5782518255916020019190600101906106e0565b5b509050610709919061076d565b5090565b82805482825590600052602060002090810192821561075c579160200282015b8281111561075b57825182908051906020019061074b929190610687565b509160200191906001019061072d565b5b509050610769919061078a565b5090565b5b8082111561078657600081600090555060010161076e565b5090565b5b808211156107aa57600081816107a191906107ae565b5060010161078b565b5090565b5080546107ba90611182565b6000825580601f106107cc57506107eb565b601f0160209004906000526020600020908101906107ea919061076d565b5b50565b60006108016107fc84610fc7565b610fa2565b90508083825260208201905082856020860282011115610824576108236112ef565b5b60005b8581101561087257813567ffffffffffffffff81111561084a576108496112ea565b5b80860161085789826108ec565b85526020850194506020840193505050600181019050610827565b5050509392505050565b600061088f61088a84610ff3565b610fa2565b9050828152602081018484840111156108ab576108aa6112f4565b5b6108b6848285611140565b509392505050565b600082601f8301126108d3576108d26112ea565b5b81356108e38482602086016107ee565b91505092915050565b600082601f830112610901576109006112ea565b5b813561091184826020860161087c565b91505092915050565b6000813590506109298161142a565b92915050565b6000806000806000806000806000806101408b8d031215610953576109526112fe565b5b60008b013567ffffffffffffffff811115610971576109706112f9565b5b61097d8d828e016108ec565b9a505060208b013567ffffffffffffffff81111561099e5761099d6112f9565b5b6109aa8d828e016108ec565b99505060408b013567ffffffffffffffff8111156109cb576109ca6112f9565b5b6109d78d828e016108ec565b98505060608b013567ffffffffffffffff8111156109f8576109f76112f9565b5b610a048d828e016108ec565b97505060808b013567ffffffffffffffff811115610a2557610a246112f9565b5b610a318d828e016108ec565b96505060a08b013567ffffffffffffffff811115610a5257610a516112f9565b5b610a5e8d828e016108ec565b95505060c08b013567ffffffffffffffff811115610a7f57610a7e6112f9565b5b610a8b8d828e016108ec565b94505060e0610a9c8d828e0161091a565b935050610100610aae8d828e0161091a565b9250506101208b013567ffffffffffffffff811115610ad057610acf6112f9565b5b610adc8d828e016108be565b9150509295989b9194979a5092959850565b600060208284031215610b0457610b036112fe565b5b6000610b128482850161091a565b91505092915050565b60008060408385031215610b3257610b316112fe565b5b6000610b408582860161091a565b925050602083013567ffffffffffffffff811115610b6157610b606112f9565b5b610b6d858286016108be565b9150509250929050565b6000610b838383610c0f565b905092915050565b610b9481611104565b82525050565b6000610ba582611049565b610baf818561106c565b935083602082028501610bc185611024565b8060005b85811015610bfd5784840389528151610bde8582610b77565b9450610be98361105f565b925060208a01995050600181019050610bc5565b50829750879550505050505092915050565b6000610c1a82611054565b610c24818561107d565b9350610c3481856020860161114f565b610c3d81611303565b840191505092915050565b6000610c5382611054565b610c5d818561108e565b9350610c6d81856020860161114f565b610c7681611303565b840191505092915050565b6000610c8c82611054565b610c96818561109f565b9350610ca681856020860161114f565b80840191505092915050565b60008154610cbf81611182565b610cc9818661109f565b94506001821660008114610ce45760018114610cf557610d28565b60ff19831686528186019350610d28565b610cfe85611034565b60005b83811015610d2057815481890152600182019150602081019050610d01565b838801955050505b50505092915050565b6000610d3e600e8361108e565b9150610d4982611314565b602082019050919050565b6000610d6160408361108e565b9150610d6c8261133d565b604082019050919050565b6000610d8460378361108e565b9150610d8f8261138c565b604082019050919050565b6000610da760218361108e565b9150610db2826113db565b604082019050919050565b610dc681611136565b82525050565b6000610dd88284610c81565b915081905092915050565b6000610def8284610cb2565b915081905092915050565b6000602082019050610e0f6000830184610b8b565b92915050565b6000610180820190508181036000830152610e30818f610c48565b90508181036020830152610e44818e610c48565b90508181036040830152610e58818d610c48565b90508181036060830152610e6c818c610c48565b90508181036080830152610e80818b610c48565b905081810360a0830152610e94818a610c48565b905081810360c0830152610ea88189610c48565b9050610eb760e0830188610dbd565b610ec5610100830187610dbd565b818103610120830152610ed88186610b9a565b9050610ee8610140830185610dbd565b610ef6610160830184610b8b565b9d9c50505050505050505050505050565b60006020820190508181036000830152610f2081610d31565b9050919050565b60006020820190508181036000830152610f4081610d54565b9050919050565b60006020820190508181036000830152610f6081610d77565b9050919050565b60006020820190508181036000830152610f8081610d9a565b9050919050565b6000602082019050610f9c6000830184610dbd565b92915050565b6000610fac610fbd565b9050610fb882826111b4565b919050565b6000604051905090565b600067ffffffffffffffff821115610fe257610fe16112bb565b5b602082029050602081019050919050565b600067ffffffffffffffff82111561100e5761100d6112bb565b5b61101782611303565b9050602081019050919050565b6000819050602082019050919050565b60008190508160005260206000209050919050565b600081519050919050565b600081519050919050565b6000602082019050919050565b600082825260208201905092915050565b600082825260208201905092915050565b600082825260208201905092915050565b600081905092915050565b60006110b582611136565b91506110c083611136565b9250817fffffffffffffffffffffffffffffffffffffffffffffffffffffffffffffffff04831182151516156110f9576110f861122e565b5b828202905092915050565b600061110f82611116565b9050919050565b600073ffffffffffffffffffffffffffffffffffffffff82169050919050565b6000819050919050565b82818337600083830152505050565b60005b8381101561116d578082015181840152602081019050611152565b8381111561117c576000848401525b50505050565b6000600282049050600182168061119a57607f821691505b602082108114156111ae576111ad61125d565b5b50919050565b6111bd82611303565b810181811067ffffffffffffffff821117156111dc576111db6112bb565b5b80604052505050565b60006111f082611136565b91507fffffffffffffffffffffffffffffffffffffffffffffffffffffffffffffffff8214156112235761122261122e565b5b600182019050919050565b7f4e487b7100000000000000000000000000000000000000000000000000000000600052601160045260246000fd5b7f4e487b7100000000000000000000000000000000000000000000000000000000600052602260045260246000fd5b7f4e487b7100000000000000000000000000000000000000000000000000000000600052603260045260246000fd5b7f4e487b7100000000000000000000000000000000000000000000000000000000600052604160045260246000fd5b600080fd5b600080fd5b600080fd5b600080fd5b600080fd5b6000601f19601f8301169050919050565b7f4e6f20737563682052656e74616c000000000000000000000000000000000000600082015250565b7f506c65617365207375626d6974207468652061736b696e67207072696365206960008201527f6e206f7264657220746f20636f6d706c65746520746865207075726368617365602082015250565b7f4f6e6c7920746865206f776e6572206f662074686520736d61727420636f6e7460008201527f726163742063616e207075742075702072656e74616c73000000000000000000602082015250565b7f416c726561647920626f6f6b656420666f72207265717565737465642064617460008201527f6500000000000000000000000000000000000000000000000000000000000000602082015250565b61143381611136565b811461143e57600080fd5b5056fea26469706673582212208b3b4e8662caf2d3c01d7887254c72384790530fc7c0dc1fb5e7d6761af70b0464736f6c63430008070033",
					"opcodes": "PUSH1 0x80 PUSH1 0x40 MSTORE CALLVALUE DUP1 ISZERO PUSH2 0x10 JUMPI PUSH1 0x0 DUP1 REVERT JUMPDEST POP PUSH1 0x0 PUSH1 0x1 DUP2 SWAP1 SSTORE POP CALLER PUSH1 0x0 DUP1 PUSH2 0x100 EXP DUP2 SLOAD DUP2 PUSH20 0xFFFFFFFFFFFFFFFFFFFFFFFFFFFFFFFFFFFFFFFF MUL NOT AND SWAP1 DUP4 PUSH20 0xFFFFFFFFFFFFFFFFFFFFFFFFFFFFFFFFFFFFFFFF AND MUL OR SWAP1 SSTORE POP PUSH2 0x1477 DUP1 PUSH2 0x68 PUSH1 0x0 CODECOPY PUSH1 0x0 RETURN INVALID PUSH1 0x80 PUSH1 0x40 MSTORE PUSH1 0x4 CALLDATASIZE LT PUSH2 0x3F JUMPI PUSH1 0x0 CALLDATALOAD PUSH1 0xE0 SHR DUP1 PUSH4 0x2A23BB72 EQ PUSH2 0x44 JUMPI DUP1 PUSH4 0x611FA0A8 EQ PUSH2 0x60 JUMPI DUP1 PUSH4 0x8DA5CB5B EQ PUSH2 0x89 JUMPI DUP1 PUSH4 0xEBFA74C9 EQ PUSH2 0xB4 JUMPI JUMPDEST PUSH1 0x0 DUP1 REVERT JUMPDEST PUSH2 0x5E PUSH1 0x4 DUP1 CALLDATASIZE SUB DUP2 ADD SWAP1 PUSH2 0x59 SWAP2 SWAP1 PUSH2 0xB1B JUMP JUMPDEST PUSH2 0xF1 JUMP JUMPDEST STOP JUMPDEST CALLVALUE DUP1 ISZERO PUSH2 0x6C JUMPI PUSH1 0x0 DUP1 REVERT JUMPDEST POP PUSH2 0x87 PUSH1 0x4 DUP1 CALLDATASIZE SUB DUP2 ADD SWAP1 PUSH2 0x82 SWAP2 SWAP1 PUSH2 0x92F JUMP JUMPDEST PUSH2 0x283 JUMP JUMPDEST STOP JUMPDEST CALLVALUE DUP1 ISZERO PUSH2 0x95 JUMPI PUSH1 0x0 DUP1 REVERT JUMPDEST POP PUSH2 0x9E PUSH2 0x531 JUMP JUMPDEST PUSH1 0x40 MLOAD PUSH2 0xAB SWAP2 SWAP1 PUSH2 0xDFA JUMP JUMPDEST PUSH1 0x40 MLOAD DUP1 SWAP2 SUB SWAP1 RETURN JUMPDEST CALLVALUE DUP1 ISZERO PUSH2 0xC0 JUMPI PUSH1 0x0 DUP1 REVERT JUMPDEST POP PUSH2 0xDB PUSH1 0x4 DUP1 CALLDATASIZE SUB DUP2 ADD SWAP1 PUSH2 0xD6 SWAP2 SWAP1 PUSH2 0xAEE JUMP JUMPDEST PUSH2 0x555 JUMP JUMPDEST PUSH1 0x40 MLOAD PUSH2 0xE8 SWAP2 SWAP1 PUSH2 0xF87 JUMP JUMPDEST PUSH1 0x40 MLOAD DUP1 SWAP2 SUB SWAP1 RETURN JUMPDEST PUSH1 0x1 SLOAD DUP3 LT PUSH2 0x135 JUMPI PUSH1 0x40 MLOAD PUSH32 0x8C379A000000000000000000000000000000000000000000000000000000000 DUP2 MSTORE PUSH1 0x4 ADD PUSH2 0x12C SWAP1 PUSH2 0xF07 JUMP JUMPDEST PUSH1 0x40 MLOAD DUP1 SWAP2 SUB SWAP1 REVERT JUMPDEST PUSH2 0x13F DUP3 DUP3 PUSH2 0x579 JUMP JUMPDEST PUSH2 0x17E JUMPI PUSH1 0x40 MLOAD PUSH32 0x8C379A000000000000000000000000000000000000000000000000000000000 DUP2 MSTORE PUSH1 0x4 ADD PUSH2 0x175 SWAP1 PUSH2 0xF67 JUMP JUMPDEST PUSH1 0x40 MLOAD DUP1 SWAP2 SUB SWAP1 REVERT JUMPDEST DUP1 MLOAD PUSH8 0xDE0B6B3A7640000 PUSH1 0x2 PUSH1 0x0 DUP6 DUP2 MSTORE PUSH1 0x20 ADD SWAP1 DUP2 MSTORE PUSH1 0x20 ADD PUSH1 0x0 KECCAK256 PUSH1 0x8 ADD SLOAD PUSH2 0x1AA SWAP2 SWAP1 PUSH2 0x10AA JUMP JUMPDEST PUSH2 0x1B4 SWAP2 SWAP1 PUSH2 0x10AA JUMP JUMPDEST CALLVALUE EQ PUSH2 0x1F5 JUMPI PUSH1 0x40 MLOAD PUSH32 0x8C379A000000000000000000000000000000000000000000000000000000000 DUP2 MSTORE PUSH1 0x4 ADD PUSH2 0x1EC SWAP1 PUSH2 0xF27 JUMP JUMPDEST PUSH1 0x40 MLOAD DUP1 SWAP2 SUB SWAP1 REVERT JUMPDEST PUSH1 0x0 JUMPDEST DUP2 MLOAD DUP2 LT ISZERO PUSH2 0x27E JUMPI PUSH1 0x2 PUSH1 0x0 DUP5 DUP2 MSTORE PUSH1 0x20 ADD SWAP1 DUP2 MSTORE PUSH1 0x20 ADD PUSH1 0x0 KECCAK256 PUSH1 0x9 ADD DUP3 DUP3 DUP2 MLOAD DUP2 LT PUSH2 0x22A JUMPI PUSH2 0x229 PUSH2 0x128C JUMP JUMPDEST JUMPDEST PUSH1 0x20 MUL PUSH1 0x20 ADD ADD MLOAD SWAP1 DUP1 PUSH1 0x1 DUP2 SLOAD ADD DUP1 DUP3 SSTORE DUP1 SWAP2 POP POP PUSH1 0x1 SWAP1 SUB SWAP1 PUSH1 0x0 MSTORE PUSH1 0x20 PUSH1 0x0 KECCAK256 ADD PUSH1 0x0 SWAP1 SWAP2 SWAP1 SWAP2 SWAP1 SWAP2 POP SWAP1 DUP1 MLOAD SWAP1 PUSH1 0x20 ADD SWAP1 PUSH2 0x26A SWAP3 SWAP2 SWAP1 PUSH2 0x687 JUMP JUMPDEST POP DUP1 DUP1 PUSH2 0x276 SWAP1 PUSH2 0x11E5 JUMP JUMPDEST SWAP2 POP POP PUSH2 0x1F8 JUMP JUMPDEST POP POP POP JUMP JUMPDEST PUSH1 0x0 DUP1 SLOAD SWAP1 PUSH2 0x100 EXP SWAP1 DIV PUSH20 0xFFFFFFFFFFFFFFFFFFFFFFFFFFFFFFFFFFFFFFFF AND PUSH20 0xFFFFFFFFFFFFFFFFFFFFFFFFFFFFFFFFFFFFFFFF AND CALLER PUSH20 0xFFFFFFFFFFFFFFFFFFFFFFFFFFFFFFFFFFFFFFFF AND EQ PUSH2 0x311 JUMPI PUSH1 0x40 MLOAD PUSH32 0x8C379A000000000000000000000000000000000000000000000000000000000 DUP2 MSTORE PUSH1 0x4 ADD PUSH2 0x308 SWAP1 PUSH2 0xF47 JUMP JUMPDEST PUSH1 0x40 MLOAD DUP1 SWAP2 SUB SWAP1 REVERT JUMPDEST PUSH1 0x0 PUSH1 0x2 PUSH1 0x0 PUSH1 0x1 SLOAD DUP2 MSTORE PUSH1 0x20 ADD SWAP1 DUP2 MSTORE PUSH1 0x20 ADD PUSH1 0x0 KECCAK256 SWAP1 POP DUP11 DUP2 PUSH1 0x0 ADD SWAP1 DUP1 MLOAD SWAP1 PUSH1 0x20 ADD SWAP1 PUSH2 0x342 SWAP3 SWAP2 SWAP1 PUSH2 0x687 JUMP JUMPDEST POP DUP10 DUP2 PUSH1 0x1 ADD SWAP1 DUP1 MLOAD SWAP1 PUSH1 0x20 ADD SWAP1 PUSH2 0x35B SWAP3 SWAP2 SWAP1 PUSH2 0x687 JUMP JUMPDEST POP DUP9 DUP2 PUSH1 0x2 ADD SWAP1 DUP1 MLOAD SWAP1 PUSH1 0x20 ADD SWAP1 PUSH2 0x374 SWAP3 SWAP2 SWAP1 PUSH2 0x687 JUMP JUMPDEST POP DUP8 DUP2 PUSH1 0x3 ADD SWAP1 DUP1 MLOAD SWAP1 PUSH1 0x20 ADD SWAP1 PUSH2 0x38D SWAP3 SWAP2 SWAP1 PUSH2 0x687 JUMP JUMPDEST POP DUP7 DUP2 PUSH1 0x4 ADD SWAP1 DUP1 MLOAD SWAP1 PUSH1 0x20 ADD SWAP1 PUSH2 0x3A6 SWAP3 SWAP2 SWAP1 PUSH2 0x687 JUMP JUMPDEST POP DUP6 DUP2 PUSH1 0x5 ADD SWAP1 DUP1 MLOAD SWAP1 PUSH1 0x20 ADD SWAP1 PUSH2 0x3BF SWAP3 SWAP2 SWAP1 PUSH2 0x687 JUMP JUMPDEST POP DUP5 DUP2 PUSH1 0x6 ADD SWAP1 DUP1 MLOAD SWAP1 PUSH1 0x20 ADD SWAP1 PUSH2 0x3D8 SWAP3 SWAP2 SWAP1 PUSH2 0x687 JUMP JUMPDEST POP DUP4 DUP2 PUSH1 0x7 ADD DUP2 SWAP1 SSTORE POP DUP3 DUP2 PUSH1 0x8 ADD DUP2 SWAP1 SSTORE POP DUP2 DUP2 PUSH1 0x9 ADD SWAP1 DUP1 MLOAD SWAP1 PUSH1 0x20 ADD SWAP1 PUSH2 0x403 SWAP3 SWAP2 SWAP1 PUSH2 0x70D JUMP JUMPDEST POP PUSH1 0x1 SLOAD DUP2 PUSH1 0xA ADD DUP2 SWAP1 SSTORE POP PUSH1 0x0 DUP1 SLOAD SWAP1 PUSH2 0x100 EXP SWAP1 DIV PUSH20 0xFFFFFFFFFFFFFFFFFFFFFFFFFFFFFFFFFFFFFFFF AND DUP2 PUSH1 0xB ADD PUSH1 0x0 PUSH2 0x100 EXP DUP2 SLOAD DUP2 PUSH20 0xFFFFFFFFFFFFFFFFFFFFFFFFFFFFFFFFFFFFFFFF MUL NOT AND SWAP1 DUP4 PUSH20 0xFFFFFFFFFFFFFFFFFFFFFFFFFFFFFFFFFFFFFFFF AND MUL OR SWAP1 SSTORE POP PUSH1 0x3 PUSH1 0x1 SLOAD SWAP1 DUP1 PUSH1 0x1 DUP2 SLOAD ADD DUP1 DUP3 SSTORE DUP1 SWAP2 POP POP PUSH1 0x1 SWAP1 SUB SWAP1 PUSH1 0x0 MSTORE PUSH1 0x20 PUSH1 0x0 KECCAK256 ADD PUSH1 0x0 SWAP1 SWAP2 SWAP1 SWAP2 SWAP1 SWAP2 POP SSTORE PUSH32 0xC06F078C3C74D235829AF3E011FF5AAE487C78EF8D3ACCA688417ED86FF14591 DUP12 DUP12 DUP12 DUP12 DUP12 DUP12 DUP12 DUP12 DUP12 DUP12 PUSH1 0x1 SLOAD PUSH1 0x0 DUP1 SLOAD SWAP1 PUSH2 0x100 EXP SWAP1 DIV PUSH20 0xFFFFFFFFFFFFFFFFFFFFFFFFFFFFFFFFFFFFFFFF AND PUSH1 0x40 MLOAD PUSH2 0x504 SWAP13 SWAP12 SWAP11 SWAP10 SWAP9 SWAP8 SWAP7 SWAP6 SWAP5 SWAP4 SWAP3 SWAP2 SWAP1 PUSH2 0xE15 JUMP JUMPDEST PUSH1 0x40 MLOAD DUP1 SWAP2 SUB SWAP1 LOG1 PUSH1 0x1 PUSH1 0x0 DUP2 SLOAD DUP1 SWAP3 SWAP2 SWAP1 PUSH2 0x51F SWAP1 PUSH2 0x11E5 JUMP JUMPDEST SWAP2 SWAP1 POP SSTORE POP POP POP POP POP POP POP POP POP POP POP POP JUMP JUMPDEST PUSH1 0x0 DUP1 SLOAD SWAP1 PUSH2 0x100 EXP SWAP1 DIV PUSH20 0xFFFFFFFFFFFFFFFFFFFFFFFFFFFFFFFFFFFFFFFF AND DUP2 JUMP JUMPDEST PUSH1 0x3 DUP2 DUP2 SLOAD DUP2 LT PUSH2 0x565 JUMPI PUSH1 0x0 DUP1 REVERT JUMPDEST SWAP1 PUSH1 0x0 MSTORE PUSH1 0x20 PUSH1 0x0 KECCAK256 ADD PUSH1 0x0 SWAP2 POP SWAP1 POP SLOAD DUP2 JUMP JUMPDEST PUSH1 0x0 DUP1 JUMPDEST DUP3 MLOAD DUP2 LT ISZERO PUSH2 0x67B JUMPI PUSH1 0x0 JUMPDEST PUSH1 0x2 PUSH1 0x0 DUP7 DUP2 MSTORE PUSH1 0x20 ADD SWAP1 DUP2 MSTORE PUSH1 0x20 ADD PUSH1 0x0 KECCAK256 PUSH1 0x9 ADD DUP1 SLOAD SWAP1 POP DUP2 LT ISZERO PUSH2 0x667 JUMPI DUP4 DUP3 DUP2 MLOAD DUP2 LT PUSH2 0x5BD JUMPI PUSH2 0x5BC PUSH2 0x128C JUMP JUMPDEST JUMPDEST PUSH1 0x20 MUL PUSH1 0x20 ADD ADD MLOAD PUSH1 0x40 MLOAD PUSH1 0x20 ADD PUSH2 0x5D5 SWAP2 SWAP1 PUSH2 0xDCC JUMP JUMPDEST PUSH1 0x40 MLOAD PUSH1 0x20 DUP2 DUP4 SUB SUB DUP2 MSTORE SWAP1 PUSH1 0x40 MSTORE DUP1 MLOAD SWAP1 PUSH1 0x20 ADD KECCAK256 PUSH1 0x2 PUSH1 0x0 DUP8 DUP2 MSTORE PUSH1 0x20 ADD SWAP1 DUP2 MSTORE PUSH1 0x20 ADD PUSH1 0x0 KECCAK256 PUSH1 0x9 ADD DUP3 DUP2 SLOAD DUP2 LT PUSH2 0x613 JUMPI PUSH2 0x612 PUSH2 0x128C JUMP JUMPDEST JUMPDEST SWAP1 PUSH1 0x0 MSTORE PUSH1 0x20 PUSH1 0x0 KECCAK256 ADD PUSH1 0x40 MLOAD PUSH1 0x20 ADD PUSH2 0x62D SWAP2 SWAP1 PUSH2 0xDE3 JUMP JUMPDEST PUSH1 0x40 MLOAD PUSH1 0x20 DUP2 DUP4 SUB SUB DUP2 MSTORE SWAP1 PUSH1 0x40 MSTORE DUP1 MLOAD SWAP1 PUSH1 0x20 ADD KECCAK256 EQ ISZERO PUSH2 0x654 JUMPI PUSH1 0x0 SWAP3 POP POP POP PUSH2 0x681 JUMP JUMPDEST DUP1 DUP1 PUSH2 0x65F SWAP1 PUSH2 0x11E5 JUMP JUMPDEST SWAP2 POP POP PUSH2 0x589 JUMP JUMPDEST POP DUP1 DUP1 PUSH2 0x673 SWAP1 PUSH2 0x11E5 JUMP JUMPDEST SWAP2 POP POP PUSH2 0x57D JUMP JUMPDEST POP PUSH1 0x1 SWAP1 POP JUMPDEST SWAP3 SWAP2 POP POP JUMP JUMPDEST DUP3 DUP1 SLOAD PUSH2 0x693 SWAP1 PUSH2 0x1182 JUMP JUMPDEST SWAP1 PUSH1 0x0 MSTORE PUSH1 0x20 PUSH1 0x0 KECCAK256 SWAP1 PUSH1 0x1F ADD PUSH1 0x20 SWAP1 DIV DUP2 ADD SWAP3 DUP3 PUSH2 0x6B5 JUMPI PUSH1 0x0 DUP6 SSTORE PUSH2 0x6FC JUMP JUMPDEST DUP3 PUSH1 0x1F LT PUSH2 0x6CE JUMPI DUP1 MLOAD PUSH1 0xFF NOT AND DUP4 DUP1 ADD OR DUP6 SSTORE PUSH2 0x6FC JUMP JUMPDEST DUP3 DUP1 ADD PUSH1 0x1 ADD DUP6 SSTORE DUP3 ISZERO PUSH2 0x6FC JUMPI SWAP2 DUP3 ADD JUMPDEST DUP3 DUP2 GT ISZERO PUSH2 0x6FB JUMPI DUP3 MLOAD DUP3 SSTORE SWAP2 PUSH1 0x20 ADD SWAP2 SWAP1 PUSH1 0x1 ADD SWAP1 PUSH2 0x6E0 JUMP JUMPDEST JUMPDEST POP SWAP1 POP PUSH2 0x709 SWAP2 SWAP1 PUSH2 0x76D JUMP JUMPDEST POP SWAP1 JUMP JUMPDEST DUP3 DUP1 SLOAD DUP3 DUP3 SSTORE SWAP1 PUSH1 0x0 MSTORE PUSH1 0x20 PUSH1 0x0 KECCAK256 SWAP1 DUP2 ADD SWAP3 DUP3 ISZERO PUSH2 0x75C JUMPI SWAP2 PUSH1 0x20 MUL DUP3 ADD JUMPDEST DUP3 DUP2 GT ISZERO PUSH2 0x75B JUMPI DUP3 MLOAD DUP3 SWAP1 DUP1 MLOAD SWAP1 PUSH1 0x20 ADD SWAP1 PUSH2 0x74B SWAP3 SWAP2 SWAP1 PUSH2 0x687 JUMP JUMPDEST POP SWAP2 PUSH1 0x20 ADD SWAP2 SWAP1 PUSH1 0x1 ADD SWAP1 PUSH2 0x72D JUMP JUMPDEST JUMPDEST POP SWAP1 POP PUSH2 0x769 SWAP2 SWAP1 PUSH2 0x78A JUMP JUMPDEST POP SWAP1 JUMP JUMPDEST JUMPDEST DUP1 DUP3 GT ISZERO PUSH2 0x786 JUMPI PUSH1 0x0 DUP2 PUSH1 0x0 SWAP1 SSTORE POP PUSH1 0x1 ADD PUSH2 0x76E JUMP JUMPDEST POP SWAP1 JUMP JUMPDEST JUMPDEST DUP1 DUP3 GT ISZERO PUSH2 0x7AA JUMPI PUSH1 0x0 DUP2 DUP2 PUSH2 0x7A1 SWAP2 SWAP1 PUSH2 0x7AE JUMP JUMPDEST POP PUSH1 0x1 ADD PUSH2 0x78B JUMP JUMPDEST POP SWAP1 JUMP JUMPDEST POP DUP1 SLOAD PUSH2 0x7BA SWAP1 PUSH2 0x1182 JUMP JUMPDEST PUSH1 0x0 DUP3 SSTORE DUP1 PUSH1 0x1F LT PUSH2 0x7CC JUMPI POP PUSH2 0x7EB JUMP JUMPDEST PUSH1 0x1F ADD PUSH1 0x20 SWAP1 DIV SWAP1 PUSH1 0x0 MSTORE PUSH1 0x20 PUSH1 0x0 KECCAK256 SWAP1 DUP2 ADD SWAP1 PUSH2 0x7EA SWAP2 SWAP1 PUSH2 0x76D JUMP JUMPDEST JUMPDEST POP JUMP JUMPDEST PUSH1 0x0 PUSH2 0x801 PUSH2 0x7FC DUP5 PUSH2 0xFC7 JUMP JUMPDEST PUSH2 0xFA2 JUMP JUMPDEST SWAP1 POP DUP1 DUP4 DUP3 MSTORE PUSH1 0x20 DUP3 ADD SWAP1 POP DUP3 DUP6 PUSH1 0x20 DUP7 MUL DUP3 ADD GT ISZERO PUSH2 0x824 JUMPI PUSH2 0x823 PUSH2 0x12EF JUMP JUMPDEST JUMPDEST PUSH1 0x0 JUMPDEST DUP6 DUP2 LT ISZERO PUSH2 0x872 JUMPI DUP2 CALLDATALOAD PUSH8 0xFFFFFFFFFFFFFFFF DUP2 GT ISZERO PUSH2 0x84A JUMPI PUSH2 0x849 PUSH2 0x12EA JUMP JUMPDEST JUMPDEST DUP1 DUP7 ADD PUSH2 0x857 DUP10 DUP3 PUSH2 0x8EC JUMP JUMPDEST DUP6 MSTORE PUSH1 0x20 DUP6 ADD SWAP5 POP PUSH1 0x20 DUP5 ADD SWAP4 POP POP POP PUSH1 0x1 DUP2 ADD SWAP1 POP PUSH2 0x827 JUMP JUMPDEST POP POP POP SWAP4 SWAP3 POP POP POP JUMP JUMPDEST PUSH1 0x0 PUSH2 0x88F PUSH2 0x88A DUP5 PUSH2 0xFF3 JUMP JUMPDEST PUSH2 0xFA2 JUMP JUMPDEST SWAP1 POP DUP3 DUP2 MSTORE PUSH1 0x20 DUP2 ADD DUP5 DUP5 DUP5 ADD GT ISZERO PUSH2 0x8AB JUMPI PUSH2 0x8AA PUSH2 0x12F4 JUMP JUMPDEST JUMPDEST PUSH2 0x8B6 DUP5 DUP3 DUP6 PUSH2 0x1140 JUMP JUMPDEST POP SWAP4 SWAP3 POP POP POP JUMP JUMPDEST PUSH1 0x0 DUP3 PUSH1 0x1F DUP4 ADD SLT PUSH2 0x8D3 JUMPI PUSH2 0x8D2 PUSH2 0x12EA JUMP JUMPDEST JUMPDEST DUP2 CALLDATALOAD PUSH2 0x8E3 DUP5 DUP3 PUSH1 0x20 DUP7 ADD PUSH2 0x7EE JUMP JUMPDEST SWAP2 POP POP SWAP3 SWAP2 POP POP JUMP JUMPDEST PUSH1 0x0 DUP3 PUSH1 0x1F DUP4 ADD SLT PUSH2 0x901 JUMPI PUSH2 0x900 PUSH2 0x12EA JUMP JUMPDEST JUMPDEST DUP2 CALLDATALOAD PUSH2 0x911 DUP5 DUP3 PUSH1 0x20 DUP7 ADD PUSH2 0x87C JUMP JUMPDEST SWAP2 POP POP SWAP3 SWAP2 POP POP JUMP JUMPDEST PUSH1 0x0 DUP2 CALLDATALOAD SWAP1 POP PUSH2 0x929 DUP2 PUSH2 0x142A JUMP JUMPDEST SWAP3 SWAP2 POP POP JUMP JUMPDEST PUSH1 0x0 DUP1 PUSH1 0x0 DUP1 PUSH1 0x0 DUP1 PUSH1 0x0 DUP1 PUSH1 0x0 DUP1 PUSH2 0x140 DUP12 DUP14 SUB SLT ISZERO PUSH2 0x953 JUMPI PUSH2 0x952 PUSH2 0x12FE JUMP JUMPDEST JUMPDEST PUSH1 0x0 DUP12 ADD CALLDATALOAD PUSH8 0xFFFFFFFFFFFFFFFF DUP2 GT ISZERO PUSH2 0x971 JUMPI PUSH2 0x970 PUSH2 0x12F9 JUMP JUMPDEST JUMPDEST PUSH2 0x97D DUP14 DUP3 DUP15 ADD PUSH2 0x8EC JUMP JUMPDEST SWAP11 POP POP PUSH1 0x20 DUP12 ADD CALLDATALOAD PUSH8 0xFFFFFFFFFFFFFFFF DUP2 GT ISZERO PUSH2 0x99E JUMPI PUSH2 0x99D PUSH2 0x12F9 JUMP JUMPDEST JUMPDEST PUSH2 0x9AA DUP14 DUP3 DUP15 ADD PUSH2 0x8EC JUMP JUMPDEST SWAP10 POP POP PUSH1 0x40 DUP12 ADD CALLDATALOAD PUSH8 0xFFFFFFFFFFFFFFFF DUP2 GT ISZERO PUSH2 0x9CB JUMPI PUSH2 0x9CA PUSH2 0x12F9 JUMP JUMPDEST JUMPDEST PUSH2 0x9D7 DUP14 DUP3 DUP15 ADD PUSH2 0x8EC JUMP JUMPDEST SWAP9 POP POP PUSH1 0x60 DUP12 ADD CALLDATALOAD PUSH8 0xFFFFFFFFFFFFFFFF DUP2 GT ISZERO PUSH2 0x9F8 JUMPI PUSH2 0x9F7 PUSH2 0x12F9 JUMP JUMPDEST JUMPDEST PUSH2 0xA04 DUP14 DUP3 DUP15 ADD PUSH2 0x8EC JUMP JUMPDEST SWAP8 POP POP PUSH1 0x80 DUP12 ADD CALLDATALOAD PUSH8 0xFFFFFFFFFFFFFFFF DUP2 GT ISZERO PUSH2 0xA25 JUMPI PUSH2 0xA24 PUSH2 0x12F9 JUMP JUMPDEST JUMPDEST PUSH2 0xA31 DUP14 DUP3 DUP15 ADD PUSH2 0x8EC JUMP JUMPDEST SWAP7 POP POP PUSH1 0xA0 DUP12 ADD CALLDATALOAD PUSH8 0xFFFFFFFFFFFFFFFF DUP2 GT ISZERO PUSH2 0xA52 JUMPI PUSH2 0xA51 PUSH2 0x12F9 JUMP JUMPDEST JUMPDEST PUSH2 0xA5E DUP14 DUP3 DUP15 ADD PUSH2 0x8EC JUMP JUMPDEST SWAP6 POP POP PUSH1 0xC0 DUP12 ADD CALLDATALOAD PUSH8 0xFFFFFFFFFFFFFFFF DUP2 GT ISZERO PUSH2 0xA7F JUMPI PUSH2 0xA7E PUSH2 0x12F9 JUMP JUMPDEST JUMPDEST PUSH2 0xA8B DUP14 DUP3 DUP15 ADD PUSH2 0x8EC JUMP JUMPDEST SWAP5 POP POP PUSH1 0xE0 PUSH2 0xA9C DUP14 DUP3 DUP15 ADD PUSH2 0x91A JUMP JUMPDEST SWAP4 POP POP PUSH2 0x100 PUSH2 0xAAE DUP14 DUP3 DUP15 ADD PUSH2 0x91A JUMP JUMPDEST SWAP3 POP POP PUSH2 0x120 DUP12 ADD CALLDATALOAD PUSH8 0xFFFFFFFFFFFFFFFF DUP2 GT ISZERO PUSH2 0xAD0 JUMPI PUSH2 0xACF PUSH2 0x12F9 JUMP JUMPDEST JUMPDEST PUSH2 0xADC DUP14 DUP3 DUP15 ADD PUSH2 0x8BE JUMP JUMPDEST SWAP2 POP POP SWAP3 SWAP6 SWAP9 SWAP12 SWAP2 SWAP5 SWAP8 SWAP11 POP SWAP3 SWAP6 SWAP9 POP JUMP JUMPDEST PUSH1 0x0 PUSH1 0x20 DUP3 DUP5 SUB SLT ISZERO PUSH2 0xB04 JUMPI PUSH2 0xB03 PUSH2 0x12FE JUMP JUMPDEST JUMPDEST PUSH1 0x0 PUSH2 0xB12 DUP5 DUP3 DUP6 ADD PUSH2 0x91A JUMP JUMPDEST SWAP2 POP POP SWAP3 SWAP2 POP POP JUMP JUMPDEST PUSH1 0x0 DUP1 PUSH1 0x40 DUP4 DUP6 SUB SLT ISZERO PUSH2 0xB32 JUMPI PUSH2 0xB31 PUSH2 0x12FE JUMP JUMPDEST JUMPDEST PUSH1 0x0 PUSH2 0xB40 DUP6 DUP3 DUP7 ADD PUSH2 0x91A JUMP JUMPDEST SWAP3 POP POP PUSH1 0x20 DUP4 ADD CALLDATALOAD PUSH8 0xFFFFFFFFFFFFFFFF DUP2 GT ISZERO PUSH2 0xB61 JUMPI PUSH2 0xB60 PUSH2 0x12F9 JUMP JUMPDEST JUMPDEST PUSH2 0xB6D DUP6 DUP3 DUP7 ADD PUSH2 0x8BE JUMP JUMPDEST SWAP2 POP POP SWAP3 POP SWAP3 SWAP1 POP JUMP JUMPDEST PUSH1 0x0 PUSH2 0xB83 DUP4 DUP4 PUSH2 0xC0F JUMP JUMPDEST SWAP1 POP SWAP3 SWAP2 POP POP JUMP JUMPDEST PUSH2 0xB94 DUP2 PUSH2 0x1104 JUMP JUMPDEST DUP3 MSTORE POP POP JUMP JUMPDEST PUSH1 0x0 PUSH2 0xBA5 DUP3 PUSH2 0x1049 JUMP JUMPDEST PUSH2 0xBAF DUP2 DUP6 PUSH2 0x106C JUMP JUMPDEST SWAP4 POP DUP4 PUSH1 0x20 DUP3 MUL DUP6 ADD PUSH2 0xBC1 DUP6 PUSH2 0x1024 JUMP JUMPDEST DUP1 PUSH1 0x0 JUMPDEST DUP6 DUP2 LT ISZERO PUSH2 0xBFD JUMPI DUP5 DUP5 SUB DUP10 MSTORE DUP2 MLOAD PUSH2 0xBDE DUP6 DUP3 PUSH2 0xB77 JUMP JUMPDEST SWAP5 POP PUSH2 0xBE9 DUP4 PUSH2 0x105F JUMP JUMPDEST SWAP3 POP PUSH1 0x20 DUP11 ADD SWAP10 POP POP PUSH1 0x1 DUP2 ADD SWAP1 POP PUSH2 0xBC5 JUMP JUMPDEST POP DUP3 SWAP8 POP DUP8 SWAP6 POP POP POP POP POP POP SWAP3 SWAP2 POP POP JUMP JUMPDEST PUSH1 0x0 PUSH2 0xC1A DUP3 PUSH2 0x1054 JUMP JUMPDEST PUSH2 0xC24 DUP2 DUP6 PUSH2 0x107D JUMP JUMPDEST SWAP4 POP PUSH2 0xC34 DUP2 DUP6 PUSH1 0x20 DUP7 ADD PUSH2 0x114F JUMP JUMPDEST PUSH2 0xC3D DUP2 PUSH2 0x1303 JUMP JUMPDEST DUP5 ADD SWAP2 POP POP SWAP3 SWAP2 POP POP JUMP JUMPDEST PUSH1 0x0 PUSH2 0xC53 DUP3 PUSH2 0x1054 JUMP JUMPDEST PUSH2 0xC5D DUP2 DUP6 PUSH2 0x108E JUMP JUMPDEST SWAP4 POP PUSH2 0xC6D DUP2 DUP6 PUSH1 0x20 DUP7 ADD PUSH2 0x114F JUMP JUMPDEST PUSH2 0xC76 DUP2 PUSH2 0x1303 JUMP JUMPDEST DUP5 ADD SWAP2 POP POP SWAP3 SWAP2 POP POP JUMP JUMPDEST PUSH1 0x0 PUSH2 0xC8C DUP3 PUSH2 0x1054 JUMP JUMPDEST PUSH2 0xC96 DUP2 DUP6 PUSH2 0x109F JUMP JUMPDEST SWAP4 POP PUSH2 0xCA6 DUP2 DUP6 PUSH1 0x20 DUP7 ADD PUSH2 0x114F JUMP JUMPDEST DUP1 DUP5 ADD SWAP2 POP POP SWAP3 SWAP2 POP POP JUMP JUMPDEST PUSH1 0x0 DUP2 SLOAD PUSH2 0xCBF DUP2 PUSH2 0x1182 JUMP JUMPDEST PUSH2 0xCC9 DUP2 DUP7 PUSH2 0x109F JUMP JUMPDEST SWAP5 POP PUSH1 0x1 DUP3 AND PUSH1 0x0 DUP2 EQ PUSH2 0xCE4 JUMPI PUSH1 0x1 DUP2 EQ PUSH2 0xCF5 JUMPI PUSH2 0xD28 JUMP JUMPDEST PUSH1 0xFF NOT DUP4 AND DUP7 MSTORE DUP2 DUP7 ADD SWAP4 POP PUSH2 0xD28 JUMP JUMPDEST PUSH2 0xCFE DUP6 PUSH2 0x1034 JUMP JUMPDEST PUSH1 0x0 JUMPDEST DUP4 DUP2 LT ISZERO PUSH2 0xD20 JUMPI DUP2 SLOAD DUP2 DUP10 ADD MSTORE PUSH1 0x1 DUP3 ADD SWAP2 POP PUSH1 0x20 DUP2 ADD SWAP1 POP PUSH2 0xD01 JUMP JUMPDEST DUP4 DUP9 ADD SWAP6 POP POP POP JUMPDEST POP POP POP SWAP3 SWAP2 POP POP JUMP JUMPDEST PUSH1 0x0 PUSH2 0xD3E PUSH1 0xE DUP4 PUSH2 0x108E JUMP JUMPDEST SWAP2 POP PUSH2 0xD49 DUP3 PUSH2 0x1314 JUMP JUMPDEST PUSH1 0x20 DUP3 ADD SWAP1 POP SWAP2 SWAP1 POP JUMP JUMPDEST PUSH1 0x0 PUSH2 0xD61 PUSH1 0x40 DUP4 PUSH2 0x108E JUMP JUMPDEST SWAP2 POP PUSH2 0xD6C DUP3 PUSH2 0x133D JUMP JUMPDEST PUSH1 0x40 DUP3 ADD SWAP1 POP SWAP2 SWAP1 POP JUMP JUMPDEST PUSH1 0x0 PUSH2 0xD84 PUSH1 0x37 DUP4 PUSH2 0x108E JUMP JUMPDEST SWAP2 POP PUSH2 0xD8F DUP3 PUSH2 0x138C JUMP JUMPDEST PUSH1 0x40 DUP3 ADD SWAP1 POP SWAP2 SWAP1 POP JUMP JUMPDEST PUSH1 0x0 PUSH2 0xDA7 PUSH1 0x21 DUP4 PUSH2 0x108E JUMP JUMPDEST SWAP2 POP PUSH2 0xDB2 DUP3 PUSH2 0x13DB JUMP JUMPDEST PUSH1 0x40 DUP3 ADD SWAP1 POP SWAP2 SWAP1 POP JUMP JUMPDEST PUSH2 0xDC6 DUP2 PUSH2 0x1136 JUMP JUMPDEST DUP3 MSTORE POP POP JUMP JUMPDEST PUSH1 0x0 PUSH2 0xDD8 DUP3 DUP5 PUSH2 0xC81 JUMP JUMPDEST SWAP2 POP DUP2 SWAP1 POP SWAP3 SWAP2 POP POP JUMP JUMPDEST PUSH1 0x0 PUSH2 0xDEF DUP3 DUP5 PUSH2 0xCB2 JUMP JUMPDEST SWAP2 POP DUP2 SWAP1 POP SWAP3 SWAP2 POP POP JUMP JUMPDEST PUSH1 0x0 PUSH1 0x20 DUP3 ADD SWAP1 POP PUSH2 0xE0F PUSH1 0x0 DUP4 ADD DUP5 PUSH2 0xB8B JUMP JUMPDEST SWAP3 SWAP2 POP POP JUMP JUMPDEST PUSH1 0x0 PUSH2 0x180 DUP3 ADD SWAP1 POP DUP2 DUP2 SUB PUSH1 0x0 DUP4 ADD MSTORE PUSH2 0xE30 DUP2 DUP16 PUSH2 0xC48 JUMP JUMPDEST SWAP1 POP DUP2 DUP2 SUB PUSH1 0x20 DUP4 ADD MSTORE PUSH2 0xE44 DUP2 DUP15 PUSH2 0xC48 JUMP JUMPDEST SWAP1 POP DUP2 DUP2 SUB PUSH1 0x40 DUP4 ADD MSTORE PUSH2 0xE58 DUP2 DUP14 PUSH2 0xC48 JUMP JUMPDEST SWAP1 POP DUP2 DUP2 SUB PUSH1 0x60 DUP4 ADD MSTORE PUSH2 0xE6C DUP2 DUP13 PUSH2 0xC48 JUMP JUMPDEST SWAP1 POP DUP2 DUP2 SUB PUSH1 0x80 DUP4 ADD MSTORE PUSH2 0xE80 DUP2 DUP12 PUSH2 0xC48 JUMP JUMPDEST SWAP1 POP DUP2 DUP2 SUB PUSH1 0xA0 DUP4 ADD MSTORE PUSH2 0xE94 DUP2 DUP11 PUSH2 0xC48 JUMP JUMPDEST SWAP1 POP DUP2 DUP2 SUB PUSH1 0xC0 DUP4 ADD MSTORE PUSH2 0xEA8 DUP2 DUP10 PUSH2 0xC48 JUMP JUMPDEST SWAP1 POP PUSH2 0xEB7 PUSH1 0xE0 DUP4 ADD DUP9 PUSH2 0xDBD JUMP JUMPDEST PUSH2 0xEC5 PUSH2 0x100 DUP4 ADD DUP8 PUSH2 0xDBD JUMP JUMPDEST DUP2 DUP2 SUB PUSH2 0x120 DUP4 ADD MSTORE PUSH2 0xED8 DUP2 DUP7 PUSH2 0xB9A JUMP JUMPDEST SWAP1 POP PUSH2 0xEE8 PUSH2 0x140 DUP4 ADD DUP6 PUSH2 0xDBD JUMP JUMPDEST PUSH2 0xEF6 PUSH2 0x160 DUP4 ADD DUP5 PUSH2 0xB8B JUMP JUMPDEST SWAP14 SWAP13 POP POP POP POP POP POP POP POP POP POP POP POP POP JUMP JUMPDEST PUSH1 0x0 PUSH1 0x20 DUP3 ADD SWAP1 POP DUP2 DUP2 SUB PUSH1 0x0 DUP4 ADD MSTORE PUSH2 0xF20 DUP2 PUSH2 0xD31 JUMP JUMPDEST SWAP1 POP SWAP2 SWAP1 POP JUMP JUMPDEST PUSH1 0x0 PUSH1 0x20 DUP3 ADD SWAP1 POP DUP2 DUP2 SUB PUSH1 0x0 DUP4 ADD MSTORE PUSH2 0xF40 DUP2 PUSH2 0xD54 JUMP JUMPDEST SWAP1 POP SWAP2 SWAP1 POP JUMP JUMPDEST PUSH1 0x0 PUSH1 0x20 DUP3 ADD SWAP1 POP DUP2 DUP2 SUB PUSH1 0x0 DUP4 ADD MSTORE PUSH2 0xF60 DUP2 PUSH2 0xD77 JUMP JUMPDEST SWAP1 POP SWAP2 SWAP1 POP JUMP JUMPDEST PUSH1 0x0 PUSH1 0x20 DUP3 ADD SWAP1 POP DUP2 DUP2 SUB PUSH1 0x0 DUP4 ADD MSTORE PUSH2 0xF80 DUP2 PUSH2 0xD9A JUMP JUMPDEST SWAP1 POP SWAP2 SWAP1 POP JUMP JUMPDEST PUSH1 0x0 PUSH1 0x20 DUP3 ADD SWAP1 POP PUSH2 0xF9C PUSH1 0x0 DUP4 ADD DUP5 PUSH2 0xDBD JUMP JUMPDEST SWAP3 SWAP2 POP POP JUMP JUMPDEST PUSH1 0x0 PUSH2 0xFAC PUSH2 0xFBD JUMP JUMPDEST SWAP1 POP PUSH2 0xFB8 DUP3 DUP3 PUSH2 0x11B4 JUMP JUMPDEST SWAP2 SWAP1 POP JUMP JUMPDEST PUSH1 0x0 PUSH1 0x40 MLOAD SWAP1 POP SWAP1 JUMP JUMPDEST PUSH1 0x0 PUSH8 0xFFFFFFFFFFFFFFFF DUP3 GT ISZERO PUSH2 0xFE2 JUMPI PUSH2 0xFE1 PUSH2 0x12BB JUMP JUMPDEST JUMPDEST PUSH1 0x20 DUP3 MUL SWAP1 POP PUSH1 0x20 DUP2 ADD SWAP1 POP SWAP2 SWAP1 POP JUMP JUMPDEST PUSH1 0x0 PUSH8 0xFFFFFFFFFFFFFFFF DUP3 GT ISZERO PUSH2 0x100E JUMPI PUSH2 0x100D PUSH2 0x12BB JUMP JUMPDEST JUMPDEST PUSH2 0x1017 DUP3 PUSH2 0x1303 JUMP JUMPDEST SWAP1 POP PUSH1 0x20 DUP2 ADD SWAP1 POP SWAP2 SWAP1 POP JUMP JUMPDEST PUSH1 0x0 DUP2 SWAP1 POP PUSH1 0x20 DUP3 ADD SWAP1 POP SWAP2 SWAP1 POP JUMP JUMPDEST PUSH1 0x0 DUP2 SWAP1 POP DUP2 PUSH1 0x0 MSTORE PUSH1 0x20 PUSH1 0x0 KECCAK256 SWAP1 POP SWAP2 SWAP1 POP JUMP JUMPDEST PUSH1 0x0 DUP2 MLOAD SWAP1 POP SWAP2 SWAP1 POP JUMP JUMPDEST PUSH1 0x0 DUP2 MLOAD SWAP1 POP SWAP2 SWAP1 POP JUMP JUMPDEST PUSH1 0x0 PUSH1 0x20 DUP3 ADD SWAP1 POP SWAP2 SWAP1 POP JUMP JUMPDEST PUSH1 0x0 DUP3 DUP3 MSTORE PUSH1 0x20 DUP3 ADD SWAP1 POP SWAP3 SWAP2 POP POP JUMP JUMPDEST PUSH1 0x0 DUP3 DUP3 MSTORE PUSH1 0x20 DUP3 ADD SWAP1 POP SWAP3 SWAP2 POP POP JUMP JUMPDEST PUSH1 0x0 DUP3 DUP3 MSTORE PUSH1 0x20 DUP3 ADD SWAP1 POP SWAP3 SWAP2 POP POP JUMP JUMPDEST PUSH1 0x0 DUP2 SWAP1 POP SWAP3 SWAP2 POP POP JUMP JUMPDEST PUSH1 0x0 PUSH2 0x10B5 DUP3 PUSH2 0x1136 JUMP JUMPDEST SWAP2 POP PUSH2 0x10C0 DUP4 PUSH2 0x1136 JUMP JUMPDEST SWAP3 POP DUP2 PUSH32 0xFFFFFFFFFFFFFFFFFFFFFFFFFFFFFFFFFFFFFFFFFFFFFFFFFFFFFFFFFFFFFFFF DIV DUP4 GT DUP3 ISZERO ISZERO AND ISZERO PUSH2 0x10F9 JUMPI PUSH2 0x10F8 PUSH2 0x122E JUMP JUMPDEST JUMPDEST DUP3 DUP3 MUL SWAP1 POP SWAP3 SWAP2 POP POP JUMP JUMPDEST PUSH1 0x0 PUSH2 0x110F DUP3 PUSH2 0x1116 JUMP JUMPDEST SWAP1 POP SWAP2 SWAP1 POP JUMP JUMPDEST PUSH1 0x0 PUSH20 0xFFFFFFFFFFFFFFFFFFFFFFFFFFFFFFFFFFFFFFFF DUP3 AND SWAP1 POP SWAP2 SWAP1 POP JUMP JUMPDEST PUSH1 0x0 DUP2 SWAP1 POP SWAP2 SWAP1 POP JUMP JUMPDEST DUP3 DUP2 DUP4 CALLDATACOPY PUSH1 0x0 DUP4 DUP4 ADD MSTORE POP POP POP JUMP JUMPDEST PUSH1 0x0 JUMPDEST DUP4 DUP2 LT ISZERO PUSH2 0x116D JUMPI DUP1 DUP3 ADD MLOAD DUP2 DUP5 ADD MSTORE PUSH1 0x20 DUP2 ADD SWAP1 POP PUSH2 0x1152 JUMP JUMPDEST DUP4 DUP2 GT ISZERO PUSH2 0x117C JUMPI PUSH1 0x0 DUP5 DUP5 ADD MSTORE JUMPDEST POP POP POP POP JUMP JUMPDEST PUSH1 0x0 PUSH1 0x2 DUP3 DIV SWAP1 POP PUSH1 0x1 DUP3 AND DUP1 PUSH2 0x119A JUMPI PUSH1 0x7F DUP3 AND SWAP2 POP JUMPDEST PUSH1 0x20 DUP3 LT DUP2 EQ ISZERO PUSH2 0x11AE JUMPI PUSH2 0x11AD PUSH2 0x125D JUMP JUMPDEST JUMPDEST POP SWAP2 SWAP1 POP JUMP JUMPDEST PUSH2 0x11BD DUP3 PUSH2 0x1303 JUMP JUMPDEST DUP2 ADD DUP2 DUP2 LT PUSH8 0xFFFFFFFFFFFFFFFF DUP3 GT OR ISZERO PUSH2 0x11DC JUMPI PUSH2 0x11DB PUSH2 0x12BB JUMP JUMPDEST JUMPDEST DUP1 PUSH1 0x40 MSTORE POP POP POP JUMP JUMPDEST PUSH1 0x0 PUSH2 0x11F0 DUP3 PUSH2 0x1136 JUMP JUMPDEST SWAP2 POP PUSH32 0xFFFFFFFFFFFFFFFFFFFFFFFFFFFFFFFFFFFFFFFFFFFFFFFFFFFFFFFFFFFFFFFF DUP3 EQ ISZERO PUSH2 0x1223 JUMPI PUSH2 0x1222 PUSH2 0x122E JUMP JUMPDEST JUMPDEST PUSH1 0x1 DUP3 ADD SWAP1 POP SWAP2 SWAP1 POP JUMP JUMPDEST PUSH32 0x4E487B7100000000000000000000000000000000000000000000000000000000 PUSH1 0x0 MSTORE PUSH1 0x11 PUSH1 0x4 MSTORE PUSH1 0x24 PUSH1 0x0 REVERT JUMPDEST PUSH32 0x4E487B7100000000000000000000000000000000000000000000000000000000 PUSH1 0x0 MSTORE PUSH1 0x22 PUSH1 0x4 MSTORE PUSH1 0x24 PUSH1 0x0 REVERT JUMPDEST PUSH32 0x4E487B7100000000000000000000000000000000000000000000000000000000 PUSH1 0x0 MSTORE PUSH1 0x32 PUSH1 0x4 MSTORE PUSH1 0x24 PUSH1 0x0 REVERT JUMPDEST PUSH32 0x4E487B7100000000000000000000000000000000000000000000000000000000 PUSH1 0x0 MSTORE PUSH1 0x41 PUSH1 0x4 MSTORE PUSH1 0x24 PUSH1 0x0 REVERT JUMPDEST PUSH1 0x0 DUP1 REVERT JUMPDEST PUSH1 0x0 DUP1 REVERT JUMPDEST PUSH1 0x0 DUP1 REVERT JUMPDEST PUSH1 0x0 DUP1 REVERT JUMPDEST PUSH1 0x0 DUP1 REVERT JUMPDEST PUSH1 0x0 PUSH1 0x1F NOT PUSH1 0x1F DUP4 ADD AND SWAP1 POP SWAP2 SWAP1 POP JUMP JUMPDEST PUSH32 0x4E6F20737563682052656E74616C000000000000000000000000000000000000 PUSH1 0x0 DUP3 ADD MSTORE POP JUMP JUMPDEST PUSH32 0x506C65617365207375626D6974207468652061736B696E672070726963652069 PUSH1 0x0 DUP3 ADD MSTORE PUSH32 0x6E206F7264657220746F20636F6D706C65746520746865207075726368617365 PUSH1 0x20 DUP3 ADD MSTORE POP JUMP JUMPDEST PUSH32 0x4F6E6C7920746865206F776E6572206F662074686520736D61727420636F6E74 PUSH1 0x0 DUP3 ADD MSTORE PUSH32 0x726163742063616E207075742075702072656E74616C73000000000000000000 PUSH1 0x20 DUP3 ADD MSTORE POP JUMP JUMPDEST PUSH32 0x416C726561647920626F6F6B656420666F722072657175657374656420646174 PUSH1 0x0 DUP3 ADD MSTORE PUSH32 0x6500000000000000000000000000000000000000000000000000000000000000 PUSH1 0x20 DUP3 ADD MSTORE POP JUMP JUMPDEST PUSH2 0x1433 DUP2 PUSH2 0x1136 JUMP JUMPDEST DUP2 EQ PUSH2 0x143E JUMPI PUSH1 0x0 DUP1 REVERT JUMPDEST POP JUMP INVALID LOG2 PUSH5 0x6970667358 0x22 SLT KECCAK256 DUP12 EXTCODESIZE 0x4E DUP7 PUSH3 0xCAF2D3 0xC0 SAR PUSH25 0x87254C72384790530FC7C0DC1FB5E7D6761AF70B0464736F6C PUSH4 0x43000807 STOP CALLER "
				},
				"gasEstimates": {
					"creation": {
						"codeDepositCost": "1047800",
						"executionCost": "30367",
						"totalCost": "1078167"
					},
					"external": {
						"addDatesBooked(uint256,string[])": "infinite",
						"addRentels(string,string,string,string,string,string,string,uint256,uint256,string[])": "infinite",
						"owner()": "2533",
						"rentalIds(uint256)": "infinite"
					},
					"internal": {
						"checkBookings(uint256,string memory[] memory)": "infinite"
					}
				},
				"methodIdentifiers": {
					"addDatesBooked(uint256,string[])": "2a23bb72",
					"addRentels(string,string,string,string,string,string,string,uint256,uint256,string[])": "611fa0a8",
					"owner()": "8da5cb5b",
					"rentalIds(uint256)": "ebfa74c9"
				}
			},
			"storageLayout": {
				"storage": [
					{
						"astId": 3,
						"contract": "contracts/Aquaroom.sol:aquaroom",
						"label": "owner",
						"offset": 0,
						"slot": "0",
						"type": "t_address"
					},
					{
						"astId": 5,
						"contract": "contracts/Aquaroom.sol:aquaroom",
						"label": "counter",
						"offset": 0,
						"slot": "1",
						"type": "t_uint256"
					},
					{
						"astId": 89,
						"contract": "contracts/Aquaroom.sol:aquaroom",
						"label": "rentals",
						"offset": 0,
						"slot": "2",
						"type": "t_mapping(t_uint256,t_struct(rentalInfo)44_storage)"
					},
					{
						"astId": 92,
						"contract": "contracts/Aquaroom.sol:aquaroom",
						"label": "rentalIds",
						"offset": 0,
						"slot": "3",
						"type": "t_array(t_uint256)dyn_storage"
					}
				],
				"types": {
					"t_address": {
						"encoding": "inplace",
						"label": "address",
						"numberOfBytes": "20"
					},
					"t_array(t_string_storage)dyn_storage": {
						"base": "t_string_storage",
						"encoding": "dynamic_array",
						"label": "string[]",
						"numberOfBytes": "32"
					},
					"t_array(t_uint256)dyn_storage": {
						"base": "t_uint256",
						"encoding": "dynamic_array",
						"label": "uint256[]",
						"numberOfBytes": "32"
					},
					"t_mapping(t_uint256,t_struct(rentalInfo)44_storage)": {
						"encoding": "mapping",
						"key": "t_uint256",
						"label": "mapping(uint256 => struct aquaroom.rentalInfo)",
						"numberOfBytes": "32",
						"value": "t_struct(rentalInfo)44_storage"
					},
					"t_string_storage": {
						"encoding": "bytes",
						"label": "string",
						"numberOfBytes": "32"
					},
					"t_struct(rentalInfo)44_storage": {
						"encoding": "inplace",
						"label": "struct aquaroom.rentalInfo",
						"members": [
							{
								"astId": 20,
								"contract": "contracts/Aquaroom.sol:aquaroom",
								"label": "name",
								"offset": 0,
								"slot": "0",
								"type": "t_string_storage"
							},
							{
								"astId": 22,
								"contract": "contracts/Aquaroom.sol:aquaroom",
								"label": "city",
								"offset": 0,
								"slot": "1",
								"type": "t_string_storage"
							},
							{
								"astId": 24,
								"contract": "contracts/Aquaroom.sol:aquaroom",
								"label": "lat",
								"offset": 0,
								"slot": "2",
								"type": "t_string_storage"
							},
							{
								"astId": 26,
								"contract": "contracts/Aquaroom.sol:aquaroom",
								"label": "long",
								"offset": 0,
								"slot": "3",
								"type": "t_string_storage"
							},
							{
								"astId": 28,
								"contract": "contracts/Aquaroom.sol:aquaroom",
								"label": "unoDescription",
								"offset": 0,
								"slot": "4",
								"type": "t_string_storage"
							},
							{
								"astId": 30,
								"contract": "contracts/Aquaroom.sol:aquaroom",
								"label": "dosDescription",
								"offset": 0,
								"slot": "5",
								"type": "t_string_storage"
							},
							{
								"astId": 32,
								"contract": "contracts/Aquaroom.sol:aquaroom",
								"label": "imgUrl",
								"offset": 0,
								"slot": "6",
								"type": "t_string_storage"
							},
							{
								"astId": 34,
								"contract": "contracts/Aquaroom.sol:aquaroom",
								"label": "maxGuests",
								"offset": 0,
								"slot": "7",
								"type": "t_uint256"
							},
							{
								"astId": 36,
								"contract": "contracts/Aquaroom.sol:aquaroom",
								"label": "pricePerDay",
								"offset": 0,
								"slot": "8",
								"type": "t_uint256"
							},
							{
								"astId": 39,
								"contract": "contracts/Aquaroom.sol:aquaroom",
								"label": "datesBooked",
								"offset": 0,
								"slot": "9",
								"type": "t_array(t_string_storage)dyn_storage"
							},
							{
								"astId": 41,
								"contract": "contracts/Aquaroom.sol:aquaroom",
								"label": "id",
								"offset": 0,
								"slot": "10",
								"type": "t_uint256"
							},
							{
								"astId": 43,
								"contract": "contracts/Aquaroom.sol:aquaroom",
								"label": "renter",
								"offset": 0,
								"slot": "11",
								"type": "t_address"
							}
						],
						"numberOfBytes": "384"
					},
					"t_uint256": {
						"encoding": "inplace",
						"label": "uint256",
						"numberOfBytes": "32"
					}
				}
			},
			"userdoc": {
				"kind": "user",
				"methods": {},
				"version": 1
			}
		}
	}
}