{
	"contracts/Aquaroom.sol": {
		"aquaroom": {
			"abi": [
				{
					"inputs": [],
					"stateMutability": "nonpayable",
					"type": "constructor"
				},
				{
					"anonymous": false,
					"inputs": [
						{
							"indexed": false,
							"internalType": "string[]",
							"name": "datesBooked",
							"type": "string[]"
						},
						{
							"indexed": false,
							"internalType": "uint256",
							"name": "id",
							"type": "uint256"
						},
						{
							"indexed": false,
							"internalType": "address",
							"name": "booker",
							"type": "address"
						},
						{
							"indexed": false,
							"internalType": "string",
							"name": "city",
							"type": "string"
						},
						{
							"indexed": false,
							"internalType": "string",
							"name": "imgUrl",
							"type": "string"
						}
					],
					"name": "newDatesBooked",
					"type": "event"
				},
				{
					"anonymous": false,
					"inputs": [
						{
							"indexed": false,
							"internalType": "string",
							"name": "name",
							"type": "string"
						},
						{
							"indexed": false,
							"internalType": "string",
							"name": "city",
							"type": "string"
						},
						{
							"indexed": false,
							"internalType": "string",
							"name": "lat",
							"type": "string"
						},
						{
							"indexed": false,
							"internalType": "string",
							"name": "long",
							"type": "string"
						},
						{
							"indexed": false,
							"internalType": "string",
							"name": "unoDescription",
							"type": "string"
						},
						{
							"indexed": false,
							"internalType": "string",
							"name": "dosDescription",
							"type": "string"
						},
						{
							"indexed": false,
							"internalType": "string",
							"name": "imgUrl",
							"type": "string"
						},
						{
							"indexed": false,
							"internalType": "uint256",
							"name": "maxGuests",
							"type": "uint256"
						},
						{
							"indexed": false,
							"internalType": "uint256",
							"name": "pricePerDay",
							"type": "uint256"
						},
						{
							"indexed": false,
							"internalType": "string[]",
							"name": "datesBooked",
							"type": "string[]"
						},
						{
							"indexed": false,
							"internalType": "uint256",
							"name": "id",
							"type": "uint256"
						},
						{
							"indexed": false,
							"internalType": "address",
							"name": "renter",
							"type": "address"
						}
					],
					"name": "rentalCreated",
					"type": "event"
				},
				{
					"inputs": [
						{
							"internalType": "uint256",
							"name": "id",
							"type": "uint256"
						},
						{
							"internalType": "string[]",
							"name": "newBookings",
							"type": "string[]"
						}
					],
					"name": "addDatesBooked",
					"outputs": [],
					"stateMutability": "payable",
					"type": "function"
				},
				{
					"inputs": [
						{
							"internalType": "string",
							"name": "name",
							"type": "string"
						},
						{
							"internalType": "string",
							"name": "city",
							"type": "string"
						},
						{
							"internalType": "string",
							"name": "lat",
							"type": "string"
						},
						{
							"internalType": "string",
							"name": "long",
							"type": "string"
						},
						{
							"internalType": "string",
							"name": "unoDescription",
							"type": "string"
						},
						{
							"internalType": "string",
							"name": "dosDescription",
							"type": "string"
						},
						{
							"internalType": "string",
							"name": "imgUrl",
							"type": "string"
						},
						{
							"internalType": "uint256",
							"name": "maxGuests",
							"type": "uint256"
						},
						{
							"internalType": "uint256",
							"name": "pricePerDay",
							"type": "uint256"
						},
						{
							"internalType": "string[]",
							"name": "datesBooked",
							"type": "string[]"
						}
					],
					"name": "addRentels",
					"outputs": [],
					"stateMutability": "nonpayable",
					"type": "function"
				},
				{
					"inputs": [
						{
							"internalType": "uint256",
							"name": "id",
							"type": "uint256"
						}
					],
					"name": "getRentals",
					"outputs": [
						{
							"internalType": "string",
							"name": "",
							"type": "string"
						},
						{
							"internalType": "uint256",
							"name": "",
							"type": "uint256"
						},
						{
							"internalType": "string[]",
							"name": "",
							"type": "string[]"
						}
					],
					"stateMutability": "view",
					"type": "function"
				},
				{
					"inputs": [],
					"name": "owner",
					"outputs": [
						{
							"internalType": "address",
							"name": "",
							"type": "address"
						}
					],
					"stateMutability": "view",
					"type": "function"
				},
				{
					"inputs": [
						{
							"internalType": "uint256",
							"name": "",
							"type": "uint256"
						}
					],
					"name": "rentalIds",
					"outputs": [
						{
							"internalType": "uint256",
							"name": "",
							"type": "uint256"
						}
					],
					"stateMutability": "view",
					"type": "function"
				}
			],
			"devdoc": {
				"kind": "dev",
				"methods": {},
				"version": 1
			},
			"evm": {
				"assembly": "    /* \"contracts/Aquaroom.sol\":60:3913  contract aquaroom {\r... */\n  mstore(0x40, 0x80)\n    /* \"contracts/Aquaroom.sol\":146:220  constructor () {\r... */\n  callvalue\n  dup1\n  iszero\n  tag_1\n  jumpi\n  0x00\n  dup1\n  revert\ntag_1:\n  pop\n    /* \"contracts/Aquaroom.sol\":182:183  0 */\n  0x00\n    /* \"contracts/Aquaroom.sol\":172:179  counter */\n  0x01\n    /* \"contracts/Aquaroom.sol\":172:183  counter = 0 */\n  dup2\n  swap1\n  sstore\n  pop\n    /* \"contracts/Aquaroom.sol\":202:212  msg.sender */\n  caller\n    /* \"contracts/Aquaroom.sol\":194:199  owner */\n  0x00\n  dup1\n    /* \"contracts/Aquaroom.sol\":194:212  owner = msg.sender */\n  0x0100\n  exp\n  dup2\n  sload\n  dup2\n  0xffffffffffffffffffffffffffffffffffffffff\n  mul\n  not\n  and\n  swap1\n  dup4\n  0xffffffffffffffffffffffffffffffffffffffff\n  and\n  mul\n  or\n  swap1\n  sstore\n  pop\n    /* \"contracts/Aquaroom.sol\":60:3913  contract aquaroom {\r... */\n  dataSize(sub_0)\n  dup1\n  dataOffset(sub_0)\n  0x00\n  codecopy\n  0x00\n  return\nstop\n\nsub_0: assembly {\n        /* \"contracts/Aquaroom.sol\":60:3913  contract aquaroom {\r... */\n      mstore(0x40, 0x80)\n      jumpi(tag_1, lt(calldatasize, 0x04))\n      shr(0xe0, calldataload(0x00))\n      dup1\n      0x2a23bb72\n      eq\n      tag_2\n      jumpi\n      dup1\n      0x611fa0a8\n      eq\n      tag_3\n      jumpi\n      dup1\n      0x8da5cb5b\n      eq\n      tag_4\n      jumpi\n      dup1\n      0xd496498f\n      eq\n      tag_5\n      jumpi\n      dup1\n      0xebfa74c9\n      eq\n      tag_6\n      jumpi\n    tag_1:\n      0x00\n      dup1\n      revert\n        /* \"contracts/Aquaroom.sol\":2989:3644  function addDatesBooked(uint256 id, string[] memory newBookings) public payable {\r... */\n    tag_2:\n      tag_7\n      0x04\n      dup1\n      calldatasize\n      sub\n      dup2\n      add\n      swap1\n      tag_8\n      swap2\n      swap1\n      tag_9\n      jump\t// in\n    tag_8:\n      tag_10\n      jump\t// in\n    tag_7:\n      stop\n        /* \"contracts/Aquaroom.sol\":1162:2517  function addRentels(\r... */\n    tag_3:\n      callvalue\n      dup1\n      iszero\n      tag_11\n      jumpi\n      0x00\n      dup1\n      revert\n    tag_11:\n      pop\n      tag_12\n      0x04\n      dup1\n      calldatasize\n      sub\n      dup2\n      add\n      swap1\n      tag_13\n      swap2\n      swap1\n      tag_14\n      jump\t// in\n    tag_13:\n      tag_15\n      jump\t// in\n    tag_12:\n      stop\n        /* \"contracts/Aquaroom.sol\":87:107  address public owner */\n    tag_4:\n      callvalue\n      dup1\n      iszero\n      tag_16\n      jumpi\n      0x00\n      dup1\n      revert\n    tag_16:\n      pop\n      tag_17\n      tag_18\n      jump\t// in\n    tag_17:\n      mload(0x40)\n      tag_19\n      swap2\n      swap1\n      tag_20\n      jump\t// in\n    tag_19:\n      mload(0x40)\n      dup1\n      swap2\n      sub\n      swap1\n      return\n        /* \"contracts/Aquaroom.sol\":3652:3908  function getRentals (uint256 id) public view returns (string memory, uint256, string[] memory) {\r... */\n    tag_5:\n      callvalue\n      dup1\n      iszero\n      tag_21\n      jumpi\n      0x00\n      dup1\n      revert\n    tag_21:\n      pop\n      tag_22\n      0x04\n      dup1\n      calldatasize\n      sub\n      dup2\n      add\n      swap1\n      tag_23\n      swap2\n      swap1\n      tag_24\n      jump\t// in\n    tag_23:\n      tag_25\n      jump\t// in\n    tag_22:\n      mload(0x40)\n      tag_26\n      swap4\n      swap3\n      swap2\n      swap1\n      tag_27\n      jump\t// in\n    tag_26:\n      mload(0x40)\n      dup1\n      swap2\n      sub\n      swap1\n      return\n        /* \"contracts/Aquaroom.sol\":1127:1153  uint256[] public rentalIds */\n    tag_6:\n      callvalue\n      dup1\n      iszero\n      tag_28\n      jumpi\n      0x00\n      dup1\n      revert\n    tag_28:\n      pop\n      tag_29\n      0x04\n      dup1\n      calldatasize\n      sub\n      dup2\n      add\n      swap1\n      tag_30\n      swap2\n      swap1\n      tag_24\n      jump\t// in\n    tag_30:\n      tag_31\n      jump\t// in\n    tag_29:\n      mload(0x40)\n      tag_32\n      swap2\n      swap1\n      tag_33\n      jump\t// in\n    tag_32:\n      mload(0x40)\n      dup1\n      swap2\n      sub\n      swap1\n      return\n        /* \"contracts/Aquaroom.sol\":2989:3644  function addDatesBooked(uint256 id, string[] memory newBookings) public payable {\r... */\n    tag_10:\n        /* \"contracts/Aquaroom.sol\":3093:3100  counter */\n      sload(0x01)\n        /* \"contracts/Aquaroom.sol\":3088:3090  id */\n      dup3\n        /* \"contracts/Aquaroom.sol\":3088:3100  id < counter */\n      lt\n        /* \"contracts/Aquaroom.sol\":3080:3119  require(id < counter, \"No such Rental\") */\n      tag_35\n      jumpi\n      mload(0x40)\n      0x08c379a000000000000000000000000000000000000000000000000000000000\n      dup2\n      mstore\n      0x04\n      add\n      tag_36\n      swap1\n      tag_37\n      jump\t// in\n    tag_36:\n      mload(0x40)\n      dup1\n      swap2\n      sub\n      swap1\n      revert\n    tag_35:\n        /* \"contracts/Aquaroom.sol\":3138:3168  checkBookings(id, newBookings) */\n      tag_38\n        /* \"contracts/Aquaroom.sol\":3152:3154  id */\n      dup3\n        /* \"contracts/Aquaroom.sol\":3156:3167  newBookings */\n      dup3\n        /* \"contracts/Aquaroom.sol\":3138:3151  checkBookings */\n      tag_39\n        /* \"contracts/Aquaroom.sol\":3138:3168  checkBookings(id, newBookings) */\n      jump\t// in\n    tag_38:\n        /* \"contracts/Aquaroom.sol\":3130:3206  require(checkBookings(id, newBookings), \"Already booked for requested date\") */\n      tag_40\n      jumpi\n      mload(0x40)\n      0x08c379a000000000000000000000000000000000000000000000000000000000\n      dup2\n      mstore\n      0x04\n      add\n      tag_41\n      swap1\n      tag_42\n      jump\t// in\n    tag_41:\n      mload(0x40)\n      dup1\n      swap2\n      sub\n      swap1\n      revert\n    tag_40:\n        /* \"contracts/Aquaroom.sol\":3275:3286  newBookings */\n      dup1\n        /* \"contracts/Aquaroom.sol\":3275:3293  newBookings.length */\n      mload\n        /* \"contracts/Aquaroom.sol\":3265:3272  1 ether */\n      0x0de0b6b3a7640000\n        /* \"contracts/Aquaroom.sol\":3239:3246  rentals */\n      0x02\n        /* \"contracts/Aquaroom.sol\":3239:3250  rentals[id] */\n      0x00\n        /* \"contracts/Aquaroom.sol\":3247:3249  id */\n      dup6\n        /* \"contracts/Aquaroom.sol\":3239:3250  rentals[id] */\n      dup2\n      mstore\n      0x20\n      add\n      swap1\n      dup2\n      mstore\n      0x20\n      add\n      0x00\n      keccak256\n        /* \"contracts/Aquaroom.sol\":3239:3262  rentals[id].pricePerDay */\n      0x08\n      add\n      sload\n        /* \"contracts/Aquaroom.sol\":3239:3272  rentals[id].pricePerDay * 1 ether */\n      tag_43\n      swap2\n      swap1\n      tag_44\n      jump\t// in\n    tag_43:\n        /* \"contracts/Aquaroom.sol\":3239:3293  rentals[id].pricePerDay * 1 ether * newBookings.length */\n      tag_45\n      swap2\n      swap1\n      tag_44\n      jump\t// in\n    tag_45:\n        /* \"contracts/Aquaroom.sol\":3225:3234  msg.value */\n      callvalue\n        /* \"contracts/Aquaroom.sol\":3225:3294  msg.value == (rentals[id].pricePerDay * 1 ether * newBookings.length) */\n      eq\n        /* \"contracts/Aquaroom.sol\":3217:3363  require(msg.value == (rentals[id].pricePerDay * 1 ether * newBookings.length), \"Please submit the asking price in order to complete the purchase\") */\n      tag_46\n      jumpi\n      mload(0x40)\n      0x08c379a000000000000000000000000000000000000000000000000000000000\n      dup2\n      mstore\n      0x04\n      add\n      tag_47\n      swap1\n      tag_48\n      jump\t// in\n    tag_47:\n      mload(0x40)\n      dup1\n      swap2\n      sub\n      swap1\n      revert\n    tag_46:\n        /* \"contracts/Aquaroom.sol\":3381:3387  uint i */\n      0x00\n        /* \"contracts/Aquaroom.sol\":3376:3493  for (uint i = 0; i < newBookings.length; i++) {\r... */\n    tag_49:\n        /* \"contracts/Aquaroom.sol\":3397:3408  newBookings */\n      dup2\n        /* \"contracts/Aquaroom.sol\":3397:3415  newBookings.length */\n      mload\n        /* \"contracts/Aquaroom.sol\":3393:3394  i */\n      dup2\n        /* \"contracts/Aquaroom.sol\":3393:3415  i < newBookings.length */\n      lt\n        /* \"contracts/Aquaroom.sol\":3376:3493  for (uint i = 0; i < newBookings.length; i++) {\r... */\n      iszero\n      tag_50\n      jumpi\n        /* \"contracts/Aquaroom.sol\":3437:3444  rentals */\n      0x02\n        /* \"contracts/Aquaroom.sol\":3437:3448  rentals[id] */\n      0x00\n        /* \"contracts/Aquaroom.sol\":3445:3447  id */\n      dup5\n        /* \"contracts/Aquaroom.sol\":3437:3448  rentals[id] */\n      dup2\n      mstore\n      0x20\n      add\n      swap1\n      dup2\n      mstore\n      0x20\n      add\n      0x00\n      keccak256\n        /* \"contracts/Aquaroom.sol\":3437:3460  rentals[id].datesBooked */\n      0x09\n      add\n        /* \"contracts/Aquaroom.sol\":3466:3477  newBookings */\n      dup3\n        /* \"contracts/Aquaroom.sol\":3478:3479  i */\n      dup3\n        /* \"contracts/Aquaroom.sol\":3466:3480  newBookings[i] */\n      dup2\n      mload\n      dup2\n      lt\n      tag_52\n      jumpi\n      tag_53\n      tag_54\n      jump\t// in\n    tag_53:\n    tag_52:\n      0x20\n      mul\n      0x20\n      add\n      add\n      mload\n        /* \"contracts/Aquaroom.sol\":3437:3481  rentals[id].datesBooked.push(newBookings[i]) */\n      swap1\n      dup1\n      0x01\n      dup2\n      sload\n      add\n      dup1\n      dup3\n      sstore\n      dup1\n      swap2\n      pop\n      pop\n      0x01\n      swap1\n      sub\n      swap1\n      0x00\n      mstore\n      keccak256(0x00, 0x20)\n      add\n      0x00\n      swap1\n      swap2\n      swap1\n      swap2\n      swap1\n      swap2\n      pop\n      swap1\n      dup1\n      mload\n      swap1\n      0x20\n      add\n      swap1\n      tag_56\n      swap3\n      swap2\n      swap1\n      tag_57\n      jump\t// in\n    tag_56:\n      pop\n        /* \"contracts/Aquaroom.sol\":3417:3420  i++ */\n      dup1\n      dup1\n      tag_58\n      swap1\n      tag_59\n      jump\t// in\n    tag_58:\n      swap2\n      pop\n      pop\n        /* \"contracts/Aquaroom.sol\":3376:3493  for (uint i = 0; i < newBookings.length; i++) {\r... */\n      jump(tag_49)\n    tag_50:\n      pop\n        /* \"contracts/Aquaroom.sol\":3513:3518  owner */\n      0x00\n      dup1\n      sload\n      swap1\n      0x0100\n      exp\n      swap1\n      div\n      0xffffffffffffffffffffffffffffffffffffffff\n      and\n        /* \"contracts/Aquaroom.sol\":3505:3528  payable(owner).transfer */\n      0xffffffffffffffffffffffffffffffffffffffff\n      and\n        /* \"contracts/Aquaroom.sol\":3505:3539  payable(owner).transfer(msg.value) */\n      0x08fc\n        /* \"contracts/Aquaroom.sol\":3529:3538  msg.value */\n      callvalue\n        /* \"contracts/Aquaroom.sol\":3505:3539  payable(owner).transfer(msg.value) */\n      swap1\n      dup2\n      iszero\n      mul\n      swap1\n      mload(0x40)\n      0x00\n      mload(0x40)\n      dup1\n      dup4\n      sub\n      dup2\n      dup6\n      dup9\n      dup9\n      call\n      swap4\n      pop\n      pop\n      pop\n      pop\n      iszero\n      dup1\n      iszero\n      tag_61\n      jumpi\n      returndatasize\n      0x00\n      dup1\n      returndatacopy\n      revert(0x00, returndatasize)\n    tag_61:\n      pop\n        /* \"contracts/Aquaroom.sol\":3555:3636  newDatesBooked(newBookings, id, msg.sender, rentals[id].city, rentals[id].imgUrl) */\n      0xdfcc683ac35013d595a2db07bcb6601a1bbc6c91dad13117fd60299c875c61b4\n        /* \"contracts/Aquaroom.sol\":3570:3581  newBookings */\n      dup2\n        /* \"contracts/Aquaroom.sol\":3583:3585  id */\n      dup4\n        /* \"contracts/Aquaroom.sol\":3587:3597  msg.sender */\n      caller\n        /* \"contracts/Aquaroom.sol\":3599:3606  rentals */\n      0x02\n        /* \"contracts/Aquaroom.sol\":3599:3610  rentals[id] */\n      0x00\n        /* \"contracts/Aquaroom.sol\":3607:3609  id */\n      dup8\n        /* \"contracts/Aquaroom.sol\":3599:3610  rentals[id] */\n      dup2\n      mstore\n      0x20\n      add\n      swap1\n      dup2\n      mstore\n      0x20\n      add\n      0x00\n      keccak256\n        /* \"contracts/Aquaroom.sol\":3599:3615  rentals[id].city */\n      0x01\n      add\n        /* \"contracts/Aquaroom.sol\":3617:3624  rentals */\n      0x02\n        /* \"contracts/Aquaroom.sol\":3617:3628  rentals[id] */\n      0x00\n        /* \"contracts/Aquaroom.sol\":3625:3627  id */\n      dup9\n        /* \"contracts/Aquaroom.sol\":3617:3628  rentals[id] */\n      dup2\n      mstore\n      0x20\n      add\n      swap1\n      dup2\n      mstore\n      0x20\n      add\n      0x00\n      keccak256\n        /* \"contracts/Aquaroom.sol\":3617:3635  rentals[id].imgUrl */\n      0x06\n      add\n        /* \"contracts/Aquaroom.sol\":3555:3636  newDatesBooked(newBookings, id, msg.sender, rentals[id].city, rentals[id].imgUrl) */\n      mload(0x40)\n      tag_62\n      swap6\n      swap5\n      swap4\n      swap3\n      swap2\n      swap1\n      tag_63\n      jump\t// in\n    tag_62:\n      mload(0x40)\n      dup1\n      swap2\n      sub\n      swap1\n      log1\n        /* \"contracts/Aquaroom.sol\":2989:3644  function addDatesBooked(uint256 id, string[] memory newBookings) public payable {\r... */\n      pop\n      pop\n      jump\t// out\n        /* \"contracts/Aquaroom.sol\":1162:2517  function addRentels(\r... */\n    tag_15:\n        /* \"contracts/Aquaroom.sol\":1549:1554  owner */\n      0x00\n      dup1\n      sload\n      swap1\n      0x0100\n      exp\n      swap1\n      div\n      0xffffffffffffffffffffffffffffffffffffffff\n      and\n        /* \"contracts/Aquaroom.sol\":1535:1554  msg.sender == owner */\n      0xffffffffffffffffffffffffffffffffffffffff\n      and\n        /* \"contracts/Aquaroom.sol\":1535:1545  msg.sender */\n      caller\n        /* \"contracts/Aquaroom.sol\":1535:1554  msg.sender == owner */\n      0xffffffffffffffffffffffffffffffffffffffff\n      and\n      eq\n        /* \"contracts/Aquaroom.sol\":1527:1614  require(msg.sender == owner, \"Only the owner of the smart contract can put up rentals\") */\n      tag_65\n      jumpi\n      mload(0x40)\n      0x08c379a000000000000000000000000000000000000000000000000000000000\n      dup2\n      mstore\n      0x04\n      add\n      tag_66\n      swap1\n      tag_67\n      jump\t// in\n    tag_66:\n      mload(0x40)\n      dup1\n      swap2\n      sub\n      swap1\n      revert\n    tag_65:\n        /* \"contracts/Aquaroom.sol\":1625:1653  rentalInfo storage newRental */\n      0x00\n        /* \"contracts/Aquaroom.sol\":1656:1663  rentals */\n      0x02\n        /* \"contracts/Aquaroom.sol\":1656:1672  rentals[counter] */\n      0x00\n        /* \"contracts/Aquaroom.sol\":1664:1671  counter */\n      sload(0x01)\n        /* \"contracts/Aquaroom.sol\":1656:1672  rentals[counter] */\n      dup2\n      mstore\n      0x20\n      add\n      swap1\n      dup2\n      mstore\n      0x20\n      add\n      0x00\n      keccak256\n        /* \"contracts/Aquaroom.sol\":1625:1672  rentalInfo storage newRental = rentals[counter] */\n      swap1\n      pop\n        /* \"contracts/Aquaroom.sol\":1700:1704  name */\n      dup11\n        /* \"contracts/Aquaroom.sol\":1683:1692  newRental */\n      dup2\n        /* \"contracts/Aquaroom.sol\":1683:1697  newRental.name */\n      0x00\n      add\n        /* \"contracts/Aquaroom.sol\":1683:1704  newRental.name = name */\n      swap1\n      dup1\n      mload\n      swap1\n      0x20\n      add\n      swap1\n      tag_68\n      swap3\n      swap2\n      swap1\n      tag_57\n      jump\t// in\n    tag_68:\n      pop\n        /* \"contracts/Aquaroom.sol\":1732:1736  city */\n      dup10\n        /* \"contracts/Aquaroom.sol\":1715:1724  newRental */\n      dup2\n        /* \"contracts/Aquaroom.sol\":1715:1729  newRental.city */\n      0x01\n      add\n        /* \"contracts/Aquaroom.sol\":1715:1736  newRental.city = city */\n      swap1\n      dup1\n      mload\n      swap1\n      0x20\n      add\n      swap1\n      tag_69\n      swap3\n      swap2\n      swap1\n      tag_57\n      jump\t// in\n    tag_69:\n      pop\n        /* \"contracts/Aquaroom.sol\":1763:1766  lat */\n      dup9\n        /* \"contracts/Aquaroom.sol\":1747:1756  newRental */\n      dup2\n        /* \"contracts/Aquaroom.sol\":1747:1760  newRental.lat */\n      0x02\n      add\n        /* \"contracts/Aquaroom.sol\":1747:1766  newRental.lat = lat */\n      swap1\n      dup1\n      mload\n      swap1\n      0x20\n      add\n      swap1\n      tag_70\n      swap3\n      swap2\n      swap1\n      tag_57\n      jump\t// in\n    tag_70:\n      pop\n        /* \"contracts/Aquaroom.sol\":1794:1798  long */\n      dup8\n        /* \"contracts/Aquaroom.sol\":1777:1786  newRental */\n      dup2\n        /* \"contracts/Aquaroom.sol\":1777:1791  newRental.long */\n      0x03\n      add\n        /* \"contracts/Aquaroom.sol\":1777:1798  newRental.long = long */\n      swap1\n      dup1\n      mload\n      swap1\n      0x20\n      add\n      swap1\n      tag_71\n      swap3\n      swap2\n      swap1\n      tag_57\n      jump\t// in\n    tag_71:\n      pop\n        /* \"contracts/Aquaroom.sol\":1836:1850  unoDescription */\n      dup7\n        /* \"contracts/Aquaroom.sol\":1809:1818  newRental */\n      dup2\n        /* \"contracts/Aquaroom.sol\":1809:1833  newRental.unoDescription */\n      0x04\n      add\n        /* \"contracts/Aquaroom.sol\":1809:1850  newRental.unoDescription = unoDescription */\n      swap1\n      dup1\n      mload\n      swap1\n      0x20\n      add\n      swap1\n      tag_72\n      swap3\n      swap2\n      swap1\n      tag_57\n      jump\t// in\n    tag_72:\n      pop\n        /* \"contracts/Aquaroom.sol\":1888:1902  dosDescription */\n      dup6\n        /* \"contracts/Aquaroom.sol\":1861:1870  newRental */\n      dup2\n        /* \"contracts/Aquaroom.sol\":1861:1885  newRental.dosDescription */\n      0x05\n      add\n        /* \"contracts/Aquaroom.sol\":1861:1902  newRental.dosDescription = dosDescription */\n      swap1\n      dup1\n      mload\n      swap1\n      0x20\n      add\n      swap1\n      tag_73\n      swap3\n      swap2\n      swap1\n      tag_57\n      jump\t// in\n    tag_73:\n      pop\n        /* \"contracts/Aquaroom.sol\":1932:1938  imgUrl */\n      dup5\n        /* \"contracts/Aquaroom.sol\":1913:1922  newRental */\n      dup2\n        /* \"contracts/Aquaroom.sol\":1913:1929  newRental.imgUrl */\n      0x06\n      add\n        /* \"contracts/Aquaroom.sol\":1913:1938  newRental.imgUrl = imgUrl */\n      swap1\n      dup1\n      mload\n      swap1\n      0x20\n      add\n      swap1\n      tag_74\n      swap3\n      swap2\n      swap1\n      tag_57\n      jump\t// in\n    tag_74:\n      pop\n        /* \"contracts/Aquaroom.sol\":1971:1980  maxGuests */\n      dup4\n        /* \"contracts/Aquaroom.sol\":1949:1958  newRental */\n      dup2\n        /* \"contracts/Aquaroom.sol\":1949:1968  newRental.maxGuests */\n      0x07\n      add\n        /* \"contracts/Aquaroom.sol\":1949:1980  newRental.maxGuests = maxGuests */\n      dup2\n      swap1\n      sstore\n      pop\n        /* \"contracts/Aquaroom.sol\":2015:2026  pricePerDay */\n      dup3\n        /* \"contracts/Aquaroom.sol\":1991:2000  newRental */\n      dup2\n        /* \"contracts/Aquaroom.sol\":1991:2012  newRental.pricePerDay */\n      0x08\n      add\n        /* \"contracts/Aquaroom.sol\":1991:2026  newRental.pricePerDay = pricePerDay */\n      dup2\n      swap1\n      sstore\n      pop\n        /* \"contracts/Aquaroom.sol\":2061:2072  datesBooked */\n      dup2\n        /* \"contracts/Aquaroom.sol\":2037:2046  newRental */\n      dup2\n        /* \"contracts/Aquaroom.sol\":2037:2058  newRental.datesBooked */\n      0x09\n      add\n        /* \"contracts/Aquaroom.sol\":2037:2072  newRental.datesBooked = datesBooked */\n      swap1\n      dup1\n      mload\n      swap1\n      0x20\n      add\n      swap1\n      tag_75\n      swap3\n      swap2\n      swap1\n      tag_76\n      jump\t// in\n    tag_75:\n      pop\n        /* \"contracts/Aquaroom.sol\":2098:2105  counter */\n      sload(0x01)\n        /* \"contracts/Aquaroom.sol\":2083:2092  newRental */\n      dup2\n        /* \"contracts/Aquaroom.sol\":2083:2095  newRental.id */\n      0x0a\n      add\n        /* \"contracts/Aquaroom.sol\":2083:2105  newRental.id = counter */\n      dup2\n      swap1\n      sstore\n      pop\n        /* \"contracts/Aquaroom.sol\":2135:2140  owner */\n      0x00\n      dup1\n      sload\n      swap1\n      0x0100\n      exp\n      swap1\n      div\n      0xffffffffffffffffffffffffffffffffffffffff\n      and\n        /* \"contracts/Aquaroom.sol\":2116:2125  newRental */\n      dup2\n        /* \"contracts/Aquaroom.sol\":2116:2132  newRental.renter */\n      0x0b\n      add\n      0x00\n        /* \"contracts/Aquaroom.sol\":2116:2140  newRental.renter = owner */\n      0x0100\n      exp\n      dup2\n      sload\n      dup2\n      0xffffffffffffffffffffffffffffffffffffffff\n      mul\n      not\n      and\n      swap1\n      dup4\n      0xffffffffffffffffffffffffffffffffffffffff\n      and\n      mul\n      or\n      swap1\n      sstore\n      pop\n        /* \"contracts/Aquaroom.sol\":2151:2160  rentalIds */\n      0x03\n        /* \"contracts/Aquaroom.sol\":2166:2173  counter */\n      sload(0x01)\n        /* \"contracts/Aquaroom.sol\":2151:2174  rentalIds.push(counter) */\n      swap1\n      dup1\n      0x01\n      dup2\n      sload\n      add\n      dup1\n      dup3\n      sstore\n      dup1\n      swap2\n      pop\n      pop\n      0x01\n      swap1\n      sub\n      swap1\n      0x00\n      mstore\n      keccak256(0x00, 0x20)\n      add\n      0x00\n      swap1\n      swap2\n      swap1\n      swap2\n      swap1\n      swap2\n      pop\n      sstore\n        /* \"contracts/Aquaroom.sol\":2192:2489  rentalCreated (\r... */\n      0xc06f078c3c74d235829af3e011ff5aae487c78ef8d3acca688417ed86ff14591\n        /* \"contracts/Aquaroom.sol\":2221:2225  name */\n      dup12\n        /* \"contracts/Aquaroom.sol\":2240:2244  city */\n      dup12\n        /* \"contracts/Aquaroom.sol\":2259:2262  lat */\n      dup12\n        /* \"contracts/Aquaroom.sol\":2277:2281  long */\n      dup12\n        /* \"contracts/Aquaroom.sol\":2296:2310  unoDescription */\n      dup12\n        /* \"contracts/Aquaroom.sol\":2325:2339  dosDescription */\n      dup12\n        /* \"contracts/Aquaroom.sol\":2354:2360  imgUrl */\n      dup12\n        /* \"contracts/Aquaroom.sol\":2375:2384  maxGuests */\n      dup12\n        /* \"contracts/Aquaroom.sol\":2399:2410  pricePerDay */\n      dup12\n        /* \"contracts/Aquaroom.sol\":2425:2436  datesBooked */\n      dup12\n        /* \"contracts/Aquaroom.sol\":2451:2458  counter */\n      sload(0x01)\n        /* \"contracts/Aquaroom.sol\":2473:2478  owner */\n      0x00\n      dup1\n      sload\n      swap1\n      0x0100\n      exp\n      swap1\n      div\n      0xffffffffffffffffffffffffffffffffffffffff\n      and\n        /* \"contracts/Aquaroom.sol\":2192:2489  rentalCreated (\r... */\n      mload(0x40)\n      tag_78\n      swap13\n      swap12\n      swap11\n      swap10\n      swap9\n      swap8\n      swap7\n      swap6\n      swap5\n      swap4\n      swap3\n      swap2\n      swap1\n      tag_79\n      jump\t// in\n    tag_78:\n      mload(0x40)\n      dup1\n      swap2\n      sub\n      swap1\n      log1\n        /* \"contracts/Aquaroom.sol\":2500:2507  counter */\n      0x01\n      0x00\n        /* \"contracts/Aquaroom.sol\":2500:2509  counter++ */\n      dup2\n      sload\n      dup1\n      swap3\n      swap2\n      swap1\n      tag_80\n      swap1\n      tag_59\n      jump\t// in\n    tag_80:\n      swap2\n      swap1\n      pop\n      sstore\n      pop\n        /* \"contracts/Aquaroom.sol\":1516:2517  {\r... */\n      pop\n        /* \"contracts/Aquaroom.sol\":1162:2517  function addRentels(\r... */\n      pop\n      pop\n      pop\n      pop\n      pop\n      pop\n      pop\n      pop\n      pop\n      pop\n      jump\t// out\n        /* \"contracts/Aquaroom.sol\":87:107  address public owner */\n    tag_18:\n      0x00\n      dup1\n      sload\n      swap1\n      0x0100\n      exp\n      swap1\n      div\n      0xffffffffffffffffffffffffffffffffffffffff\n      and\n      dup2\n      jump\t// out\n        /* \"contracts/Aquaroom.sol\":3652:3908  function getRentals (uint256 id) public view returns (string memory, uint256, string[] memory) {\r... */\n    tag_25:\n        /* \"contracts/Aquaroom.sol\":3706:3719  string memory */\n      0x60\n        /* \"contracts/Aquaroom.sol\":3721:3728  uint256 */\n      0x00\n        /* \"contracts/Aquaroom.sol\":3730:3745  string[] memory */\n      0x60\n        /* \"contracts/Aquaroom.sol\":3771:3778  counter */\n      sload(0x01)\n        /* \"contracts/Aquaroom.sol\":3766:3768  id */\n      dup5\n        /* \"contracts/Aquaroom.sol\":3766:3778  id < counter */\n      lt\n        /* \"contracts/Aquaroom.sol\":3758:3797  require(id < counter, \"No such rental\") */\n      tag_82\n      jumpi\n      mload(0x40)\n      0x08c379a000000000000000000000000000000000000000000000000000000000\n      dup2\n      mstore\n      0x04\n      add\n      tag_83\n      swap1\n      tag_84\n      jump\t// in\n    tag_83:\n      mload(0x40)\n      dup1\n      swap2\n      sub\n      swap1\n      revert\n    tag_82:\n        /* \"contracts/Aquaroom.sol\":3810:3830  rentalInfo storage s */\n      0x00\n        /* \"contracts/Aquaroom.sol\":3833:3840  rentals */\n      0x02\n        /* \"contracts/Aquaroom.sol\":3833:3844  rentals[id] */\n      0x00\n        /* \"contracts/Aquaroom.sol\":3841:3843  id */\n      dup7\n        /* \"contracts/Aquaroom.sol\":3833:3844  rentals[id] */\n      dup2\n      mstore\n      0x20\n      add\n      swap1\n      dup2\n      mstore\n      0x20\n      add\n      0x00\n      keccak256\n        /* \"contracts/Aquaroom.sol\":3810:3844  rentalInfo storage s = rentals[id] */\n      swap1\n      pop\n        /* \"contracts/Aquaroom.sol\":3863:3864  s */\n      dup1\n        /* \"contracts/Aquaroom.sol\":3863:3869  s.name */\n      0x00\n      add\n        /* \"contracts/Aquaroom.sol\":3871:3872  s */\n      dup2\n        /* \"contracts/Aquaroom.sol\":3871:3884  s.pricePerDay */\n      0x08\n      add\n      sload\n        /* \"contracts/Aquaroom.sol\":3886:3887  s */\n      dup3\n        /* \"contracts/Aquaroom.sol\":3886:3899  s.datesBooked */\n      0x09\n      add\n        /* \"contracts/Aquaroom.sol\":3855:3900  return (s.name, s.pricePerDay, s.datesBooked) */\n      dup3\n      dup1\n      sload\n      tag_85\n      swap1\n      tag_86\n      jump\t// in\n    tag_85:\n      dup1\n      0x1f\n      add\n      0x20\n      dup1\n      swap2\n      div\n      mul\n      0x20\n      add\n      mload(0x40)\n      swap1\n      dup2\n      add\n      0x40\n      mstore\n      dup1\n      swap3\n      swap2\n      swap1\n      dup2\n      dup2\n      mstore\n      0x20\n      add\n      dup3\n      dup1\n      sload\n      tag_87\n      swap1\n      tag_86\n      jump\t// in\n    tag_87:\n      dup1\n      iszero\n      tag_88\n      jumpi\n      dup1\n      0x1f\n      lt\n      tag_89\n      jumpi\n      0x0100\n      dup1\n      dup4\n      sload\n      div\n      mul\n      dup4\n      mstore\n      swap2\n      0x20\n      add\n      swap2\n      jump(tag_88)\n    tag_89:\n      dup3\n      add\n      swap2\n      swap1\n      0x00\n      mstore\n      keccak256(0x00, 0x20)\n      swap1\n    tag_90:\n      dup2\n      sload\n      dup2\n      mstore\n      swap1\n      0x01\n      add\n      swap1\n      0x20\n      add\n      dup1\n      dup4\n      gt\n      tag_90\n      jumpi\n      dup3\n      swap1\n      sub\n      0x1f\n      and\n      dup3\n      add\n      swap2\n    tag_88:\n      pop\n      pop\n      pop\n      pop\n      pop\n      swap3\n      pop\n      dup1\n      dup1\n      sload\n      dup1\n      0x20\n      mul\n      0x20\n      add\n      mload(0x40)\n      swap1\n      dup2\n      add\n      0x40\n      mstore\n      dup1\n      swap3\n      swap2\n      swap1\n      dup2\n      dup2\n      mstore\n      0x20\n      add\n      0x00\n      swap1\n    tag_91:\n      dup3\n      dup3\n      lt\n      iszero\n      tag_92\n      jumpi\n      dup4\n      dup3\n      swap1\n      0x00\n      mstore\n      keccak256(0x00, 0x20)\n      add\n      dup1\n      sload\n      tag_94\n      swap1\n      tag_86\n      jump\t// in\n    tag_94:\n      dup1\n      0x1f\n      add\n      0x20\n      dup1\n      swap2\n      div\n      mul\n      0x20\n      add\n      mload(0x40)\n      swap1\n      dup2\n      add\n      0x40\n      mstore\n      dup1\n      swap3\n      swap2\n      swap1\n      dup2\n      dup2\n      mstore\n      0x20\n      add\n      dup3\n      dup1\n      sload\n      tag_95\n      swap1\n      tag_86\n      jump\t// in\n    tag_95:\n      dup1\n      iszero\n      tag_96\n      jumpi\n      dup1\n      0x1f\n      lt\n      tag_97\n      jumpi\n      0x0100\n      dup1\n      dup4\n      sload\n      div\n      mul\n      dup4\n      mstore\n      swap2\n      0x20\n      add\n      swap2\n      jump(tag_96)\n    tag_97:\n      dup3\n      add\n      swap2\n      swap1\n      0x00\n      mstore\n      keccak256(0x00, 0x20)\n      swap1\n    tag_98:\n      dup2\n      sload\n      dup2\n      mstore\n      swap1\n      0x01\n      add\n      swap1\n      0x20\n      add\n      dup1\n      dup4\n      gt\n      tag_98\n      jumpi\n      dup3\n      swap1\n      sub\n      0x1f\n      and\n      dup3\n      add\n      swap2\n    tag_96:\n      pop\n      pop\n      pop\n      pop\n      pop\n      dup2\n      mstore\n      0x20\n      add\n      swap1\n      0x01\n      add\n      swap1\n      jump(tag_91)\n    tag_92:\n      pop\n      pop\n      pop\n      pop\n      swap1\n      pop\n      swap4\n      pop\n      swap4\n      pop\n      swap4\n      pop\n      pop\n        /* \"contracts/Aquaroom.sol\":3652:3908  function getRentals (uint256 id) public view returns (string memory, uint256, string[] memory) {\r... */\n      swap2\n      swap4\n      swap1\n      swap3\n      pop\n      jump\t// out\n        /* \"contracts/Aquaroom.sol\":1127:1153  uint256[] public rentalIds */\n    tag_31:\n      0x03\n      dup2\n      dup2\n      sload\n      dup2\n      lt\n      tag_99\n      jumpi\n      0x00\n      dup1\n      revert\n    tag_99:\n      swap1\n      0x00\n      mstore\n      keccak256(0x00, 0x20)\n      add\n      0x00\n      swap2\n      pop\n      swap1\n      pop\n      sload\n      dup2\n      jump\t// out\n        /* \"contracts/Aquaroom.sol\":2525:2981  function checkBookings(uint256 id, string[] memory newBookings) private view returns (bool) {\r... */\n    tag_39:\n        /* \"contracts/Aquaroom.sol\":2611:2615  bool */\n      0x00\n        /* \"contracts/Aquaroom.sol\":2633:2639  uint i */\n      dup1\n        /* \"contracts/Aquaroom.sol\":2628:2952  for (uint i; i < newBookings.length; i++ ) {\r... */\n    tag_102:\n        /* \"contracts/Aquaroom.sol\":2645:2656  newBookings */\n      dup3\n        /* \"contracts/Aquaroom.sol\":2645:2663  newBookings.length */\n      mload\n        /* \"contracts/Aquaroom.sol\":2641:2642  i */\n      dup2\n        /* \"contracts/Aquaroom.sol\":2641:2663  i < newBookings.length */\n      lt\n        /* \"contracts/Aquaroom.sol\":2628:2952  for (uint i; i < newBookings.length; i++ ) {\r... */\n      iszero\n      tag_103\n      jumpi\n        /* \"contracts/Aquaroom.sol\":2691:2697  uint j */\n      0x00\n        /* \"contracts/Aquaroom.sol\":2686:2941  for (uint j = 0; j < rentals[id].datesBooked.length; j++) {\r... */\n    tag_105:\n        /* \"contracts/Aquaroom.sol\":2707:2714  rentals */\n      0x02\n        /* \"contracts/Aquaroom.sol\":2707:2718  rentals[id] */\n      0x00\n        /* \"contracts/Aquaroom.sol\":2715:2717  id */\n      dup7\n        /* \"contracts/Aquaroom.sol\":2707:2718  rentals[id] */\n      dup2\n      mstore\n      0x20\n      add\n      swap1\n      dup2\n      mstore\n      0x20\n      add\n      0x00\n      keccak256\n        /* \"contracts/Aquaroom.sol\":2707:2730  rentals[id].datesBooked */\n      0x09\n      add\n        /* \"contracts/Aquaroom.sol\":2707:2737  rentals[id].datesBooked.length */\n      dup1\n      sload\n      swap1\n      pop\n        /* \"contracts/Aquaroom.sol\":2703:2704  j */\n      dup2\n        /* \"contracts/Aquaroom.sol\":2703:2737  j < rentals[id].datesBooked.length */\n      lt\n        /* \"contracts/Aquaroom.sol\":2686:2941  for (uint j = 0; j < rentals[id].datesBooked.length; j++) {\r... */\n      iszero\n      tag_106\n      jumpi\n        /* \"contracts/Aquaroom.sol\":2853:2864  newBookings */\n      dup4\n        /* \"contracts/Aquaroom.sol\":2865:2866  i */\n      dup3\n        /* \"contracts/Aquaroom.sol\":2853:2867  newBookings[i] */\n      dup2\n      mload\n      dup2\n      lt\n      tag_108\n      jumpi\n      tag_109\n      tag_54\n      jump\t// in\n    tag_109:\n    tag_108:\n      0x20\n      mul\n      0x20\n      add\n      add\n      mload\n        /* \"contracts/Aquaroom.sol\":2836:2868  abi.encodePacked(newBookings[i]) */\n      add(0x20, mload(0x40))\n      tag_110\n      swap2\n      swap1\n      tag_111\n      jump\t// in\n    tag_110:\n      mload(0x40)\n      0x20\n      dup2\n      dup4\n      sub\n      sub\n      dup2\n      mstore\n      swap1\n      0x40\n      mstore\n        /* \"contracts/Aquaroom.sol\":2826:2869  keccak256(abi.encodePacked(newBookings[i])) */\n      dup1\n      mload\n      swap1\n      0x20\n      add\n      keccak256\n        /* \"contracts/Aquaroom.sol\":2794:2801  rentals */\n      0x02\n        /* \"contracts/Aquaroom.sol\":2794:2805  rentals[id] */\n      0x00\n        /* \"contracts/Aquaroom.sol\":2802:2804  id */\n      dup8\n        /* \"contracts/Aquaroom.sol\":2794:2805  rentals[id] */\n      dup2\n      mstore\n      0x20\n      add\n      swap1\n      dup2\n      mstore\n      0x20\n      add\n      0x00\n      keccak256\n        /* \"contracts/Aquaroom.sol\":2794:2817  rentals[id].datesBooked */\n      0x09\n      add\n        /* \"contracts/Aquaroom.sol\":2818:2819  j */\n      dup3\n        /* \"contracts/Aquaroom.sol\":2794:2820  rentals[id].datesBooked[j] */\n      dup2\n      sload\n      dup2\n      lt\n      tag_112\n      jumpi\n      tag_113\n      tag_54\n      jump\t// in\n    tag_113:\n    tag_112:\n      swap1\n      0x00\n      mstore\n      keccak256(0x00, 0x20)\n      add\n        /* \"contracts/Aquaroom.sol\":2777:2821  abi.encodePacked(rentals[id].datesBooked[j]) */\n      add(0x20, mload(0x40))\n      tag_115\n      swap2\n      swap1\n      tag_116\n      jump\t// in\n    tag_115:\n      mload(0x40)\n      0x20\n      dup2\n      dup4\n      sub\n      sub\n      dup2\n      mstore\n      swap1\n      0x40\n      mstore\n        /* \"contracts/Aquaroom.sol\":2767:2822  keccak256(abi.encodePacked(rentals[id].datesBooked[j])) */\n      dup1\n      mload\n      swap1\n      0x20\n      add\n      keccak256\n        /* \"contracts/Aquaroom.sol\":2767:2869  keccak256(abi.encodePacked(rentals[id].datesBooked[j])) == keccak256(abi.encodePacked(newBookings[i])) */\n      eq\n        /* \"contracts/Aquaroom.sol\":2763:2926  if (keccak256(abi.encodePacked(rentals[id].datesBooked[j])) == keccak256(abi.encodePacked(newBookings[i]))) {\r... */\n      iszero\n      tag_117\n      jumpi\n        /* \"contracts/Aquaroom.sol\":2901:2906  false */\n      0x00\n        /* \"contracts/Aquaroom.sol\":2894:2906  return false */\n      swap3\n      pop\n      pop\n      pop\n      jump(tag_101)\n        /* \"contracts/Aquaroom.sol\":2763:2926  if (keccak256(abi.encodePacked(rentals[id].datesBooked[j])) == keccak256(abi.encodePacked(newBookings[i]))) {\r... */\n    tag_117:\n        /* \"contracts/Aquaroom.sol\":2739:2742  j++ */\n      dup1\n      dup1\n      tag_118\n      swap1\n      tag_59\n      jump\t// in\n    tag_118:\n      swap2\n      pop\n      pop\n        /* \"contracts/Aquaroom.sol\":2686:2941  for (uint j = 0; j < rentals[id].datesBooked.length; j++) {\r... */\n      jump(tag_105)\n    tag_106:\n      pop\n        /* \"contracts/Aquaroom.sol\":2665:2668  i++ */\n      dup1\n      dup1\n      tag_119\n      swap1\n      tag_59\n      jump\t// in\n    tag_119:\n      swap2\n      pop\n      pop\n        /* \"contracts/Aquaroom.sol\":2628:2952  for (uint i; i < newBookings.length; i++ ) {\r... */\n      jump(tag_102)\n    tag_103:\n      pop\n        /* \"contracts/Aquaroom.sol\":2969:2973  true */\n      0x01\n        /* \"contracts/Aquaroom.sol\":2962:2973  return true */\n      swap1\n      pop\n        /* \"contracts/Aquaroom.sol\":2525:2981  function checkBookings(uint256 id, string[] memory newBookings) private view returns (bool) {\r... */\n    tag_101:\n      swap3\n      swap2\n      pop\n      pop\n      jump\t// out\n    tag_57:\n      dup3\n      dup1\n      sload\n      tag_120\n      swap1\n      tag_86\n      jump\t// in\n    tag_120:\n      swap1\n      0x00\n      mstore\n      keccak256(0x00, 0x20)\n      swap1\n      0x1f\n      add\n      0x20\n      swap1\n      div\n      dup2\n      add\n      swap3\n      dup3\n      tag_122\n      jumpi\n      0x00\n      dup6\n      sstore\n      jump(tag_121)\n    tag_122:\n      dup3\n      0x1f\n      lt\n      tag_123\n      jumpi\n      dup1\n      mload\n      not(0xff)\n      and\n      dup4\n      dup1\n      add\n      or\n      dup6\n      sstore\n      jump(tag_121)\n    tag_123:\n      dup3\n      dup1\n      add\n      0x01\n      add\n      dup6\n      sstore\n      dup3\n      iszero\n      tag_121\n      jumpi\n      swap2\n      dup3\n      add\n    tag_124:\n      dup3\n      dup2\n      gt\n      iszero\n      tag_125\n      jumpi\n      dup3\n      mload\n      dup3\n      sstore\n      swap2\n      0x20\n      add\n      swap2\n      swap1\n      0x01\n      add\n      swap1\n      jump(tag_124)\n    tag_125:\n    tag_121:\n      pop\n      swap1\n      pop\n      tag_126\n      swap2\n      swap1\n      tag_127\n      jump\t// in\n    tag_126:\n      pop\n      swap1\n      jump\t// out\n    tag_76:\n      dup3\n      dup1\n      sload\n      dup3\n      dup3\n      sstore\n      swap1\n      0x00\n      mstore\n      keccak256(0x00, 0x20)\n      swap1\n      dup2\n      add\n      swap3\n      dup3\n      iszero\n      tag_128\n      jumpi\n      swap2\n      0x20\n      mul\n      dup3\n      add\n    tag_129:\n      dup3\n      dup2\n      gt\n      iszero\n      tag_130\n      jumpi\n      dup3\n      mload\n      dup3\n      swap1\n      dup1\n      mload\n      swap1\n      0x20\n      add\n      swap1\n      tag_131\n      swap3\n      swap2\n      swap1\n      tag_57\n      jump\t// in\n    tag_131:\n      pop\n      swap2\n      0x20\n      add\n      swap2\n      swap1\n      0x01\n      add\n      swap1\n      jump(tag_129)\n    tag_130:\n    tag_128:\n      pop\n      swap1\n      pop\n      tag_132\n      swap2\n      swap1\n      tag_133\n      jump\t// in\n    tag_132:\n      pop\n      swap1\n      jump\t// out\n    tag_127:\n    tag_134:\n      dup1\n      dup3\n      gt\n      iszero\n      tag_135\n      jumpi\n      0x00\n      dup2\n      0x00\n      swap1\n      sstore\n      pop\n      0x01\n      add\n      jump(tag_134)\n    tag_135:\n      pop\n      swap1\n      jump\t// out\n    tag_133:\n    tag_136:\n      dup1\n      dup3\n      gt\n      iszero\n      tag_137\n      jumpi\n      0x00\n      dup2\n      dup2\n      tag_138\n      swap2\n      swap1\n      tag_139\n      jump\t// in\n    tag_138:\n      pop\n      0x01\n      add\n      jump(tag_136)\n    tag_137:\n      pop\n      swap1\n      jump\t// out\n    tag_139:\n      pop\n      dup1\n      sload\n      tag_140\n      swap1\n      tag_86\n      jump\t// in\n    tag_140:\n      0x00\n      dup3\n      sstore\n      dup1\n      0x1f\n      lt\n      tag_142\n      jumpi\n      pop\n      jump(tag_141)\n    tag_142:\n      0x1f\n      add\n      0x20\n      swap1\n      div\n      swap1\n      0x00\n      mstore\n      keccak256(0x00, 0x20)\n      swap1\n      dup2\n      add\n      swap1\n      tag_143\n      swap2\n      swap1\n      tag_127\n      jump\t// in\n    tag_143:\n    tag_141:\n      pop\n      jump\t// out\n        /* \"#utility.yul\":23:980   */\n    tag_145:\n        /* \"#utility.yul\":129:134   */\n      0x00\n        /* \"#utility.yul\":154:245   */\n      tag_147\n        /* \"#utility.yul\":170:244   */\n      tag_148\n        /* \"#utility.yul\":237:243   */\n      dup5\n        /* \"#utility.yul\":170:244   */\n      tag_149\n      jump\t// in\n    tag_148:\n        /* \"#utility.yul\":154:245   */\n      tag_150\n      jump\t// in\n    tag_147:\n        /* \"#utility.yul\":145:245   */\n      swap1\n      pop\n        /* \"#utility.yul\":265:270   */\n      dup1\n        /* \"#utility.yul\":294:300   */\n      dup4\n        /* \"#utility.yul\":287:292   */\n      dup3\n        /* \"#utility.yul\":280:301   */\n      mstore\n        /* \"#utility.yul\":328:332   */\n      0x20\n        /* \"#utility.yul\":321:326   */\n      dup3\n        /* \"#utility.yul\":317:333   */\n      add\n        /* \"#utility.yul\":310:333   */\n      swap1\n      pop\n        /* \"#utility.yul\":354:360   */\n      dup3\n        /* \"#utility.yul\":404:407   */\n      dup6\n        /* \"#utility.yul\":396:400   */\n      0x20\n        /* \"#utility.yul\":388:394   */\n      dup7\n        /* \"#utility.yul\":384:401   */\n      mul\n        /* \"#utility.yul\":379:382   */\n      dup3\n        /* \"#utility.yul\":375:402   */\n      add\n        /* \"#utility.yul\":372:408   */\n      gt\n        /* \"#utility.yul\":369:512   */\n      iszero\n      tag_151\n      jumpi\n        /* \"#utility.yul\":423:502   */\n      tag_152\n      tag_153\n      jump\t// in\n    tag_152:\n        /* \"#utility.yul\":369:512   */\n    tag_151:\n        /* \"#utility.yul\":536:537   */\n      0x00\n        /* \"#utility.yul\":521:974   */\n    tag_154:\n        /* \"#utility.yul\":546:552   */\n      dup6\n        /* \"#utility.yul\":543:544   */\n      dup2\n        /* \"#utility.yul\":540:553   */\n      lt\n        /* \"#utility.yul\":521:974   */\n      iszero\n      tag_156\n      jumpi\n        /* \"#utility.yul\":628:631   */\n      dup2\n        /* \"#utility.yul\":615:632   */\n      calldataload\n        /* \"#utility.yul\":664:682   */\n      0xffffffffffffffff\n        /* \"#utility.yul\":651:662   */\n      dup2\n        /* \"#utility.yul\":648:683   */\n      gt\n        /* \"#utility.yul\":645:767   */\n      iszero\n      tag_157\n      jumpi\n        /* \"#utility.yul\":686:765   */\n      tag_158\n      tag_159\n      jump\t// in\n    tag_158:\n        /* \"#utility.yul\":645:767   */\n    tag_157:\n        /* \"#utility.yul\":810:821   */\n      dup1\n        /* \"#utility.yul\":802:808   */\n      dup7\n        /* \"#utility.yul\":798:822   */\n      add\n        /* \"#utility.yul\":848:895   */\n      tag_160\n        /* \"#utility.yul\":891:894   */\n      dup10\n        /* \"#utility.yul\":879:889   */\n      dup3\n        /* \"#utility.yul\":848:895   */\n      tag_161\n      jump\t// in\n    tag_160:\n        /* \"#utility.yul\":843:846   */\n      dup6\n        /* \"#utility.yul\":836:896   */\n      mstore\n        /* \"#utility.yul\":925:929   */\n      0x20\n        /* \"#utility.yul\":920:923   */\n      dup6\n        /* \"#utility.yul\":916:930   */\n      add\n        /* \"#utility.yul\":909:930   */\n      swap5\n      pop\n        /* \"#utility.yul\":959:963   */\n      0x20\n        /* \"#utility.yul\":954:957   */\n      dup5\n        /* \"#utility.yul\":950:964   */\n      add\n        /* \"#utility.yul\":943:964   */\n      swap4\n      pop\n        /* \"#utility.yul\":581:974   */\n      pop\n      pop\n        /* \"#utility.yul\":568:569   */\n      0x01\n        /* \"#utility.yul\":565:566   */\n      dup2\n        /* \"#utility.yul\":561:570   */\n      add\n        /* \"#utility.yul\":556:570   */\n      swap1\n      pop\n        /* \"#utility.yul\":521:974   */\n      jump(tag_154)\n    tag_156:\n        /* \"#utility.yul\":525:539   */\n      pop\n        /* \"#utility.yul\":135:980   */\n      pop\n      pop\n        /* \"#utility.yul\":23:980   */\n      swap4\n      swap3\n      pop\n      pop\n      pop\n      jump\t// out\n        /* \"#utility.yul\":986:1398   */\n    tag_162:\n        /* \"#utility.yul\":1064:1069   */\n      0x00\n        /* \"#utility.yul\":1089:1155   */\n      tag_164\n        /* \"#utility.yul\":1105:1154   */\n      tag_165\n        /* \"#utility.yul\":1147:1153   */\n      dup5\n        /* \"#utility.yul\":1105:1154   */\n      tag_166\n      jump\t// in\n    tag_165:\n        /* \"#utility.yul\":1089:1155   */\n      tag_150\n      jump\t// in\n    tag_164:\n        /* \"#utility.yul\":1080:1155   */\n      swap1\n      pop\n        /* \"#utility.yul\":1178:1184   */\n      dup3\n        /* \"#utility.yul\":1171:1176   */\n      dup2\n        /* \"#utility.yul\":1164:1185   */\n      mstore\n        /* \"#utility.yul\":1216:1220   */\n      0x20\n        /* \"#utility.yul\":1209:1214   */\n      dup2\n        /* \"#utility.yul\":1205:1221   */\n      add\n        /* \"#utility.yul\":1254:1257   */\n      dup5\n        /* \"#utility.yul\":1245:1251   */\n      dup5\n        /* \"#utility.yul\":1240:1243   */\n      dup5\n        /* \"#utility.yul\":1236:1252   */\n      add\n        /* \"#utility.yul\":1233:1258   */\n      gt\n        /* \"#utility.yul\":1230:1342   */\n      iszero\n      tag_167\n      jumpi\n        /* \"#utility.yul\":1261:1340   */\n      tag_168\n      tag_169\n      jump\t// in\n    tag_168:\n        /* \"#utility.yul\":1230:1342   */\n    tag_167:\n        /* \"#utility.yul\":1351:1392   */\n      tag_170\n        /* \"#utility.yul\":1385:1391   */\n      dup5\n        /* \"#utility.yul\":1380:1383   */\n      dup3\n        /* \"#utility.yul\":1375:1378   */\n      dup6\n        /* \"#utility.yul\":1351:1392   */\n      tag_171\n      jump\t// in\n    tag_170:\n        /* \"#utility.yul\":1070:1398   */\n      pop\n        /* \"#utility.yul\":986:1398   */\n      swap4\n      swap3\n      pop\n      pop\n      pop\n      jump\t// out\n        /* \"#utility.yul\":1420:1810   */\n    tag_172:\n        /* \"#utility.yul\":1501:1506   */\n      0x00\n        /* \"#utility.yul\":1550:1553   */\n      dup3\n        /* \"#utility.yul\":1543:1547   */\n      0x1f\n        /* \"#utility.yul\":1535:1541   */\n      dup4\n        /* \"#utility.yul\":1531:1548   */\n      add\n        /* \"#utility.yul\":1527:1554   */\n      slt\n        /* \"#utility.yul\":1517:1639   */\n      tag_174\n      jumpi\n        /* \"#utility.yul\":1558:1637   */\n      tag_175\n      tag_159\n      jump\t// in\n    tag_175:\n        /* \"#utility.yul\":1517:1639   */\n    tag_174:\n        /* \"#utility.yul\":1675:1681   */\n      dup2\n        /* \"#utility.yul\":1662:1682   */\n      calldataload\n        /* \"#utility.yul\":1700:1804   */\n      tag_176\n        /* \"#utility.yul\":1800:1803   */\n      dup5\n        /* \"#utility.yul\":1792:1798   */\n      dup3\n        /* \"#utility.yul\":1785:1789   */\n      0x20\n        /* \"#utility.yul\":1777:1783   */\n      dup7\n        /* \"#utility.yul\":1773:1790   */\n      add\n        /* \"#utility.yul\":1700:1804   */\n      tag_145\n      jump\t// in\n    tag_176:\n        /* \"#utility.yul\":1691:1804   */\n      swap2\n      pop\n        /* \"#utility.yul\":1507:1810   */\n      pop\n        /* \"#utility.yul\":1420:1810   */\n      swap3\n      swap2\n      pop\n      pop\n      jump\t// out\n        /* \"#utility.yul\":1830:2170   */\n    tag_161:\n        /* \"#utility.yul\":1886:1891   */\n      0x00\n        /* \"#utility.yul\":1935:1938   */\n      dup3\n        /* \"#utility.yul\":1928:1932   */\n      0x1f\n        /* \"#utility.yul\":1920:1926   */\n      dup4\n        /* \"#utility.yul\":1916:1933   */\n      add\n        /* \"#utility.yul\":1912:1939   */\n      slt\n        /* \"#utility.yul\":1902:2024   */\n      tag_178\n      jumpi\n        /* \"#utility.yul\":1943:2022   */\n      tag_179\n      tag_159\n      jump\t// in\n    tag_179:\n        /* \"#utility.yul\":1902:2024   */\n    tag_178:\n        /* \"#utility.yul\":2060:2066   */\n      dup2\n        /* \"#utility.yul\":2047:2067   */\n      calldataload\n        /* \"#utility.yul\":2085:2164   */\n      tag_180\n        /* \"#utility.yul\":2160:2163   */\n      dup5\n        /* \"#utility.yul\":2152:2158   */\n      dup3\n        /* \"#utility.yul\":2145:2149   */\n      0x20\n        /* \"#utility.yul\":2137:2143   */\n      dup7\n        /* \"#utility.yul\":2133:2150   */\n      add\n        /* \"#utility.yul\":2085:2164   */\n      tag_162\n      jump\t// in\n    tag_180:\n        /* \"#utility.yul\":2076:2164   */\n      swap2\n      pop\n        /* \"#utility.yul\":1892:2170   */\n      pop\n        /* \"#utility.yul\":1830:2170   */\n      swap3\n      swap2\n      pop\n      pop\n      jump\t// out\n        /* \"#utility.yul\":2176:2315   */\n    tag_181:\n        /* \"#utility.yul\":2222:2227   */\n      0x00\n        /* \"#utility.yul\":2260:2266   */\n      dup2\n        /* \"#utility.yul\":2247:2267   */\n      calldataload\n        /* \"#utility.yul\":2238:2267   */\n      swap1\n      pop\n        /* \"#utility.yul\":2276:2309   */\n      tag_183\n        /* \"#utility.yul\":2303:2308   */\n      dup2\n        /* \"#utility.yul\":2276:2309   */\n      tag_184\n      jump\t// in\n    tag_183:\n        /* \"#utility.yul\":2176:2315   */\n      swap3\n      swap2\n      pop\n      pop\n      jump\t// out\n        /* \"#utility.yul\":2321:5452   */\n    tag_14:\n        /* \"#utility.yul\":2566:2572   */\n      0x00\n        /* \"#utility.yul\":2574:2580   */\n      dup1\n        /* \"#utility.yul\":2582:2588   */\n      0x00\n        /* \"#utility.yul\":2590:2596   */\n      dup1\n        /* \"#utility.yul\":2598:2604   */\n      0x00\n        /* \"#utility.yul\":2606:2612   */\n      dup1\n        /* \"#utility.yul\":2614:2620   */\n      0x00\n        /* \"#utility.yul\":2622:2628   */\n      dup1\n        /* \"#utility.yul\":2630:2636   */\n      0x00\n        /* \"#utility.yul\":2638:2644   */\n      dup1\n        /* \"#utility.yul\":2687:2690   */\n      0x0140\n        /* \"#utility.yul\":2675:2684   */\n      dup12\n        /* \"#utility.yul\":2666:2673   */\n      dup14\n        /* \"#utility.yul\":2662:2685   */\n      sub\n        /* \"#utility.yul\":2658:2691   */\n      slt\n        /* \"#utility.yul\":2655:2775   */\n      iszero\n      tag_186\n      jumpi\n        /* \"#utility.yul\":2694:2773   */\n      tag_187\n      tag_188\n      jump\t// in\n    tag_187:\n        /* \"#utility.yul\":2655:2775   */\n    tag_186:\n        /* \"#utility.yul\":2842:2843   */\n      0x00\n        /* \"#utility.yul\":2831:2840   */\n      dup12\n        /* \"#utility.yul\":2827:2844   */\n      add\n        /* \"#utility.yul\":2814:2845   */\n      calldataload\n        /* \"#utility.yul\":2872:2890   */\n      0xffffffffffffffff\n        /* \"#utility.yul\":2864:2870   */\n      dup2\n        /* \"#utility.yul\":2861:2891   */\n      gt\n        /* \"#utility.yul\":2858:2975   */\n      iszero\n      tag_189\n      jumpi\n        /* \"#utility.yul\":2894:2973   */\n      tag_190\n      tag_191\n      jump\t// in\n    tag_190:\n        /* \"#utility.yul\":2858:2975   */\n    tag_189:\n        /* \"#utility.yul\":2999:3062   */\n      tag_192\n        /* \"#utility.yul\":3054:3061   */\n      dup14\n        /* \"#utility.yul\":3045:3051   */\n      dup3\n        /* \"#utility.yul\":3034:3043   */\n      dup15\n        /* \"#utility.yul\":3030:3052   */\n      add\n        /* \"#utility.yul\":2999:3062   */\n      tag_161\n      jump\t// in\n    tag_192:\n        /* \"#utility.yul\":2989:3062   */\n      swap11\n      pop\n        /* \"#utility.yul\":2785:3072   */\n      pop\n        /* \"#utility.yul\":3139:3141   */\n      0x20\n        /* \"#utility.yul\":3128:3137   */\n      dup12\n        /* \"#utility.yul\":3124:3142   */\n      add\n        /* \"#utility.yul\":3111:3143   */\n      calldataload\n        /* \"#utility.yul\":3170:3188   */\n      0xffffffffffffffff\n        /* \"#utility.yul\":3162:3168   */\n      dup2\n        /* \"#utility.yul\":3159:3189   */\n      gt\n        /* \"#utility.yul\":3156:3273   */\n      iszero\n      tag_193\n      jumpi\n        /* \"#utility.yul\":3192:3271   */\n      tag_194\n      tag_191\n      jump\t// in\n    tag_194:\n        /* \"#utility.yul\":3156:3273   */\n    tag_193:\n        /* \"#utility.yul\":3297:3360   */\n      tag_195\n        /* \"#utility.yul\":3352:3359   */\n      dup14\n        /* \"#utility.yul\":3343:3349   */\n      dup3\n        /* \"#utility.yul\":3332:3341   */\n      dup15\n        /* \"#utility.yul\":3328:3350   */\n      add\n        /* \"#utility.yul\":3297:3360   */\n      tag_161\n      jump\t// in\n    tag_195:\n        /* \"#utility.yul\":3287:3360   */\n      swap10\n      pop\n        /* \"#utility.yul\":3082:3370   */\n      pop\n        /* \"#utility.yul\":3437:3439   */\n      0x40\n        /* \"#utility.yul\":3426:3435   */\n      dup12\n        /* \"#utility.yul\":3422:3440   */\n      add\n        /* \"#utility.yul\":3409:3441   */\n      calldataload\n        /* \"#utility.yul\":3468:3486   */\n      0xffffffffffffffff\n        /* \"#utility.yul\":3460:3466   */\n      dup2\n        /* \"#utility.yul\":3457:3487   */\n      gt\n        /* \"#utility.yul\":3454:3571   */\n      iszero\n      tag_196\n      jumpi\n        /* \"#utility.yul\":3490:3569   */\n      tag_197\n      tag_191\n      jump\t// in\n    tag_197:\n        /* \"#utility.yul\":3454:3571   */\n    tag_196:\n        /* \"#utility.yul\":3595:3658   */\n      tag_198\n        /* \"#utility.yul\":3650:3657   */\n      dup14\n        /* \"#utility.yul\":3641:3647   */\n      dup3\n        /* \"#utility.yul\":3630:3639   */\n      dup15\n        /* \"#utility.yul\":3626:3648   */\n      add\n        /* \"#utility.yul\":3595:3658   */\n      tag_161\n      jump\t// in\n    tag_198:\n        /* \"#utility.yul\":3585:3658   */\n      swap9\n      pop\n        /* \"#utility.yul\":3380:3668   */\n      pop\n        /* \"#utility.yul\":3735:3737   */\n      0x60\n        /* \"#utility.yul\":3724:3733   */\n      dup12\n        /* \"#utility.yul\":3720:3738   */\n      add\n        /* \"#utility.yul\":3707:3739   */\n      calldataload\n        /* \"#utility.yul\":3766:3784   */\n      0xffffffffffffffff\n        /* \"#utility.yul\":3758:3764   */\n      dup2\n        /* \"#utility.yul\":3755:3785   */\n      gt\n        /* \"#utility.yul\":3752:3869   */\n      iszero\n      tag_199\n      jumpi\n        /* \"#utility.yul\":3788:3867   */\n      tag_200\n      tag_191\n      jump\t// in\n    tag_200:\n        /* \"#utility.yul\":3752:3869   */\n    tag_199:\n        /* \"#utility.yul\":3893:3956   */\n      tag_201\n        /* \"#utility.yul\":3948:3955   */\n      dup14\n        /* \"#utility.yul\":3939:3945   */\n      dup3\n        /* \"#utility.yul\":3928:3937   */\n      dup15\n        /* \"#utility.yul\":3924:3946   */\n      add\n        /* \"#utility.yul\":3893:3956   */\n      tag_161\n      jump\t// in\n    tag_201:\n        /* \"#utility.yul\":3883:3956   */\n      swap8\n      pop\n        /* \"#utility.yul\":3678:3966   */\n      pop\n        /* \"#utility.yul\":4033:4036   */\n      0x80\n        /* \"#utility.yul\":4022:4031   */\n      dup12\n        /* \"#utility.yul\":4018:4037   */\n      add\n        /* \"#utility.yul\":4005:4038   */\n      calldataload\n        /* \"#utility.yul\":4065:4083   */\n      0xffffffffffffffff\n        /* \"#utility.yul\":4057:4063   */\n      dup2\n        /* \"#utility.yul\":4054:4084   */\n      gt\n        /* \"#utility.yul\":4051:4168   */\n      iszero\n      tag_202\n      jumpi\n        /* \"#utility.yul\":4087:4166   */\n      tag_203\n      tag_191\n      jump\t// in\n    tag_203:\n        /* \"#utility.yul\":4051:4168   */\n    tag_202:\n        /* \"#utility.yul\":4192:4255   */\n      tag_204\n        /* \"#utility.yul\":4247:4254   */\n      dup14\n        /* \"#utility.yul\":4238:4244   */\n      dup3\n        /* \"#utility.yul\":4227:4236   */\n      dup15\n        /* \"#utility.yul\":4223:4245   */\n      add\n        /* \"#utility.yul\":4192:4255   */\n      tag_161\n      jump\t// in\n    tag_204:\n        /* \"#utility.yul\":4182:4255   */\n      swap7\n      pop\n        /* \"#utility.yul\":3976:4265   */\n      pop\n        /* \"#utility.yul\":4332:4335   */\n      0xa0\n        /* \"#utility.yul\":4321:4330   */\n      dup12\n        /* \"#utility.yul\":4317:4336   */\n      add\n        /* \"#utility.yul\":4304:4337   */\n      calldataload\n        /* \"#utility.yul\":4364:4382   */\n      0xffffffffffffffff\n        /* \"#utility.yul\":4356:4362   */\n      dup2\n        /* \"#utility.yul\":4353:4383   */\n      gt\n        /* \"#utility.yul\":4350:4467   */\n      iszero\n      tag_205\n      jumpi\n        /* \"#utility.yul\":4386:4465   */\n      tag_206\n      tag_191\n      jump\t// in\n    tag_206:\n        /* \"#utility.yul\":4350:4467   */\n    tag_205:\n        /* \"#utility.yul\":4491:4554   */\n      tag_207\n        /* \"#utility.yul\":4546:4553   */\n      dup14\n        /* \"#utility.yul\":4537:4543   */\n      dup3\n        /* \"#utility.yul\":4526:4535   */\n      dup15\n        /* \"#utility.yul\":4522:4544   */\n      add\n        /* \"#utility.yul\":4491:4554   */\n      tag_161\n      jump\t// in\n    tag_207:\n        /* \"#utility.yul\":4481:4554   */\n      swap6\n      pop\n        /* \"#utility.yul\":4275:4564   */\n      pop\n        /* \"#utility.yul\":4631:4634   */\n      0xc0\n        /* \"#utility.yul\":4620:4629   */\n      dup12\n        /* \"#utility.yul\":4616:4635   */\n      add\n        /* \"#utility.yul\":4603:4636   */\n      calldataload\n        /* \"#utility.yul\":4663:4681   */\n      0xffffffffffffffff\n        /* \"#utility.yul\":4655:4661   */\n      dup2\n        /* \"#utility.yul\":4652:4682   */\n      gt\n        /* \"#utility.yul\":4649:4766   */\n      iszero\n      tag_208\n      jumpi\n        /* \"#utility.yul\":4685:4764   */\n      tag_209\n      tag_191\n      jump\t// in\n    tag_209:\n        /* \"#utility.yul\":4649:4766   */\n    tag_208:\n        /* \"#utility.yul\":4790:4853   */\n      tag_210\n        /* \"#utility.yul\":4845:4852   */\n      dup14\n        /* \"#utility.yul\":4836:4842   */\n      dup3\n        /* \"#utility.yul\":4825:4834   */\n      dup15\n        /* \"#utility.yul\":4821:4843   */\n      add\n        /* \"#utility.yul\":4790:4853   */\n      tag_161\n      jump\t// in\n    tag_210:\n        /* \"#utility.yul\":4780:4853   */\n      swap5\n      pop\n        /* \"#utility.yul\":4574:4863   */\n      pop\n        /* \"#utility.yul\":4902:4905   */\n      0xe0\n        /* \"#utility.yul\":4929:4982   */\n      tag_211\n        /* \"#utility.yul\":4974:4981   */\n      dup14\n        /* \"#utility.yul\":4965:4971   */\n      dup3\n        /* \"#utility.yul\":4954:4963   */\n      dup15\n        /* \"#utility.yul\":4950:4972   */\n      add\n        /* \"#utility.yul\":4929:4982   */\n      tag_181\n      jump\t// in\n    tag_211:\n        /* \"#utility.yul\":4919:4982   */\n      swap4\n      pop\n        /* \"#utility.yul\":4873:4992   */\n      pop\n        /* \"#utility.yul\":5031:5034   */\n      0x0100\n        /* \"#utility.yul\":5058:5111   */\n      tag_212\n        /* \"#utility.yul\":5103:5110   */\n      dup14\n        /* \"#utility.yul\":5094:5100   */\n      dup3\n        /* \"#utility.yul\":5083:5092   */\n      dup15\n        /* \"#utility.yul\":5079:5101   */\n      add\n        /* \"#utility.yul\":5058:5111   */\n      tag_181\n      jump\t// in\n    tag_212:\n        /* \"#utility.yul\":5048:5111   */\n      swap3\n      pop\n        /* \"#utility.yul\":5002:5121   */\n      pop\n        /* \"#utility.yul\":5188:5191   */\n      0x0120\n        /* \"#utility.yul\":5177:5186   */\n      dup12\n        /* \"#utility.yul\":5173:5192   */\n      add\n        /* \"#utility.yul\":5160:5193   */\n      calldataload\n        /* \"#utility.yul\":5220:5238   */\n      0xffffffffffffffff\n        /* \"#utility.yul\":5212:5218   */\n      dup2\n        /* \"#utility.yul\":5209:5239   */\n      gt\n        /* \"#utility.yul\":5206:5323   */\n      iszero\n      tag_213\n      jumpi\n        /* \"#utility.yul\":5242:5321   */\n      tag_214\n      tag_191\n      jump\t// in\n    tag_214:\n        /* \"#utility.yul\":5206:5323   */\n    tag_213:\n        /* \"#utility.yul\":5347:5435   */\n      tag_215\n        /* \"#utility.yul\":5427:5434   */\n      dup14\n        /* \"#utility.yul\":5418:5424   */\n      dup3\n        /* \"#utility.yul\":5407:5416   */\n      dup15\n        /* \"#utility.yul\":5403:5425   */\n      add\n        /* \"#utility.yul\":5347:5435   */\n      tag_172\n      jump\t// in\n    tag_215:\n        /* \"#utility.yul\":5337:5435   */\n      swap2\n      pop\n        /* \"#utility.yul\":5131:5445   */\n      pop\n        /* \"#utility.yul\":2321:5452   */\n      swap3\n      swap6\n      swap9\n      swap12\n      swap2\n      swap5\n      swap8\n      swap11\n      pop\n      swap3\n      swap6\n      swap9\n      pop\n      jump\t// out\n        /* \"#utility.yul\":5458:5787   */\n    tag_24:\n        /* \"#utility.yul\":5517:5523   */\n      0x00\n        /* \"#utility.yul\":5566:5568   */\n      0x20\n        /* \"#utility.yul\":5554:5563   */\n      dup3\n        /* \"#utility.yul\":5545:5552   */\n      dup5\n        /* \"#utility.yul\":5541:5564   */\n      sub\n        /* \"#utility.yul\":5537:5569   */\n      slt\n        /* \"#utility.yul\":5534:5653   */\n      iszero\n      tag_217\n      jumpi\n        /* \"#utility.yul\":5572:5651   */\n      tag_218\n      tag_188\n      jump\t// in\n    tag_218:\n        /* \"#utility.yul\":5534:5653   */\n    tag_217:\n        /* \"#utility.yul\":5692:5693   */\n      0x00\n        /* \"#utility.yul\":5717:5770   */\n      tag_219\n        /* \"#utility.yul\":5762:5769   */\n      dup5\n        /* \"#utility.yul\":5753:5759   */\n      dup3\n        /* \"#utility.yul\":5742:5751   */\n      dup6\n        /* \"#utility.yul\":5738:5760   */\n      add\n        /* \"#utility.yul\":5717:5770   */\n      tag_181\n      jump\t// in\n    tag_219:\n        /* \"#utility.yul\":5707:5770   */\n      swap2\n      pop\n        /* \"#utility.yul\":5663:5780   */\n      pop\n        /* \"#utility.yul\":5458:5787   */\n      swap3\n      swap2\n      pop\n      pop\n      jump\t// out\n        /* \"#utility.yul\":5793:6497   */\n    tag_9:\n        /* \"#utility.yul\":5896:5902   */\n      0x00\n        /* \"#utility.yul\":5904:5910   */\n      dup1\n        /* \"#utility.yul\":5953:5955   */\n      0x40\n        /* \"#utility.yul\":5941:5950   */\n      dup4\n        /* \"#utility.yul\":5932:5939   */\n      dup6\n        /* \"#utility.yul\":5928:5951   */\n      sub\n        /* \"#utility.yul\":5924:5956   */\n      slt\n        /* \"#utility.yul\":5921:6040   */\n      iszero\n      tag_221\n      jumpi\n        /* \"#utility.yul\":5959:6038   */\n      tag_222\n      tag_188\n      jump\t// in\n    tag_222:\n        /* \"#utility.yul\":5921:6040   */\n    tag_221:\n        /* \"#utility.yul\":6079:6080   */\n      0x00\n        /* \"#utility.yul\":6104:6157   */\n      tag_223\n        /* \"#utility.yul\":6149:6156   */\n      dup6\n        /* \"#utility.yul\":6140:6146   */\n      dup3\n        /* \"#utility.yul\":6129:6138   */\n      dup7\n        /* \"#utility.yul\":6125:6147   */\n      add\n        /* \"#utility.yul\":6104:6157   */\n      tag_181\n      jump\t// in\n    tag_223:\n        /* \"#utility.yul\":6094:6157   */\n      swap3\n      pop\n        /* \"#utility.yul\":6050:6167   */\n      pop\n        /* \"#utility.yul\":6234:6236   */\n      0x20\n        /* \"#utility.yul\":6223:6232   */\n      dup4\n        /* \"#utility.yul\":6219:6237   */\n      add\n        /* \"#utility.yul\":6206:6238   */\n      calldataload\n        /* \"#utility.yul\":6265:6283   */\n      0xffffffffffffffff\n        /* \"#utility.yul\":6257:6263   */\n      dup2\n        /* \"#utility.yul\":6254:6284   */\n      gt\n        /* \"#utility.yul\":6251:6368   */\n      iszero\n      tag_224\n      jumpi\n        /* \"#utility.yul\":6287:6366   */\n      tag_225\n      tag_191\n      jump\t// in\n    tag_225:\n        /* \"#utility.yul\":6251:6368   */\n    tag_224:\n        /* \"#utility.yul\":6392:6480   */\n      tag_226\n        /* \"#utility.yul\":6472:6479   */\n      dup6\n        /* \"#utility.yul\":6463:6469   */\n      dup3\n        /* \"#utility.yul\":6452:6461   */\n      dup7\n        /* \"#utility.yul\":6448:6470   */\n      add\n        /* \"#utility.yul\":6392:6480   */\n      tag_172\n      jump\t// in\n    tag_226:\n        /* \"#utility.yul\":6382:6480   */\n      swap2\n      pop\n        /* \"#utility.yul\":6177:6490   */\n      pop\n        /* \"#utility.yul\":5793:6497   */\n      swap3\n      pop\n      swap3\n      swap1\n      pop\n      jump\t// out\n        /* \"#utility.yul\":6503:6699   */\n    tag_227:\n        /* \"#utility.yul\":6592:6602   */\n      0x00\n        /* \"#utility.yul\":6627:6693   */\n      tag_229\n        /* \"#utility.yul\":6689:6692   */\n      dup4\n        /* \"#utility.yul\":6681:6687   */\n      dup4\n        /* \"#utility.yul\":6627:6693   */\n      tag_230\n      jump\t// in\n    tag_229:\n        /* \"#utility.yul\":6613:6693   */\n      swap1\n      pop\n        /* \"#utility.yul\":6503:6699   */\n      swap3\n      swap2\n      pop\n      pop\n      jump\t// out\n        /* \"#utility.yul\":6705:6823   */\n    tag_231:\n        /* \"#utility.yul\":6792:6816   */\n      tag_233\n        /* \"#utility.yul\":6810:6815   */\n      dup2\n        /* \"#utility.yul\":6792:6816   */\n      tag_234\n      jump\t// in\n    tag_233:\n        /* \"#utility.yul\":6787:6790   */\n      dup3\n        /* \"#utility.yul\":6780:6817   */\n      mstore\n        /* \"#utility.yul\":6705:6823   */\n      pop\n      pop\n      jump\t// out\n        /* \"#utility.yul\":6857:7848   */\n    tag_235:\n        /* \"#utility.yul\":6996:6999   */\n      0x00\n        /* \"#utility.yul\":7025:7089   */\n      tag_237\n        /* \"#utility.yul\":7083:7088   */\n      dup3\n        /* \"#utility.yul\":7025:7089   */\n      tag_238\n      jump\t// in\n    tag_237:\n        /* \"#utility.yul\":7105:7201   */\n      tag_239\n        /* \"#utility.yul\":7194:7200   */\n      dup2\n        /* \"#utility.yul\":7189:7192   */\n      dup6\n        /* \"#utility.yul\":7105:7201   */\n      tag_240\n      jump\t// in\n    tag_239:\n        /* \"#utility.yul\":7098:7201   */\n      swap4\n      pop\n        /* \"#utility.yul\":7227:7230   */\n      dup4\n        /* \"#utility.yul\":7272:7276   */\n      0x20\n        /* \"#utility.yul\":7264:7270   */\n      dup3\n        /* \"#utility.yul\":7260:7277   */\n      mul\n        /* \"#utility.yul\":7255:7258   */\n      dup6\n        /* \"#utility.yul\":7251:7278   */\n      add\n        /* \"#utility.yul\":7302:7368   */\n      tag_241\n        /* \"#utility.yul\":7362:7367   */\n      dup6\n        /* \"#utility.yul\":7302:7368   */\n      tag_242\n      jump\t// in\n    tag_241:\n        /* \"#utility.yul\":7391:7398   */\n      dup1\n        /* \"#utility.yul\":7422:7423   */\n      0x00\n        /* \"#utility.yul\":7407:7803   */\n    tag_243:\n        /* \"#utility.yul\":7432:7438   */\n      dup6\n        /* \"#utility.yul\":7429:7430   */\n      dup2\n        /* \"#utility.yul\":7426:7439   */\n      lt\n        /* \"#utility.yul\":7407:7803   */\n      iszero\n      tag_245\n      jumpi\n        /* \"#utility.yul\":7503:7512   */\n      dup5\n        /* \"#utility.yul\":7497:7501   */\n      dup5\n        /* \"#utility.yul\":7493:7513   */\n      sub\n        /* \"#utility.yul\":7488:7491   */\n      dup10\n        /* \"#utility.yul\":7481:7514   */\n      mstore\n        /* \"#utility.yul\":7554:7560   */\n      dup2\n        /* \"#utility.yul\":7548:7561   */\n      mload\n        /* \"#utility.yul\":7582:7666   */\n      tag_246\n        /* \"#utility.yul\":7661:7665   */\n      dup6\n        /* \"#utility.yul\":7646:7659   */\n      dup3\n        /* \"#utility.yul\":7582:7666   */\n      tag_227\n      jump\t// in\n    tag_246:\n        /* \"#utility.yul\":7574:7666   */\n      swap5\n      pop\n        /* \"#utility.yul\":7689:7759   */\n      tag_247\n        /* \"#utility.yul\":7752:7758   */\n      dup4\n        /* \"#utility.yul\":7689:7759   */\n      tag_248\n      jump\t// in\n    tag_247:\n        /* \"#utility.yul\":7679:7759   */\n      swap3\n      pop\n        /* \"#utility.yul\":7788:7792   */\n      0x20\n        /* \"#utility.yul\":7783:7786   */\n      dup11\n        /* \"#utility.yul\":7779:7793   */\n      add\n        /* \"#utility.yul\":7772:7793   */\n      swap10\n      pop\n        /* \"#utility.yul\":7467:7803   */\n      pop\n        /* \"#utility.yul\":7454:7455   */\n      0x01\n        /* \"#utility.yul\":7451:7452   */\n      dup2\n        /* \"#utility.yul\":7447:7456   */\n      add\n        /* \"#utility.yul\":7442:7456   */\n      swap1\n      pop\n        /* \"#utility.yul\":7407:7803   */\n      jump(tag_243)\n    tag_245:\n        /* \"#utility.yul\":7411:7425   */\n      pop\n        /* \"#utility.yul\":7819:7823   */\n      dup3\n        /* \"#utility.yul\":7812:7823   */\n      swap8\n      pop\n        /* \"#utility.yul\":7839:7842   */\n      dup8\n        /* \"#utility.yul\":7832:7842   */\n      swap6\n      pop\n        /* \"#utility.yul\":7001:7848   */\n      pop\n      pop\n      pop\n      pop\n      pop\n        /* \"#utility.yul\":6857:7848   */\n      swap3\n      swap2\n      pop\n      pop\n      jump\t// out\n        /* \"#utility.yul\":7854:8198   */\n    tag_230:\n        /* \"#utility.yul\":7932:7935   */\n      0x00\n        /* \"#utility.yul\":7960:7999   */\n      tag_250\n        /* \"#utility.yul\":7993:7998   */\n      dup3\n        /* \"#utility.yul\":7960:7999   */\n      tag_251\n      jump\t// in\n    tag_250:\n        /* \"#utility.yul\":8015:8076   */\n      tag_252\n        /* \"#utility.yul\":8069:8075   */\n      dup2\n        /* \"#utility.yul\":8064:8067   */\n      dup6\n        /* \"#utility.yul\":8015:8076   */\n      tag_253\n      jump\t// in\n    tag_252:\n        /* \"#utility.yul\":8008:8076   */\n      swap4\n      pop\n        /* \"#utility.yul\":8085:8137   */\n      tag_254\n        /* \"#utility.yul\":8130:8136   */\n      dup2\n        /* \"#utility.yul\":8125:8128   */\n      dup6\n        /* \"#utility.yul\":8118:8122   */\n      0x20\n        /* \"#utility.yul\":8111:8116   */\n      dup7\n        /* \"#utility.yul\":8107:8123   */\n      add\n        /* \"#utility.yul\":8085:8137   */\n      tag_255\n      jump\t// in\n    tag_254:\n        /* \"#utility.yul\":8162:8191   */\n      tag_256\n        /* \"#utility.yul\":8184:8190   */\n      dup2\n        /* \"#utility.yul\":8162:8191   */\n      tag_257\n      jump\t// in\n    tag_256:\n        /* \"#utility.yul\":8157:8160   */\n      dup5\n        /* \"#utility.yul\":8153:8192   */\n      add\n        /* \"#utility.yul\":8146:8192   */\n      swap2\n      pop\n        /* \"#utility.yul\":7936:8198   */\n      pop\n        /* \"#utility.yul\":7854:8198   */\n      swap3\n      swap2\n      pop\n      pop\n      jump\t// out\n        /* \"#utility.yul\":8204:8568   */\n    tag_258:\n        /* \"#utility.yul\":8292:8295   */\n      0x00\n        /* \"#utility.yul\":8320:8359   */\n      tag_260\n        /* \"#utility.yul\":8353:8358   */\n      dup3\n        /* \"#utility.yul\":8320:8359   */\n      tag_251\n      jump\t// in\n    tag_260:\n        /* \"#utility.yul\":8375:8446   */\n      tag_261\n        /* \"#utility.yul\":8439:8445   */\n      dup2\n        /* \"#utility.yul\":8434:8437   */\n      dup6\n        /* \"#utility.yul\":8375:8446   */\n      tag_262\n      jump\t// in\n    tag_261:\n        /* \"#utility.yul\":8368:8446   */\n      swap4\n      pop\n        /* \"#utility.yul\":8455:8507   */\n      tag_263\n        /* \"#utility.yul\":8500:8506   */\n      dup2\n        /* \"#utility.yul\":8495:8498   */\n      dup6\n        /* \"#utility.yul\":8488:8492   */\n      0x20\n        /* \"#utility.yul\":8481:8486   */\n      dup7\n        /* \"#utility.yul\":8477:8493   */\n      add\n        /* \"#utility.yul\":8455:8507   */\n      tag_255\n      jump\t// in\n    tag_263:\n        /* \"#utility.yul\":8532:8561   */\n      tag_264\n        /* \"#utility.yul\":8554:8560   */\n      dup2\n        /* \"#utility.yul\":8532:8561   */\n      tag_257\n      jump\t// in\n    tag_264:\n        /* \"#utility.yul\":8527:8530   */\n      dup5\n        /* \"#utility.yul\":8523:8562   */\n      add\n        /* \"#utility.yul\":8516:8562   */\n      swap2\n      pop\n        /* \"#utility.yul\":8296:8568   */\n      pop\n        /* \"#utility.yul\":8204:8568   */\n      swap3\n      swap2\n      pop\n      pop\n      jump\t// out\n        /* \"#utility.yul\":8574:8951   */\n    tag_265:\n        /* \"#utility.yul\":8680:8683   */\n      0x00\n        /* \"#utility.yul\":8708:8747   */\n      tag_267\n        /* \"#utility.yul\":8741:8746   */\n      dup3\n        /* \"#utility.yul\":8708:8747   */\n      tag_251\n      jump\t// in\n    tag_267:\n        /* \"#utility.yul\":8763:8852   */\n      tag_268\n        /* \"#utility.yul\":8845:8851   */\n      dup2\n        /* \"#utility.yul\":8840:8843   */\n      dup6\n        /* \"#utility.yul\":8763:8852   */\n      tag_269\n      jump\t// in\n    tag_268:\n        /* \"#utility.yul\":8756:8852   */\n      swap4\n      pop\n        /* \"#utility.yul\":8861:8913   */\n      tag_270\n        /* \"#utility.yul\":8906:8912   */\n      dup2\n        /* \"#utility.yul\":8901:8904   */\n      dup6\n        /* \"#utility.yul\":8894:8898   */\n      0x20\n        /* \"#utility.yul\":8887:8892   */\n      dup7\n        /* \"#utility.yul\":8883:8899   */\n      add\n        /* \"#utility.yul\":8861:8913   */\n      tag_255\n      jump\t// in\n    tag_270:\n        /* \"#utility.yul\":8938:8944   */\n      dup1\n        /* \"#utility.yul\":8933:8936   */\n      dup5\n        /* \"#utility.yul\":8929:8945   */\n      add\n        /* \"#utility.yul\":8922:8945   */\n      swap2\n      pop\n        /* \"#utility.yul\":8684:8951   */\n      pop\n        /* \"#utility.yul\":8574:8951   */\n      swap3\n      swap2\n      pop\n      pop\n      jump\t// out\n        /* \"#utility.yul\":8981:9783   */\n    tag_271:\n        /* \"#utility.yul\":9066:9069   */\n      0x00\n        /* \"#utility.yul\":9103:9108   */\n      dup2\n        /* \"#utility.yul\":9097:9109   */\n      sload\n        /* \"#utility.yul\":9132:9168   */\n      tag_273\n        /* \"#utility.yul\":9158:9167   */\n      dup2\n        /* \"#utility.yul\":9132:9168   */\n      tag_86\n      jump\t// in\n    tag_273:\n        /* \"#utility.yul\":9184:9255   */\n      tag_274\n        /* \"#utility.yul\":9248:9254   */\n      dup2\n        /* \"#utility.yul\":9243:9246   */\n      dup7\n        /* \"#utility.yul\":9184:9255   */\n      tag_262\n      jump\t// in\n    tag_274:\n        /* \"#utility.yul\":9177:9255   */\n      swap5\n      pop\n        /* \"#utility.yul\":9286:9287   */\n      0x01\n        /* \"#utility.yul\":9275:9284   */\n      dup3\n        /* \"#utility.yul\":9271:9288   */\n      and\n        /* \"#utility.yul\":9302:9303   */\n      0x00\n        /* \"#utility.yul\":9297:9432   */\n      dup2\n      eq\n      tag_276\n      jumpi\n        /* \"#utility.yul\":9446:9447   */\n      0x01\n        /* \"#utility.yul\":9441:9777   */\n      dup2\n      eq\n      tag_277\n      jumpi\n        /* \"#utility.yul\":9264:9777   */\n      jump(tag_275)\n        /* \"#utility.yul\":9297:9432   */\n    tag_276:\n        /* \"#utility.yul\":9381:9385   */\n      0xff\n        /* \"#utility.yul\":9377:9386   */\n      not\n        /* \"#utility.yul\":9366:9375   */\n      dup4\n        /* \"#utility.yul\":9362:9387   */\n      and\n        /* \"#utility.yul\":9357:9360   */\n      dup7\n        /* \"#utility.yul\":9350:9388   */\n      mstore\n        /* \"#utility.yul\":9417:9421   */\n      0x20\n        /* \"#utility.yul\":9412:9415   */\n      dup7\n        /* \"#utility.yul\":9408:9422   */\n      add\n        /* \"#utility.yul\":9401:9422   */\n      swap4\n      pop\n        /* \"#utility.yul\":9297:9432   */\n      jump(tag_275)\n        /* \"#utility.yul\":9441:9777   */\n    tag_277:\n        /* \"#utility.yul\":9508:9546   */\n      tag_278\n        /* \"#utility.yul\":9540:9545   */\n      dup6\n        /* \"#utility.yul\":9508:9546   */\n      tag_279\n      jump\t// in\n    tag_278:\n        /* \"#utility.yul\":9568:9569   */\n      0x00\n        /* \"#utility.yul\":9582:9736   */\n    tag_280:\n        /* \"#utility.yul\":9596:9602   */\n      dup4\n        /* \"#utility.yul\":9593:9594   */\n      dup2\n        /* \"#utility.yul\":9590:9603   */\n      lt\n        /* \"#utility.yul\":9582:9736   */\n      iszero\n      tag_282\n      jumpi\n        /* \"#utility.yul\":9670:9677   */\n      dup2\n        /* \"#utility.yul\":9664:9678   */\n      sload\n        /* \"#utility.yul\":9660:9661   */\n      dup2\n        /* \"#utility.yul\":9655:9658   */\n      dup10\n        /* \"#utility.yul\":9651:9662   */\n      add\n        /* \"#utility.yul\":9644:9679   */\n      mstore\n        /* \"#utility.yul\":9720:9721   */\n      0x01\n        /* \"#utility.yul\":9711:9718   */\n      dup3\n        /* \"#utility.yul\":9707:9722   */\n      add\n        /* \"#utility.yul\":9696:9722   */\n      swap2\n      pop\n        /* \"#utility.yul\":9618:9622   */\n      0x20\n        /* \"#utility.yul\":9615:9616   */\n      dup2\n        /* \"#utility.yul\":9611:9623   */\n      add\n        /* \"#utility.yul\":9606:9623   */\n      swap1\n      pop\n        /* \"#utility.yul\":9582:9736   */\n      jump(tag_280)\n    tag_282:\n        /* \"#utility.yul\":9765:9766   */\n      dup1\n        /* \"#utility.yul\":9760:9763   */\n      dup9\n        /* \"#utility.yul\":9756:9767   */\n      add\n        /* \"#utility.yul\":9749:9767   */\n      swap6\n      pop\n        /* \"#utility.yul\":9448:9777   */\n      pop\n      pop\n        /* \"#utility.yul\":9264:9777   */\n    tag_275:\n      pop\n        /* \"#utility.yul\":9070:9783   */\n      pop\n      pop\n        /* \"#utility.yul\":8981:9783   */\n      swap3\n      swap2\n      pop\n      pop\n      jump\t// out\n        /* \"#utility.yul\":9813:10658   */\n    tag_283:\n        /* \"#utility.yul\":9916:9919   */\n      0x00\n        /* \"#utility.yul\":9953:9958   */\n      dup2\n        /* \"#utility.yul\":9947:9959   */\n      sload\n        /* \"#utility.yul\":9982:10018   */\n      tag_285\n        /* \"#utility.yul\":10008:10017   */\n      dup2\n        /* \"#utility.yul\":9982:10018   */\n      tag_86\n      jump\t// in\n    tag_285:\n        /* \"#utility.yul\":10034:10123   */\n      tag_286\n        /* \"#utility.yul\":10116:10122   */\n      dup2\n        /* \"#utility.yul\":10111:10114   */\n      dup7\n        /* \"#utility.yul\":10034:10123   */\n      tag_269\n      jump\t// in\n    tag_286:\n        /* \"#utility.yul\":10027:10123   */\n      swap5\n      pop\n        /* \"#utility.yul\":10154:10155   */\n      0x01\n        /* \"#utility.yul\":10143:10152   */\n      dup3\n        /* \"#utility.yul\":10139:10156   */\n      and\n        /* \"#utility.yul\":10170:10171   */\n      0x00\n        /* \"#utility.yul\":10165:10302   */\n      dup2\n      eq\n      tag_288\n      jumpi\n        /* \"#utility.yul\":10316:10317   */\n      0x01\n        /* \"#utility.yul\":10311:10652   */\n      dup2\n      eq\n      tag_289\n      jumpi\n        /* \"#utility.yul\":10132:10652   */\n      jump(tag_287)\n        /* \"#utility.yul\":10165:10302   */\n    tag_288:\n        /* \"#utility.yul\":10249:10253   */\n      0xff\n        /* \"#utility.yul\":10245:10254   */\n      not\n        /* \"#utility.yul\":10234:10243   */\n      dup4\n        /* \"#utility.yul\":10230:10255   */\n      and\n        /* \"#utility.yul\":10225:10228   */\n      dup7\n        /* \"#utility.yul\":10218:10256   */\n      mstore\n        /* \"#utility.yul\":10285:10291   */\n      dup2\n        /* \"#utility.yul\":10280:10283   */\n      dup7\n        /* \"#utility.yul\":10276:10292   */\n      add\n        /* \"#utility.yul\":10269:10292   */\n      swap4\n      pop\n        /* \"#utility.yul\":10165:10302   */\n      jump(tag_287)\n        /* \"#utility.yul\":10311:10652   */\n    tag_289:\n        /* \"#utility.yul\":10378:10416   */\n      tag_290\n        /* \"#utility.yul\":10410:10415   */\n      dup6\n        /* \"#utility.yul\":10378:10416   */\n      tag_279\n      jump\t// in\n    tag_290:\n        /* \"#utility.yul\":10438:10439   */\n      0x00\n        /* \"#utility.yul\":10452:10606   */\n    tag_291:\n        /* \"#utility.yul\":10466:10472   */\n      dup4\n        /* \"#utility.yul\":10463:10464   */\n      dup2\n        /* \"#utility.yul\":10460:10473   */\n      lt\n        /* \"#utility.yul\":10452:10606   */\n      iszero\n      tag_293\n      jumpi\n        /* \"#utility.yul\":10540:10547   */\n      dup2\n        /* \"#utility.yul\":10534:10548   */\n      sload\n        /* \"#utility.yul\":10530:10531   */\n      dup2\n        /* \"#utility.yul\":10525:10528   */\n      dup10\n        /* \"#utility.yul\":10521:10532   */\n      add\n        /* \"#utility.yul\":10514:10549   */\n      mstore\n        /* \"#utility.yul\":10590:10591   */\n      0x01\n        /* \"#utility.yul\":10581:10588   */\n      dup3\n        /* \"#utility.yul\":10577:10592   */\n      add\n        /* \"#utility.yul\":10566:10592   */\n      swap2\n      pop\n        /* \"#utility.yul\":10488:10492   */\n      0x20\n        /* \"#utility.yul\":10485:10486   */\n      dup2\n        /* \"#utility.yul\":10481:10493   */\n      add\n        /* \"#utility.yul\":10476:10493   */\n      swap1\n      pop\n        /* \"#utility.yul\":10452:10606   */\n      jump(tag_291)\n    tag_293:\n        /* \"#utility.yul\":10635:10641   */\n      dup4\n        /* \"#utility.yul\":10630:10633   */\n      dup9\n        /* \"#utility.yul\":10626:10642   */\n      add\n        /* \"#utility.yul\":10619:10642   */\n      swap6\n      pop\n        /* \"#utility.yul\":10318:10652   */\n      pop\n      pop\n        /* \"#utility.yul\":10132:10652   */\n    tag_287:\n      pop\n        /* \"#utility.yul\":9920:10658   */\n      pop\n      pop\n        /* \"#utility.yul\":9813:10658   */\n      swap3\n      swap2\n      pop\n      pop\n      jump\t// out\n        /* \"#utility.yul\":10664:11030   */\n    tag_294:\n        /* \"#utility.yul\":10806:10809   */\n      0x00\n        /* \"#utility.yul\":10827:10894   */\n      tag_296\n        /* \"#utility.yul\":10891:10893   */\n      0x0e\n        /* \"#utility.yul\":10886:10889   */\n      dup4\n        /* \"#utility.yul\":10827:10894   */\n      tag_262\n      jump\t// in\n    tag_296:\n        /* \"#utility.yul\":10820:10894   */\n      swap2\n      pop\n        /* \"#utility.yul\":10903:10996   */\n      tag_297\n        /* \"#utility.yul\":10992:10995   */\n      dup3\n        /* \"#utility.yul\":10903:10996   */\n      tag_298\n      jump\t// in\n    tag_297:\n        /* \"#utility.yul\":11021:11023   */\n      0x20\n        /* \"#utility.yul\":11016:11019   */\n      dup3\n        /* \"#utility.yul\":11012:11024   */\n      add\n        /* \"#utility.yul\":11005:11024   */\n      swap1\n      pop\n        /* \"#utility.yul\":10664:11030   */\n      swap2\n      swap1\n      pop\n      jump\t// out\n        /* \"#utility.yul\":11036:11402   */\n    tag_299:\n        /* \"#utility.yul\":11178:11181   */\n      0x00\n        /* \"#utility.yul\":11199:11266   */\n      tag_301\n        /* \"#utility.yul\":11263:11265   */\n      0x40\n        /* \"#utility.yul\":11258:11261   */\n      dup4\n        /* \"#utility.yul\":11199:11266   */\n      tag_262\n      jump\t// in\n    tag_301:\n        /* \"#utility.yul\":11192:11266   */\n      swap2\n      pop\n        /* \"#utility.yul\":11275:11368   */\n      tag_302\n        /* \"#utility.yul\":11364:11367   */\n      dup3\n        /* \"#utility.yul\":11275:11368   */\n      tag_303\n      jump\t// in\n    tag_302:\n        /* \"#utility.yul\":11393:11395   */\n      0x40\n        /* \"#utility.yul\":11388:11391   */\n      dup3\n        /* \"#utility.yul\":11384:11396   */\n      add\n        /* \"#utility.yul\":11377:11396   */\n      swap1\n      pop\n        /* \"#utility.yul\":11036:11402   */\n      swap2\n      swap1\n      pop\n      jump\t// out\n        /* \"#utility.yul\":11408:11774   */\n    tag_304:\n        /* \"#utility.yul\":11550:11553   */\n      0x00\n        /* \"#utility.yul\":11571:11638   */\n      tag_306\n        /* \"#utility.yul\":11635:11637   */\n      0x37\n        /* \"#utility.yul\":11630:11633   */\n      dup4\n        /* \"#utility.yul\":11571:11638   */\n      tag_262\n      jump\t// in\n    tag_306:\n        /* \"#utility.yul\":11564:11638   */\n      swap2\n      pop\n        /* \"#utility.yul\":11647:11740   */\n      tag_307\n        /* \"#utility.yul\":11736:11739   */\n      dup3\n        /* \"#utility.yul\":11647:11740   */\n      tag_308\n      jump\t// in\n    tag_307:\n        /* \"#utility.yul\":11765:11767   */\n      0x40\n        /* \"#utility.yul\":11760:11763   */\n      dup3\n        /* \"#utility.yul\":11756:11768   */\n      add\n        /* \"#utility.yul\":11749:11768   */\n      swap1\n      pop\n        /* \"#utility.yul\":11408:11774   */\n      swap2\n      swap1\n      pop\n      jump\t// out\n        /* \"#utility.yul\":11780:12146   */\n    tag_309:\n        /* \"#utility.yul\":11922:11925   */\n      0x00\n        /* \"#utility.yul\":11943:12010   */\n      tag_311\n        /* \"#utility.yul\":12007:12009   */\n      0x21\n        /* \"#utility.yul\":12002:12005   */\n      dup4\n        /* \"#utility.yul\":11943:12010   */\n      tag_262\n      jump\t// in\n    tag_311:\n        /* \"#utility.yul\":11936:12010   */\n      swap2\n      pop\n        /* \"#utility.yul\":12019:12112   */\n      tag_312\n        /* \"#utility.yul\":12108:12111   */\n      dup3\n        /* \"#utility.yul\":12019:12112   */\n      tag_313\n      jump\t// in\n    tag_312:\n        /* \"#utility.yul\":12137:12139   */\n      0x40\n        /* \"#utility.yul\":12132:12135   */\n      dup3\n        /* \"#utility.yul\":12128:12140   */\n      add\n        /* \"#utility.yul\":12121:12140   */\n      swap1\n      pop\n        /* \"#utility.yul\":11780:12146   */\n      swap2\n      swap1\n      pop\n      jump\t// out\n        /* \"#utility.yul\":12152:12518   */\n    tag_314:\n        /* \"#utility.yul\":12294:12297   */\n      0x00\n        /* \"#utility.yul\":12315:12382   */\n      tag_316\n        /* \"#utility.yul\":12379:12381   */\n      0x0e\n        /* \"#utility.yul\":12374:12377   */\n      dup4\n        /* \"#utility.yul\":12315:12382   */\n      tag_262\n      jump\t// in\n    tag_316:\n        /* \"#utility.yul\":12308:12382   */\n      swap2\n      pop\n        /* \"#utility.yul\":12391:12484   */\n      tag_317\n        /* \"#utility.yul\":12480:12483   */\n      dup3\n        /* \"#utility.yul\":12391:12484   */\n      tag_318\n      jump\t// in\n    tag_317:\n        /* \"#utility.yul\":12509:12511   */\n      0x20\n        /* \"#utility.yul\":12504:12507   */\n      dup3\n        /* \"#utility.yul\":12500:12512   */\n      add\n        /* \"#utility.yul\":12493:12512   */\n      swap1\n      pop\n        /* \"#utility.yul\":12152:12518   */\n      swap2\n      swap1\n      pop\n      jump\t// out\n        /* \"#utility.yul\":12524:12642   */\n    tag_319:\n        /* \"#utility.yul\":12611:12635   */\n      tag_321\n        /* \"#utility.yul\":12629:12634   */\n      dup2\n        /* \"#utility.yul\":12611:12635   */\n      tag_322\n      jump\t// in\n    tag_321:\n        /* \"#utility.yul\":12606:12609   */\n      dup3\n        /* \"#utility.yul\":12599:12636   */\n      mstore\n        /* \"#utility.yul\":12524:12642   */\n      pop\n      pop\n      jump\t// out\n        /* \"#utility.yul\":12648:12923   */\n    tag_111:\n        /* \"#utility.yul\":12780:12783   */\n      0x00\n        /* \"#utility.yul\":12802:12897   */\n      tag_324\n        /* \"#utility.yul\":12893:12896   */\n      dup3\n        /* \"#utility.yul\":12884:12890   */\n      dup5\n        /* \"#utility.yul\":12802:12897   */\n      tag_265\n      jump\t// in\n    tag_324:\n        /* \"#utility.yul\":12795:12897   */\n      swap2\n      pop\n        /* \"#utility.yul\":12914:12917   */\n      dup2\n        /* \"#utility.yul\":12907:12917   */\n      swap1\n      pop\n        /* \"#utility.yul\":12648:12923   */\n      swap3\n      swap2\n      pop\n      pop\n      jump\t// out\n        /* \"#utility.yul\":12929:13198   */\n    tag_116:\n        /* \"#utility.yul\":13058:13061   */\n      0x00\n        /* \"#utility.yul\":13080:13172   */\n      tag_326\n        /* \"#utility.yul\":13168:13171   */\n      dup3\n        /* \"#utility.yul\":13159:13165   */\n      dup5\n        /* \"#utility.yul\":13080:13172   */\n      tag_283\n      jump\t// in\n    tag_326:\n        /* \"#utility.yul\":13073:13172   */\n      swap2\n      pop\n        /* \"#utility.yul\":13189:13192   */\n      dup2\n        /* \"#utility.yul\":13182:13192   */\n      swap1\n      pop\n        /* \"#utility.yul\":12929:13198   */\n      swap3\n      swap2\n      pop\n      pop\n      jump\t// out\n        /* \"#utility.yul\":13204:13426   */\n    tag_20:\n        /* \"#utility.yul\":13297:13301   */\n      0x00\n        /* \"#utility.yul\":13335:13337   */\n      0x20\n        /* \"#utility.yul\":13324:13333   */\n      dup3\n        /* \"#utility.yul\":13320:13338   */\n      add\n        /* \"#utility.yul\":13312:13338   */\n      swap1\n      pop\n        /* \"#utility.yul\":13348:13419   */\n      tag_328\n        /* \"#utility.yul\":13416:13417   */\n      0x00\n        /* \"#utility.yul\":13405:13414   */\n      dup4\n        /* \"#utility.yul\":13401:13418   */\n      add\n        /* \"#utility.yul\":13392:13398   */\n      dup5\n        /* \"#utility.yul\":13348:13419   */\n      tag_231\n      jump\t// in\n    tag_328:\n        /* \"#utility.yul\":13204:13426   */\n      swap3\n      swap2\n      pop\n      pop\n      jump\t// out\n        /* \"#utility.yul\":13432:14457   */\n    tag_63:\n        /* \"#utility.yul\":13741:13745   */\n      0x00\n        /* \"#utility.yul\":13779:13782   */\n      0xa0\n        /* \"#utility.yul\":13768:13777   */\n      dup3\n        /* \"#utility.yul\":13764:13783   */\n      add\n        /* \"#utility.yul\":13756:13783   */\n      swap1\n      pop\n        /* \"#utility.yul\":13829:13838   */\n      dup2\n        /* \"#utility.yul\":13823:13827   */\n      dup2\n        /* \"#utility.yul\":13819:13839   */\n      sub\n        /* \"#utility.yul\":13815:13816   */\n      0x00\n        /* \"#utility.yul\":13804:13813   */\n      dup4\n        /* \"#utility.yul\":13800:13817   */\n      add\n        /* \"#utility.yul\":13793:13840   */\n      mstore\n        /* \"#utility.yul\":13857:13985   */\n      tag_330\n        /* \"#utility.yul\":13980:13984   */\n      dup2\n        /* \"#utility.yul\":13971:13977   */\n      dup9\n        /* \"#utility.yul\":13857:13985   */\n      tag_235\n      jump\t// in\n    tag_330:\n        /* \"#utility.yul\":13849:13985   */\n      swap1\n      pop\n        /* \"#utility.yul\":13995:14067   */\n      tag_331\n        /* \"#utility.yul\":14063:14065   */\n      0x20\n        /* \"#utility.yul\":14052:14061   */\n      dup4\n        /* \"#utility.yul\":14048:14066   */\n      add\n        /* \"#utility.yul\":14039:14045   */\n      dup8\n        /* \"#utility.yul\":13995:14067   */\n      tag_319\n      jump\t// in\n    tag_331:\n        /* \"#utility.yul\":14077:14149   */\n      tag_332\n        /* \"#utility.yul\":14145:14147   */\n      0x40\n        /* \"#utility.yul\":14134:14143   */\n      dup4\n        /* \"#utility.yul\":14130:14148   */\n      add\n        /* \"#utility.yul\":14121:14127   */\n      dup7\n        /* \"#utility.yul\":14077:14149   */\n      tag_231\n      jump\t// in\n    tag_332:\n        /* \"#utility.yul\":14196:14205   */\n      dup2\n        /* \"#utility.yul\":14190:14194   */\n      dup2\n        /* \"#utility.yul\":14186:14206   */\n      sub\n        /* \"#utility.yul\":14181:14183   */\n      0x60\n        /* \"#utility.yul\":14170:14179   */\n      dup4\n        /* \"#utility.yul\":14166:14184   */\n      add\n        /* \"#utility.yul\":14159:14207   */\n      mstore\n        /* \"#utility.yul\":14224:14299   */\n      tag_333\n        /* \"#utility.yul\":14294:14298   */\n      dup2\n        /* \"#utility.yul\":14285:14291   */\n      dup6\n        /* \"#utility.yul\":14224:14299   */\n      tag_271\n      jump\t// in\n    tag_333:\n        /* \"#utility.yul\":14216:14299   */\n      swap1\n      pop\n        /* \"#utility.yul\":14347:14356   */\n      dup2\n        /* \"#utility.yul\":14341:14345   */\n      dup2\n        /* \"#utility.yul\":14337:14357   */\n      sub\n        /* \"#utility.yul\":14331:14334   */\n      0x80\n        /* \"#utility.yul\":14320:14329   */\n      dup4\n        /* \"#utility.yul\":14316:14335   */\n      add\n        /* \"#utility.yul\":14309:14358   */\n      mstore\n        /* \"#utility.yul\":14375:14450   */\n      tag_334\n        /* \"#utility.yul\":14445:14449   */\n      dup2\n        /* \"#utility.yul\":14436:14442   */\n      dup5\n        /* \"#utility.yul\":14375:14450   */\n      tag_271\n      jump\t// in\n    tag_334:\n        /* \"#utility.yul\":14367:14450   */\n      swap1\n      pop\n        /* \"#utility.yul\":13432:14457   */\n      swap7\n      swap6\n      pop\n      pop\n      pop\n      pop\n      pop\n      pop\n      jump\t// out\n        /* \"#utility.yul\":14463:16736   */\n    tag_79:\n        /* \"#utility.yul\":15076:15080   */\n      0x00\n        /* \"#utility.yul\":15114:15117   */\n      0x0180\n        /* \"#utility.yul\":15103:15112   */\n      dup3\n        /* \"#utility.yul\":15099:15118   */\n      add\n        /* \"#utility.yul\":15091:15118   */\n      swap1\n      pop\n        /* \"#utility.yul\":15164:15173   */\n      dup2\n        /* \"#utility.yul\":15158:15162   */\n      dup2\n        /* \"#utility.yul\":15154:15174   */\n      sub\n        /* \"#utility.yul\":15150:15151   */\n      0x00\n        /* \"#utility.yul\":15139:15148   */\n      dup4\n        /* \"#utility.yul\":15135:15152   */\n      add\n        /* \"#utility.yul\":15128:15175   */\n      mstore\n        /* \"#utility.yul\":15192:15270   */\n      tag_336\n        /* \"#utility.yul\":15265:15269   */\n      dup2\n        /* \"#utility.yul\":15256:15262   */\n      dup16\n        /* \"#utility.yul\":15192:15270   */\n      tag_258\n      jump\t// in\n    tag_336:\n        /* \"#utility.yul\":15184:15270   */\n      swap1\n      pop\n        /* \"#utility.yul\":15317:15326   */\n      dup2\n        /* \"#utility.yul\":15311:15315   */\n      dup2\n        /* \"#utility.yul\":15307:15327   */\n      sub\n        /* \"#utility.yul\":15302:15304   */\n      0x20\n        /* \"#utility.yul\":15291:15300   */\n      dup4\n        /* \"#utility.yul\":15287:15305   */\n      add\n        /* \"#utility.yul\":15280:15328   */\n      mstore\n        /* \"#utility.yul\":15345:15423   */\n      tag_337\n        /* \"#utility.yul\":15418:15422   */\n      dup2\n        /* \"#utility.yul\":15409:15415   */\n      dup15\n        /* \"#utility.yul\":15345:15423   */\n      tag_258\n      jump\t// in\n    tag_337:\n        /* \"#utility.yul\":15337:15423   */\n      swap1\n      pop\n        /* \"#utility.yul\":15470:15479   */\n      dup2\n        /* \"#utility.yul\":15464:15468   */\n      dup2\n        /* \"#utility.yul\":15460:15480   */\n      sub\n        /* \"#utility.yul\":15455:15457   */\n      0x40\n        /* \"#utility.yul\":15444:15453   */\n      dup4\n        /* \"#utility.yul\":15440:15458   */\n      add\n        /* \"#utility.yul\":15433:15481   */\n      mstore\n        /* \"#utility.yul\":15498:15576   */\n      tag_338\n        /* \"#utility.yul\":15571:15575   */\n      dup2\n        /* \"#utility.yul\":15562:15568   */\n      dup14\n        /* \"#utility.yul\":15498:15576   */\n      tag_258\n      jump\t// in\n    tag_338:\n        /* \"#utility.yul\":15490:15576   */\n      swap1\n      pop\n        /* \"#utility.yul\":15623:15632   */\n      dup2\n        /* \"#utility.yul\":15617:15621   */\n      dup2\n        /* \"#utility.yul\":15613:15633   */\n      sub\n        /* \"#utility.yul\":15608:15610   */\n      0x60\n        /* \"#utility.yul\":15597:15606   */\n      dup4\n        /* \"#utility.yul\":15593:15611   */\n      add\n        /* \"#utility.yul\":15586:15634   */\n      mstore\n        /* \"#utility.yul\":15651:15729   */\n      tag_339\n        /* \"#utility.yul\":15724:15728   */\n      dup2\n        /* \"#utility.yul\":15715:15721   */\n      dup13\n        /* \"#utility.yul\":15651:15729   */\n      tag_258\n      jump\t// in\n    tag_339:\n        /* \"#utility.yul\":15643:15729   */\n      swap1\n      pop\n        /* \"#utility.yul\":15777:15786   */\n      dup2\n        /* \"#utility.yul\":15771:15775   */\n      dup2\n        /* \"#utility.yul\":15767:15787   */\n      sub\n        /* \"#utility.yul\":15761:15764   */\n      0x80\n        /* \"#utility.yul\":15750:15759   */\n      dup4\n        /* \"#utility.yul\":15746:15765   */\n      add\n        /* \"#utility.yul\":15739:15788   */\n      mstore\n        /* \"#utility.yul\":15805:15883   */\n      tag_340\n        /* \"#utility.yul\":15878:15882   */\n      dup2\n        /* \"#utility.yul\":15869:15875   */\n      dup12\n        /* \"#utility.yul\":15805:15883   */\n      tag_258\n      jump\t// in\n    tag_340:\n        /* \"#utility.yul\":15797:15883   */\n      swap1\n      pop\n        /* \"#utility.yul\":15931:15940   */\n      dup2\n        /* \"#utility.yul\":15925:15929   */\n      dup2\n        /* \"#utility.yul\":15921:15941   */\n      sub\n        /* \"#utility.yul\":15915:15918   */\n      0xa0\n        /* \"#utility.yul\":15904:15913   */\n      dup4\n        /* \"#utility.yul\":15900:15919   */\n      add\n        /* \"#utility.yul\":15893:15942   */\n      mstore\n        /* \"#utility.yul\":15959:16037   */\n      tag_341\n        /* \"#utility.yul\":16032:16036   */\n      dup2\n        /* \"#utility.yul\":16023:16029   */\n      dup11\n        /* \"#utility.yul\":15959:16037   */\n      tag_258\n      jump\t// in\n    tag_341:\n        /* \"#utility.yul\":15951:16037   */\n      swap1\n      pop\n        /* \"#utility.yul\":16085:16094   */\n      dup2\n        /* \"#utility.yul\":16079:16083   */\n      dup2\n        /* \"#utility.yul\":16075:16095   */\n      sub\n        /* \"#utility.yul\":16069:16072   */\n      0xc0\n        /* \"#utility.yul\":16058:16067   */\n      dup4\n        /* \"#utility.yul\":16054:16073   */\n      add\n        /* \"#utility.yul\":16047:16096   */\n      mstore\n        /* \"#utility.yul\":16113:16191   */\n      tag_342\n        /* \"#utility.yul\":16186:16190   */\n      dup2\n        /* \"#utility.yul\":16177:16183   */\n      dup10\n        /* \"#utility.yul\":16113:16191   */\n      tag_258\n      jump\t// in\n    tag_342:\n        /* \"#utility.yul\":16105:16191   */\n      swap1\n      pop\n        /* \"#utility.yul\":16201:16274   */\n      tag_343\n        /* \"#utility.yul\":16269:16272   */\n      0xe0\n        /* \"#utility.yul\":16258:16267   */\n      dup4\n        /* \"#utility.yul\":16254:16273   */\n      add\n        /* \"#utility.yul\":16245:16251   */\n      dup9\n        /* \"#utility.yul\":16201:16274   */\n      tag_319\n      jump\t// in\n    tag_343:\n        /* \"#utility.yul\":16284:16357   */\n      tag_344\n        /* \"#utility.yul\":16352:16355   */\n      0x0100\n        /* \"#utility.yul\":16341:16350   */\n      dup4\n        /* \"#utility.yul\":16337:16356   */\n      add\n        /* \"#utility.yul\":16328:16334   */\n      dup8\n        /* \"#utility.yul\":16284:16357   */\n      tag_319\n      jump\t// in\n    tag_344:\n        /* \"#utility.yul\":16405:16414   */\n      dup2\n        /* \"#utility.yul\":16399:16403   */\n      dup2\n        /* \"#utility.yul\":16395:16415   */\n      sub\n        /* \"#utility.yul\":16389:16392   */\n      0x0120\n        /* \"#utility.yul\":16378:16387   */\n      dup4\n        /* \"#utility.yul\":16374:16393   */\n      add\n        /* \"#utility.yul\":16367:16416   */\n      mstore\n        /* \"#utility.yul\":16433:16561   */\n      tag_345\n        /* \"#utility.yul\":16556:16560   */\n      dup2\n        /* \"#utility.yul\":16547:16553   */\n      dup7\n        /* \"#utility.yul\":16433:16561   */\n      tag_235\n      jump\t// in\n    tag_345:\n        /* \"#utility.yul\":16425:16561   */\n      swap1\n      pop\n        /* \"#utility.yul\":16571:16645   */\n      tag_346\n        /* \"#utility.yul\":16640:16643   */\n      0x0140\n        /* \"#utility.yul\":16629:16638   */\n      dup4\n        /* \"#utility.yul\":16625:16644   */\n      add\n        /* \"#utility.yul\":16615:16622   */\n      dup6\n        /* \"#utility.yul\":16571:16645   */\n      tag_319\n      jump\t// in\n    tag_346:\n        /* \"#utility.yul\":16655:16729   */\n      tag_347\n        /* \"#utility.yul\":16724:16727   */\n      0x0160\n        /* \"#utility.yul\":16713:16722   */\n      dup4\n        /* \"#utility.yul\":16709:16728   */\n      add\n        /* \"#utility.yul\":16699:16706   */\n      dup5\n        /* \"#utility.yul\":16655:16729   */\n      tag_231\n      jump\t// in\n    tag_347:\n        /* \"#utility.yul\":14463:16736   */\n      swap14\n      swap13\n      pop\n      pop\n      pop\n      pop\n      pop\n      pop\n      pop\n      pop\n      pop\n      pop\n      pop\n      pop\n      pop\n      jump\t// out\n        /* \"#utility.yul\":16742:17466   */\n    tag_27:\n        /* \"#utility.yul\":16981:16985   */\n      0x00\n        /* \"#utility.yul\":17019:17021   */\n      0x60\n        /* \"#utility.yul\":17008:17017   */\n      dup3\n        /* \"#utility.yul\":17004:17022   */\n      add\n        /* \"#utility.yul\":16996:17022   */\n      swap1\n      pop\n        /* \"#utility.yul\":17068:17077   */\n      dup2\n        /* \"#utility.yul\":17062:17066   */\n      dup2\n        /* \"#utility.yul\":17058:17078   */\n      sub\n        /* \"#utility.yul\":17054:17055   */\n      0x00\n        /* \"#utility.yul\":17043:17052   */\n      dup4\n        /* \"#utility.yul\":17039:17056   */\n      add\n        /* \"#utility.yul\":17032:17079   */\n      mstore\n        /* \"#utility.yul\":17096:17174   */\n      tag_349\n        /* \"#utility.yul\":17169:17173   */\n      dup2\n        /* \"#utility.yul\":17160:17166   */\n      dup7\n        /* \"#utility.yul\":17096:17174   */\n      tag_258\n      jump\t// in\n    tag_349:\n        /* \"#utility.yul\":17088:17174   */\n      swap1\n      pop\n        /* \"#utility.yul\":17184:17256   */\n      tag_350\n        /* \"#utility.yul\":17252:17254   */\n      0x20\n        /* \"#utility.yul\":17241:17250   */\n      dup4\n        /* \"#utility.yul\":17237:17255   */\n      add\n        /* \"#utility.yul\":17228:17234   */\n      dup6\n        /* \"#utility.yul\":17184:17256   */\n      tag_319\n      jump\t// in\n    tag_350:\n        /* \"#utility.yul\":17303:17312   */\n      dup2\n        /* \"#utility.yul\":17297:17301   */\n      dup2\n        /* \"#utility.yul\":17293:17313   */\n      sub\n        /* \"#utility.yul\":17288:17290   */\n      0x40\n        /* \"#utility.yul\":17277:17286   */\n      dup4\n        /* \"#utility.yul\":17273:17291   */\n      add\n        /* \"#utility.yul\":17266:17314   */\n      mstore\n        /* \"#utility.yul\":17331:17459   */\n      tag_351\n        /* \"#utility.yul\":17454:17458   */\n      dup2\n        /* \"#utility.yul\":17445:17451   */\n      dup5\n        /* \"#utility.yul\":17331:17459   */\n      tag_235\n      jump\t// in\n    tag_351:\n        /* \"#utility.yul\":17323:17459   */\n      swap1\n      pop\n        /* \"#utility.yul\":16742:17466   */\n      swap5\n      swap4\n      pop\n      pop\n      pop\n      pop\n      jump\t// out\n        /* \"#utility.yul\":17472:17891   */\n    tag_37:\n        /* \"#utility.yul\":17638:17642   */\n      0x00\n        /* \"#utility.yul\":17676:17678   */\n      0x20\n        /* \"#utility.yul\":17665:17674   */\n      dup3\n        /* \"#utility.yul\":17661:17679   */\n      add\n        /* \"#utility.yul\":17653:17679   */\n      swap1\n      pop\n        /* \"#utility.yul\":17725:17734   */\n      dup2\n        /* \"#utility.yul\":17719:17723   */\n      dup2\n        /* \"#utility.yul\":17715:17735   */\n      sub\n        /* \"#utility.yul\":17711:17712   */\n      0x00\n        /* \"#utility.yul\":17700:17709   */\n      dup4\n        /* \"#utility.yul\":17696:17713   */\n      add\n        /* \"#utility.yul\":17689:17736   */\n      mstore\n        /* \"#utility.yul\":17753:17884   */\n      tag_353\n        /* \"#utility.yul\":17879:17883   */\n      dup2\n        /* \"#utility.yul\":17753:17884   */\n      tag_294\n      jump\t// in\n    tag_353:\n        /* \"#utility.yul\":17745:17884   */\n      swap1\n      pop\n        /* \"#utility.yul\":17472:17891   */\n      swap2\n      swap1\n      pop\n      jump\t// out\n        /* \"#utility.yul\":17897:18316   */\n    tag_48:\n        /* \"#utility.yul\":18063:18067   */\n      0x00\n        /* \"#utility.yul\":18101:18103   */\n      0x20\n        /* \"#utility.yul\":18090:18099   */\n      dup3\n        /* \"#utility.yul\":18086:18104   */\n      add\n        /* \"#utility.yul\":18078:18104   */\n      swap1\n      pop\n        /* \"#utility.yul\":18150:18159   */\n      dup2\n        /* \"#utility.yul\":18144:18148   */\n      dup2\n        /* \"#utility.yul\":18140:18160   */\n      sub\n        /* \"#utility.yul\":18136:18137   */\n      0x00\n        /* \"#utility.yul\":18125:18134   */\n      dup4\n        /* \"#utility.yul\":18121:18138   */\n      add\n        /* \"#utility.yul\":18114:18161   */\n      mstore\n        /* \"#utility.yul\":18178:18309   */\n      tag_355\n        /* \"#utility.yul\":18304:18308   */\n      dup2\n        /* \"#utility.yul\":18178:18309   */\n      tag_299\n      jump\t// in\n    tag_355:\n        /* \"#utility.yul\":18170:18309   */\n      swap1\n      pop\n        /* \"#utility.yul\":17897:18316   */\n      swap2\n      swap1\n      pop\n      jump\t// out\n        /* \"#utility.yul\":18322:18741   */\n    tag_67:\n        /* \"#utility.yul\":18488:18492   */\n      0x00\n        /* \"#utility.yul\":18526:18528   */\n      0x20\n        /* \"#utility.yul\":18515:18524   */\n      dup3\n        /* \"#utility.yul\":18511:18529   */\n      add\n        /* \"#utility.yul\":18503:18529   */\n      swap1\n      pop\n        /* \"#utility.yul\":18575:18584   */\n      dup2\n        /* \"#utility.yul\":18569:18573   */\n      dup2\n        /* \"#utility.yul\":18565:18585   */\n      sub\n        /* \"#utility.yul\":18561:18562   */\n      0x00\n        /* \"#utility.yul\":18550:18559   */\n      dup4\n        /* \"#utility.yul\":18546:18563   */\n      add\n        /* \"#utility.yul\":18539:18586   */\n      mstore\n        /* \"#utility.yul\":18603:18734   */\n      tag_357\n        /* \"#utility.yul\":18729:18733   */\n      dup2\n        /* \"#utility.yul\":18603:18734   */\n      tag_304\n      jump\t// in\n    tag_357:\n        /* \"#utility.yul\":18595:18734   */\n      swap1\n      pop\n        /* \"#utility.yul\":18322:18741   */\n      swap2\n      swap1\n      pop\n      jump\t// out\n        /* \"#utility.yul\":18747:19166   */\n    tag_42:\n        /* \"#utility.yul\":18913:18917   */\n      0x00\n        /* \"#utility.yul\":18951:18953   */\n      0x20\n        /* \"#utility.yul\":18940:18949   */\n      dup3\n        /* \"#utility.yul\":18936:18954   */\n      add\n        /* \"#utility.yul\":18928:18954   */\n      swap1\n      pop\n        /* \"#utility.yul\":19000:19009   */\n      dup2\n        /* \"#utility.yul\":18994:18998   */\n      dup2\n        /* \"#utility.yul\":18990:19010   */\n      sub\n        /* \"#utility.yul\":18986:18987   */\n      0x00\n        /* \"#utility.yul\":18975:18984   */\n      dup4\n        /* \"#utility.yul\":18971:18988   */\n      add\n        /* \"#utility.yul\":18964:19011   */\n      mstore\n        /* \"#utility.yul\":19028:19159   */\n      tag_359\n        /* \"#utility.yul\":19154:19158   */\n      dup2\n        /* \"#utility.yul\":19028:19159   */\n      tag_309\n      jump\t// in\n    tag_359:\n        /* \"#utility.yul\":19020:19159   */\n      swap1\n      pop\n        /* \"#utility.yul\":18747:19166   */\n      swap2\n      swap1\n      pop\n      jump\t// out\n        /* \"#utility.yul\":19172:19591   */\n    tag_84:\n        /* \"#utility.yul\":19338:19342   */\n      0x00\n        /* \"#utility.yul\":19376:19378   */\n      0x20\n        /* \"#utility.yul\":19365:19374   */\n      dup3\n        /* \"#utility.yul\":19361:19379   */\n      add\n        /* \"#utility.yul\":19353:19379   */\n      swap1\n      pop\n        /* \"#utility.yul\":19425:19434   */\n      dup2\n        /* \"#utility.yul\":19419:19423   */\n      dup2\n        /* \"#utility.yul\":19415:19435   */\n      sub\n        /* \"#utility.yul\":19411:19412   */\n      0x00\n        /* \"#utility.yul\":19400:19409   */\n      dup4\n        /* \"#utility.yul\":19396:19413   */\n      add\n        /* \"#utility.yul\":19389:19436   */\n      mstore\n        /* \"#utility.yul\":19453:19584   */\n      tag_361\n        /* \"#utility.yul\":19579:19583   */\n      dup2\n        /* \"#utility.yul\":19453:19584   */\n      tag_314\n      jump\t// in\n    tag_361:\n        /* \"#utility.yul\":19445:19584   */\n      swap1\n      pop\n        /* \"#utility.yul\":19172:19591   */\n      swap2\n      swap1\n      pop\n      jump\t// out\n        /* \"#utility.yul\":19597:19819   */\n    tag_33:\n        /* \"#utility.yul\":19690:19694   */\n      0x00\n        /* \"#utility.yul\":19728:19730   */\n      0x20\n        /* \"#utility.yul\":19717:19726   */\n      dup3\n        /* \"#utility.yul\":19713:19731   */\n      add\n        /* \"#utility.yul\":19705:19731   */\n      swap1\n      pop\n        /* \"#utility.yul\":19741:19812   */\n      tag_363\n        /* \"#utility.yul\":19809:19810   */\n      0x00\n        /* \"#utility.yul\":19798:19807   */\n      dup4\n        /* \"#utility.yul\":19794:19811   */\n      add\n        /* \"#utility.yul\":19785:19791   */\n      dup5\n        /* \"#utility.yul\":19741:19812   */\n      tag_319\n      jump\t// in\n    tag_363:\n        /* \"#utility.yul\":19597:19819   */\n      swap3\n      swap2\n      pop\n      pop\n      jump\t// out\n        /* \"#utility.yul\":19825:19954   */\n    tag_150:\n        /* \"#utility.yul\":19859:19865   */\n      0x00\n        /* \"#utility.yul\":19886:19906   */\n      tag_365\n      tag_366\n      jump\t// in\n    tag_365:\n        /* \"#utility.yul\":19876:19906   */\n      swap1\n      pop\n        /* \"#utility.yul\":19915:19948   */\n      tag_367\n        /* \"#utility.yul\":19943:19947   */\n      dup3\n        /* \"#utility.yul\":19935:19941   */\n      dup3\n        /* \"#utility.yul\":19915:19948   */\n      tag_368\n      jump\t// in\n    tag_367:\n        /* \"#utility.yul\":19825:19954   */\n      swap2\n      swap1\n      pop\n      jump\t// out\n        /* \"#utility.yul\":19960:20035   */\n    tag_366:\n        /* \"#utility.yul\":19993:19999   */\n      0x00\n        /* \"#utility.yul\":20026:20028   */\n      0x40\n        /* \"#utility.yul\":20020:20029   */\n      mload\n        /* \"#utility.yul\":20010:20029   */\n      swap1\n      pop\n        /* \"#utility.yul\":19960:20035   */\n      swap1\n      jump\t// out\n        /* \"#utility.yul\":20041:20362   */\n    tag_149:\n        /* \"#utility.yul\":20128:20132   */\n      0x00\n        /* \"#utility.yul\":20218:20236   */\n      0xffffffffffffffff\n        /* \"#utility.yul\":20210:20216   */\n      dup3\n        /* \"#utility.yul\":20207:20237   */\n      gt\n        /* \"#utility.yul\":20204:20260   */\n      iszero\n      tag_371\n      jumpi\n        /* \"#utility.yul\":20240:20258   */\n      tag_372\n      tag_373\n      jump\t// in\n    tag_372:\n        /* \"#utility.yul\":20204:20260   */\n    tag_371:\n        /* \"#utility.yul\":20290:20294   */\n      0x20\n        /* \"#utility.yul\":20282:20288   */\n      dup3\n        /* \"#utility.yul\":20278:20295   */\n      mul\n        /* \"#utility.yul\":20270:20295   */\n      swap1\n      pop\n        /* \"#utility.yul\":20350:20354   */\n      0x20\n        /* \"#utility.yul\":20344:20348   */\n      dup2\n        /* \"#utility.yul\":20340:20355   */\n      add\n        /* \"#utility.yul\":20332:20355   */\n      swap1\n      pop\n        /* \"#utility.yul\":20041:20362   */\n      swap2\n      swap1\n      pop\n      jump\t// out\n        /* \"#utility.yul\":20368:20676   */\n    tag_166:\n        /* \"#utility.yul\":20430:20434   */\n      0x00\n        /* \"#utility.yul\":20520:20538   */\n      0xffffffffffffffff\n        /* \"#utility.yul\":20512:20518   */\n      dup3\n        /* \"#utility.yul\":20509:20539   */\n      gt\n        /* \"#utility.yul\":20506:20562   */\n      iszero\n      tag_375\n      jumpi\n        /* \"#utility.yul\":20542:20560   */\n      tag_376\n      tag_373\n      jump\t// in\n    tag_376:\n        /* \"#utility.yul\":20506:20562   */\n    tag_375:\n        /* \"#utility.yul\":20580:20609   */\n      tag_377\n        /* \"#utility.yul\":20602:20608   */\n      dup3\n        /* \"#utility.yul\":20580:20609   */\n      tag_257\n      jump\t// in\n    tag_377:\n        /* \"#utility.yul\":20572:20609   */\n      swap1\n      pop\n        /* \"#utility.yul\":20664:20668   */\n      0x20\n        /* \"#utility.yul\":20658:20662   */\n      dup2\n        /* \"#utility.yul\":20654:20669   */\n      add\n        /* \"#utility.yul\":20646:20669   */\n      swap1\n      pop\n        /* \"#utility.yul\":20368:20676   */\n      swap2\n      swap1\n      pop\n      jump\t// out\n        /* \"#utility.yul\":20682:20824   */\n    tag_242:\n        /* \"#utility.yul\":20759:20763   */\n      0x00\n        /* \"#utility.yul\":20782:20785   */\n      dup2\n        /* \"#utility.yul\":20774:20785   */\n      swap1\n      pop\n        /* \"#utility.yul\":20812:20816   */\n      0x20\n        /* \"#utility.yul\":20807:20810   */\n      dup3\n        /* \"#utility.yul\":20803:20817   */\n      add\n        /* \"#utility.yul\":20795:20817   */\n      swap1\n      pop\n        /* \"#utility.yul\":20682:20824   */\n      swap2\n      swap1\n      pop\n      jump\t// out\n        /* \"#utility.yul\":20830:20971   */\n    tag_279:\n        /* \"#utility.yul\":20879:20883   */\n      0x00\n        /* \"#utility.yul\":20902:20905   */\n      dup2\n        /* \"#utility.yul\":20894:20905   */\n      swap1\n      pop\n        /* \"#utility.yul\":20925:20928   */\n      dup2\n        /* \"#utility.yul\":20922:20923   */\n      0x00\n        /* \"#utility.yul\":20915:20929   */\n      mstore\n        /* \"#utility.yul\":20959:20963   */\n      0x20\n        /* \"#utility.yul\":20956:20957   */\n      0x00\n        /* \"#utility.yul\":20946:20964   */\n      keccak256\n        /* \"#utility.yul\":20938:20964   */\n      swap1\n      pop\n        /* \"#utility.yul\":20830:20971   */\n      swap2\n      swap1\n      pop\n      jump\t// out\n        /* \"#utility.yul\":20977:21101   */\n    tag_238:\n        /* \"#utility.yul\":21054:21060   */\n      0x00\n        /* \"#utility.yul\":21088:21093   */\n      dup2\n        /* \"#utility.yul\":21082:21094   */\n      mload\n        /* \"#utility.yul\":21072:21094   */\n      swap1\n      pop\n        /* \"#utility.yul\":20977:21101   */\n      swap2\n      swap1\n      pop\n      jump\t// out\n        /* \"#utility.yul\":21107:21206   */\n    tag_251:\n        /* \"#utility.yul\":21159:21165   */\n      0x00\n        /* \"#utility.yul\":21193:21198   */\n      dup2\n        /* \"#utility.yul\":21187:21199   */\n      mload\n        /* \"#utility.yul\":21177:21199   */\n      swap1\n      pop\n        /* \"#utility.yul\":21107:21206   */\n      swap2\n      swap1\n      pop\n      jump\t// out\n        /* \"#utility.yul\":21212:21335   */\n    tag_248:\n        /* \"#utility.yul\":21292:21296   */\n      0x00\n        /* \"#utility.yul\":21324:21328   */\n      0x20\n        /* \"#utility.yul\":21319:21322   */\n      dup3\n        /* \"#utility.yul\":21315:21329   */\n      add\n        /* \"#utility.yul\":21307:21329   */\n      swap1\n      pop\n        /* \"#utility.yul\":21212:21335   */\n      swap2\n      swap1\n      pop\n      jump\t// out\n        /* \"#utility.yul\":21341:21535   */\n    tag_240:\n        /* \"#utility.yul\":21450:21461   */\n      0x00\n        /* \"#utility.yul\":21484:21490   */\n      dup3\n        /* \"#utility.yul\":21479:21482   */\n      dup3\n        /* \"#utility.yul\":21472:21491   */\n      mstore\n        /* \"#utility.yul\":21524:21528   */\n      0x20\n        /* \"#utility.yul\":21519:21522   */\n      dup3\n        /* \"#utility.yul\":21515:21529   */\n      add\n        /* \"#utility.yul\":21500:21529   */\n      swap1\n      pop\n        /* \"#utility.yul\":21341:21535   */\n      swap3\n      swap2\n      pop\n      pop\n      jump\t// out\n        /* \"#utility.yul\":21541:21700   */\n    tag_253:\n        /* \"#utility.yul\":21615:21626   */\n      0x00\n        /* \"#utility.yul\":21649:21655   */\n      dup3\n        /* \"#utility.yul\":21644:21647   */\n      dup3\n        /* \"#utility.yul\":21637:21656   */\n      mstore\n        /* \"#utility.yul\":21689:21693   */\n      0x20\n        /* \"#utility.yul\":21684:21687   */\n      dup3\n        /* \"#utility.yul\":21680:21694   */\n      add\n        /* \"#utility.yul\":21665:21694   */\n      swap1\n      pop\n        /* \"#utility.yul\":21541:21700   */\n      swap3\n      swap2\n      pop\n      pop\n      jump\t// out\n        /* \"#utility.yul\":21706:21875   */\n    tag_262:\n        /* \"#utility.yul\":21790:21801   */\n      0x00\n        /* \"#utility.yul\":21824:21830   */\n      dup3\n        /* \"#utility.yul\":21819:21822   */\n      dup3\n        /* \"#utility.yul\":21812:21831   */\n      mstore\n        /* \"#utility.yul\":21864:21868   */\n      0x20\n        /* \"#utility.yul\":21859:21862   */\n      dup3\n        /* \"#utility.yul\":21855:21869   */\n      add\n        /* \"#utility.yul\":21840:21869   */\n      swap1\n      pop\n        /* \"#utility.yul\":21706:21875   */\n      swap3\n      swap2\n      pop\n      pop\n      jump\t// out\n        /* \"#utility.yul\":21881:22029   */\n    tag_269:\n        /* \"#utility.yul\":21983:21994   */\n      0x00\n        /* \"#utility.yul\":22020:22023   */\n      dup2\n        /* \"#utility.yul\":22005:22023   */\n      swap1\n      pop\n        /* \"#utility.yul\":21881:22029   */\n      swap3\n      swap2\n      pop\n      pop\n      jump\t// out\n        /* \"#utility.yul\":22035:22383   */\n    tag_44:\n        /* \"#utility.yul\":22075:22082   */\n      0x00\n        /* \"#utility.yul\":22098:22118   */\n      tag_388\n        /* \"#utility.yul\":22116:22117   */\n      dup3\n        /* \"#utility.yul\":22098:22118   */\n      tag_322\n      jump\t// in\n    tag_388:\n        /* \"#utility.yul\":22093:22118   */\n      swap2\n      pop\n        /* \"#utility.yul\":22132:22152   */\n      tag_389\n        /* \"#utility.yul\":22150:22151   */\n      dup4\n        /* \"#utility.yul\":22132:22152   */\n      tag_322\n      jump\t// in\n    tag_389:\n        /* \"#utility.yul\":22127:22152   */\n      swap3\n      pop\n        /* \"#utility.yul\":22320:22321   */\n      dup2\n        /* \"#utility.yul\":22252:22318   */\n      0xffffffffffffffffffffffffffffffffffffffffffffffffffffffffffffffff\n        /* \"#utility.yul\":22248:22322   */\n      div\n        /* \"#utility.yul\":22245:22246   */\n      dup4\n        /* \"#utility.yul\":22242:22323   */\n      gt\n        /* \"#utility.yul\":22237:22238   */\n      dup3\n        /* \"#utility.yul\":22230:22239   */\n      iszero\n        /* \"#utility.yul\":22223:22240   */\n      iszero\n        /* \"#utility.yul\":22219:22324   */\n      and\n        /* \"#utility.yul\":22216:22347   */\n      iszero\n      tag_390\n      jumpi\n        /* \"#utility.yul\":22327:22345   */\n      tag_391\n      tag_392\n      jump\t// in\n    tag_391:\n        /* \"#utility.yul\":22216:22347   */\n    tag_390:\n        /* \"#utility.yul\":22375:22376   */\n      dup3\n        /* \"#utility.yul\":22372:22373   */\n      dup3\n        /* \"#utility.yul\":22368:22377   */\n      mul\n        /* \"#utility.yul\":22357:22377   */\n      swap1\n      pop\n        /* \"#utility.yul\":22035:22383   */\n      swap3\n      swap2\n      pop\n      pop\n      jump\t// out\n        /* \"#utility.yul\":22389:22485   */\n    tag_234:\n        /* \"#utility.yul\":22426:22433   */\n      0x00\n        /* \"#utility.yul\":22455:22479   */\n      tag_394\n        /* \"#utility.yul\":22473:22478   */\n      dup3\n        /* \"#utility.yul\":22455:22479   */\n      tag_395\n      jump\t// in\n    tag_394:\n        /* \"#utility.yul\":22444:22479   */\n      swap1\n      pop\n        /* \"#utility.yul\":22389:22485   */\n      swap2\n      swap1\n      pop\n      jump\t// out\n        /* \"#utility.yul\":22491:22617   */\n    tag_395:\n        /* \"#utility.yul\":22528:22535   */\n      0x00\n        /* \"#utility.yul\":22568:22610   */\n      0xffffffffffffffffffffffffffffffffffffffff\n        /* \"#utility.yul\":22561:22566   */\n      dup3\n        /* \"#utility.yul\":22557:22611   */\n      and\n        /* \"#utility.yul\":22546:22611   */\n      swap1\n      pop\n        /* \"#utility.yul\":22491:22617   */\n      swap2\n      swap1\n      pop\n      jump\t// out\n        /* \"#utility.yul\":22623:22700   */\n    tag_322:\n        /* \"#utility.yul\":22660:22667   */\n      0x00\n        /* \"#utility.yul\":22689:22694   */\n      dup2\n        /* \"#utility.yul\":22678:22694   */\n      swap1\n      pop\n        /* \"#utility.yul\":22623:22700   */\n      swap2\n      swap1\n      pop\n      jump\t// out\n        /* \"#utility.yul\":22706:22860   */\n    tag_171:\n        /* \"#utility.yul\":22790:22796   */\n      dup3\n        /* \"#utility.yul\":22785:22788   */\n      dup2\n        /* \"#utility.yul\":22780:22783   */\n      dup4\n        /* \"#utility.yul\":22767:22797   */\n      calldatacopy\n        /* \"#utility.yul\":22852:22853   */\n      0x00\n        /* \"#utility.yul\":22843:22849   */\n      dup4\n        /* \"#utility.yul\":22838:22841   */\n      dup4\n        /* \"#utility.yul\":22834:22850   */\n      add\n        /* \"#utility.yul\":22827:22854   */\n      mstore\n        /* \"#utility.yul\":22706:22860   */\n      pop\n      pop\n      pop\n      jump\t// out\n        /* \"#utility.yul\":22866:23173   */\n    tag_255:\n        /* \"#utility.yul\":22934:22935   */\n      0x00\n        /* \"#utility.yul\":22944:23057   */\n    tag_400:\n        /* \"#utility.yul\":22958:22964   */\n      dup4\n        /* \"#utility.yul\":22955:22956   */\n      dup2\n        /* \"#utility.yul\":22952:22965   */\n      lt\n        /* \"#utility.yul\":22944:23057   */\n      iszero\n      tag_402\n      jumpi\n        /* \"#utility.yul\":23043:23044   */\n      dup1\n        /* \"#utility.yul\":23038:23041   */\n      dup3\n        /* \"#utility.yul\":23034:23045   */\n      add\n        /* \"#utility.yul\":23028:23046   */\n      mload\n        /* \"#utility.yul\":23024:23025   */\n      dup2\n        /* \"#utility.yul\":23019:23022   */\n      dup5\n        /* \"#utility.yul\":23015:23026   */\n      add\n        /* \"#utility.yul\":23008:23047   */\n      mstore\n        /* \"#utility.yul\":22980:22982   */\n      0x20\n        /* \"#utility.yul\":22977:22978   */\n      dup2\n        /* \"#utility.yul\":22973:22983   */\n      add\n        /* \"#utility.yul\":22968:22983   */\n      swap1\n      pop\n        /* \"#utility.yul\":22944:23057   */\n      jump(tag_400)\n    tag_402:\n        /* \"#utility.yul\":23075:23081   */\n      dup4\n        /* \"#utility.yul\":23072:23073   */\n      dup2\n        /* \"#utility.yul\":23069:23082   */\n      gt\n        /* \"#utility.yul\":23066:23167   */\n      iszero\n      tag_403\n      jumpi\n        /* \"#utility.yul\":23155:23156   */\n      0x00\n        /* \"#utility.yul\":23146:23152   */\n      dup5\n        /* \"#utility.yul\":23141:23144   */\n      dup5\n        /* \"#utility.yul\":23137:23153   */\n      add\n        /* \"#utility.yul\":23130:23157   */\n      mstore\n        /* \"#utility.yul\":23066:23167   */\n    tag_403:\n        /* \"#utility.yul\":22915:23173   */\n      pop\n        /* \"#utility.yul\":22866:23173   */\n      pop\n      pop\n      pop\n      jump\t// out\n        /* \"#utility.yul\":23179:23499   */\n    tag_86:\n        /* \"#utility.yul\":23223:23229   */\n      0x00\n        /* \"#utility.yul\":23260:23261   */\n      0x02\n        /* \"#utility.yul\":23254:23258   */\n      dup3\n        /* \"#utility.yul\":23250:23262   */\n      div\n        /* \"#utility.yul\":23240:23262   */\n      swap1\n      pop\n        /* \"#utility.yul\":23307:23308   */\n      0x01\n        /* \"#utility.yul\":23301:23305   */\n      dup3\n        /* \"#utility.yul\":23297:23309   */\n      and\n        /* \"#utility.yul\":23328:23346   */\n      dup1\n        /* \"#utility.yul\":23318:23399   */\n      tag_405\n      jumpi\n        /* \"#utility.yul\":23384:23388   */\n      0x7f\n        /* \"#utility.yul\":23376:23382   */\n      dup3\n        /* \"#utility.yul\":23372:23389   */\n      and\n        /* \"#utility.yul\":23362:23389   */\n      swap2\n      pop\n        /* \"#utility.yul\":23318:23399   */\n    tag_405:\n        /* \"#utility.yul\":23446:23448   */\n      0x20\n        /* \"#utility.yul\":23438:23444   */\n      dup3\n        /* \"#utility.yul\":23435:23449   */\n      lt\n        /* \"#utility.yul\":23415:23433   */\n      dup2\n        /* \"#utility.yul\":23412:23450   */\n      eq\n        /* \"#utility.yul\":23409:23493   */\n      iszero\n      tag_406\n      jumpi\n        /* \"#utility.yul\":23465:23483   */\n      tag_407\n      tag_408\n      jump\t// in\n    tag_407:\n        /* \"#utility.yul\":23409:23493   */\n    tag_406:\n        /* \"#utility.yul\":23230:23499   */\n      pop\n        /* \"#utility.yul\":23179:23499   */\n      swap2\n      swap1\n      pop\n      jump\t// out\n        /* \"#utility.yul\":23505:23786   */\n    tag_368:\n        /* \"#utility.yul\":23588:23615   */\n      tag_410\n        /* \"#utility.yul\":23610:23614   */\n      dup3\n        /* \"#utility.yul\":23588:23615   */\n      tag_257\n      jump\t// in\n    tag_410:\n        /* \"#utility.yul\":23580:23586   */\n      dup2\n        /* \"#utility.yul\":23576:23616   */\n      add\n        /* \"#utility.yul\":23718:23724   */\n      dup2\n        /* \"#utility.yul\":23706:23716   */\n      dup2\n        /* \"#utility.yul\":23703:23725   */\n      lt\n        /* \"#utility.yul\":23682:23700   */\n      0xffffffffffffffff\n        /* \"#utility.yul\":23670:23680   */\n      dup3\n        /* \"#utility.yul\":23667:23701   */\n      gt\n        /* \"#utility.yul\":23664:23726   */\n      or\n        /* \"#utility.yul\":23661:23749   */\n      iszero\n      tag_411\n      jumpi\n        /* \"#utility.yul\":23729:23747   */\n      tag_412\n      tag_373\n      jump\t// in\n    tag_412:\n        /* \"#utility.yul\":23661:23749   */\n    tag_411:\n        /* \"#utility.yul\":23769:23779   */\n      dup1\n        /* \"#utility.yul\":23765:23767   */\n      0x40\n        /* \"#utility.yul\":23758:23780   */\n      mstore\n        /* \"#utility.yul\":23548:23786   */\n      pop\n        /* \"#utility.yul\":23505:23786   */\n      pop\n      pop\n      jump\t// out\n        /* \"#utility.yul\":23792:24025   */\n    tag_59:\n        /* \"#utility.yul\":23831:23834   */\n      0x00\n        /* \"#utility.yul\":23854:23878   */\n      tag_414\n        /* \"#utility.yul\":23872:23877   */\n      dup3\n        /* \"#utility.yul\":23854:23878   */\n      tag_322\n      jump\t// in\n    tag_414:\n        /* \"#utility.yul\":23845:23878   */\n      swap2\n      pop\n        /* \"#utility.yul\":23900:23966   */\n      0xffffffffffffffffffffffffffffffffffffffffffffffffffffffffffffffff\n        /* \"#utility.yul\":23893:23898   */\n      dup3\n        /* \"#utility.yul\":23890:23967   */\n      eq\n        /* \"#utility.yul\":23887:23990   */\n      iszero\n      tag_415\n      jumpi\n        /* \"#utility.yul\":23970:23988   */\n      tag_416\n      tag_392\n      jump\t// in\n    tag_416:\n        /* \"#utility.yul\":23887:23990   */\n    tag_415:\n        /* \"#utility.yul\":24017:24018   */\n      0x01\n        /* \"#utility.yul\":24010:24015   */\n      dup3\n        /* \"#utility.yul\":24006:24019   */\n      add\n        /* \"#utility.yul\":23999:24019   */\n      swap1\n      pop\n        /* \"#utility.yul\":23792:24025   */\n      swap2\n      swap1\n      pop\n      jump\t// out\n        /* \"#utility.yul\":24031:24211   */\n    tag_392:\n        /* \"#utility.yul\":24079:24156   */\n      0x4e487b7100000000000000000000000000000000000000000000000000000000\n        /* \"#utility.yul\":24076:24077   */\n      0x00\n        /* \"#utility.yul\":24069:24157   */\n      mstore\n        /* \"#utility.yul\":24176:24180   */\n      0x11\n        /* \"#utility.yul\":24173:24174   */\n      0x04\n        /* \"#utility.yul\":24166:24181   */\n      mstore\n        /* \"#utility.yul\":24200:24204   */\n      0x24\n        /* \"#utility.yul\":24197:24198   */\n      0x00\n        /* \"#utility.yul\":24190:24205   */\n      revert\n        /* \"#utility.yul\":24217:24397   */\n    tag_408:\n        /* \"#utility.yul\":24265:24342   */\n      0x4e487b7100000000000000000000000000000000000000000000000000000000\n        /* \"#utility.yul\":24262:24263   */\n      0x00\n        /* \"#utility.yul\":24255:24343   */\n      mstore\n        /* \"#utility.yul\":24362:24366   */\n      0x22\n        /* \"#utility.yul\":24359:24360   */\n      0x04\n        /* \"#utility.yul\":24352:24367   */\n      mstore\n        /* \"#utility.yul\":24386:24390   */\n      0x24\n        /* \"#utility.yul\":24383:24384   */\n      0x00\n        /* \"#utility.yul\":24376:24391   */\n      revert\n        /* \"#utility.yul\":24403:24583   */\n    tag_54:\n        /* \"#utility.yul\":24451:24528   */\n      0x4e487b7100000000000000000000000000000000000000000000000000000000\n        /* \"#utility.yul\":24448:24449   */\n      0x00\n        /* \"#utility.yul\":24441:24529   */\n      mstore\n        /* \"#utility.yul\":24548:24552   */\n      0x32\n        /* \"#utility.yul\":24545:24546   */\n      0x04\n        /* \"#utility.yul\":24538:24553   */\n      mstore\n        /* \"#utility.yul\":24572:24576   */\n      0x24\n        /* \"#utility.yul\":24569:24570   */\n      0x00\n        /* \"#utility.yul\":24562:24577   */\n      revert\n        /* \"#utility.yul\":24589:24769   */\n    tag_373:\n        /* \"#utility.yul\":24637:24714   */\n      0x4e487b7100000000000000000000000000000000000000000000000000000000\n        /* \"#utility.yul\":24634:24635   */\n      0x00\n        /* \"#utility.yul\":24627:24715   */\n      mstore\n        /* \"#utility.yul\":24734:24738   */\n      0x41\n        /* \"#utility.yul\":24731:24732   */\n      0x04\n        /* \"#utility.yul\":24724:24739   */\n      mstore\n        /* \"#utility.yul\":24758:24762   */\n      0x24\n        /* \"#utility.yul\":24755:24756   */\n      0x00\n        /* \"#utility.yul\":24748:24763   */\n      revert\n        /* \"#utility.yul\":24775:24892   */\n    tag_159:\n        /* \"#utility.yul\":24884:24885   */\n      0x00\n        /* \"#utility.yul\":24881:24882   */\n      dup1\n        /* \"#utility.yul\":24874:24886   */\n      revert\n        /* \"#utility.yul\":24898:25015   */\n    tag_153:\n        /* \"#utility.yul\":25007:25008   */\n      0x00\n        /* \"#utility.yul\":25004:25005   */\n      dup1\n        /* \"#utility.yul\":24997:25009   */\n      revert\n        /* \"#utility.yul\":25021:25138   */\n    tag_169:\n        /* \"#utility.yul\":25130:25131   */\n      0x00\n        /* \"#utility.yul\":25127:25128   */\n      dup1\n        /* \"#utility.yul\":25120:25132   */\n      revert\n        /* \"#utility.yul\":25144:25261   */\n    tag_191:\n        /* \"#utility.yul\":25253:25254   */\n      0x00\n        /* \"#utility.yul\":25250:25251   */\n      dup1\n        /* \"#utility.yul\":25243:25255   */\n      revert\n        /* \"#utility.yul\":25267:25384   */\n    tag_188:\n        /* \"#utility.yul\":25376:25377   */\n      0x00\n        /* \"#utility.yul\":25373:25374   */\n      dup1\n        /* \"#utility.yul\":25366:25378   */\n      revert\n        /* \"#utility.yul\":25390:25492   */\n    tag_257:\n        /* \"#utility.yul\":25431:25437   */\n      0x00\n        /* \"#utility.yul\":25482:25484   */\n      0x1f\n        /* \"#utility.yul\":25478:25485   */\n      not\n        /* \"#utility.yul\":25473:25475   */\n      0x1f\n        /* \"#utility.yul\":25466:25471   */\n      dup4\n        /* \"#utility.yul\":25462:25476   */\n      add\n        /* \"#utility.yul\":25458:25486   */\n      and\n        /* \"#utility.yul\":25448:25486   */\n      swap1\n      pop\n        /* \"#utility.yul\":25390:25492   */\n      swap2\n      swap1\n      pop\n      jump\t// out\n        /* \"#utility.yul\":25498:25662   */\n    tag_298:\n        /* \"#utility.yul\":25638:25654   */\n      0x4e6f20737563682052656e74616c000000000000000000000000000000000000\n        /* \"#utility.yul\":25634:25635   */\n      0x00\n        /* \"#utility.yul\":25626:25632   */\n      dup3\n        /* \"#utility.yul\":25622:25636   */\n      add\n        /* \"#utility.yul\":25615:25655   */\n      mstore\n        /* \"#utility.yul\":25498:25662   */\n      pop\n      jump\t// out\n        /* \"#utility.yul\":25668:25919   */\n    tag_303:\n        /* \"#utility.yul\":25808:25842   */\n      0x506c65617365207375626d6974207468652061736b696e672070726963652069\n        /* \"#utility.yul\":25804:25805   */\n      0x00\n        /* \"#utility.yul\":25796:25802   */\n      dup3\n        /* \"#utility.yul\":25792:25806   */\n      add\n        /* \"#utility.yul\":25785:25843   */\n      mstore\n        /* \"#utility.yul\":25877:25911   */\n      0x6e206f7264657220746f20636f6d706c65746520746865207075726368617365\n        /* \"#utility.yul\":25872:25874   */\n      0x20\n        /* \"#utility.yul\":25864:25870   */\n      dup3\n        /* \"#utility.yul\":25860:25875   */\n      add\n        /* \"#utility.yul\":25853:25912   */\n      mstore\n        /* \"#utility.yul\":25668:25919   */\n      pop\n      jump\t// out\n        /* \"#utility.yul\":25925:26167   */\n    tag_308:\n        /* \"#utility.yul\":26065:26099   */\n      0x4f6e6c7920746865206f776e6572206f662074686520736d61727420636f6e74\n        /* \"#utility.yul\":26061:26062   */\n      0x00\n        /* \"#utility.yul\":26053:26059   */\n      dup3\n        /* \"#utility.yul\":26049:26063   */\n      add\n        /* \"#utility.yul\":26042:26100   */\n      mstore\n        /* \"#utility.yul\":26134:26159   */\n      0x726163742063616e207075742075702072656e74616c73000000000000000000\n        /* \"#utility.yul\":26129:26131   */\n      0x20\n        /* \"#utility.yul\":26121:26127   */\n      dup3\n        /* \"#utility.yul\":26117:26132   */\n      add\n        /* \"#utility.yul\":26110:26160   */\n      mstore\n        /* \"#utility.yul\":25925:26167   */\n      pop\n      jump\t// out\n        /* \"#utility.yul\":26173:26393   */\n    tag_313:\n        /* \"#utility.yul\":26313:26347   */\n      0x416c726561647920626f6f6b656420666f722072657175657374656420646174\n        /* \"#utility.yul\":26309:26310   */\n      0x00\n        /* \"#utility.yul\":26301:26307   */\n      dup3\n        /* \"#utility.yul\":26297:26311   */\n      add\n        /* \"#utility.yul\":26290:26348   */\n      mstore\n        /* \"#utility.yul\":26382:26385   */\n      0x6500000000000000000000000000000000000000000000000000000000000000\n        /* \"#utility.yul\":26377:26379   */\n      0x20\n        /* \"#utility.yul\":26369:26375   */\n      dup3\n        /* \"#utility.yul\":26365:26380   */\n      add\n        /* \"#utility.yul\":26358:26386   */\n      mstore\n        /* \"#utility.yul\":26173:26393   */\n      pop\n      jump\t// out\n        /* \"#utility.yul\":26399:26563   */\n    tag_318:\n        /* \"#utility.yul\":26539:26555   */\n      0x4e6f20737563682072656e74616c000000000000000000000000000000000000\n        /* \"#utility.yul\":26535:26536   */\n      0x00\n        /* \"#utility.yul\":26527:26533   */\n      dup3\n        /* \"#utility.yul\":26523:26537   */\n      add\n        /* \"#utility.yul\":26516:26556   */\n      mstore\n        /* \"#utility.yul\":26399:26563   */\n      pop\n      jump\t// out\n        /* \"#utility.yul\":26569:26691   */\n    tag_184:\n        /* \"#utility.yul\":26642:26666   */\n      tag_433\n        /* \"#utility.yul\":26660:26665   */\n      dup2\n        /* \"#utility.yul\":26642:26666   */\n      tag_322\n      jump\t// in\n    tag_433:\n        /* \"#utility.yul\":26635:26640   */\n      dup2\n        /* \"#utility.yul\":26632:26667   */\n      eq\n        /* \"#utility.yul\":26622:26685   */\n      tag_434\n      jumpi\n        /* \"#utility.yul\":26681:26682   */\n      0x00\n        /* \"#utility.yul\":26678:26679   */\n      dup1\n        /* \"#utility.yul\":26671:26683   */\n      revert\n        /* \"#utility.yul\":26622:26685   */\n    tag_434:\n        /* \"#utility.yul\":26569:26691   */\n      pop\n      jump\t// out\n\n    auxdata: 0xa2646970667358221220be2b5e0ab171be7ca05259939cdf330a93e0c563c474dbbcd454dab103917bd064736f6c63430008070033\n}\n",
				"bytecode": {
					"linkReferences": {},
					"object": "608060405234801561001057600080fd5b506000600181905550336000806101000a81548173ffffffffffffffffffffffffffffffffffffffff021916908373ffffffffffffffffffffffffffffffffffffffff160217905550611905806100686000396000f3fe60806040526004361061004a5760003560e01c80632a23bb721461004f578063611fa0a81461006b5780638da5cb5b14610094578063d496498f146100bf578063ebfa74c9146100fe575b600080fd5b61006960048036038101906100649190610e10565b61013b565b005b34801561007757600080fd5b50610092600480360381019061008d9190610c24565b61039d565b005b3480156100a057600080fd5b506100a961064b565b6040516100b69190611192565b60405180910390f35b3480156100cb57600080fd5b506100e660048036038101906100e19190610de3565b61066f565b6040516100f593929190611307565b60405180910390f35b34801561010a57600080fd5b5061012560048036038101906101209190610de3565b61084a565b60405161013291906113ec565b60405180910390f35b600154821061017f576040517f08c379a00000000000000000000000000000000000000000000000000000000081526004016101769061134c565b60405180910390fd5b610189828261086e565b6101c8576040517f08c379a00000000000000000000000000000000000000000000000000000000081526004016101bf906113ac565b60405180910390fd5b8051670de0b6b3a764000060026000858152602001908152602001600020600801546101f4919061150f565b6101fe919061150f565b341461023f576040517f08c379a00000000000000000000000000000000000000000000000000000000081526004016102369061136c565b60405180910390fd5b60005b81518110156102c85760026000848152602001908152602001600020600901828281518110610274576102736116f1565b5b60200260200101519080600181540180825580915050600190039060005260206000200160009091909190915090805190602001906102b492919061097c565b5080806102c09061164a565b915050610242565b5060008054906101000a900473ffffffffffffffffffffffffffffffffffffffff1673ffffffffffffffffffffffffffffffffffffffff166108fc349081150290604051600060405180830381858888f1935050505015801561032f573d6000803e3d6000fd5b507fdfcc683ac35013d595a2db07bcb6601a1bbc6c91dad13117fd60299c875c61b481833360026000878152602001908152602001600020600101600260008881526020019081526020016000206006016040516103919594939291906111ad565b60405180910390a15050565b60008054906101000a900473ffffffffffffffffffffffffffffffffffffffff1673ffffffffffffffffffffffffffffffffffffffff163373ffffffffffffffffffffffffffffffffffffffff161461042b576040517f08c379a00000000000000000000000000000000000000000000000000000000081526004016104229061138c565b60405180910390fd5b600060026000600154815260200190815260200160002090508a81600001908051906020019061045c92919061097c565b508981600101908051906020019061047592919061097c565b508881600201908051906020019061048e92919061097c565b50878160030190805190602001906104a792919061097c565b50868160040190805190602001906104c092919061097c565b50858160050190805190602001906104d992919061097c565b50848160060190805190602001906104f292919061097c565b508381600701819055508281600801819055508181600901908051906020019061051d929190610a02565b5060015481600a018190555060008054906101000a900473ffffffffffffffffffffffffffffffffffffffff1681600b0160006101000a81548173ffffffffffffffffffffffffffffffffffffffff021916908373ffffffffffffffffffffffffffffffffffffffff160217905550600360015490806001815401808255809150506001900390600052602060002001600090919091909150557fc06f078c3c74d235829af3e011ff5aae487c78ef8d3acca688417ed86ff145918b8b8b8b8b8b8b8b8b8b60015460008054906101000a900473ffffffffffffffffffffffffffffffffffffffff1660405161061e9c9b9a99989796959493929190611215565b60405180910390a1600160008154809291906106399061164a565b91905055505050505050505050505050565b60008054906101000a900473ffffffffffffffffffffffffffffffffffffffff1681565b60606000606060015484106106b9576040517f08c379a00000000000000000000000000000000000000000000000000000000081526004016106b0906113cc565b60405180910390fd5b6000600260008681526020019081526020016000209050806000018160080154826009018280546106e9906115e7565b80601f0160208091040260200160405190810160405280929190818152602001828054610715906115e7565b80156107625780601f1061073757610100808354040283529160200191610762565b820191906000526020600020905b81548152906001019060200180831161074557829003601f168201915b5050505050925080805480602002602001604051908101604052809291908181526020016000905b828210156108365783829060005260206000200180546107a9906115e7565b80601f01602080910402602001604051908101604052809291908181526020018280546107d5906115e7565b80156108225780601f106107f757610100808354040283529160200191610822565b820191906000526020600020905b81548152906001019060200180831161080557829003601f168201915b50505050508152602001906001019061078a565b505050509050935093509350509193909250565b6003818154811061085a57600080fd5b906000526020600020016000915090505481565b6000805b82518110156109705760005b600260008681526020019081526020016000206009018054905081101561095c578382815181106108b2576108b16116f1565b5b60200260200101516040516020016108ca9190611164565b60405160208183030381529060405280519060200120600260008781526020019081526020016000206009018281548110610908576109076116f1565b5b90600052602060002001604051602001610922919061117b565b60405160208183030381529060405280519060200120141561094957600092505050610976565b80806109549061164a565b91505061087e565b5080806109689061164a565b915050610872565b50600190505b92915050565b828054610988906115e7565b90600052602060002090601f0160209004810192826109aa57600085556109f1565b82601f106109c357805160ff19168380011785556109f1565b828001600101855582156109f1579182015b828111156109f05782518255916020019190600101906109d5565b5b5090506109fe9190610a62565b5090565b828054828255906000526020600020908101928215610a51579160200282015b82811115610a50578251829080519060200190610a4092919061097c565b5091602001919060010190610a22565b5b509050610a5e9190610a7f565b5090565b5b80821115610a7b576000816000905550600101610a63565b5090565b5b80821115610a9f5760008181610a969190610aa3565b50600101610a80565b5090565b508054610aaf906115e7565b6000825580601f10610ac15750610ae0565b601f016020900490600052602060002090810190610adf9190610a62565b5b50565b6000610af6610af18461142c565b611407565b90508083825260208201905082856020860282011115610b1957610b18611754565b5b60005b85811015610b6757813567ffffffffffffffff811115610b3f57610b3e61174f565b5b808601610b4c8982610be1565b85526020850194506020840193505050600181019050610b1c565b5050509392505050565b6000610b84610b7f84611458565b611407565b905082815260208101848484011115610ba057610b9f611759565b5b610bab8482856115a5565b509392505050565b600082601f830112610bc857610bc761174f565b5b8135610bd8848260208601610ae3565b91505092915050565b600082601f830112610bf657610bf561174f565b5b8135610c06848260208601610b71565b91505092915050565b600081359050610c1e816118b8565b92915050565b6000806000806000806000806000806101408b8d031215610c4857610c47611763565b5b60008b013567ffffffffffffffff811115610c6657610c6561175e565b5b610c728d828e01610be1565b9a505060208b013567ffffffffffffffff811115610c9357610c9261175e565b5b610c9f8d828e01610be1565b99505060408b013567ffffffffffffffff811115610cc057610cbf61175e565b5b610ccc8d828e01610be1565b98505060608b013567ffffffffffffffff811115610ced57610cec61175e565b5b610cf98d828e01610be1565b97505060808b013567ffffffffffffffff811115610d1a57610d1961175e565b5b610d268d828e01610be1565b96505060a08b013567ffffffffffffffff811115610d4757610d4661175e565b5b610d538d828e01610be1565b95505060c08b013567ffffffffffffffff811115610d7457610d7361175e565b5b610d808d828e01610be1565b94505060e0610d918d828e01610c0f565b935050610100610da38d828e01610c0f565b9250506101208b013567ffffffffffffffff811115610dc557610dc461175e565b5b610dd18d828e01610bb3565b9150509295989b9194979a5092959850565b600060208284031215610df957610df8611763565b5b6000610e0784828501610c0f565b91505092915050565b60008060408385031215610e2757610e26611763565b5b6000610e3585828601610c0f565b925050602083013567ffffffffffffffff811115610e5657610e5561175e565b5b610e6285828601610bb3565b9150509250929050565b6000610e788383610f04565b905092915050565b610e8981611569565b82525050565b6000610e9a826114ae565b610ea481856114d1565b935083602082028501610eb685611489565b8060005b85811015610ef25784840389528151610ed38582610e6c565b9450610ede836114c4565b925060208a01995050600181019050610eba565b50829750879550505050505092915050565b6000610f0f826114b9565b610f1981856114e2565b9350610f298185602086016115b4565b610f3281611768565b840191505092915050565b6000610f48826114b9565b610f5281856114f3565b9350610f628185602086016115b4565b610f6b81611768565b840191505092915050565b6000610f81826114b9565b610f8b8185611504565b9350610f9b8185602086016115b4565b80840191505092915050565b60008154610fb4816115e7565b610fbe81866114f3565b94506001821660008114610fd95760018114610feb5761101e565b60ff198316865260208601935061101e565b610ff485611499565b60005b8381101561101657815481890152600182019150602081019050610ff7565b808801955050505b50505092915050565b60008154611034816115e7565b61103e8186611504565b94506001821660008114611059576001811461106a5761109d565b60ff1983168652818601935061109d565b61107385611499565b60005b8381101561109557815481890152600182019150602081019050611076565b838801955050505b50505092915050565b60006110b3600e836114f3565b91506110be82611779565b602082019050919050565b60006110d66040836114f3565b91506110e1826117a2565b604082019050919050565b60006110f96037836114f3565b9150611104826117f1565b604082019050919050565b600061111c6021836114f3565b915061112782611840565b604082019050919050565b600061113f600e836114f3565b915061114a8261188f565b602082019050919050565b61115e8161159b565b82525050565b60006111708284610f76565b915081905092915050565b60006111878284611027565b915081905092915050565b60006020820190506111a76000830184610e80565b92915050565b600060a08201905081810360008301526111c78188610e8f565b90506111d66020830187611155565b6111e36040830186610e80565b81810360608301526111f58185610fa7565b905081810360808301526112098184610fa7565b90509695505050505050565b6000610180820190508181036000830152611230818f610f3d565b90508181036020830152611244818e610f3d565b90508181036040830152611258818d610f3d565b9050818103606083015261126c818c610f3d565b90508181036080830152611280818b610f3d565b905081810360a0830152611294818a610f3d565b905081810360c08301526112a88189610f3d565b90506112b760e0830188611155565b6112c5610100830187611155565b8181036101208301526112d88186610e8f565b90506112e8610140830185611155565b6112f6610160830184610e80565b9d9c50505050505050505050505050565b600060608201905081810360008301526113218186610f3d565b90506113306020830185611155565b81810360408301526113428184610e8f565b9050949350505050565b60006020820190508181036000830152611365816110a6565b9050919050565b60006020820190508181036000830152611385816110c9565b9050919050565b600060208201905081810360008301526113a5816110ec565b9050919050565b600060208201905081810360008301526113c58161110f565b9050919050565b600060208201905081810360008301526113e581611132565b9050919050565b60006020820190506114016000830184611155565b92915050565b6000611411611422565b905061141d8282611619565b919050565b6000604051905090565b600067ffffffffffffffff82111561144757611446611720565b5b602082029050602081019050919050565b600067ffffffffffffffff82111561147357611472611720565b5b61147c82611768565b9050602081019050919050565b6000819050602082019050919050565b60008190508160005260206000209050919050565b600081519050919050565b600081519050919050565b6000602082019050919050565b600082825260208201905092915050565b600082825260208201905092915050565b600082825260208201905092915050565b600081905092915050565b600061151a8261159b565b91506115258361159b565b9250817fffffffffffffffffffffffffffffffffffffffffffffffffffffffffffffffff048311821515161561155e5761155d611693565b5b828202905092915050565b60006115748261157b565b9050919050565b600073ffffffffffffffffffffffffffffffffffffffff82169050919050565b6000819050919050565b82818337600083830152505050565b60005b838110156115d25780820151818401526020810190506115b7565b838111156115e1576000848401525b50505050565b600060028204905060018216806115ff57607f821691505b60208210811415611613576116126116c2565b5b50919050565b61162282611768565b810181811067ffffffffffffffff8211171561164157611640611720565b5b80604052505050565b60006116558261159b565b91507fffffffffffffffffffffffffffffffffffffffffffffffffffffffffffffffff82141561168857611687611693565b5b600182019050919050565b7f4e487b7100000000000000000000000000000000000000000000000000000000600052601160045260246000fd5b7f4e487b7100000000000000000000000000000000000000000000000000000000600052602260045260246000fd5b7f4e487b7100000000000000000000000000000000000000000000000000000000600052603260045260246000fd5b7f4e487b7100000000000000000000000000000000000000000000000000000000600052604160045260246000fd5b600080fd5b600080fd5b600080fd5b600080fd5b600080fd5b6000601f19601f8301169050919050565b7f4e6f20737563682052656e74616c000000000000000000000000000000000000600082015250565b7f506c65617365207375626d6974207468652061736b696e67207072696365206960008201527f6e206f7264657220746f20636f6d706c65746520746865207075726368617365602082015250565b7f4f6e6c7920746865206f776e6572206f662074686520736d61727420636f6e7460008201527f726163742063616e207075742075702072656e74616c73000000000000000000602082015250565b7f416c726561647920626f6f6b656420666f72207265717565737465642064617460008201527f6500000000000000000000000000000000000000000000000000000000000000602082015250565b7f4e6f20737563682072656e74616c000000000000000000000000000000000000600082015250565b6118c18161159b565b81146118cc57600080fd5b5056fea2646970667358221220be2b5e0ab171be7ca05259939cdf330a93e0c563c474dbbcd454dab103917bd064736f6c63430008070033",
					"opcodes": "PUSH1 0x80 PUSH1 0x40 MSTORE CALLVALUE DUP1 ISZERO PUSH2 0x10 JUMPI PUSH1 0x0 DUP1 REVERT JUMPDEST POP PUSH1 0x0 PUSH1 0x1 DUP2 SWAP1 SSTORE POP CALLER PUSH1 0x0 DUP1 PUSH2 0x100 EXP DUP2 SLOAD DUP2 PUSH20 0xFFFFFFFFFFFFFFFFFFFFFFFFFFFFFFFFFFFFFFFF MUL NOT AND SWAP1 DUP4 PUSH20 0xFFFFFFFFFFFFFFFFFFFFFFFFFFFFFFFFFFFFFFFF AND MUL OR SWAP1 SSTORE POP PUSH2 0x1905 DUP1 PUSH2 0x68 PUSH1 0x0 CODECOPY PUSH1 0x0 RETURN INVALID PUSH1 0x80 PUSH1 0x40 MSTORE PUSH1 0x4 CALLDATASIZE LT PUSH2 0x4A JUMPI PUSH1 0x0 CALLDATALOAD PUSH1 0xE0 SHR DUP1 PUSH4 0x2A23BB72 EQ PUSH2 0x4F JUMPI DUP1 PUSH4 0x611FA0A8 EQ PUSH2 0x6B JUMPI DUP1 PUSH4 0x8DA5CB5B EQ PUSH2 0x94 JUMPI DUP1 PUSH4 0xD496498F EQ PUSH2 0xBF JUMPI DUP1 PUSH4 0xEBFA74C9 EQ PUSH2 0xFE JUMPI JUMPDEST PUSH1 0x0 DUP1 REVERT JUMPDEST PUSH2 0x69 PUSH1 0x4 DUP1 CALLDATASIZE SUB DUP2 ADD SWAP1 PUSH2 0x64 SWAP2 SWAP1 PUSH2 0xE10 JUMP JUMPDEST PUSH2 0x13B JUMP JUMPDEST STOP JUMPDEST CALLVALUE DUP1 ISZERO PUSH2 0x77 JUMPI PUSH1 0x0 DUP1 REVERT JUMPDEST POP PUSH2 0x92 PUSH1 0x4 DUP1 CALLDATASIZE SUB DUP2 ADD SWAP1 PUSH2 0x8D SWAP2 SWAP1 PUSH2 0xC24 JUMP JUMPDEST PUSH2 0x39D JUMP JUMPDEST STOP JUMPDEST CALLVALUE DUP1 ISZERO PUSH2 0xA0 JUMPI PUSH1 0x0 DUP1 REVERT JUMPDEST POP PUSH2 0xA9 PUSH2 0x64B JUMP JUMPDEST PUSH1 0x40 MLOAD PUSH2 0xB6 SWAP2 SWAP1 PUSH2 0x1192 JUMP JUMPDEST PUSH1 0x40 MLOAD DUP1 SWAP2 SUB SWAP1 RETURN JUMPDEST CALLVALUE DUP1 ISZERO PUSH2 0xCB JUMPI PUSH1 0x0 DUP1 REVERT JUMPDEST POP PUSH2 0xE6 PUSH1 0x4 DUP1 CALLDATASIZE SUB DUP2 ADD SWAP1 PUSH2 0xE1 SWAP2 SWAP1 PUSH2 0xDE3 JUMP JUMPDEST PUSH2 0x66F JUMP JUMPDEST PUSH1 0x40 MLOAD PUSH2 0xF5 SWAP4 SWAP3 SWAP2 SWAP1 PUSH2 0x1307 JUMP JUMPDEST PUSH1 0x40 MLOAD DUP1 SWAP2 SUB SWAP1 RETURN JUMPDEST CALLVALUE DUP1 ISZERO PUSH2 0x10A JUMPI PUSH1 0x0 DUP1 REVERT JUMPDEST POP PUSH2 0x125 PUSH1 0x4 DUP1 CALLDATASIZE SUB DUP2 ADD SWAP1 PUSH2 0x120 SWAP2 SWAP1 PUSH2 0xDE3 JUMP JUMPDEST PUSH2 0x84A JUMP JUMPDEST PUSH1 0x40 MLOAD PUSH2 0x132 SWAP2 SWAP1 PUSH2 0x13EC JUMP JUMPDEST PUSH1 0x40 MLOAD DUP1 SWAP2 SUB SWAP1 RETURN JUMPDEST PUSH1 0x1 SLOAD DUP3 LT PUSH2 0x17F JUMPI PUSH1 0x40 MLOAD PUSH32 0x8C379A000000000000000000000000000000000000000000000000000000000 DUP2 MSTORE PUSH1 0x4 ADD PUSH2 0x176 SWAP1 PUSH2 0x134C JUMP JUMPDEST PUSH1 0x40 MLOAD DUP1 SWAP2 SUB SWAP1 REVERT JUMPDEST PUSH2 0x189 DUP3 DUP3 PUSH2 0x86E JUMP JUMPDEST PUSH2 0x1C8 JUMPI PUSH1 0x40 MLOAD PUSH32 0x8C379A000000000000000000000000000000000000000000000000000000000 DUP2 MSTORE PUSH1 0x4 ADD PUSH2 0x1BF SWAP1 PUSH2 0x13AC JUMP JUMPDEST PUSH1 0x40 MLOAD DUP1 SWAP2 SUB SWAP1 REVERT JUMPDEST DUP1 MLOAD PUSH8 0xDE0B6B3A7640000 PUSH1 0x2 PUSH1 0x0 DUP6 DUP2 MSTORE PUSH1 0x20 ADD SWAP1 DUP2 MSTORE PUSH1 0x20 ADD PUSH1 0x0 KECCAK256 PUSH1 0x8 ADD SLOAD PUSH2 0x1F4 SWAP2 SWAP1 PUSH2 0x150F JUMP JUMPDEST PUSH2 0x1FE SWAP2 SWAP1 PUSH2 0x150F JUMP JUMPDEST CALLVALUE EQ PUSH2 0x23F JUMPI PUSH1 0x40 MLOAD PUSH32 0x8C379A000000000000000000000000000000000000000000000000000000000 DUP2 MSTORE PUSH1 0x4 ADD PUSH2 0x236 SWAP1 PUSH2 0x136C JUMP JUMPDEST PUSH1 0x40 MLOAD DUP1 SWAP2 SUB SWAP1 REVERT JUMPDEST PUSH1 0x0 JUMPDEST DUP2 MLOAD DUP2 LT ISZERO PUSH2 0x2C8 JUMPI PUSH1 0x2 PUSH1 0x0 DUP5 DUP2 MSTORE PUSH1 0x20 ADD SWAP1 DUP2 MSTORE PUSH1 0x20 ADD PUSH1 0x0 KECCAK256 PUSH1 0x9 ADD DUP3 DUP3 DUP2 MLOAD DUP2 LT PUSH2 0x274 JUMPI PUSH2 0x273 PUSH2 0x16F1 JUMP JUMPDEST JUMPDEST PUSH1 0x20 MUL PUSH1 0x20 ADD ADD MLOAD SWAP1 DUP1 PUSH1 0x1 DUP2 SLOAD ADD DUP1 DUP3 SSTORE DUP1 SWAP2 POP POP PUSH1 0x1 SWAP1 SUB SWAP1 PUSH1 0x0 MSTORE PUSH1 0x20 PUSH1 0x0 KECCAK256 ADD PUSH1 0x0 SWAP1 SWAP2 SWAP1 SWAP2 SWAP1 SWAP2 POP SWAP1 DUP1 MLOAD SWAP1 PUSH1 0x20 ADD SWAP1 PUSH2 0x2B4 SWAP3 SWAP2 SWAP1 PUSH2 0x97C JUMP JUMPDEST POP DUP1 DUP1 PUSH2 0x2C0 SWAP1 PUSH2 0x164A JUMP JUMPDEST SWAP2 POP POP PUSH2 0x242 JUMP JUMPDEST POP PUSH1 0x0 DUP1 SLOAD SWAP1 PUSH2 0x100 EXP SWAP1 DIV PUSH20 0xFFFFFFFFFFFFFFFFFFFFFFFFFFFFFFFFFFFFFFFF AND PUSH20 0xFFFFFFFFFFFFFFFFFFFFFFFFFFFFFFFFFFFFFFFF AND PUSH2 0x8FC CALLVALUE SWAP1 DUP2 ISZERO MUL SWAP1 PUSH1 0x40 MLOAD PUSH1 0x0 PUSH1 0x40 MLOAD DUP1 DUP4 SUB DUP2 DUP6 DUP9 DUP9 CALL SWAP4 POP POP POP POP ISZERO DUP1 ISZERO PUSH2 0x32F JUMPI RETURNDATASIZE PUSH1 0x0 DUP1 RETURNDATACOPY RETURNDATASIZE PUSH1 0x0 REVERT JUMPDEST POP PUSH32 0xDFCC683AC35013D595A2DB07BCB6601A1BBC6C91DAD13117FD60299C875C61B4 DUP2 DUP4 CALLER PUSH1 0x2 PUSH1 0x0 DUP8 DUP2 MSTORE PUSH1 0x20 ADD SWAP1 DUP2 MSTORE PUSH1 0x20 ADD PUSH1 0x0 KECCAK256 PUSH1 0x1 ADD PUSH1 0x2 PUSH1 0x0 DUP9 DUP2 MSTORE PUSH1 0x20 ADD SWAP1 DUP2 MSTORE PUSH1 0x20 ADD PUSH1 0x0 KECCAK256 PUSH1 0x6 ADD PUSH1 0x40 MLOAD PUSH2 0x391 SWAP6 SWAP5 SWAP4 SWAP3 SWAP2 SWAP1 PUSH2 0x11AD JUMP JUMPDEST PUSH1 0x40 MLOAD DUP1 SWAP2 SUB SWAP1 LOG1 POP POP JUMP JUMPDEST PUSH1 0x0 DUP1 SLOAD SWAP1 PUSH2 0x100 EXP SWAP1 DIV PUSH20 0xFFFFFFFFFFFFFFFFFFFFFFFFFFFFFFFFFFFFFFFF AND PUSH20 0xFFFFFFFFFFFFFFFFFFFFFFFFFFFFFFFFFFFFFFFF AND CALLER PUSH20 0xFFFFFFFFFFFFFFFFFFFFFFFFFFFFFFFFFFFFFFFF AND EQ PUSH2 0x42B JUMPI PUSH1 0x40 MLOAD PUSH32 0x8C379A000000000000000000000000000000000000000000000000000000000 DUP2 MSTORE PUSH1 0x4 ADD PUSH2 0x422 SWAP1 PUSH2 0x138C JUMP JUMPDEST PUSH1 0x40 MLOAD DUP1 SWAP2 SUB SWAP1 REVERT JUMPDEST PUSH1 0x0 PUSH1 0x2 PUSH1 0x0 PUSH1 0x1 SLOAD DUP2 MSTORE PUSH1 0x20 ADD SWAP1 DUP2 MSTORE PUSH1 0x20 ADD PUSH1 0x0 KECCAK256 SWAP1 POP DUP11 DUP2 PUSH1 0x0 ADD SWAP1 DUP1 MLOAD SWAP1 PUSH1 0x20 ADD SWAP1 PUSH2 0x45C SWAP3 SWAP2 SWAP1 PUSH2 0x97C JUMP JUMPDEST POP DUP10 DUP2 PUSH1 0x1 ADD SWAP1 DUP1 MLOAD SWAP1 PUSH1 0x20 ADD SWAP1 PUSH2 0x475 SWAP3 SWAP2 SWAP1 PUSH2 0x97C JUMP JUMPDEST POP DUP9 DUP2 PUSH1 0x2 ADD SWAP1 DUP1 MLOAD SWAP1 PUSH1 0x20 ADD SWAP1 PUSH2 0x48E SWAP3 SWAP2 SWAP1 PUSH2 0x97C JUMP JUMPDEST POP DUP8 DUP2 PUSH1 0x3 ADD SWAP1 DUP1 MLOAD SWAP1 PUSH1 0x20 ADD SWAP1 PUSH2 0x4A7 SWAP3 SWAP2 SWAP1 PUSH2 0x97C JUMP JUMPDEST POP DUP7 DUP2 PUSH1 0x4 ADD SWAP1 DUP1 MLOAD SWAP1 PUSH1 0x20 ADD SWAP1 PUSH2 0x4C0 SWAP3 SWAP2 SWAP1 PUSH2 0x97C JUMP JUMPDEST POP DUP6 DUP2 PUSH1 0x5 ADD SWAP1 DUP1 MLOAD SWAP1 PUSH1 0x20 ADD SWAP1 PUSH2 0x4D9 SWAP3 SWAP2 SWAP1 PUSH2 0x97C JUMP JUMPDEST POP DUP5 DUP2 PUSH1 0x6 ADD SWAP1 DUP1 MLOAD SWAP1 PUSH1 0x20 ADD SWAP1 PUSH2 0x4F2 SWAP3 SWAP2 SWAP1 PUSH2 0x97C JUMP JUMPDEST POP DUP4 DUP2 PUSH1 0x7 ADD DUP2 SWAP1 SSTORE POP DUP3 DUP2 PUSH1 0x8 ADD DUP2 SWAP1 SSTORE POP DUP2 DUP2 PUSH1 0x9 ADD SWAP1 DUP1 MLOAD SWAP1 PUSH1 0x20 ADD SWAP1 PUSH2 0x51D SWAP3 SWAP2 SWAP1 PUSH2 0xA02 JUMP JUMPDEST POP PUSH1 0x1 SLOAD DUP2 PUSH1 0xA ADD DUP2 SWAP1 SSTORE POP PUSH1 0x0 DUP1 SLOAD SWAP1 PUSH2 0x100 EXP SWAP1 DIV PUSH20 0xFFFFFFFFFFFFFFFFFFFFFFFFFFFFFFFFFFFFFFFF AND DUP2 PUSH1 0xB ADD PUSH1 0x0 PUSH2 0x100 EXP DUP2 SLOAD DUP2 PUSH20 0xFFFFFFFFFFFFFFFFFFFFFFFFFFFFFFFFFFFFFFFF MUL NOT AND SWAP1 DUP4 PUSH20 0xFFFFFFFFFFFFFFFFFFFFFFFFFFFFFFFFFFFFFFFF AND MUL OR SWAP1 SSTORE POP PUSH1 0x3 PUSH1 0x1 SLOAD SWAP1 DUP1 PUSH1 0x1 DUP2 SLOAD ADD DUP1 DUP3 SSTORE DUP1 SWAP2 POP POP PUSH1 0x1 SWAP1 SUB SWAP1 PUSH1 0x0 MSTORE PUSH1 0x20 PUSH1 0x0 KECCAK256 ADD PUSH1 0x0 SWAP1 SWAP2 SWAP1 SWAP2 SWAP1 SWAP2 POP SSTORE PUSH32 0xC06F078C3C74D235829AF3E011FF5AAE487C78EF8D3ACCA688417ED86FF14591 DUP12 DUP12 DUP12 DUP12 DUP12 DUP12 DUP12 DUP12 DUP12 DUP12 PUSH1 0x1 SLOAD PUSH1 0x0 DUP1 SLOAD SWAP1 PUSH2 0x100 EXP SWAP1 DIV PUSH20 0xFFFFFFFFFFFFFFFFFFFFFFFFFFFFFFFFFFFFFFFF AND PUSH1 0x40 MLOAD PUSH2 0x61E SWAP13 SWAP12 SWAP11 SWAP10 SWAP9 SWAP8 SWAP7 SWAP6 SWAP5 SWAP4 SWAP3 SWAP2 SWAP1 PUSH2 0x1215 JUMP JUMPDEST PUSH1 0x40 MLOAD DUP1 SWAP2 SUB SWAP1 LOG1 PUSH1 0x1 PUSH1 0x0 DUP2 SLOAD DUP1 SWAP3 SWAP2 SWAP1 PUSH2 0x639 SWAP1 PUSH2 0x164A JUMP JUMPDEST SWAP2 SWAP1 POP SSTORE POP POP POP POP POP POP POP POP POP POP POP POP JUMP JUMPDEST PUSH1 0x0 DUP1 SLOAD SWAP1 PUSH2 0x100 EXP SWAP1 DIV PUSH20 0xFFFFFFFFFFFFFFFFFFFFFFFFFFFFFFFFFFFFFFFF AND DUP2 JUMP JUMPDEST PUSH1 0x60 PUSH1 0x0 PUSH1 0x60 PUSH1 0x1 SLOAD DUP5 LT PUSH2 0x6B9 JUMPI PUSH1 0x40 MLOAD PUSH32 0x8C379A000000000000000000000000000000000000000000000000000000000 DUP2 MSTORE PUSH1 0x4 ADD PUSH2 0x6B0 SWAP1 PUSH2 0x13CC JUMP JUMPDEST PUSH1 0x40 MLOAD DUP1 SWAP2 SUB SWAP1 REVERT JUMPDEST PUSH1 0x0 PUSH1 0x2 PUSH1 0x0 DUP7 DUP2 MSTORE PUSH1 0x20 ADD SWAP1 DUP2 MSTORE PUSH1 0x20 ADD PUSH1 0x0 KECCAK256 SWAP1 POP DUP1 PUSH1 0x0 ADD DUP2 PUSH1 0x8 ADD SLOAD DUP3 PUSH1 0x9 ADD DUP3 DUP1 SLOAD PUSH2 0x6E9 SWAP1 PUSH2 0x15E7 JUMP JUMPDEST DUP1 PUSH1 0x1F ADD PUSH1 0x20 DUP1 SWAP2 DIV MUL PUSH1 0x20 ADD PUSH1 0x40 MLOAD SWAP1 DUP2 ADD PUSH1 0x40 MSTORE DUP1 SWAP3 SWAP2 SWAP1 DUP2 DUP2 MSTORE PUSH1 0x20 ADD DUP3 DUP1 SLOAD PUSH2 0x715 SWAP1 PUSH2 0x15E7 JUMP JUMPDEST DUP1 ISZERO PUSH2 0x762 JUMPI DUP1 PUSH1 0x1F LT PUSH2 0x737 JUMPI PUSH2 0x100 DUP1 DUP4 SLOAD DIV MUL DUP4 MSTORE SWAP2 PUSH1 0x20 ADD SWAP2 PUSH2 0x762 JUMP JUMPDEST DUP3 ADD SWAP2 SWAP1 PUSH1 0x0 MSTORE PUSH1 0x20 PUSH1 0x0 KECCAK256 SWAP1 JUMPDEST DUP2 SLOAD DUP2 MSTORE SWAP1 PUSH1 0x1 ADD SWAP1 PUSH1 0x20 ADD DUP1 DUP4 GT PUSH2 0x745 JUMPI DUP3 SWAP1 SUB PUSH1 0x1F AND DUP3 ADD SWAP2 JUMPDEST POP POP POP POP POP SWAP3 POP DUP1 DUP1 SLOAD DUP1 PUSH1 0x20 MUL PUSH1 0x20 ADD PUSH1 0x40 MLOAD SWAP1 DUP2 ADD PUSH1 0x40 MSTORE DUP1 SWAP3 SWAP2 SWAP1 DUP2 DUP2 MSTORE PUSH1 0x20 ADD PUSH1 0x0 SWAP1 JUMPDEST DUP3 DUP3 LT ISZERO PUSH2 0x836 JUMPI DUP4 DUP3 SWAP1 PUSH1 0x0 MSTORE PUSH1 0x20 PUSH1 0x0 KECCAK256 ADD DUP1 SLOAD PUSH2 0x7A9 SWAP1 PUSH2 0x15E7 JUMP JUMPDEST DUP1 PUSH1 0x1F ADD PUSH1 0x20 DUP1 SWAP2 DIV MUL PUSH1 0x20 ADD PUSH1 0x40 MLOAD SWAP1 DUP2 ADD PUSH1 0x40 MSTORE DUP1 SWAP3 SWAP2 SWAP1 DUP2 DUP2 MSTORE PUSH1 0x20 ADD DUP3 DUP1 SLOAD PUSH2 0x7D5 SWAP1 PUSH2 0x15E7 JUMP JUMPDEST DUP1 ISZERO PUSH2 0x822 JUMPI DUP1 PUSH1 0x1F LT PUSH2 0x7F7 JUMPI PUSH2 0x100 DUP1 DUP4 SLOAD DIV MUL DUP4 MSTORE SWAP2 PUSH1 0x20 ADD SWAP2 PUSH2 0x822 JUMP JUMPDEST DUP3 ADD SWAP2 SWAP1 PUSH1 0x0 MSTORE PUSH1 0x20 PUSH1 0x0 KECCAK256 SWAP1 JUMPDEST DUP2 SLOAD DUP2 MSTORE SWAP1 PUSH1 0x1 ADD SWAP1 PUSH1 0x20 ADD DUP1 DUP4 GT PUSH2 0x805 JUMPI DUP3 SWAP1 SUB PUSH1 0x1F AND DUP3 ADD SWAP2 JUMPDEST POP POP POP POP POP DUP2 MSTORE PUSH1 0x20 ADD SWAP1 PUSH1 0x1 ADD SWAP1 PUSH2 0x78A JUMP JUMPDEST POP POP POP POP SWAP1 POP SWAP4 POP SWAP4 POP SWAP4 POP POP SWAP2 SWAP4 SWAP1 SWAP3 POP JUMP JUMPDEST PUSH1 0x3 DUP2 DUP2 SLOAD DUP2 LT PUSH2 0x85A JUMPI PUSH1 0x0 DUP1 REVERT JUMPDEST SWAP1 PUSH1 0x0 MSTORE PUSH1 0x20 PUSH1 0x0 KECCAK256 ADD PUSH1 0x0 SWAP2 POP SWAP1 POP SLOAD DUP2 JUMP JUMPDEST PUSH1 0x0 DUP1 JUMPDEST DUP3 MLOAD DUP2 LT ISZERO PUSH2 0x970 JUMPI PUSH1 0x0 JUMPDEST PUSH1 0x2 PUSH1 0x0 DUP7 DUP2 MSTORE PUSH1 0x20 ADD SWAP1 DUP2 MSTORE PUSH1 0x20 ADD PUSH1 0x0 KECCAK256 PUSH1 0x9 ADD DUP1 SLOAD SWAP1 POP DUP2 LT ISZERO PUSH2 0x95C JUMPI DUP4 DUP3 DUP2 MLOAD DUP2 LT PUSH2 0x8B2 JUMPI PUSH2 0x8B1 PUSH2 0x16F1 JUMP JUMPDEST JUMPDEST PUSH1 0x20 MUL PUSH1 0x20 ADD ADD MLOAD PUSH1 0x40 MLOAD PUSH1 0x20 ADD PUSH2 0x8CA SWAP2 SWAP1 PUSH2 0x1164 JUMP JUMPDEST PUSH1 0x40 MLOAD PUSH1 0x20 DUP2 DUP4 SUB SUB DUP2 MSTORE SWAP1 PUSH1 0x40 MSTORE DUP1 MLOAD SWAP1 PUSH1 0x20 ADD KECCAK256 PUSH1 0x2 PUSH1 0x0 DUP8 DUP2 MSTORE PUSH1 0x20 ADD SWAP1 DUP2 MSTORE PUSH1 0x20 ADD PUSH1 0x0 KECCAK256 PUSH1 0x9 ADD DUP3 DUP2 SLOAD DUP2 LT PUSH2 0x908 JUMPI PUSH2 0x907 PUSH2 0x16F1 JUMP JUMPDEST JUMPDEST SWAP1 PUSH1 0x0 MSTORE PUSH1 0x20 PUSH1 0x0 KECCAK256 ADD PUSH1 0x40 MLOAD PUSH1 0x20 ADD PUSH2 0x922 SWAP2 SWAP1 PUSH2 0x117B JUMP JUMPDEST PUSH1 0x40 MLOAD PUSH1 0x20 DUP2 DUP4 SUB SUB DUP2 MSTORE SWAP1 PUSH1 0x40 MSTORE DUP1 MLOAD SWAP1 PUSH1 0x20 ADD KECCAK256 EQ ISZERO PUSH2 0x949 JUMPI PUSH1 0x0 SWAP3 POP POP POP PUSH2 0x976 JUMP JUMPDEST DUP1 DUP1 PUSH2 0x954 SWAP1 PUSH2 0x164A JUMP JUMPDEST SWAP2 POP POP PUSH2 0x87E JUMP JUMPDEST POP DUP1 DUP1 PUSH2 0x968 SWAP1 PUSH2 0x164A JUMP JUMPDEST SWAP2 POP POP PUSH2 0x872 JUMP JUMPDEST POP PUSH1 0x1 SWAP1 POP JUMPDEST SWAP3 SWAP2 POP POP JUMP JUMPDEST DUP3 DUP1 SLOAD PUSH2 0x988 SWAP1 PUSH2 0x15E7 JUMP JUMPDEST SWAP1 PUSH1 0x0 MSTORE PUSH1 0x20 PUSH1 0x0 KECCAK256 SWAP1 PUSH1 0x1F ADD PUSH1 0x20 SWAP1 DIV DUP2 ADD SWAP3 DUP3 PUSH2 0x9AA JUMPI PUSH1 0x0 DUP6 SSTORE PUSH2 0x9F1 JUMP JUMPDEST DUP3 PUSH1 0x1F LT PUSH2 0x9C3 JUMPI DUP1 MLOAD PUSH1 0xFF NOT AND DUP4 DUP1 ADD OR DUP6 SSTORE PUSH2 0x9F1 JUMP JUMPDEST DUP3 DUP1 ADD PUSH1 0x1 ADD DUP6 SSTORE DUP3 ISZERO PUSH2 0x9F1 JUMPI SWAP2 DUP3 ADD JUMPDEST DUP3 DUP2 GT ISZERO PUSH2 0x9F0 JUMPI DUP3 MLOAD DUP3 SSTORE SWAP2 PUSH1 0x20 ADD SWAP2 SWAP1 PUSH1 0x1 ADD SWAP1 PUSH2 0x9D5 JUMP JUMPDEST JUMPDEST POP SWAP1 POP PUSH2 0x9FE SWAP2 SWAP1 PUSH2 0xA62 JUMP JUMPDEST POP SWAP1 JUMP JUMPDEST DUP3 DUP1 SLOAD DUP3 DUP3 SSTORE SWAP1 PUSH1 0x0 MSTORE PUSH1 0x20 PUSH1 0x0 KECCAK256 SWAP1 DUP2 ADD SWAP3 DUP3 ISZERO PUSH2 0xA51 JUMPI SWAP2 PUSH1 0x20 MUL DUP3 ADD JUMPDEST DUP3 DUP2 GT ISZERO PUSH2 0xA50 JUMPI DUP3 MLOAD DUP3 SWAP1 DUP1 MLOAD SWAP1 PUSH1 0x20 ADD SWAP1 PUSH2 0xA40 SWAP3 SWAP2 SWAP1 PUSH2 0x97C JUMP JUMPDEST POP SWAP2 PUSH1 0x20 ADD SWAP2 SWAP1 PUSH1 0x1 ADD SWAP1 PUSH2 0xA22 JUMP JUMPDEST JUMPDEST POP SWAP1 POP PUSH2 0xA5E SWAP2 SWAP1 PUSH2 0xA7F JUMP JUMPDEST POP SWAP1 JUMP JUMPDEST JUMPDEST DUP1 DUP3 GT ISZERO PUSH2 0xA7B JUMPI PUSH1 0x0 DUP2 PUSH1 0x0 SWAP1 SSTORE POP PUSH1 0x1 ADD PUSH2 0xA63 JUMP JUMPDEST POP SWAP1 JUMP JUMPDEST JUMPDEST DUP1 DUP3 GT ISZERO PUSH2 0xA9F JUMPI PUSH1 0x0 DUP2 DUP2 PUSH2 0xA96 SWAP2 SWAP1 PUSH2 0xAA3 JUMP JUMPDEST POP PUSH1 0x1 ADD PUSH2 0xA80 JUMP JUMPDEST POP SWAP1 JUMP JUMPDEST POP DUP1 SLOAD PUSH2 0xAAF SWAP1 PUSH2 0x15E7 JUMP JUMPDEST PUSH1 0x0 DUP3 SSTORE DUP1 PUSH1 0x1F LT PUSH2 0xAC1 JUMPI POP PUSH2 0xAE0 JUMP JUMPDEST PUSH1 0x1F ADD PUSH1 0x20 SWAP1 DIV SWAP1 PUSH1 0x0 MSTORE PUSH1 0x20 PUSH1 0x0 KECCAK256 SWAP1 DUP2 ADD SWAP1 PUSH2 0xADF SWAP2 SWAP1 PUSH2 0xA62 JUMP JUMPDEST JUMPDEST POP JUMP JUMPDEST PUSH1 0x0 PUSH2 0xAF6 PUSH2 0xAF1 DUP5 PUSH2 0x142C JUMP JUMPDEST PUSH2 0x1407 JUMP JUMPDEST SWAP1 POP DUP1 DUP4 DUP3 MSTORE PUSH1 0x20 DUP3 ADD SWAP1 POP DUP3 DUP6 PUSH1 0x20 DUP7 MUL DUP3 ADD GT ISZERO PUSH2 0xB19 JUMPI PUSH2 0xB18 PUSH2 0x1754 JUMP JUMPDEST JUMPDEST PUSH1 0x0 JUMPDEST DUP6 DUP2 LT ISZERO PUSH2 0xB67 JUMPI DUP2 CALLDATALOAD PUSH8 0xFFFFFFFFFFFFFFFF DUP2 GT ISZERO PUSH2 0xB3F JUMPI PUSH2 0xB3E PUSH2 0x174F JUMP JUMPDEST JUMPDEST DUP1 DUP7 ADD PUSH2 0xB4C DUP10 DUP3 PUSH2 0xBE1 JUMP JUMPDEST DUP6 MSTORE PUSH1 0x20 DUP6 ADD SWAP5 POP PUSH1 0x20 DUP5 ADD SWAP4 POP POP POP PUSH1 0x1 DUP2 ADD SWAP1 POP PUSH2 0xB1C JUMP JUMPDEST POP POP POP SWAP4 SWAP3 POP POP POP JUMP JUMPDEST PUSH1 0x0 PUSH2 0xB84 PUSH2 0xB7F DUP5 PUSH2 0x1458 JUMP JUMPDEST PUSH2 0x1407 JUMP JUMPDEST SWAP1 POP DUP3 DUP2 MSTORE PUSH1 0x20 DUP2 ADD DUP5 DUP5 DUP5 ADD GT ISZERO PUSH2 0xBA0 JUMPI PUSH2 0xB9F PUSH2 0x1759 JUMP JUMPDEST JUMPDEST PUSH2 0xBAB DUP5 DUP3 DUP6 PUSH2 0x15A5 JUMP JUMPDEST POP SWAP4 SWAP3 POP POP POP JUMP JUMPDEST PUSH1 0x0 DUP3 PUSH1 0x1F DUP4 ADD SLT PUSH2 0xBC8 JUMPI PUSH2 0xBC7 PUSH2 0x174F JUMP JUMPDEST JUMPDEST DUP2 CALLDATALOAD PUSH2 0xBD8 DUP5 DUP3 PUSH1 0x20 DUP7 ADD PUSH2 0xAE3 JUMP JUMPDEST SWAP2 POP POP SWAP3 SWAP2 POP POP JUMP JUMPDEST PUSH1 0x0 DUP3 PUSH1 0x1F DUP4 ADD SLT PUSH2 0xBF6 JUMPI PUSH2 0xBF5 PUSH2 0x174F JUMP JUMPDEST JUMPDEST DUP2 CALLDATALOAD PUSH2 0xC06 DUP5 DUP3 PUSH1 0x20 DUP7 ADD PUSH2 0xB71 JUMP JUMPDEST SWAP2 POP POP SWAP3 SWAP2 POP POP JUMP JUMPDEST PUSH1 0x0 DUP2 CALLDATALOAD SWAP1 POP PUSH2 0xC1E DUP2 PUSH2 0x18B8 JUMP JUMPDEST SWAP3 SWAP2 POP POP JUMP JUMPDEST PUSH1 0x0 DUP1 PUSH1 0x0 DUP1 PUSH1 0x0 DUP1 PUSH1 0x0 DUP1 PUSH1 0x0 DUP1 PUSH2 0x140 DUP12 DUP14 SUB SLT ISZERO PUSH2 0xC48 JUMPI PUSH2 0xC47 PUSH2 0x1763 JUMP JUMPDEST JUMPDEST PUSH1 0x0 DUP12 ADD CALLDATALOAD PUSH8 0xFFFFFFFFFFFFFFFF DUP2 GT ISZERO PUSH2 0xC66 JUMPI PUSH2 0xC65 PUSH2 0x175E JUMP JUMPDEST JUMPDEST PUSH2 0xC72 DUP14 DUP3 DUP15 ADD PUSH2 0xBE1 JUMP JUMPDEST SWAP11 POP POP PUSH1 0x20 DUP12 ADD CALLDATALOAD PUSH8 0xFFFFFFFFFFFFFFFF DUP2 GT ISZERO PUSH2 0xC93 JUMPI PUSH2 0xC92 PUSH2 0x175E JUMP JUMPDEST JUMPDEST PUSH2 0xC9F DUP14 DUP3 DUP15 ADD PUSH2 0xBE1 JUMP JUMPDEST SWAP10 POP POP PUSH1 0x40 DUP12 ADD CALLDATALOAD PUSH8 0xFFFFFFFFFFFFFFFF DUP2 GT ISZERO PUSH2 0xCC0 JUMPI PUSH2 0xCBF PUSH2 0x175E JUMP JUMPDEST JUMPDEST PUSH2 0xCCC DUP14 DUP3 DUP15 ADD PUSH2 0xBE1 JUMP JUMPDEST SWAP9 POP POP PUSH1 0x60 DUP12 ADD CALLDATALOAD PUSH8 0xFFFFFFFFFFFFFFFF DUP2 GT ISZERO PUSH2 0xCED JUMPI PUSH2 0xCEC PUSH2 0x175E JUMP JUMPDEST JUMPDEST PUSH2 0xCF9 DUP14 DUP3 DUP15 ADD PUSH2 0xBE1 JUMP JUMPDEST SWAP8 POP POP PUSH1 0x80 DUP12 ADD CALLDATALOAD PUSH8 0xFFFFFFFFFFFFFFFF DUP2 GT ISZERO PUSH2 0xD1A JUMPI PUSH2 0xD19 PUSH2 0x175E JUMP JUMPDEST JUMPDEST PUSH2 0xD26 DUP14 DUP3 DUP15 ADD PUSH2 0xBE1 JUMP JUMPDEST SWAP7 POP POP PUSH1 0xA0 DUP12 ADD CALLDATALOAD PUSH8 0xFFFFFFFFFFFFFFFF DUP2 GT ISZERO PUSH2 0xD47 JUMPI PUSH2 0xD46 PUSH2 0x175E JUMP JUMPDEST JUMPDEST PUSH2 0xD53 DUP14 DUP3 DUP15 ADD PUSH2 0xBE1 JUMP JUMPDEST SWAP6 POP POP PUSH1 0xC0 DUP12 ADD CALLDATALOAD PUSH8 0xFFFFFFFFFFFFFFFF DUP2 GT ISZERO PUSH2 0xD74 JUMPI PUSH2 0xD73 PUSH2 0x175E JUMP JUMPDEST JUMPDEST PUSH2 0xD80 DUP14 DUP3 DUP15 ADD PUSH2 0xBE1 JUMP JUMPDEST SWAP5 POP POP PUSH1 0xE0 PUSH2 0xD91 DUP14 DUP3 DUP15 ADD PUSH2 0xC0F JUMP JUMPDEST SWAP4 POP POP PUSH2 0x100 PUSH2 0xDA3 DUP14 DUP3 DUP15 ADD PUSH2 0xC0F JUMP JUMPDEST SWAP3 POP POP PUSH2 0x120 DUP12 ADD CALLDATALOAD PUSH8 0xFFFFFFFFFFFFFFFF DUP2 GT ISZERO PUSH2 0xDC5 JUMPI PUSH2 0xDC4 PUSH2 0x175E JUMP JUMPDEST JUMPDEST PUSH2 0xDD1 DUP14 DUP3 DUP15 ADD PUSH2 0xBB3 JUMP JUMPDEST SWAP2 POP POP SWAP3 SWAP6 SWAP9 SWAP12 SWAP2 SWAP5 SWAP8 SWAP11 POP SWAP3 SWAP6 SWAP9 POP JUMP JUMPDEST PUSH1 0x0 PUSH1 0x20 DUP3 DUP5 SUB SLT ISZERO PUSH2 0xDF9 JUMPI PUSH2 0xDF8 PUSH2 0x1763 JUMP JUMPDEST JUMPDEST PUSH1 0x0 PUSH2 0xE07 DUP5 DUP3 DUP6 ADD PUSH2 0xC0F JUMP JUMPDEST SWAP2 POP POP SWAP3 SWAP2 POP POP JUMP JUMPDEST PUSH1 0x0 DUP1 PUSH1 0x40 DUP4 DUP6 SUB SLT ISZERO PUSH2 0xE27 JUMPI PUSH2 0xE26 PUSH2 0x1763 JUMP JUMPDEST JUMPDEST PUSH1 0x0 PUSH2 0xE35 DUP6 DUP3 DUP7 ADD PUSH2 0xC0F JUMP JUMPDEST SWAP3 POP POP PUSH1 0x20 DUP4 ADD CALLDATALOAD PUSH8 0xFFFFFFFFFFFFFFFF DUP2 GT ISZERO PUSH2 0xE56 JUMPI PUSH2 0xE55 PUSH2 0x175E JUMP JUMPDEST JUMPDEST PUSH2 0xE62 DUP6 DUP3 DUP7 ADD PUSH2 0xBB3 JUMP JUMPDEST SWAP2 POP POP SWAP3 POP SWAP3 SWAP1 POP JUMP JUMPDEST PUSH1 0x0 PUSH2 0xE78 DUP4 DUP4 PUSH2 0xF04 JUMP JUMPDEST SWAP1 POP SWAP3 SWAP2 POP POP JUMP JUMPDEST PUSH2 0xE89 DUP2 PUSH2 0x1569 JUMP JUMPDEST DUP3 MSTORE POP POP JUMP JUMPDEST PUSH1 0x0 PUSH2 0xE9A DUP3 PUSH2 0x14AE JUMP JUMPDEST PUSH2 0xEA4 DUP2 DUP6 PUSH2 0x14D1 JUMP JUMPDEST SWAP4 POP DUP4 PUSH1 0x20 DUP3 MUL DUP6 ADD PUSH2 0xEB6 DUP6 PUSH2 0x1489 JUMP JUMPDEST DUP1 PUSH1 0x0 JUMPDEST DUP6 DUP2 LT ISZERO PUSH2 0xEF2 JUMPI DUP5 DUP5 SUB DUP10 MSTORE DUP2 MLOAD PUSH2 0xED3 DUP6 DUP3 PUSH2 0xE6C JUMP JUMPDEST SWAP5 POP PUSH2 0xEDE DUP4 PUSH2 0x14C4 JUMP JUMPDEST SWAP3 POP PUSH1 0x20 DUP11 ADD SWAP10 POP POP PUSH1 0x1 DUP2 ADD SWAP1 POP PUSH2 0xEBA JUMP JUMPDEST POP DUP3 SWAP8 POP DUP8 SWAP6 POP POP POP POP POP POP SWAP3 SWAP2 POP POP JUMP JUMPDEST PUSH1 0x0 PUSH2 0xF0F DUP3 PUSH2 0x14B9 JUMP JUMPDEST PUSH2 0xF19 DUP2 DUP6 PUSH2 0x14E2 JUMP JUMPDEST SWAP4 POP PUSH2 0xF29 DUP2 DUP6 PUSH1 0x20 DUP7 ADD PUSH2 0x15B4 JUMP JUMPDEST PUSH2 0xF32 DUP2 PUSH2 0x1768 JUMP JUMPDEST DUP5 ADD SWAP2 POP POP SWAP3 SWAP2 POP POP JUMP JUMPDEST PUSH1 0x0 PUSH2 0xF48 DUP3 PUSH2 0x14B9 JUMP JUMPDEST PUSH2 0xF52 DUP2 DUP6 PUSH2 0x14F3 JUMP JUMPDEST SWAP4 POP PUSH2 0xF62 DUP2 DUP6 PUSH1 0x20 DUP7 ADD PUSH2 0x15B4 JUMP JUMPDEST PUSH2 0xF6B DUP2 PUSH2 0x1768 JUMP JUMPDEST DUP5 ADD SWAP2 POP POP SWAP3 SWAP2 POP POP JUMP JUMPDEST PUSH1 0x0 PUSH2 0xF81 DUP3 PUSH2 0x14B9 JUMP JUMPDEST PUSH2 0xF8B DUP2 DUP6 PUSH2 0x1504 JUMP JUMPDEST SWAP4 POP PUSH2 0xF9B DUP2 DUP6 PUSH1 0x20 DUP7 ADD PUSH2 0x15B4 JUMP JUMPDEST DUP1 DUP5 ADD SWAP2 POP POP SWAP3 SWAP2 POP POP JUMP JUMPDEST PUSH1 0x0 DUP2 SLOAD PUSH2 0xFB4 DUP2 PUSH2 0x15E7 JUMP JUMPDEST PUSH2 0xFBE DUP2 DUP7 PUSH2 0x14F3 JUMP JUMPDEST SWAP5 POP PUSH1 0x1 DUP3 AND PUSH1 0x0 DUP2 EQ PUSH2 0xFD9 JUMPI PUSH1 0x1 DUP2 EQ PUSH2 0xFEB JUMPI PUSH2 0x101E JUMP JUMPDEST PUSH1 0xFF NOT DUP4 AND DUP7 MSTORE PUSH1 0x20 DUP7 ADD SWAP4 POP PUSH2 0x101E JUMP JUMPDEST PUSH2 0xFF4 DUP6 PUSH2 0x1499 JUMP JUMPDEST PUSH1 0x0 JUMPDEST DUP4 DUP2 LT ISZERO PUSH2 0x1016 JUMPI DUP2 SLOAD DUP2 DUP10 ADD MSTORE PUSH1 0x1 DUP3 ADD SWAP2 POP PUSH1 0x20 DUP2 ADD SWAP1 POP PUSH2 0xFF7 JUMP JUMPDEST DUP1 DUP9 ADD SWAP6 POP POP POP JUMPDEST POP POP POP SWAP3 SWAP2 POP POP JUMP JUMPDEST PUSH1 0x0 DUP2 SLOAD PUSH2 0x1034 DUP2 PUSH2 0x15E7 JUMP JUMPDEST PUSH2 0x103E DUP2 DUP7 PUSH2 0x1504 JUMP JUMPDEST SWAP5 POP PUSH1 0x1 DUP3 AND PUSH1 0x0 DUP2 EQ PUSH2 0x1059 JUMPI PUSH1 0x1 DUP2 EQ PUSH2 0x106A JUMPI PUSH2 0x109D JUMP JUMPDEST PUSH1 0xFF NOT DUP4 AND DUP7 MSTORE DUP2 DUP7 ADD SWAP4 POP PUSH2 0x109D JUMP JUMPDEST PUSH2 0x1073 DUP6 PUSH2 0x1499 JUMP JUMPDEST PUSH1 0x0 JUMPDEST DUP4 DUP2 LT ISZERO PUSH2 0x1095 JUMPI DUP2 SLOAD DUP2 DUP10 ADD MSTORE PUSH1 0x1 DUP3 ADD SWAP2 POP PUSH1 0x20 DUP2 ADD SWAP1 POP PUSH2 0x1076 JUMP JUMPDEST DUP4 DUP9 ADD SWAP6 POP POP POP JUMPDEST POP POP POP SWAP3 SWAP2 POP POP JUMP JUMPDEST PUSH1 0x0 PUSH2 0x10B3 PUSH1 0xE DUP4 PUSH2 0x14F3 JUMP JUMPDEST SWAP2 POP PUSH2 0x10BE DUP3 PUSH2 0x1779 JUMP JUMPDEST PUSH1 0x20 DUP3 ADD SWAP1 POP SWAP2 SWAP1 POP JUMP JUMPDEST PUSH1 0x0 PUSH2 0x10D6 PUSH1 0x40 DUP4 PUSH2 0x14F3 JUMP JUMPDEST SWAP2 POP PUSH2 0x10E1 DUP3 PUSH2 0x17A2 JUMP JUMPDEST PUSH1 0x40 DUP3 ADD SWAP1 POP SWAP2 SWAP1 POP JUMP JUMPDEST PUSH1 0x0 PUSH2 0x10F9 PUSH1 0x37 DUP4 PUSH2 0x14F3 JUMP JUMPDEST SWAP2 POP PUSH2 0x1104 DUP3 PUSH2 0x17F1 JUMP JUMPDEST PUSH1 0x40 DUP3 ADD SWAP1 POP SWAP2 SWAP1 POP JUMP JUMPDEST PUSH1 0x0 PUSH2 0x111C PUSH1 0x21 DUP4 PUSH2 0x14F3 JUMP JUMPDEST SWAP2 POP PUSH2 0x1127 DUP3 PUSH2 0x1840 JUMP JUMPDEST PUSH1 0x40 DUP3 ADD SWAP1 POP SWAP2 SWAP1 POP JUMP JUMPDEST PUSH1 0x0 PUSH2 0x113F PUSH1 0xE DUP4 PUSH2 0x14F3 JUMP JUMPDEST SWAP2 POP PUSH2 0x114A DUP3 PUSH2 0x188F JUMP JUMPDEST PUSH1 0x20 DUP3 ADD SWAP1 POP SWAP2 SWAP1 POP JUMP JUMPDEST PUSH2 0x115E DUP2 PUSH2 0x159B JUMP JUMPDEST DUP3 MSTORE POP POP JUMP JUMPDEST PUSH1 0x0 PUSH2 0x1170 DUP3 DUP5 PUSH2 0xF76 JUMP JUMPDEST SWAP2 POP DUP2 SWAP1 POP SWAP3 SWAP2 POP POP JUMP JUMPDEST PUSH1 0x0 PUSH2 0x1187 DUP3 DUP5 PUSH2 0x1027 JUMP JUMPDEST SWAP2 POP DUP2 SWAP1 POP SWAP3 SWAP2 POP POP JUMP JUMPDEST PUSH1 0x0 PUSH1 0x20 DUP3 ADD SWAP1 POP PUSH2 0x11A7 PUSH1 0x0 DUP4 ADD DUP5 PUSH2 0xE80 JUMP JUMPDEST SWAP3 SWAP2 POP POP JUMP JUMPDEST PUSH1 0x0 PUSH1 0xA0 DUP3 ADD SWAP1 POP DUP2 DUP2 SUB PUSH1 0x0 DUP4 ADD MSTORE PUSH2 0x11C7 DUP2 DUP9 PUSH2 0xE8F JUMP JUMPDEST SWAP1 POP PUSH2 0x11D6 PUSH1 0x20 DUP4 ADD DUP8 PUSH2 0x1155 JUMP JUMPDEST PUSH2 0x11E3 PUSH1 0x40 DUP4 ADD DUP7 PUSH2 0xE80 JUMP JUMPDEST DUP2 DUP2 SUB PUSH1 0x60 DUP4 ADD MSTORE PUSH2 0x11F5 DUP2 DUP6 PUSH2 0xFA7 JUMP JUMPDEST SWAP1 POP DUP2 DUP2 SUB PUSH1 0x80 DUP4 ADD MSTORE PUSH2 0x1209 DUP2 DUP5 PUSH2 0xFA7 JUMP JUMPDEST SWAP1 POP SWAP7 SWAP6 POP POP POP POP POP POP JUMP JUMPDEST PUSH1 0x0 PUSH2 0x180 DUP3 ADD SWAP1 POP DUP2 DUP2 SUB PUSH1 0x0 DUP4 ADD MSTORE PUSH2 0x1230 DUP2 DUP16 PUSH2 0xF3D JUMP JUMPDEST SWAP1 POP DUP2 DUP2 SUB PUSH1 0x20 DUP4 ADD MSTORE PUSH2 0x1244 DUP2 DUP15 PUSH2 0xF3D JUMP JUMPDEST SWAP1 POP DUP2 DUP2 SUB PUSH1 0x40 DUP4 ADD MSTORE PUSH2 0x1258 DUP2 DUP14 PUSH2 0xF3D JUMP JUMPDEST SWAP1 POP DUP2 DUP2 SUB PUSH1 0x60 DUP4 ADD MSTORE PUSH2 0x126C DUP2 DUP13 PUSH2 0xF3D JUMP JUMPDEST SWAP1 POP DUP2 DUP2 SUB PUSH1 0x80 DUP4 ADD MSTORE PUSH2 0x1280 DUP2 DUP12 PUSH2 0xF3D JUMP JUMPDEST SWAP1 POP DUP2 DUP2 SUB PUSH1 0xA0 DUP4 ADD MSTORE PUSH2 0x1294 DUP2 DUP11 PUSH2 0xF3D JUMP JUMPDEST SWAP1 POP DUP2 DUP2 SUB PUSH1 0xC0 DUP4 ADD MSTORE PUSH2 0x12A8 DUP2 DUP10 PUSH2 0xF3D JUMP JUMPDEST SWAP1 POP PUSH2 0x12B7 PUSH1 0xE0 DUP4 ADD DUP9 PUSH2 0x1155 JUMP JUMPDEST PUSH2 0x12C5 PUSH2 0x100 DUP4 ADD DUP8 PUSH2 0x1155 JUMP JUMPDEST DUP2 DUP2 SUB PUSH2 0x120 DUP4 ADD MSTORE PUSH2 0x12D8 DUP2 DUP7 PUSH2 0xE8F JUMP JUMPDEST SWAP1 POP PUSH2 0x12E8 PUSH2 0x140 DUP4 ADD DUP6 PUSH2 0x1155 JUMP JUMPDEST PUSH2 0x12F6 PUSH2 0x160 DUP4 ADD DUP5 PUSH2 0xE80 JUMP JUMPDEST SWAP14 SWAP13 POP POP POP POP POP POP POP POP POP POP POP POP POP JUMP JUMPDEST PUSH1 0x0 PUSH1 0x60 DUP3 ADD SWAP1 POP DUP2 DUP2 SUB PUSH1 0x0 DUP4 ADD MSTORE PUSH2 0x1321 DUP2 DUP7 PUSH2 0xF3D JUMP JUMPDEST SWAP1 POP PUSH2 0x1330 PUSH1 0x20 DUP4 ADD DUP6 PUSH2 0x1155 JUMP JUMPDEST DUP2 DUP2 SUB PUSH1 0x40 DUP4 ADD MSTORE PUSH2 0x1342 DUP2 DUP5 PUSH2 0xE8F JUMP JUMPDEST SWAP1 POP SWAP5 SWAP4 POP POP POP POP JUMP JUMPDEST PUSH1 0x0 PUSH1 0x20 DUP3 ADD SWAP1 POP DUP2 DUP2 SUB PUSH1 0x0 DUP4 ADD MSTORE PUSH2 0x1365 DUP2 PUSH2 0x10A6 JUMP JUMPDEST SWAP1 POP SWAP2 SWAP1 POP JUMP JUMPDEST PUSH1 0x0 PUSH1 0x20 DUP3 ADD SWAP1 POP DUP2 DUP2 SUB PUSH1 0x0 DUP4 ADD MSTORE PUSH2 0x1385 DUP2 PUSH2 0x10C9 JUMP JUMPDEST SWAP1 POP SWAP2 SWAP1 POP JUMP JUMPDEST PUSH1 0x0 PUSH1 0x20 DUP3 ADD SWAP1 POP DUP2 DUP2 SUB PUSH1 0x0 DUP4 ADD MSTORE PUSH2 0x13A5 DUP2 PUSH2 0x10EC JUMP JUMPDEST SWAP1 POP SWAP2 SWAP1 POP JUMP JUMPDEST PUSH1 0x0 PUSH1 0x20 DUP3 ADD SWAP1 POP DUP2 DUP2 SUB PUSH1 0x0 DUP4 ADD MSTORE PUSH2 0x13C5 DUP2 PUSH2 0x110F JUMP JUMPDEST SWAP1 POP SWAP2 SWAP1 POP JUMP JUMPDEST PUSH1 0x0 PUSH1 0x20 DUP3 ADD SWAP1 POP DUP2 DUP2 SUB PUSH1 0x0 DUP4 ADD MSTORE PUSH2 0x13E5 DUP2 PUSH2 0x1132 JUMP JUMPDEST SWAP1 POP SWAP2 SWAP1 POP JUMP JUMPDEST PUSH1 0x0 PUSH1 0x20 DUP3 ADD SWAP1 POP PUSH2 0x1401 PUSH1 0x0 DUP4 ADD DUP5 PUSH2 0x1155 JUMP JUMPDEST SWAP3 SWAP2 POP POP JUMP JUMPDEST PUSH1 0x0 PUSH2 0x1411 PUSH2 0x1422 JUMP JUMPDEST SWAP1 POP PUSH2 0x141D DUP3 DUP3 PUSH2 0x1619 JUMP JUMPDEST SWAP2 SWAP1 POP JUMP JUMPDEST PUSH1 0x0 PUSH1 0x40 MLOAD SWAP1 POP SWAP1 JUMP JUMPDEST PUSH1 0x0 PUSH8 0xFFFFFFFFFFFFFFFF DUP3 GT ISZERO PUSH2 0x1447 JUMPI PUSH2 0x1446 PUSH2 0x1720 JUMP JUMPDEST JUMPDEST PUSH1 0x20 DUP3 MUL SWAP1 POP PUSH1 0x20 DUP2 ADD SWAP1 POP SWAP2 SWAP1 POP JUMP JUMPDEST PUSH1 0x0 PUSH8 0xFFFFFFFFFFFFFFFF DUP3 GT ISZERO PUSH2 0x1473 JUMPI PUSH2 0x1472 PUSH2 0x1720 JUMP JUMPDEST JUMPDEST PUSH2 0x147C DUP3 PUSH2 0x1768 JUMP JUMPDEST SWAP1 POP PUSH1 0x20 DUP2 ADD SWAP1 POP SWAP2 SWAP1 POP JUMP JUMPDEST PUSH1 0x0 DUP2 SWAP1 POP PUSH1 0x20 DUP3 ADD SWAP1 POP SWAP2 SWAP1 POP JUMP JUMPDEST PUSH1 0x0 DUP2 SWAP1 POP DUP2 PUSH1 0x0 MSTORE PUSH1 0x20 PUSH1 0x0 KECCAK256 SWAP1 POP SWAP2 SWAP1 POP JUMP JUMPDEST PUSH1 0x0 DUP2 MLOAD SWAP1 POP SWAP2 SWAP1 POP JUMP JUMPDEST PUSH1 0x0 DUP2 MLOAD SWAP1 POP SWAP2 SWAP1 POP JUMP JUMPDEST PUSH1 0x0 PUSH1 0x20 DUP3 ADD SWAP1 POP SWAP2 SWAP1 POP JUMP JUMPDEST PUSH1 0x0 DUP3 DUP3 MSTORE PUSH1 0x20 DUP3 ADD SWAP1 POP SWAP3 SWAP2 POP POP JUMP JUMPDEST PUSH1 0x0 DUP3 DUP3 MSTORE PUSH1 0x20 DUP3 ADD SWAP1 POP SWAP3 SWAP2 POP POP JUMP JUMPDEST PUSH1 0x0 DUP3 DUP3 MSTORE PUSH1 0x20 DUP3 ADD SWAP1 POP SWAP3 SWAP2 POP POP JUMP JUMPDEST PUSH1 0x0 DUP2 SWAP1 POP SWAP3 SWAP2 POP POP JUMP JUMPDEST PUSH1 0x0 PUSH2 0x151A DUP3 PUSH2 0x159B JUMP JUMPDEST SWAP2 POP PUSH2 0x1525 DUP4 PUSH2 0x159B JUMP JUMPDEST SWAP3 POP DUP2 PUSH32 0xFFFFFFFFFFFFFFFFFFFFFFFFFFFFFFFFFFFFFFFFFFFFFFFFFFFFFFFFFFFFFFFF DIV DUP4 GT DUP3 ISZERO ISZERO AND ISZERO PUSH2 0x155E JUMPI PUSH2 0x155D PUSH2 0x1693 JUMP JUMPDEST JUMPDEST DUP3 DUP3 MUL SWAP1 POP SWAP3 SWAP2 POP POP JUMP JUMPDEST PUSH1 0x0 PUSH2 0x1574 DUP3 PUSH2 0x157B JUMP JUMPDEST SWAP1 POP SWAP2 SWAP1 POP JUMP JUMPDEST PUSH1 0x0 PUSH20 0xFFFFFFFFFFFFFFFFFFFFFFFFFFFFFFFFFFFFFFFF DUP3 AND SWAP1 POP SWAP2 SWAP1 POP JUMP JUMPDEST PUSH1 0x0 DUP2 SWAP1 POP SWAP2 SWAP1 POP JUMP JUMPDEST DUP3 DUP2 DUP4 CALLDATACOPY PUSH1 0x0 DUP4 DUP4 ADD MSTORE POP POP POP JUMP JUMPDEST PUSH1 0x0 JUMPDEST DUP4 DUP2 LT ISZERO PUSH2 0x15D2 JUMPI DUP1 DUP3 ADD MLOAD DUP2 DUP5 ADD MSTORE PUSH1 0x20 DUP2 ADD SWAP1 POP PUSH2 0x15B7 JUMP JUMPDEST DUP4 DUP2 GT ISZERO PUSH2 0x15E1 JUMPI PUSH1 0x0 DUP5 DUP5 ADD MSTORE JUMPDEST POP POP POP POP JUMP JUMPDEST PUSH1 0x0 PUSH1 0x2 DUP3 DIV SWAP1 POP PUSH1 0x1 DUP3 AND DUP1 PUSH2 0x15FF JUMPI PUSH1 0x7F DUP3 AND SWAP2 POP JUMPDEST PUSH1 0x20 DUP3 LT DUP2 EQ ISZERO PUSH2 0x1613 JUMPI PUSH2 0x1612 PUSH2 0x16C2 JUMP JUMPDEST JUMPDEST POP SWAP2 SWAP1 POP JUMP JUMPDEST PUSH2 0x1622 DUP3 PUSH2 0x1768 JUMP JUMPDEST DUP2 ADD DUP2 DUP2 LT PUSH8 0xFFFFFFFFFFFFFFFF DUP3 GT OR ISZERO PUSH2 0x1641 JUMPI PUSH2 0x1640 PUSH2 0x1720 JUMP JUMPDEST JUMPDEST DUP1 PUSH1 0x40 MSTORE POP POP POP JUMP JUMPDEST PUSH1 0x0 PUSH2 0x1655 DUP3 PUSH2 0x159B JUMP JUMPDEST SWAP2 POP PUSH32 0xFFFFFFFFFFFFFFFFFFFFFFFFFFFFFFFFFFFFFFFFFFFFFFFFFFFFFFFFFFFFFFFF DUP3 EQ ISZERO PUSH2 0x1688 JUMPI PUSH2 0x1687 PUSH2 0x1693 JUMP JUMPDEST JUMPDEST PUSH1 0x1 DUP3 ADD SWAP1 POP SWAP2 SWAP1 POP JUMP JUMPDEST PUSH32 0x4E487B7100000000000000000000000000000000000000000000000000000000 PUSH1 0x0 MSTORE PUSH1 0x11 PUSH1 0x4 MSTORE PUSH1 0x24 PUSH1 0x0 REVERT JUMPDEST PUSH32 0x4E487B7100000000000000000000000000000000000000000000000000000000 PUSH1 0x0 MSTORE PUSH1 0x22 PUSH1 0x4 MSTORE PUSH1 0x24 PUSH1 0x0 REVERT JUMPDEST PUSH32 0x4E487B7100000000000000000000000000000000000000000000000000000000 PUSH1 0x0 MSTORE PUSH1 0x32 PUSH1 0x4 MSTORE PUSH1 0x24 PUSH1 0x0 REVERT JUMPDEST PUSH32 0x4E487B7100000000000000000000000000000000000000000000000000000000 PUSH1 0x0 MSTORE PUSH1 0x41 PUSH1 0x4 MSTORE PUSH1 0x24 PUSH1 0x0 REVERT JUMPDEST PUSH1 0x0 DUP1 REVERT JUMPDEST PUSH1 0x0 DUP1 REVERT JUMPDEST PUSH1 0x0 DUP1 REVERT JUMPDEST PUSH1 0x0 DUP1 REVERT JUMPDEST PUSH1 0x0 DUP1 REVERT JUMPDEST PUSH1 0x0 PUSH1 0x1F NOT PUSH1 0x1F DUP4 ADD AND SWAP1 POP SWAP2 SWAP1 POP JUMP JUMPDEST PUSH32 0x4E6F20737563682052656E74616C000000000000000000000000000000000000 PUSH1 0x0 DUP3 ADD MSTORE POP JUMP JUMPDEST PUSH32 0x506C65617365207375626D6974207468652061736B696E672070726963652069 PUSH1 0x0 DUP3 ADD MSTORE PUSH32 0x6E206F7264657220746F20636F6D706C65746520746865207075726368617365 PUSH1 0x20 DUP3 ADD MSTORE POP JUMP JUMPDEST PUSH32 0x4F6E6C7920746865206F776E6572206F662074686520736D61727420636F6E74 PUSH1 0x0 DUP3 ADD MSTORE PUSH32 0x726163742063616E207075742075702072656E74616C73000000000000000000 PUSH1 0x20 DUP3 ADD MSTORE POP JUMP JUMPDEST PUSH32 0x416C726561647920626F6F6B656420666F722072657175657374656420646174 PUSH1 0x0 DUP3 ADD MSTORE PUSH32 0x6500000000000000000000000000000000000000000000000000000000000000 PUSH1 0x20 DUP3 ADD MSTORE POP JUMP JUMPDEST PUSH32 0x4E6F20737563682072656E74616C000000000000000000000000000000000000 PUSH1 0x0 DUP3 ADD MSTORE POP JUMP JUMPDEST PUSH2 0x18C1 DUP2 PUSH2 0x159B JUMP JUMPDEST DUP2 EQ PUSH2 0x18CC JUMPI PUSH1 0x0 DUP1 REVERT JUMPDEST POP JUMP INVALID LOG2 PUSH5 0x6970667358 0x22 SLT KECCAK256 0xBE 0x2B 0x5E EXP 0xB1 PUSH18 0xBE7CA05259939CDF330A93E0C563C474DBBC 0xD4 SLOAD 0xDA 0xB1 SUB SWAP2 PUSH28 0xD064736F6C6343000807003300000000000000000000000000000000 "
				},
				"gasEstimates": {
					"creation": {
						"codeDepositCost": "1281000",
						"executionCost": "30615",
						"totalCost": "1311615"
					},
					"external": {
						"addDatesBooked(uint256,string[])": "infinite",
						"addRentels(string,string,string,string,string,string,string,uint256,uint256,string[])": "infinite",
						"getRentals(uint256)": "infinite",
						"owner()": "2533",
						"rentalIds(uint256)": "infinite"
					},
					"internal": {
						"checkBookings(uint256,string memory[] memory)": "infinite"
					}
				},
				"methodIdentifiers": {
					"addDatesBooked(uint256,string[])": "2a23bb72",
					"addRentels(string,string,string,string,string,string,string,uint256,uint256,string[])": "611fa0a8",
					"getRentals(uint256)": "d496498f",
					"owner()": "8da5cb5b",
					"rentalIds(uint256)": "ebfa74c9"
				}
			},
			"storageLayout": {
				"storage": [
					{
						"astId": 3,
						"contract": "contracts/Aquaroom.sol:aquaroom",
						"label": "owner",
						"offset": 0,
						"slot": "0",
						"type": "t_address"
					},
					{
						"astId": 5,
						"contract": "contracts/Aquaroom.sol:aquaroom",
						"label": "counter",
						"offset": 0,
						"slot": "1",
						"type": "t_uint256"
					},
					{
						"astId": 89,
						"contract": "contracts/Aquaroom.sol:aquaroom",
						"label": "rentals",
						"offset": 0,
						"slot": "2",
						"type": "t_mapping(t_uint256,t_struct(rentalInfo)44_storage)"
					},
					{
						"astId": 92,
						"contract": "contracts/Aquaroom.sol:aquaroom",
						"label": "rentalIds",
						"offset": 0,
						"slot": "3",
						"type": "t_array(t_uint256)dyn_storage"
					}
				],
				"types": {
					"t_address": {
						"encoding": "inplace",
						"label": "address",
						"numberOfBytes": "20"
					},
					"t_array(t_string_storage)dyn_storage": {
						"base": "t_string_storage",
						"encoding": "dynamic_array",
						"label": "string[]",
						"numberOfBytes": "32"
					},
					"t_array(t_uint256)dyn_storage": {
						"base": "t_uint256",
						"encoding": "dynamic_array",
						"label": "uint256[]",
						"numberOfBytes": "32"
					},
					"t_mapping(t_uint256,t_struct(rentalInfo)44_storage)": {
						"encoding": "mapping",
						"key": "t_uint256",
						"label": "mapping(uint256 => struct aquaroom.rentalInfo)",
						"numberOfBytes": "32",
						"value": "t_struct(rentalInfo)44_storage"
					},
					"t_string_storage": {
						"encoding": "bytes",
						"label": "string",
						"numberOfBytes": "32"
					},
					"t_struct(rentalInfo)44_storage": {
						"encoding": "inplace",
						"label": "struct aquaroom.rentalInfo",
						"members": [
							{
								"astId": 20,
								"contract": "contracts/Aquaroom.sol:aquaroom",
								"label": "name",
								"offset": 0,
								"slot": "0",
								"type": "t_string_storage"
							},
							{
								"astId": 22,
								"contract": "contracts/Aquaroom.sol:aquaroom",
								"label": "city",
								"offset": 0,
								"slot": "1",
								"type": "t_string_storage"
							},
							{
								"astId": 24,
								"contract": "contracts/Aquaroom.sol:aquaroom",
								"label": "lat",
								"offset": 0,
								"slot": "2",
								"type": "t_string_storage"
							},
							{
								"astId": 26,
								"contract": "contracts/Aquaroom.sol:aquaroom",
								"label": "long",
								"offset": 0,
								"slot": "3",
								"type": "t_string_storage"
							},
							{
								"astId": 28,
								"contract": "contracts/Aquaroom.sol:aquaroom",
								"label": "unoDescription",
								"offset": 0,
								"slot": "4",
								"type": "t_string_storage"
							},
							{
								"astId": 30,
								"contract": "contracts/Aquaroom.sol:aquaroom",
								"label": "dosDescription",
								"offset": 0,
								"slot": "5",
								"type": "t_string_storage"
							},
							{
								"astId": 32,
								"contract": "contracts/Aquaroom.sol:aquaroom",
								"label": "imgUrl",
								"offset": 0,
								"slot": "6",
								"type": "t_string_storage"
							},
							{
								"astId": 34,
								"contract": "contracts/Aquaroom.sol:aquaroom",
								"label": "maxGuests",
								"offset": 0,
								"slot": "7",
								"type": "t_uint256"
							},
							{
								"astId": 36,
								"contract": "contracts/Aquaroom.sol:aquaroom",
								"label": "pricePerDay",
								"offset": 0,
								"slot": "8",
								"type": "t_uint256"
							},
							{
								"astId": 39,
								"contract": "contracts/Aquaroom.sol:aquaroom",
								"label": "datesBooked",
								"offset": 0,
								"slot": "9",
								"type": "t_array(t_string_storage)dyn_storage"
							},
							{
								"astId": 41,
								"contract": "contracts/Aquaroom.sol:aquaroom",
								"label": "id",
								"offset": 0,
								"slot": "10",
								"type": "t_uint256"
							},
							{
								"astId": 43,
								"contract": "contracts/Aquaroom.sol:aquaroom",
								"label": "renter",
								"offset": 0,
								"slot": "11",
								"type": "t_address"
							}
						],
						"numberOfBytes": "384"
					},
					"t_uint256": {
						"encoding": "inplace",
						"label": "uint256",
						"numberOfBytes": "32"
					}
				}
			},
			"userdoc": {
				"kind": "user",
				"methods": {},
				"version": 1
			}
		}
	}
}