{
	"contracts/Aquaroom.sol": {
		"aquaroom": {
			"abi": [
				{
					"inputs": [],
					"stateMutability": "nonpayable",
					"type": "constructor"
				},
				{
					"anonymous": false,
					"inputs": [
						{
							"indexed": false,
							"internalType": "string[]",
							"name": "datesBooked",
							"type": "string[]"
						},
						{
							"indexed": false,
							"internalType": "uint256",
							"name": "id",
							"type": "uint256"
						},
						{
							"indexed": false,
							"internalType": "address",
							"name": "booker",
							"type": "address"
						},
						{
							"indexed": false,
							"internalType": "string",
							"name": "city",
							"type": "string"
						},
						{
							"indexed": false,
							"internalType": "string",
							"name": "imgUrl",
							"type": "string"
						}
					],
					"name": "newDatesBooked",
					"type": "event"
				},
				{
					"anonymous": false,
					"inputs": [
						{
							"indexed": false,
							"internalType": "string",
							"name": "name",
							"type": "string"
						},
						{
							"indexed": false,
							"internalType": "string",
							"name": "city",
							"type": "string"
						},
						{
							"indexed": false,
							"internalType": "string",
							"name": "lat",
							"type": "string"
						},
						{
							"indexed": false,
							"internalType": "string",
							"name": "long",
							"type": "string"
						},
						{
							"indexed": false,
							"internalType": "string",
							"name": "unoDescription",
							"type": "string"
						},
						{
							"indexed": false,
							"internalType": "string",
							"name": "dosDescription",
							"type": "string"
						},
						{
							"indexed": false,
							"internalType": "string",
							"name": "imgUrl",
							"type": "string"
						},
						{
							"indexed": false,
							"internalType": "uint256",
							"name": "maxGuests",
							"type": "uint256"
						},
						{
							"indexed": false,
							"internalType": "uint256",
							"name": "pricePerDay",
							"type": "uint256"
						},
						{
							"indexed": false,
							"internalType": "string[]",
							"name": "datesBooked",
							"type": "string[]"
						},
						{
							"indexed": false,
							"internalType": "uint256",
							"name": "id",
							"type": "uint256"
						},
						{
							"indexed": false,
							"internalType": "address",
							"name": "renter",
							"type": "address"
						}
					],
					"name": "rentalCreated",
					"type": "event"
				},
				{
					"inputs": [
						{
							"internalType": "uint256",
							"name": "id",
							"type": "uint256"
						},
						{
							"internalType": "string[]",
							"name": "newBookings",
							"type": "string[]"
						}
					],
					"name": "addDatesBooked",
					"outputs": [],
					"stateMutability": "payable",
					"type": "function"
				},
				{
					"inputs": [
						{
							"internalType": "string",
							"name": "name",
							"type": "string"
						},
						{
							"internalType": "string",
							"name": "city",
							"type": "string"
						},
						{
							"internalType": "string",
							"name": "lat",
							"type": "string"
						},
						{
							"internalType": "string",
							"name": "long",
							"type": "string"
						},
						{
							"internalType": "string",
							"name": "unoDescription",
							"type": "string"
						},
						{
							"internalType": "string",
							"name": "dosDescription",
							"type": "string"
						},
						{
							"internalType": "string",
							"name": "imgUrl",
							"type": "string"
						},
						{
							"internalType": "uint256",
							"name": "maxGuests",
							"type": "uint256"
						},
						{
							"internalType": "uint256",
							"name": "pricePerDay",
							"type": "uint256"
						},
						{
							"internalType": "string[]",
							"name": "datesBooked",
							"type": "string[]"
						}
					],
					"name": "addRentels",
					"outputs": [],
					"stateMutability": "nonpayable",
					"type": "function"
				},
				{
					"inputs": [],
					"name": "owner",
					"outputs": [
						{
							"internalType": "address",
							"name": "",
							"type": "address"
						}
					],
					"stateMutability": "view",
					"type": "function"
				},
				{
					"inputs": [
						{
							"internalType": "uint256",
							"name": "",
							"type": "uint256"
						}
					],
					"name": "rentalIds",
					"outputs": [
						{
							"internalType": "uint256",
							"name": "",
							"type": "uint256"
						}
					],
					"stateMutability": "view",
					"type": "function"
				}
			],
			"devdoc": {
				"kind": "dev",
				"methods": {},
				"version": 1
			},
			"evm": {
				"assembly": "    /* \"contracts/Aquaroom.sol\":60:3649  contract aquaroom {\r... */\n  mstore(0x40, 0x80)\n    /* \"contracts/Aquaroom.sol\":146:220  constructor () {\r... */\n  callvalue\n  dup1\n  iszero\n  tag_1\n  jumpi\n  0x00\n  dup1\n  revert\ntag_1:\n  pop\n    /* \"contracts/Aquaroom.sol\":182:183  0 */\n  0x00\n    /* \"contracts/Aquaroom.sol\":172:179  counter */\n  0x01\n    /* \"contracts/Aquaroom.sol\":172:183  counter = 0 */\n  dup2\n  swap1\n  sstore\n  pop\n    /* \"contracts/Aquaroom.sol\":202:212  msg.sender */\n  caller\n    /* \"contracts/Aquaroom.sol\":194:199  owner */\n  0x00\n  dup1\n    /* \"contracts/Aquaroom.sol\":194:212  owner = msg.sender */\n  0x0100\n  exp\n  dup2\n  sload\n  dup2\n  0xffffffffffffffffffffffffffffffffffffffff\n  mul\n  not\n  and\n  swap1\n  dup4\n  0xffffffffffffffffffffffffffffffffffffffff\n  and\n  mul\n  or\n  swap1\n  sstore\n  pop\n    /* \"contracts/Aquaroom.sol\":60:3649  contract aquaroom {\r... */\n  dataSize(sub_0)\n  dup1\n  dataOffset(sub_0)\n  0x00\n  codecopy\n  0x00\n  return\nstop\n\nsub_0: assembly {\n        /* \"contracts/Aquaroom.sol\":60:3649  contract aquaroom {\r... */\n      mstore(0x40, 0x80)\n      jumpi(tag_1, lt(calldatasize, 0x04))\n      shr(0xe0, calldataload(0x00))\n      dup1\n      0x2a23bb72\n      eq\n      tag_2\n      jumpi\n      dup1\n      0x611fa0a8\n      eq\n      tag_3\n      jumpi\n      dup1\n      0x8da5cb5b\n      eq\n      tag_4\n      jumpi\n      dup1\n      0xebfa74c9\n      eq\n      tag_5\n      jumpi\n    tag_1:\n      0x00\n      dup1\n      revert\n        /* \"contracts/Aquaroom.sol\":2989:3644  function addDatesBooked(uint256 id, string[] memory newBookings) public payable {\r... */\n    tag_2:\n      tag_6\n      0x04\n      dup1\n      calldatasize\n      sub\n      dup2\n      add\n      swap1\n      tag_7\n      swap2\n      swap1\n      tag_8\n      jump\t// in\n    tag_7:\n      tag_9\n      jump\t// in\n    tag_6:\n      stop\n        /* \"contracts/Aquaroom.sol\":1162:2517  function addRentels(\r... */\n    tag_3:\n      callvalue\n      dup1\n      iszero\n      tag_10\n      jumpi\n      0x00\n      dup1\n      revert\n    tag_10:\n      pop\n      tag_11\n      0x04\n      dup1\n      calldatasize\n      sub\n      dup2\n      add\n      swap1\n      tag_12\n      swap2\n      swap1\n      tag_13\n      jump\t// in\n    tag_12:\n      tag_14\n      jump\t// in\n    tag_11:\n      stop\n        /* \"contracts/Aquaroom.sol\":87:107  address public owner */\n    tag_4:\n      callvalue\n      dup1\n      iszero\n      tag_15\n      jumpi\n      0x00\n      dup1\n      revert\n    tag_15:\n      pop\n      tag_16\n      tag_17\n      jump\t// in\n    tag_16:\n      mload(0x40)\n      tag_18\n      swap2\n      swap1\n      tag_19\n      jump\t// in\n    tag_18:\n      mload(0x40)\n      dup1\n      swap2\n      sub\n      swap1\n      return\n        /* \"contracts/Aquaroom.sol\":1127:1153  uint256[] public rentalIds */\n    tag_5:\n      callvalue\n      dup1\n      iszero\n      tag_20\n      jumpi\n      0x00\n      dup1\n      revert\n    tag_20:\n      pop\n      tag_21\n      0x04\n      dup1\n      calldatasize\n      sub\n      dup2\n      add\n      swap1\n      tag_22\n      swap2\n      swap1\n      tag_23\n      jump\t// in\n    tag_22:\n      tag_24\n      jump\t// in\n    tag_21:\n      mload(0x40)\n      tag_25\n      swap2\n      swap1\n      tag_26\n      jump\t// in\n    tag_25:\n      mload(0x40)\n      dup1\n      swap2\n      sub\n      swap1\n      return\n        /* \"contracts/Aquaroom.sol\":2989:3644  function addDatesBooked(uint256 id, string[] memory newBookings) public payable {\r... */\n    tag_9:\n        /* \"contracts/Aquaroom.sol\":3093:3100  counter */\n      sload(0x01)\n        /* \"contracts/Aquaroom.sol\":3088:3090  id */\n      dup3\n        /* \"contracts/Aquaroom.sol\":3088:3100  id < counter */\n      lt\n        /* \"contracts/Aquaroom.sol\":3080:3119  require(id < counter, \"No such Rental\") */\n      tag_28\n      jumpi\n      mload(0x40)\n      0x08c379a000000000000000000000000000000000000000000000000000000000\n      dup2\n      mstore\n      0x04\n      add\n      tag_29\n      swap1\n      tag_30\n      jump\t// in\n    tag_29:\n      mload(0x40)\n      dup1\n      swap2\n      sub\n      swap1\n      revert\n    tag_28:\n        /* \"contracts/Aquaroom.sol\":3138:3168  checkBookings(id, newBookings) */\n      tag_31\n        /* \"contracts/Aquaroom.sol\":3152:3154  id */\n      dup3\n        /* \"contracts/Aquaroom.sol\":3156:3167  newBookings */\n      dup3\n        /* \"contracts/Aquaroom.sol\":3138:3151  checkBookings */\n      tag_32\n        /* \"contracts/Aquaroom.sol\":3138:3168  checkBookings(id, newBookings) */\n      jump\t// in\n    tag_31:\n        /* \"contracts/Aquaroom.sol\":3130:3206  require(checkBookings(id, newBookings), \"Already booked for requested date\") */\n      tag_33\n      jumpi\n      mload(0x40)\n      0x08c379a000000000000000000000000000000000000000000000000000000000\n      dup2\n      mstore\n      0x04\n      add\n      tag_34\n      swap1\n      tag_35\n      jump\t// in\n    tag_34:\n      mload(0x40)\n      dup1\n      swap2\n      sub\n      swap1\n      revert\n    tag_33:\n        /* \"contracts/Aquaroom.sol\":3275:3286  newBookings */\n      dup1\n        /* \"contracts/Aquaroom.sol\":3275:3293  newBookings.length */\n      mload\n        /* \"contracts/Aquaroom.sol\":3265:3272  1 ether */\n      0x0de0b6b3a7640000\n        /* \"contracts/Aquaroom.sol\":3239:3246  rentals */\n      0x02\n        /* \"contracts/Aquaroom.sol\":3239:3250  rentals[id] */\n      0x00\n        /* \"contracts/Aquaroom.sol\":3247:3249  id */\n      dup6\n        /* \"contracts/Aquaroom.sol\":3239:3250  rentals[id] */\n      dup2\n      mstore\n      0x20\n      add\n      swap1\n      dup2\n      mstore\n      0x20\n      add\n      0x00\n      keccak256\n        /* \"contracts/Aquaroom.sol\":3239:3262  rentals[id].pricePerDay */\n      0x08\n      add\n      sload\n        /* \"contracts/Aquaroom.sol\":3239:3272  rentals[id].pricePerDay * 1 ether */\n      tag_36\n      swap2\n      swap1\n      tag_37\n      jump\t// in\n    tag_36:\n        /* \"contracts/Aquaroom.sol\":3239:3293  rentals[id].pricePerDay * 1 ether * newBookings.length */\n      tag_38\n      swap2\n      swap1\n      tag_37\n      jump\t// in\n    tag_38:\n        /* \"contracts/Aquaroom.sol\":3225:3234  msg.value */\n      callvalue\n        /* \"contracts/Aquaroom.sol\":3225:3294  msg.value == (rentals[id].pricePerDay * 1 ether * newBookings.length) */\n      eq\n        /* \"contracts/Aquaroom.sol\":3217:3363  require(msg.value == (rentals[id].pricePerDay * 1 ether * newBookings.length), \"Please submit the asking price in order to complete the purchase\") */\n      tag_39\n      jumpi\n      mload(0x40)\n      0x08c379a000000000000000000000000000000000000000000000000000000000\n      dup2\n      mstore\n      0x04\n      add\n      tag_40\n      swap1\n      tag_41\n      jump\t// in\n    tag_40:\n      mload(0x40)\n      dup1\n      swap2\n      sub\n      swap1\n      revert\n    tag_39:\n        /* \"contracts/Aquaroom.sol\":3381:3387  uint i */\n      0x00\n        /* \"contracts/Aquaroom.sol\":3376:3493  for (uint i = 0; i < newBookings.length; i++) {\r... */\n    tag_42:\n        /* \"contracts/Aquaroom.sol\":3397:3408  newBookings */\n      dup2\n        /* \"contracts/Aquaroom.sol\":3397:3415  newBookings.length */\n      mload\n        /* \"contracts/Aquaroom.sol\":3393:3394  i */\n      dup2\n        /* \"contracts/Aquaroom.sol\":3393:3415  i < newBookings.length */\n      lt\n        /* \"contracts/Aquaroom.sol\":3376:3493  for (uint i = 0; i < newBookings.length; i++) {\r... */\n      iszero\n      tag_43\n      jumpi\n        /* \"contracts/Aquaroom.sol\":3437:3444  rentals */\n      0x02\n        /* \"contracts/Aquaroom.sol\":3437:3448  rentals[id] */\n      0x00\n        /* \"contracts/Aquaroom.sol\":3445:3447  id */\n      dup5\n        /* \"contracts/Aquaroom.sol\":3437:3448  rentals[id] */\n      dup2\n      mstore\n      0x20\n      add\n      swap1\n      dup2\n      mstore\n      0x20\n      add\n      0x00\n      keccak256\n        /* \"contracts/Aquaroom.sol\":3437:3460  rentals[id].datesBooked */\n      0x09\n      add\n        /* \"contracts/Aquaroom.sol\":3466:3477  newBookings */\n      dup3\n        /* \"contracts/Aquaroom.sol\":3478:3479  i */\n      dup3\n        /* \"contracts/Aquaroom.sol\":3466:3480  newBookings[i] */\n      dup2\n      mload\n      dup2\n      lt\n      tag_45\n      jumpi\n      tag_46\n      tag_47\n      jump\t// in\n    tag_46:\n    tag_45:\n      0x20\n      mul\n      0x20\n      add\n      add\n      mload\n        /* \"contracts/Aquaroom.sol\":3437:3481  rentals[id].datesBooked.push(newBookings[i]) */\n      swap1\n      dup1\n      0x01\n      dup2\n      sload\n      add\n      dup1\n      dup3\n      sstore\n      dup1\n      swap2\n      pop\n      pop\n      0x01\n      swap1\n      sub\n      swap1\n      0x00\n      mstore\n      keccak256(0x00, 0x20)\n      add\n      0x00\n      swap1\n      swap2\n      swap1\n      swap2\n      swap1\n      swap2\n      pop\n      swap1\n      dup1\n      mload\n      swap1\n      0x20\n      add\n      swap1\n      tag_49\n      swap3\n      swap2\n      swap1\n      tag_50\n      jump\t// in\n    tag_49:\n      pop\n        /* \"contracts/Aquaroom.sol\":3417:3420  i++ */\n      dup1\n      dup1\n      tag_51\n      swap1\n      tag_52\n      jump\t// in\n    tag_51:\n      swap2\n      pop\n      pop\n        /* \"contracts/Aquaroom.sol\":3376:3493  for (uint i = 0; i < newBookings.length; i++) {\r... */\n      jump(tag_42)\n    tag_43:\n      pop\n        /* \"contracts/Aquaroom.sol\":3513:3518  owner */\n      0x00\n      dup1\n      sload\n      swap1\n      0x0100\n      exp\n      swap1\n      div\n      0xffffffffffffffffffffffffffffffffffffffff\n      and\n        /* \"contracts/Aquaroom.sol\":3505:3528  payable(owner).transfer */\n      0xffffffffffffffffffffffffffffffffffffffff\n      and\n        /* \"contracts/Aquaroom.sol\":3505:3539  payable(owner).transfer(msg.value) */\n      0x08fc\n        /* \"contracts/Aquaroom.sol\":3529:3538  msg.value */\n      callvalue\n        /* \"contracts/Aquaroom.sol\":3505:3539  payable(owner).transfer(msg.value) */\n      swap1\n      dup2\n      iszero\n      mul\n      swap1\n      mload(0x40)\n      0x00\n      mload(0x40)\n      dup1\n      dup4\n      sub\n      dup2\n      dup6\n      dup9\n      dup9\n      call\n      swap4\n      pop\n      pop\n      pop\n      pop\n      iszero\n      dup1\n      iszero\n      tag_54\n      jumpi\n      returndatasize\n      0x00\n      dup1\n      returndatacopy\n      revert(0x00, returndatasize)\n    tag_54:\n      pop\n        /* \"contracts/Aquaroom.sol\":3555:3636  newDatesBooked(newBookings, id, msg.sender, rentals[id].city, rentals[id].imgUrl) */\n      0xdfcc683ac35013d595a2db07bcb6601a1bbc6c91dad13117fd60299c875c61b4\n        /* \"contracts/Aquaroom.sol\":3570:3581  newBookings */\n      dup2\n        /* \"contracts/Aquaroom.sol\":3583:3585  id */\n      dup4\n        /* \"contracts/Aquaroom.sol\":3587:3597  msg.sender */\n      caller\n        /* \"contracts/Aquaroom.sol\":3599:3606  rentals */\n      0x02\n        /* \"contracts/Aquaroom.sol\":3599:3610  rentals[id] */\n      0x00\n        /* \"contracts/Aquaroom.sol\":3607:3609  id */\n      dup8\n        /* \"contracts/Aquaroom.sol\":3599:3610  rentals[id] */\n      dup2\n      mstore\n      0x20\n      add\n      swap1\n      dup2\n      mstore\n      0x20\n      add\n      0x00\n      keccak256\n        /* \"contracts/Aquaroom.sol\":3599:3615  rentals[id].city */\n      0x01\n      add\n        /* \"contracts/Aquaroom.sol\":3617:3624  rentals */\n      0x02\n        /* \"contracts/Aquaroom.sol\":3617:3628  rentals[id] */\n      0x00\n        /* \"contracts/Aquaroom.sol\":3625:3627  id */\n      dup9\n        /* \"contracts/Aquaroom.sol\":3617:3628  rentals[id] */\n      dup2\n      mstore\n      0x20\n      add\n      swap1\n      dup2\n      mstore\n      0x20\n      add\n      0x00\n      keccak256\n        /* \"contracts/Aquaroom.sol\":3617:3635  rentals[id].imgUrl */\n      0x06\n      add\n        /* \"contracts/Aquaroom.sol\":3555:3636  newDatesBooked(newBookings, id, msg.sender, rentals[id].city, rentals[id].imgUrl) */\n      mload(0x40)\n      tag_55\n      swap6\n      swap5\n      swap4\n      swap3\n      swap2\n      swap1\n      tag_56\n      jump\t// in\n    tag_55:\n      mload(0x40)\n      dup1\n      swap2\n      sub\n      swap1\n      log1\n        /* \"contracts/Aquaroom.sol\":2989:3644  function addDatesBooked(uint256 id, string[] memory newBookings) public payable {\r... */\n      pop\n      pop\n      jump\t// out\n        /* \"contracts/Aquaroom.sol\":1162:2517  function addRentels(\r... */\n    tag_14:\n        /* \"contracts/Aquaroom.sol\":1549:1554  owner */\n      0x00\n      dup1\n      sload\n      swap1\n      0x0100\n      exp\n      swap1\n      div\n      0xffffffffffffffffffffffffffffffffffffffff\n      and\n        /* \"contracts/Aquaroom.sol\":1535:1554  msg.sender == owner */\n      0xffffffffffffffffffffffffffffffffffffffff\n      and\n        /* \"contracts/Aquaroom.sol\":1535:1545  msg.sender */\n      caller\n        /* \"contracts/Aquaroom.sol\":1535:1554  msg.sender == owner */\n      0xffffffffffffffffffffffffffffffffffffffff\n      and\n      eq\n        /* \"contracts/Aquaroom.sol\":1527:1614  require(msg.sender == owner, \"Only the owner of the smart contract can put up rentals\") */\n      tag_58\n      jumpi\n      mload(0x40)\n      0x08c379a000000000000000000000000000000000000000000000000000000000\n      dup2\n      mstore\n      0x04\n      add\n      tag_59\n      swap1\n      tag_60\n      jump\t// in\n    tag_59:\n      mload(0x40)\n      dup1\n      swap2\n      sub\n      swap1\n      revert\n    tag_58:\n        /* \"contracts/Aquaroom.sol\":1625:1653  rentalInfo storage newRental */\n      0x00\n        /* \"contracts/Aquaroom.sol\":1656:1663  rentals */\n      0x02\n        /* \"contracts/Aquaroom.sol\":1656:1672  rentals[counter] */\n      0x00\n        /* \"contracts/Aquaroom.sol\":1664:1671  counter */\n      sload(0x01)\n        /* \"contracts/Aquaroom.sol\":1656:1672  rentals[counter] */\n      dup2\n      mstore\n      0x20\n      add\n      swap1\n      dup2\n      mstore\n      0x20\n      add\n      0x00\n      keccak256\n        /* \"contracts/Aquaroom.sol\":1625:1672  rentalInfo storage newRental = rentals[counter] */\n      swap1\n      pop\n        /* \"contracts/Aquaroom.sol\":1700:1704  name */\n      dup11\n        /* \"contracts/Aquaroom.sol\":1683:1692  newRental */\n      dup2\n        /* \"contracts/Aquaroom.sol\":1683:1697  newRental.name */\n      0x00\n      add\n        /* \"contracts/Aquaroom.sol\":1683:1704  newRental.name = name */\n      swap1\n      dup1\n      mload\n      swap1\n      0x20\n      add\n      swap1\n      tag_61\n      swap3\n      swap2\n      swap1\n      tag_50\n      jump\t// in\n    tag_61:\n      pop\n        /* \"contracts/Aquaroom.sol\":1732:1736  city */\n      dup10\n        /* \"contracts/Aquaroom.sol\":1715:1724  newRental */\n      dup2\n        /* \"contracts/Aquaroom.sol\":1715:1729  newRental.city */\n      0x01\n      add\n        /* \"contracts/Aquaroom.sol\":1715:1736  newRental.city = city */\n      swap1\n      dup1\n      mload\n      swap1\n      0x20\n      add\n      swap1\n      tag_62\n      swap3\n      swap2\n      swap1\n      tag_50\n      jump\t// in\n    tag_62:\n      pop\n        /* \"contracts/Aquaroom.sol\":1763:1766  lat */\n      dup9\n        /* \"contracts/Aquaroom.sol\":1747:1756  newRental */\n      dup2\n        /* \"contracts/Aquaroom.sol\":1747:1760  newRental.lat */\n      0x02\n      add\n        /* \"contracts/Aquaroom.sol\":1747:1766  newRental.lat = lat */\n      swap1\n      dup1\n      mload\n      swap1\n      0x20\n      add\n      swap1\n      tag_63\n      swap3\n      swap2\n      swap1\n      tag_50\n      jump\t// in\n    tag_63:\n      pop\n        /* \"contracts/Aquaroom.sol\":1794:1798  long */\n      dup8\n        /* \"contracts/Aquaroom.sol\":1777:1786  newRental */\n      dup2\n        /* \"contracts/Aquaroom.sol\":1777:1791  newRental.long */\n      0x03\n      add\n        /* \"contracts/Aquaroom.sol\":1777:1798  newRental.long = long */\n      swap1\n      dup1\n      mload\n      swap1\n      0x20\n      add\n      swap1\n      tag_64\n      swap3\n      swap2\n      swap1\n      tag_50\n      jump\t// in\n    tag_64:\n      pop\n        /* \"contracts/Aquaroom.sol\":1836:1850  unoDescription */\n      dup7\n        /* \"contracts/Aquaroom.sol\":1809:1818  newRental */\n      dup2\n        /* \"contracts/Aquaroom.sol\":1809:1833  newRental.unoDescription */\n      0x04\n      add\n        /* \"contracts/Aquaroom.sol\":1809:1850  newRental.unoDescription = unoDescription */\n      swap1\n      dup1\n      mload\n      swap1\n      0x20\n      add\n      swap1\n      tag_65\n      swap3\n      swap2\n      swap1\n      tag_50\n      jump\t// in\n    tag_65:\n      pop\n        /* \"contracts/Aquaroom.sol\":1888:1902  dosDescription */\n      dup6\n        /* \"contracts/Aquaroom.sol\":1861:1870  newRental */\n      dup2\n        /* \"contracts/Aquaroom.sol\":1861:1885  newRental.dosDescription */\n      0x05\n      add\n        /* \"contracts/Aquaroom.sol\":1861:1902  newRental.dosDescription = dosDescription */\n      swap1\n      dup1\n      mload\n      swap1\n      0x20\n      add\n      swap1\n      tag_66\n      swap3\n      swap2\n      swap1\n      tag_50\n      jump\t// in\n    tag_66:\n      pop\n        /* \"contracts/Aquaroom.sol\":1932:1938  imgUrl */\n      dup5\n        /* \"contracts/Aquaroom.sol\":1913:1922  newRental */\n      dup2\n        /* \"contracts/Aquaroom.sol\":1913:1929  newRental.imgUrl */\n      0x06\n      add\n        /* \"contracts/Aquaroom.sol\":1913:1938  newRental.imgUrl = imgUrl */\n      swap1\n      dup1\n      mload\n      swap1\n      0x20\n      add\n      swap1\n      tag_67\n      swap3\n      swap2\n      swap1\n      tag_50\n      jump\t// in\n    tag_67:\n      pop\n        /* \"contracts/Aquaroom.sol\":1971:1980  maxGuests */\n      dup4\n        /* \"contracts/Aquaroom.sol\":1949:1958  newRental */\n      dup2\n        /* \"contracts/Aquaroom.sol\":1949:1968  newRental.maxGuests */\n      0x07\n      add\n        /* \"contracts/Aquaroom.sol\":1949:1980  newRental.maxGuests = maxGuests */\n      dup2\n      swap1\n      sstore\n      pop\n        /* \"contracts/Aquaroom.sol\":2015:2026  pricePerDay */\n      dup3\n        /* \"contracts/Aquaroom.sol\":1991:2000  newRental */\n      dup2\n        /* \"contracts/Aquaroom.sol\":1991:2012  newRental.pricePerDay */\n      0x08\n      add\n        /* \"contracts/Aquaroom.sol\":1991:2026  newRental.pricePerDay = pricePerDay */\n      dup2\n      swap1\n      sstore\n      pop\n        /* \"contracts/Aquaroom.sol\":2061:2072  datesBooked */\n      dup2\n        /* \"contracts/Aquaroom.sol\":2037:2046  newRental */\n      dup2\n        /* \"contracts/Aquaroom.sol\":2037:2058  newRental.datesBooked */\n      0x09\n      add\n        /* \"contracts/Aquaroom.sol\":2037:2072  newRental.datesBooked = datesBooked */\n      swap1\n      dup1\n      mload\n      swap1\n      0x20\n      add\n      swap1\n      tag_68\n      swap3\n      swap2\n      swap1\n      tag_69\n      jump\t// in\n    tag_68:\n      pop\n        /* \"contracts/Aquaroom.sol\":2098:2105  counter */\n      sload(0x01)\n        /* \"contracts/Aquaroom.sol\":2083:2092  newRental */\n      dup2\n        /* \"contracts/Aquaroom.sol\":2083:2095  newRental.id */\n      0x0a\n      add\n        /* \"contracts/Aquaroom.sol\":2083:2105  newRental.id = counter */\n      dup2\n      swap1\n      sstore\n      pop\n        /* \"contracts/Aquaroom.sol\":2135:2140  owner */\n      0x00\n      dup1\n      sload\n      swap1\n      0x0100\n      exp\n      swap1\n      div\n      0xffffffffffffffffffffffffffffffffffffffff\n      and\n        /* \"contracts/Aquaroom.sol\":2116:2125  newRental */\n      dup2\n        /* \"contracts/Aquaroom.sol\":2116:2132  newRental.renter */\n      0x0b\n      add\n      0x00\n        /* \"contracts/Aquaroom.sol\":2116:2140  newRental.renter = owner */\n      0x0100\n      exp\n      dup2\n      sload\n      dup2\n      0xffffffffffffffffffffffffffffffffffffffff\n      mul\n      not\n      and\n      swap1\n      dup4\n      0xffffffffffffffffffffffffffffffffffffffff\n      and\n      mul\n      or\n      swap1\n      sstore\n      pop\n        /* \"contracts/Aquaroom.sol\":2151:2160  rentalIds */\n      0x03\n        /* \"contracts/Aquaroom.sol\":2166:2173  counter */\n      sload(0x01)\n        /* \"contracts/Aquaroom.sol\":2151:2174  rentalIds.push(counter) */\n      swap1\n      dup1\n      0x01\n      dup2\n      sload\n      add\n      dup1\n      dup3\n      sstore\n      dup1\n      swap2\n      pop\n      pop\n      0x01\n      swap1\n      sub\n      swap1\n      0x00\n      mstore\n      keccak256(0x00, 0x20)\n      add\n      0x00\n      swap1\n      swap2\n      swap1\n      swap2\n      swap1\n      swap2\n      pop\n      sstore\n        /* \"contracts/Aquaroom.sol\":2192:2489  rentalCreated (\r... */\n      0xc06f078c3c74d235829af3e011ff5aae487c78ef8d3acca688417ed86ff14591\n        /* \"contracts/Aquaroom.sol\":2221:2225  name */\n      dup12\n        /* \"contracts/Aquaroom.sol\":2240:2244  city */\n      dup12\n        /* \"contracts/Aquaroom.sol\":2259:2262  lat */\n      dup12\n        /* \"contracts/Aquaroom.sol\":2277:2281  long */\n      dup12\n        /* \"contracts/Aquaroom.sol\":2296:2310  unoDescription */\n      dup12\n        /* \"contracts/Aquaroom.sol\":2325:2339  dosDescription */\n      dup12\n        /* \"contracts/Aquaroom.sol\":2354:2360  imgUrl */\n      dup12\n        /* \"contracts/Aquaroom.sol\":2375:2384  maxGuests */\n      dup12\n        /* \"contracts/Aquaroom.sol\":2399:2410  pricePerDay */\n      dup12\n        /* \"contracts/Aquaroom.sol\":2425:2436  datesBooked */\n      dup12\n        /* \"contracts/Aquaroom.sol\":2451:2458  counter */\n      sload(0x01)\n        /* \"contracts/Aquaroom.sol\":2473:2478  owner */\n      0x00\n      dup1\n      sload\n      swap1\n      0x0100\n      exp\n      swap1\n      div\n      0xffffffffffffffffffffffffffffffffffffffff\n      and\n        /* \"contracts/Aquaroom.sol\":2192:2489  rentalCreated (\r... */\n      mload(0x40)\n      tag_71\n      swap13\n      swap12\n      swap11\n      swap10\n      swap9\n      swap8\n      swap7\n      swap6\n      swap5\n      swap4\n      swap3\n      swap2\n      swap1\n      tag_72\n      jump\t// in\n    tag_71:\n      mload(0x40)\n      dup1\n      swap2\n      sub\n      swap1\n      log1\n        /* \"contracts/Aquaroom.sol\":2500:2507  counter */\n      0x01\n      0x00\n        /* \"contracts/Aquaroom.sol\":2500:2509  counter++ */\n      dup2\n      sload\n      dup1\n      swap3\n      swap2\n      swap1\n      tag_73\n      swap1\n      tag_52\n      jump\t// in\n    tag_73:\n      swap2\n      swap1\n      pop\n      sstore\n      pop\n        /* \"contracts/Aquaroom.sol\":1516:2517  {\r... */\n      pop\n        /* \"contracts/Aquaroom.sol\":1162:2517  function addRentels(\r... */\n      pop\n      pop\n      pop\n      pop\n      pop\n      pop\n      pop\n      pop\n      pop\n      pop\n      jump\t// out\n        /* \"contracts/Aquaroom.sol\":87:107  address public owner */\n    tag_17:\n      0x00\n      dup1\n      sload\n      swap1\n      0x0100\n      exp\n      swap1\n      div\n      0xffffffffffffffffffffffffffffffffffffffff\n      and\n      dup2\n      jump\t// out\n        /* \"contracts/Aquaroom.sol\":1127:1153  uint256[] public rentalIds */\n    tag_24:\n      0x03\n      dup2\n      dup2\n      sload\n      dup2\n      lt\n      tag_74\n      jumpi\n      0x00\n      dup1\n      revert\n    tag_74:\n      swap1\n      0x00\n      mstore\n      keccak256(0x00, 0x20)\n      add\n      0x00\n      swap2\n      pop\n      swap1\n      pop\n      sload\n      dup2\n      jump\t// out\n        /* \"contracts/Aquaroom.sol\":2525:2981  function checkBookings(uint256 id, string[] memory newBookings) private view returns (bool) {\r... */\n    tag_32:\n        /* \"contracts/Aquaroom.sol\":2611:2615  bool */\n      0x00\n        /* \"contracts/Aquaroom.sol\":2633:2639  uint i */\n      dup1\n        /* \"contracts/Aquaroom.sol\":2628:2952  for (uint i; i < newBookings.length; i++ ) {\r... */\n    tag_77:\n        /* \"contracts/Aquaroom.sol\":2645:2656  newBookings */\n      dup3\n        /* \"contracts/Aquaroom.sol\":2645:2663  newBookings.length */\n      mload\n        /* \"contracts/Aquaroom.sol\":2641:2642  i */\n      dup2\n        /* \"contracts/Aquaroom.sol\":2641:2663  i < newBookings.length */\n      lt\n        /* \"contracts/Aquaroom.sol\":2628:2952  for (uint i; i < newBookings.length; i++ ) {\r... */\n      iszero\n      tag_78\n      jumpi\n        /* \"contracts/Aquaroom.sol\":2691:2697  uint j */\n      0x00\n        /* \"contracts/Aquaroom.sol\":2686:2941  for (uint j = 0; j < rentals[id].datesBooked.length; j++) {\r... */\n    tag_80:\n        /* \"contracts/Aquaroom.sol\":2707:2714  rentals */\n      0x02\n        /* \"contracts/Aquaroom.sol\":2707:2718  rentals[id] */\n      0x00\n        /* \"contracts/Aquaroom.sol\":2715:2717  id */\n      dup7\n        /* \"contracts/Aquaroom.sol\":2707:2718  rentals[id] */\n      dup2\n      mstore\n      0x20\n      add\n      swap1\n      dup2\n      mstore\n      0x20\n      add\n      0x00\n      keccak256\n        /* \"contracts/Aquaroom.sol\":2707:2730  rentals[id].datesBooked */\n      0x09\n      add\n        /* \"contracts/Aquaroom.sol\":2707:2737  rentals[id].datesBooked.length */\n      dup1\n      sload\n      swap1\n      pop\n        /* \"contracts/Aquaroom.sol\":2703:2704  j */\n      dup2\n        /* \"contracts/Aquaroom.sol\":2703:2737  j < rentals[id].datesBooked.length */\n      lt\n        /* \"contracts/Aquaroom.sol\":2686:2941  for (uint j = 0; j < rentals[id].datesBooked.length; j++) {\r... */\n      iszero\n      tag_81\n      jumpi\n        /* \"contracts/Aquaroom.sol\":2853:2864  newBookings */\n      dup4\n        /* \"contracts/Aquaroom.sol\":2865:2866  i */\n      dup3\n        /* \"contracts/Aquaroom.sol\":2853:2867  newBookings[i] */\n      dup2\n      mload\n      dup2\n      lt\n      tag_83\n      jumpi\n      tag_84\n      tag_47\n      jump\t// in\n    tag_84:\n    tag_83:\n      0x20\n      mul\n      0x20\n      add\n      add\n      mload\n        /* \"contracts/Aquaroom.sol\":2836:2868  abi.encodePacked(newBookings[i]) */\n      add(0x20, mload(0x40))\n      tag_85\n      swap2\n      swap1\n      tag_86\n      jump\t// in\n    tag_85:\n      mload(0x40)\n      0x20\n      dup2\n      dup4\n      sub\n      sub\n      dup2\n      mstore\n      swap1\n      0x40\n      mstore\n        /* \"contracts/Aquaroom.sol\":2826:2869  keccak256(abi.encodePacked(newBookings[i])) */\n      dup1\n      mload\n      swap1\n      0x20\n      add\n      keccak256\n        /* \"contracts/Aquaroom.sol\":2794:2801  rentals */\n      0x02\n        /* \"contracts/Aquaroom.sol\":2794:2805  rentals[id] */\n      0x00\n        /* \"contracts/Aquaroom.sol\":2802:2804  id */\n      dup8\n        /* \"contracts/Aquaroom.sol\":2794:2805  rentals[id] */\n      dup2\n      mstore\n      0x20\n      add\n      swap1\n      dup2\n      mstore\n      0x20\n      add\n      0x00\n      keccak256\n        /* \"contracts/Aquaroom.sol\":2794:2817  rentals[id].datesBooked */\n      0x09\n      add\n        /* \"contracts/Aquaroom.sol\":2818:2819  j */\n      dup3\n        /* \"contracts/Aquaroom.sol\":2794:2820  rentals[id].datesBooked[j] */\n      dup2\n      sload\n      dup2\n      lt\n      tag_87\n      jumpi\n      tag_88\n      tag_47\n      jump\t// in\n    tag_88:\n    tag_87:\n      swap1\n      0x00\n      mstore\n      keccak256(0x00, 0x20)\n      add\n        /* \"contracts/Aquaroom.sol\":2777:2821  abi.encodePacked(rentals[id].datesBooked[j]) */\n      add(0x20, mload(0x40))\n      tag_90\n      swap2\n      swap1\n      tag_91\n      jump\t// in\n    tag_90:\n      mload(0x40)\n      0x20\n      dup2\n      dup4\n      sub\n      sub\n      dup2\n      mstore\n      swap1\n      0x40\n      mstore\n        /* \"contracts/Aquaroom.sol\":2767:2822  keccak256(abi.encodePacked(rentals[id].datesBooked[j])) */\n      dup1\n      mload\n      swap1\n      0x20\n      add\n      keccak256\n        /* \"contracts/Aquaroom.sol\":2767:2869  keccak256(abi.encodePacked(rentals[id].datesBooked[j])) == keccak256(abi.encodePacked(newBookings[i])) */\n      eq\n        /* \"contracts/Aquaroom.sol\":2763:2926  if (keccak256(abi.encodePacked(rentals[id].datesBooked[j])) == keccak256(abi.encodePacked(newBookings[i]))) {\r... */\n      iszero\n      tag_92\n      jumpi\n        /* \"contracts/Aquaroom.sol\":2901:2906  false */\n      0x00\n        /* \"contracts/Aquaroom.sol\":2894:2906  return false */\n      swap3\n      pop\n      pop\n      pop\n      jump(tag_76)\n        /* \"contracts/Aquaroom.sol\":2763:2926  if (keccak256(abi.encodePacked(rentals[id].datesBooked[j])) == keccak256(abi.encodePacked(newBookings[i]))) {\r... */\n    tag_92:\n        /* \"contracts/Aquaroom.sol\":2739:2742  j++ */\n      dup1\n      dup1\n      tag_93\n      swap1\n      tag_52\n      jump\t// in\n    tag_93:\n      swap2\n      pop\n      pop\n        /* \"contracts/Aquaroom.sol\":2686:2941  for (uint j = 0; j < rentals[id].datesBooked.length; j++) {\r... */\n      jump(tag_80)\n    tag_81:\n      pop\n        /* \"contracts/Aquaroom.sol\":2665:2668  i++ */\n      dup1\n      dup1\n      tag_94\n      swap1\n      tag_52\n      jump\t// in\n    tag_94:\n      swap2\n      pop\n      pop\n        /* \"contracts/Aquaroom.sol\":2628:2952  for (uint i; i < newBookings.length; i++ ) {\r... */\n      jump(tag_77)\n    tag_78:\n      pop\n        /* \"contracts/Aquaroom.sol\":2969:2973  true */\n      0x01\n        /* \"contracts/Aquaroom.sol\":2962:2973  return true */\n      swap1\n      pop\n        /* \"contracts/Aquaroom.sol\":2525:2981  function checkBookings(uint256 id, string[] memory newBookings) private view returns (bool) {\r... */\n    tag_76:\n      swap3\n      swap2\n      pop\n      pop\n      jump\t// out\n    tag_50:\n      dup3\n      dup1\n      sload\n      tag_95\n      swap1\n      tag_96\n      jump\t// in\n    tag_95:\n      swap1\n      0x00\n      mstore\n      keccak256(0x00, 0x20)\n      swap1\n      0x1f\n      add\n      0x20\n      swap1\n      div\n      dup2\n      add\n      swap3\n      dup3\n      tag_98\n      jumpi\n      0x00\n      dup6\n      sstore\n      jump(tag_97)\n    tag_98:\n      dup3\n      0x1f\n      lt\n      tag_99\n      jumpi\n      dup1\n      mload\n      not(0xff)\n      and\n      dup4\n      dup1\n      add\n      or\n      dup6\n      sstore\n      jump(tag_97)\n    tag_99:\n      dup3\n      dup1\n      add\n      0x01\n      add\n      dup6\n      sstore\n      dup3\n      iszero\n      tag_97\n      jumpi\n      swap2\n      dup3\n      add\n    tag_100:\n      dup3\n      dup2\n      gt\n      iszero\n      tag_101\n      jumpi\n      dup3\n      mload\n      dup3\n      sstore\n      swap2\n      0x20\n      add\n      swap2\n      swap1\n      0x01\n      add\n      swap1\n      jump(tag_100)\n    tag_101:\n    tag_97:\n      pop\n      swap1\n      pop\n      tag_102\n      swap2\n      swap1\n      tag_103\n      jump\t// in\n    tag_102:\n      pop\n      swap1\n      jump\t// out\n    tag_69:\n      dup3\n      dup1\n      sload\n      dup3\n      dup3\n      sstore\n      swap1\n      0x00\n      mstore\n      keccak256(0x00, 0x20)\n      swap1\n      dup2\n      add\n      swap3\n      dup3\n      iszero\n      tag_104\n      jumpi\n      swap2\n      0x20\n      mul\n      dup3\n      add\n    tag_105:\n      dup3\n      dup2\n      gt\n      iszero\n      tag_106\n      jumpi\n      dup3\n      mload\n      dup3\n      swap1\n      dup1\n      mload\n      swap1\n      0x20\n      add\n      swap1\n      tag_107\n      swap3\n      swap2\n      swap1\n      tag_50\n      jump\t// in\n    tag_107:\n      pop\n      swap2\n      0x20\n      add\n      swap2\n      swap1\n      0x01\n      add\n      swap1\n      jump(tag_105)\n    tag_106:\n    tag_104:\n      pop\n      swap1\n      pop\n      tag_108\n      swap2\n      swap1\n      tag_109\n      jump\t// in\n    tag_108:\n      pop\n      swap1\n      jump\t// out\n    tag_103:\n    tag_110:\n      dup1\n      dup3\n      gt\n      iszero\n      tag_111\n      jumpi\n      0x00\n      dup2\n      0x00\n      swap1\n      sstore\n      pop\n      0x01\n      add\n      jump(tag_110)\n    tag_111:\n      pop\n      swap1\n      jump\t// out\n    tag_109:\n    tag_112:\n      dup1\n      dup3\n      gt\n      iszero\n      tag_113\n      jumpi\n      0x00\n      dup2\n      dup2\n      tag_114\n      swap2\n      swap1\n      tag_115\n      jump\t// in\n    tag_114:\n      pop\n      0x01\n      add\n      jump(tag_112)\n    tag_113:\n      pop\n      swap1\n      jump\t// out\n    tag_115:\n      pop\n      dup1\n      sload\n      tag_116\n      swap1\n      tag_96\n      jump\t// in\n    tag_116:\n      0x00\n      dup3\n      sstore\n      dup1\n      0x1f\n      lt\n      tag_118\n      jumpi\n      pop\n      jump(tag_117)\n    tag_118:\n      0x1f\n      add\n      0x20\n      swap1\n      div\n      swap1\n      0x00\n      mstore\n      keccak256(0x00, 0x20)\n      swap1\n      dup2\n      add\n      swap1\n      tag_119\n      swap2\n      swap1\n      tag_103\n      jump\t// in\n    tag_119:\n    tag_117:\n      pop\n      jump\t// out\n        /* \"#utility.yul\":23:980   */\n    tag_121:\n        /* \"#utility.yul\":129:134   */\n      0x00\n        /* \"#utility.yul\":154:245   */\n      tag_123\n        /* \"#utility.yul\":170:244   */\n      tag_124\n        /* \"#utility.yul\":237:243   */\n      dup5\n        /* \"#utility.yul\":170:244   */\n      tag_125\n      jump\t// in\n    tag_124:\n        /* \"#utility.yul\":154:245   */\n      tag_126\n      jump\t// in\n    tag_123:\n        /* \"#utility.yul\":145:245   */\n      swap1\n      pop\n        /* \"#utility.yul\":265:270   */\n      dup1\n        /* \"#utility.yul\":294:300   */\n      dup4\n        /* \"#utility.yul\":287:292   */\n      dup3\n        /* \"#utility.yul\":280:301   */\n      mstore\n        /* \"#utility.yul\":328:332   */\n      0x20\n        /* \"#utility.yul\":321:326   */\n      dup3\n        /* \"#utility.yul\":317:333   */\n      add\n        /* \"#utility.yul\":310:333   */\n      swap1\n      pop\n        /* \"#utility.yul\":354:360   */\n      dup3\n        /* \"#utility.yul\":404:407   */\n      dup6\n        /* \"#utility.yul\":396:400   */\n      0x20\n        /* \"#utility.yul\":388:394   */\n      dup7\n        /* \"#utility.yul\":384:401   */\n      mul\n        /* \"#utility.yul\":379:382   */\n      dup3\n        /* \"#utility.yul\":375:402   */\n      add\n        /* \"#utility.yul\":372:408   */\n      gt\n        /* \"#utility.yul\":369:512   */\n      iszero\n      tag_127\n      jumpi\n        /* \"#utility.yul\":423:502   */\n      tag_128\n      tag_129\n      jump\t// in\n    tag_128:\n        /* \"#utility.yul\":369:512   */\n    tag_127:\n        /* \"#utility.yul\":536:537   */\n      0x00\n        /* \"#utility.yul\":521:974   */\n    tag_130:\n        /* \"#utility.yul\":546:552   */\n      dup6\n        /* \"#utility.yul\":543:544   */\n      dup2\n        /* \"#utility.yul\":540:553   */\n      lt\n        /* \"#utility.yul\":521:974   */\n      iszero\n      tag_132\n      jumpi\n        /* \"#utility.yul\":628:631   */\n      dup2\n        /* \"#utility.yul\":615:632   */\n      calldataload\n        /* \"#utility.yul\":664:682   */\n      0xffffffffffffffff\n        /* \"#utility.yul\":651:662   */\n      dup2\n        /* \"#utility.yul\":648:683   */\n      gt\n        /* \"#utility.yul\":645:767   */\n      iszero\n      tag_133\n      jumpi\n        /* \"#utility.yul\":686:765   */\n      tag_134\n      tag_135\n      jump\t// in\n    tag_134:\n        /* \"#utility.yul\":645:767   */\n    tag_133:\n        /* \"#utility.yul\":810:821   */\n      dup1\n        /* \"#utility.yul\":802:808   */\n      dup7\n        /* \"#utility.yul\":798:822   */\n      add\n        /* \"#utility.yul\":848:895   */\n      tag_136\n        /* \"#utility.yul\":891:894   */\n      dup10\n        /* \"#utility.yul\":879:889   */\n      dup3\n        /* \"#utility.yul\":848:895   */\n      tag_137\n      jump\t// in\n    tag_136:\n        /* \"#utility.yul\":843:846   */\n      dup6\n        /* \"#utility.yul\":836:896   */\n      mstore\n        /* \"#utility.yul\":925:929   */\n      0x20\n        /* \"#utility.yul\":920:923   */\n      dup6\n        /* \"#utility.yul\":916:930   */\n      add\n        /* \"#utility.yul\":909:930   */\n      swap5\n      pop\n        /* \"#utility.yul\":959:963   */\n      0x20\n        /* \"#utility.yul\":954:957   */\n      dup5\n        /* \"#utility.yul\":950:964   */\n      add\n        /* \"#utility.yul\":943:964   */\n      swap4\n      pop\n        /* \"#utility.yul\":581:974   */\n      pop\n      pop\n        /* \"#utility.yul\":568:569   */\n      0x01\n        /* \"#utility.yul\":565:566   */\n      dup2\n        /* \"#utility.yul\":561:570   */\n      add\n        /* \"#utility.yul\":556:570   */\n      swap1\n      pop\n        /* \"#utility.yul\":521:974   */\n      jump(tag_130)\n    tag_132:\n        /* \"#utility.yul\":525:539   */\n      pop\n        /* \"#utility.yul\":135:980   */\n      pop\n      pop\n        /* \"#utility.yul\":23:980   */\n      swap4\n      swap3\n      pop\n      pop\n      pop\n      jump\t// out\n        /* \"#utility.yul\":986:1398   */\n    tag_138:\n        /* \"#utility.yul\":1064:1069   */\n      0x00\n        /* \"#utility.yul\":1089:1155   */\n      tag_140\n        /* \"#utility.yul\":1105:1154   */\n      tag_141\n        /* \"#utility.yul\":1147:1153   */\n      dup5\n        /* \"#utility.yul\":1105:1154   */\n      tag_142\n      jump\t// in\n    tag_141:\n        /* \"#utility.yul\":1089:1155   */\n      tag_126\n      jump\t// in\n    tag_140:\n        /* \"#utility.yul\":1080:1155   */\n      swap1\n      pop\n        /* \"#utility.yul\":1178:1184   */\n      dup3\n        /* \"#utility.yul\":1171:1176   */\n      dup2\n        /* \"#utility.yul\":1164:1185   */\n      mstore\n        /* \"#utility.yul\":1216:1220   */\n      0x20\n        /* \"#utility.yul\":1209:1214   */\n      dup2\n        /* \"#utility.yul\":1205:1221   */\n      add\n        /* \"#utility.yul\":1254:1257   */\n      dup5\n        /* \"#utility.yul\":1245:1251   */\n      dup5\n        /* \"#utility.yul\":1240:1243   */\n      dup5\n        /* \"#utility.yul\":1236:1252   */\n      add\n        /* \"#utility.yul\":1233:1258   */\n      gt\n        /* \"#utility.yul\":1230:1342   */\n      iszero\n      tag_143\n      jumpi\n        /* \"#utility.yul\":1261:1340   */\n      tag_144\n      tag_145\n      jump\t// in\n    tag_144:\n        /* \"#utility.yul\":1230:1342   */\n    tag_143:\n        /* \"#utility.yul\":1351:1392   */\n      tag_146\n        /* \"#utility.yul\":1385:1391   */\n      dup5\n        /* \"#utility.yul\":1380:1383   */\n      dup3\n        /* \"#utility.yul\":1375:1378   */\n      dup6\n        /* \"#utility.yul\":1351:1392   */\n      tag_147\n      jump\t// in\n    tag_146:\n        /* \"#utility.yul\":1070:1398   */\n      pop\n        /* \"#utility.yul\":986:1398   */\n      swap4\n      swap3\n      pop\n      pop\n      pop\n      jump\t// out\n        /* \"#utility.yul\":1420:1810   */\n    tag_148:\n        /* \"#utility.yul\":1501:1506   */\n      0x00\n        /* \"#utility.yul\":1550:1553   */\n      dup3\n        /* \"#utility.yul\":1543:1547   */\n      0x1f\n        /* \"#utility.yul\":1535:1541   */\n      dup4\n        /* \"#utility.yul\":1531:1548   */\n      add\n        /* \"#utility.yul\":1527:1554   */\n      slt\n        /* \"#utility.yul\":1517:1639   */\n      tag_150\n      jumpi\n        /* \"#utility.yul\":1558:1637   */\n      tag_151\n      tag_135\n      jump\t// in\n    tag_151:\n        /* \"#utility.yul\":1517:1639   */\n    tag_150:\n        /* \"#utility.yul\":1675:1681   */\n      dup2\n        /* \"#utility.yul\":1662:1682   */\n      calldataload\n        /* \"#utility.yul\":1700:1804   */\n      tag_152\n        /* \"#utility.yul\":1800:1803   */\n      dup5\n        /* \"#utility.yul\":1792:1798   */\n      dup3\n        /* \"#utility.yul\":1785:1789   */\n      0x20\n        /* \"#utility.yul\":1777:1783   */\n      dup7\n        /* \"#utility.yul\":1773:1790   */\n      add\n        /* \"#utility.yul\":1700:1804   */\n      tag_121\n      jump\t// in\n    tag_152:\n        /* \"#utility.yul\":1691:1804   */\n      swap2\n      pop\n        /* \"#utility.yul\":1507:1810   */\n      pop\n        /* \"#utility.yul\":1420:1810   */\n      swap3\n      swap2\n      pop\n      pop\n      jump\t// out\n        /* \"#utility.yul\":1830:2170   */\n    tag_137:\n        /* \"#utility.yul\":1886:1891   */\n      0x00\n        /* \"#utility.yul\":1935:1938   */\n      dup3\n        /* \"#utility.yul\":1928:1932   */\n      0x1f\n        /* \"#utility.yul\":1920:1926   */\n      dup4\n        /* \"#utility.yul\":1916:1933   */\n      add\n        /* \"#utility.yul\":1912:1939   */\n      slt\n        /* \"#utility.yul\":1902:2024   */\n      tag_154\n      jumpi\n        /* \"#utility.yul\":1943:2022   */\n      tag_155\n      tag_135\n      jump\t// in\n    tag_155:\n        /* \"#utility.yul\":1902:2024   */\n    tag_154:\n        /* \"#utility.yul\":2060:2066   */\n      dup2\n        /* \"#utility.yul\":2047:2067   */\n      calldataload\n        /* \"#utility.yul\":2085:2164   */\n      tag_156\n        /* \"#utility.yul\":2160:2163   */\n      dup5\n        /* \"#utility.yul\":2152:2158   */\n      dup3\n        /* \"#utility.yul\":2145:2149   */\n      0x20\n        /* \"#utility.yul\":2137:2143   */\n      dup7\n        /* \"#utility.yul\":2133:2150   */\n      add\n        /* \"#utility.yul\":2085:2164   */\n      tag_138\n      jump\t// in\n    tag_156:\n        /* \"#utility.yul\":2076:2164   */\n      swap2\n      pop\n        /* \"#utility.yul\":1892:2170   */\n      pop\n        /* \"#utility.yul\":1830:2170   */\n      swap3\n      swap2\n      pop\n      pop\n      jump\t// out\n        /* \"#utility.yul\":2176:2315   */\n    tag_157:\n        /* \"#utility.yul\":2222:2227   */\n      0x00\n        /* \"#utility.yul\":2260:2266   */\n      dup2\n        /* \"#utility.yul\":2247:2267   */\n      calldataload\n        /* \"#utility.yul\":2238:2267   */\n      swap1\n      pop\n        /* \"#utility.yul\":2276:2309   */\n      tag_159\n        /* \"#utility.yul\":2303:2308   */\n      dup2\n        /* \"#utility.yul\":2276:2309   */\n      tag_160\n      jump\t// in\n    tag_159:\n        /* \"#utility.yul\":2176:2315   */\n      swap3\n      swap2\n      pop\n      pop\n      jump\t// out\n        /* \"#utility.yul\":2321:5452   */\n    tag_13:\n        /* \"#utility.yul\":2566:2572   */\n      0x00\n        /* \"#utility.yul\":2574:2580   */\n      dup1\n        /* \"#utility.yul\":2582:2588   */\n      0x00\n        /* \"#utility.yul\":2590:2596   */\n      dup1\n        /* \"#utility.yul\":2598:2604   */\n      0x00\n        /* \"#utility.yul\":2606:2612   */\n      dup1\n        /* \"#utility.yul\":2614:2620   */\n      0x00\n        /* \"#utility.yul\":2622:2628   */\n      dup1\n        /* \"#utility.yul\":2630:2636   */\n      0x00\n        /* \"#utility.yul\":2638:2644   */\n      dup1\n        /* \"#utility.yul\":2687:2690   */\n      0x0140\n        /* \"#utility.yul\":2675:2684   */\n      dup12\n        /* \"#utility.yul\":2666:2673   */\n      dup14\n        /* \"#utility.yul\":2662:2685   */\n      sub\n        /* \"#utility.yul\":2658:2691   */\n      slt\n        /* \"#utility.yul\":2655:2775   */\n      iszero\n      tag_162\n      jumpi\n        /* \"#utility.yul\":2694:2773   */\n      tag_163\n      tag_164\n      jump\t// in\n    tag_163:\n        /* \"#utility.yul\":2655:2775   */\n    tag_162:\n        /* \"#utility.yul\":2842:2843   */\n      0x00\n        /* \"#utility.yul\":2831:2840   */\n      dup12\n        /* \"#utility.yul\":2827:2844   */\n      add\n        /* \"#utility.yul\":2814:2845   */\n      calldataload\n        /* \"#utility.yul\":2872:2890   */\n      0xffffffffffffffff\n        /* \"#utility.yul\":2864:2870   */\n      dup2\n        /* \"#utility.yul\":2861:2891   */\n      gt\n        /* \"#utility.yul\":2858:2975   */\n      iszero\n      tag_165\n      jumpi\n        /* \"#utility.yul\":2894:2973   */\n      tag_166\n      tag_167\n      jump\t// in\n    tag_166:\n        /* \"#utility.yul\":2858:2975   */\n    tag_165:\n        /* \"#utility.yul\":2999:3062   */\n      tag_168\n        /* \"#utility.yul\":3054:3061   */\n      dup14\n        /* \"#utility.yul\":3045:3051   */\n      dup3\n        /* \"#utility.yul\":3034:3043   */\n      dup15\n        /* \"#utility.yul\":3030:3052   */\n      add\n        /* \"#utility.yul\":2999:3062   */\n      tag_137\n      jump\t// in\n    tag_168:\n        /* \"#utility.yul\":2989:3062   */\n      swap11\n      pop\n        /* \"#utility.yul\":2785:3072   */\n      pop\n        /* \"#utility.yul\":3139:3141   */\n      0x20\n        /* \"#utility.yul\":3128:3137   */\n      dup12\n        /* \"#utility.yul\":3124:3142   */\n      add\n        /* \"#utility.yul\":3111:3143   */\n      calldataload\n        /* \"#utility.yul\":3170:3188   */\n      0xffffffffffffffff\n        /* \"#utility.yul\":3162:3168   */\n      dup2\n        /* \"#utility.yul\":3159:3189   */\n      gt\n        /* \"#utility.yul\":3156:3273   */\n      iszero\n      tag_169\n      jumpi\n        /* \"#utility.yul\":3192:3271   */\n      tag_170\n      tag_167\n      jump\t// in\n    tag_170:\n        /* \"#utility.yul\":3156:3273   */\n    tag_169:\n        /* \"#utility.yul\":3297:3360   */\n      tag_171\n        /* \"#utility.yul\":3352:3359   */\n      dup14\n        /* \"#utility.yul\":3343:3349   */\n      dup3\n        /* \"#utility.yul\":3332:3341   */\n      dup15\n        /* \"#utility.yul\":3328:3350   */\n      add\n        /* \"#utility.yul\":3297:3360   */\n      tag_137\n      jump\t// in\n    tag_171:\n        /* \"#utility.yul\":3287:3360   */\n      swap10\n      pop\n        /* \"#utility.yul\":3082:3370   */\n      pop\n        /* \"#utility.yul\":3437:3439   */\n      0x40\n        /* \"#utility.yul\":3426:3435   */\n      dup12\n        /* \"#utility.yul\":3422:3440   */\n      add\n        /* \"#utility.yul\":3409:3441   */\n      calldataload\n        /* \"#utility.yul\":3468:3486   */\n      0xffffffffffffffff\n        /* \"#utility.yul\":3460:3466   */\n      dup2\n        /* \"#utility.yul\":3457:3487   */\n      gt\n        /* \"#utility.yul\":3454:3571   */\n      iszero\n      tag_172\n      jumpi\n        /* \"#utility.yul\":3490:3569   */\n      tag_173\n      tag_167\n      jump\t// in\n    tag_173:\n        /* \"#utility.yul\":3454:3571   */\n    tag_172:\n        /* \"#utility.yul\":3595:3658   */\n      tag_174\n        /* \"#utility.yul\":3650:3657   */\n      dup14\n        /* \"#utility.yul\":3641:3647   */\n      dup3\n        /* \"#utility.yul\":3630:3639   */\n      dup15\n        /* \"#utility.yul\":3626:3648   */\n      add\n        /* \"#utility.yul\":3595:3658   */\n      tag_137\n      jump\t// in\n    tag_174:\n        /* \"#utility.yul\":3585:3658   */\n      swap9\n      pop\n        /* \"#utility.yul\":3380:3668   */\n      pop\n        /* \"#utility.yul\":3735:3737   */\n      0x60\n        /* \"#utility.yul\":3724:3733   */\n      dup12\n        /* \"#utility.yul\":3720:3738   */\n      add\n        /* \"#utility.yul\":3707:3739   */\n      calldataload\n        /* \"#utility.yul\":3766:3784   */\n      0xffffffffffffffff\n        /* \"#utility.yul\":3758:3764   */\n      dup2\n        /* \"#utility.yul\":3755:3785   */\n      gt\n        /* \"#utility.yul\":3752:3869   */\n      iszero\n      tag_175\n      jumpi\n        /* \"#utility.yul\":3788:3867   */\n      tag_176\n      tag_167\n      jump\t// in\n    tag_176:\n        /* \"#utility.yul\":3752:3869   */\n    tag_175:\n        /* \"#utility.yul\":3893:3956   */\n      tag_177\n        /* \"#utility.yul\":3948:3955   */\n      dup14\n        /* \"#utility.yul\":3939:3945   */\n      dup3\n        /* \"#utility.yul\":3928:3937   */\n      dup15\n        /* \"#utility.yul\":3924:3946   */\n      add\n        /* \"#utility.yul\":3893:3956   */\n      tag_137\n      jump\t// in\n    tag_177:\n        /* \"#utility.yul\":3883:3956   */\n      swap8\n      pop\n        /* \"#utility.yul\":3678:3966   */\n      pop\n        /* \"#utility.yul\":4033:4036   */\n      0x80\n        /* \"#utility.yul\":4022:4031   */\n      dup12\n        /* \"#utility.yul\":4018:4037   */\n      add\n        /* \"#utility.yul\":4005:4038   */\n      calldataload\n        /* \"#utility.yul\":4065:4083   */\n      0xffffffffffffffff\n        /* \"#utility.yul\":4057:4063   */\n      dup2\n        /* \"#utility.yul\":4054:4084   */\n      gt\n        /* \"#utility.yul\":4051:4168   */\n      iszero\n      tag_178\n      jumpi\n        /* \"#utility.yul\":4087:4166   */\n      tag_179\n      tag_167\n      jump\t// in\n    tag_179:\n        /* \"#utility.yul\":4051:4168   */\n    tag_178:\n        /* \"#utility.yul\":4192:4255   */\n      tag_180\n        /* \"#utility.yul\":4247:4254   */\n      dup14\n        /* \"#utility.yul\":4238:4244   */\n      dup3\n        /* \"#utility.yul\":4227:4236   */\n      dup15\n        /* \"#utility.yul\":4223:4245   */\n      add\n        /* \"#utility.yul\":4192:4255   */\n      tag_137\n      jump\t// in\n    tag_180:\n        /* \"#utility.yul\":4182:4255   */\n      swap7\n      pop\n        /* \"#utility.yul\":3976:4265   */\n      pop\n        /* \"#utility.yul\":4332:4335   */\n      0xa0\n        /* \"#utility.yul\":4321:4330   */\n      dup12\n        /* \"#utility.yul\":4317:4336   */\n      add\n        /* \"#utility.yul\":4304:4337   */\n      calldataload\n        /* \"#utility.yul\":4364:4382   */\n      0xffffffffffffffff\n        /* \"#utility.yul\":4356:4362   */\n      dup2\n        /* \"#utility.yul\":4353:4383   */\n      gt\n        /* \"#utility.yul\":4350:4467   */\n      iszero\n      tag_181\n      jumpi\n        /* \"#utility.yul\":4386:4465   */\n      tag_182\n      tag_167\n      jump\t// in\n    tag_182:\n        /* \"#utility.yul\":4350:4467   */\n    tag_181:\n        /* \"#utility.yul\":4491:4554   */\n      tag_183\n        /* \"#utility.yul\":4546:4553   */\n      dup14\n        /* \"#utility.yul\":4537:4543   */\n      dup3\n        /* \"#utility.yul\":4526:4535   */\n      dup15\n        /* \"#utility.yul\":4522:4544   */\n      add\n        /* \"#utility.yul\":4491:4554   */\n      tag_137\n      jump\t// in\n    tag_183:\n        /* \"#utility.yul\":4481:4554   */\n      swap6\n      pop\n        /* \"#utility.yul\":4275:4564   */\n      pop\n        /* \"#utility.yul\":4631:4634   */\n      0xc0\n        /* \"#utility.yul\":4620:4629   */\n      dup12\n        /* \"#utility.yul\":4616:4635   */\n      add\n        /* \"#utility.yul\":4603:4636   */\n      calldataload\n        /* \"#utility.yul\":4663:4681   */\n      0xffffffffffffffff\n        /* \"#utility.yul\":4655:4661   */\n      dup2\n        /* \"#utility.yul\":4652:4682   */\n      gt\n        /* \"#utility.yul\":4649:4766   */\n      iszero\n      tag_184\n      jumpi\n        /* \"#utility.yul\":4685:4764   */\n      tag_185\n      tag_167\n      jump\t// in\n    tag_185:\n        /* \"#utility.yul\":4649:4766   */\n    tag_184:\n        /* \"#utility.yul\":4790:4853   */\n      tag_186\n        /* \"#utility.yul\":4845:4852   */\n      dup14\n        /* \"#utility.yul\":4836:4842   */\n      dup3\n        /* \"#utility.yul\":4825:4834   */\n      dup15\n        /* \"#utility.yul\":4821:4843   */\n      add\n        /* \"#utility.yul\":4790:4853   */\n      tag_137\n      jump\t// in\n    tag_186:\n        /* \"#utility.yul\":4780:4853   */\n      swap5\n      pop\n        /* \"#utility.yul\":4574:4863   */\n      pop\n        /* \"#utility.yul\":4902:4905   */\n      0xe0\n        /* \"#utility.yul\":4929:4982   */\n      tag_187\n        /* \"#utility.yul\":4974:4981   */\n      dup14\n        /* \"#utility.yul\":4965:4971   */\n      dup3\n        /* \"#utility.yul\":4954:4963   */\n      dup15\n        /* \"#utility.yul\":4950:4972   */\n      add\n        /* \"#utility.yul\":4929:4982   */\n      tag_157\n      jump\t// in\n    tag_187:\n        /* \"#utility.yul\":4919:4982   */\n      swap4\n      pop\n        /* \"#utility.yul\":4873:4992   */\n      pop\n        /* \"#utility.yul\":5031:5034   */\n      0x0100\n        /* \"#utility.yul\":5058:5111   */\n      tag_188\n        /* \"#utility.yul\":5103:5110   */\n      dup14\n        /* \"#utility.yul\":5094:5100   */\n      dup3\n        /* \"#utility.yul\":5083:5092   */\n      dup15\n        /* \"#utility.yul\":5079:5101   */\n      add\n        /* \"#utility.yul\":5058:5111   */\n      tag_157\n      jump\t// in\n    tag_188:\n        /* \"#utility.yul\":5048:5111   */\n      swap3\n      pop\n        /* \"#utility.yul\":5002:5121   */\n      pop\n        /* \"#utility.yul\":5188:5191   */\n      0x0120\n        /* \"#utility.yul\":5177:5186   */\n      dup12\n        /* \"#utility.yul\":5173:5192   */\n      add\n        /* \"#utility.yul\":5160:5193   */\n      calldataload\n        /* \"#utility.yul\":5220:5238   */\n      0xffffffffffffffff\n        /* \"#utility.yul\":5212:5218   */\n      dup2\n        /* \"#utility.yul\":5209:5239   */\n      gt\n        /* \"#utility.yul\":5206:5323   */\n      iszero\n      tag_189\n      jumpi\n        /* \"#utility.yul\":5242:5321   */\n      tag_190\n      tag_167\n      jump\t// in\n    tag_190:\n        /* \"#utility.yul\":5206:5323   */\n    tag_189:\n        /* \"#utility.yul\":5347:5435   */\n      tag_191\n        /* \"#utility.yul\":5427:5434   */\n      dup14\n        /* \"#utility.yul\":5418:5424   */\n      dup3\n        /* \"#utility.yul\":5407:5416   */\n      dup15\n        /* \"#utility.yul\":5403:5425   */\n      add\n        /* \"#utility.yul\":5347:5435   */\n      tag_148\n      jump\t// in\n    tag_191:\n        /* \"#utility.yul\":5337:5435   */\n      swap2\n      pop\n        /* \"#utility.yul\":5131:5445   */\n      pop\n        /* \"#utility.yul\":2321:5452   */\n      swap3\n      swap6\n      swap9\n      swap12\n      swap2\n      swap5\n      swap8\n      swap11\n      pop\n      swap3\n      swap6\n      swap9\n      pop\n      jump\t// out\n        /* \"#utility.yul\":5458:5787   */\n    tag_23:\n        /* \"#utility.yul\":5517:5523   */\n      0x00\n        /* \"#utility.yul\":5566:5568   */\n      0x20\n        /* \"#utility.yul\":5554:5563   */\n      dup3\n        /* \"#utility.yul\":5545:5552   */\n      dup5\n        /* \"#utility.yul\":5541:5564   */\n      sub\n        /* \"#utility.yul\":5537:5569   */\n      slt\n        /* \"#utility.yul\":5534:5653   */\n      iszero\n      tag_193\n      jumpi\n        /* \"#utility.yul\":5572:5651   */\n      tag_194\n      tag_164\n      jump\t// in\n    tag_194:\n        /* \"#utility.yul\":5534:5653   */\n    tag_193:\n        /* \"#utility.yul\":5692:5693   */\n      0x00\n        /* \"#utility.yul\":5717:5770   */\n      tag_195\n        /* \"#utility.yul\":5762:5769   */\n      dup5\n        /* \"#utility.yul\":5753:5759   */\n      dup3\n        /* \"#utility.yul\":5742:5751   */\n      dup6\n        /* \"#utility.yul\":5738:5760   */\n      add\n        /* \"#utility.yul\":5717:5770   */\n      tag_157\n      jump\t// in\n    tag_195:\n        /* \"#utility.yul\":5707:5770   */\n      swap2\n      pop\n        /* \"#utility.yul\":5663:5780   */\n      pop\n        /* \"#utility.yul\":5458:5787   */\n      swap3\n      swap2\n      pop\n      pop\n      jump\t// out\n        /* \"#utility.yul\":5793:6497   */\n    tag_8:\n        /* \"#utility.yul\":5896:5902   */\n      0x00\n        /* \"#utility.yul\":5904:5910   */\n      dup1\n        /* \"#utility.yul\":5953:5955   */\n      0x40\n        /* \"#utility.yul\":5941:5950   */\n      dup4\n        /* \"#utility.yul\":5932:5939   */\n      dup6\n        /* \"#utility.yul\":5928:5951   */\n      sub\n        /* \"#utility.yul\":5924:5956   */\n      slt\n        /* \"#utility.yul\":5921:6040   */\n      iszero\n      tag_197\n      jumpi\n        /* \"#utility.yul\":5959:6038   */\n      tag_198\n      tag_164\n      jump\t// in\n    tag_198:\n        /* \"#utility.yul\":5921:6040   */\n    tag_197:\n        /* \"#utility.yul\":6079:6080   */\n      0x00\n        /* \"#utility.yul\":6104:6157   */\n      tag_199\n        /* \"#utility.yul\":6149:6156   */\n      dup6\n        /* \"#utility.yul\":6140:6146   */\n      dup3\n        /* \"#utility.yul\":6129:6138   */\n      dup7\n        /* \"#utility.yul\":6125:6147   */\n      add\n        /* \"#utility.yul\":6104:6157   */\n      tag_157\n      jump\t// in\n    tag_199:\n        /* \"#utility.yul\":6094:6157   */\n      swap3\n      pop\n        /* \"#utility.yul\":6050:6167   */\n      pop\n        /* \"#utility.yul\":6234:6236   */\n      0x20\n        /* \"#utility.yul\":6223:6232   */\n      dup4\n        /* \"#utility.yul\":6219:6237   */\n      add\n        /* \"#utility.yul\":6206:6238   */\n      calldataload\n        /* \"#utility.yul\":6265:6283   */\n      0xffffffffffffffff\n        /* \"#utility.yul\":6257:6263   */\n      dup2\n        /* \"#utility.yul\":6254:6284   */\n      gt\n        /* \"#utility.yul\":6251:6368   */\n      iszero\n      tag_200\n      jumpi\n        /* \"#utility.yul\":6287:6366   */\n      tag_201\n      tag_167\n      jump\t// in\n    tag_201:\n        /* \"#utility.yul\":6251:6368   */\n    tag_200:\n        /* \"#utility.yul\":6392:6480   */\n      tag_202\n        /* \"#utility.yul\":6472:6479   */\n      dup6\n        /* \"#utility.yul\":6463:6469   */\n      dup3\n        /* \"#utility.yul\":6452:6461   */\n      dup7\n        /* \"#utility.yul\":6448:6470   */\n      add\n        /* \"#utility.yul\":6392:6480   */\n      tag_148\n      jump\t// in\n    tag_202:\n        /* \"#utility.yul\":6382:6480   */\n      swap2\n      pop\n        /* \"#utility.yul\":6177:6490   */\n      pop\n        /* \"#utility.yul\":5793:6497   */\n      swap3\n      pop\n      swap3\n      swap1\n      pop\n      jump\t// out\n        /* \"#utility.yul\":6503:6699   */\n    tag_203:\n        /* \"#utility.yul\":6592:6602   */\n      0x00\n        /* \"#utility.yul\":6627:6693   */\n      tag_205\n        /* \"#utility.yul\":6689:6692   */\n      dup4\n        /* \"#utility.yul\":6681:6687   */\n      dup4\n        /* \"#utility.yul\":6627:6693   */\n      tag_206\n      jump\t// in\n    tag_205:\n        /* \"#utility.yul\":6613:6693   */\n      swap1\n      pop\n        /* \"#utility.yul\":6503:6699   */\n      swap3\n      swap2\n      pop\n      pop\n      jump\t// out\n        /* \"#utility.yul\":6705:6823   */\n    tag_207:\n        /* \"#utility.yul\":6792:6816   */\n      tag_209\n        /* \"#utility.yul\":6810:6815   */\n      dup2\n        /* \"#utility.yul\":6792:6816   */\n      tag_210\n      jump\t// in\n    tag_209:\n        /* \"#utility.yul\":6787:6790   */\n      dup3\n        /* \"#utility.yul\":6780:6817   */\n      mstore\n        /* \"#utility.yul\":6705:6823   */\n      pop\n      pop\n      jump\t// out\n        /* \"#utility.yul\":6857:7848   */\n    tag_211:\n        /* \"#utility.yul\":6996:6999   */\n      0x00\n        /* \"#utility.yul\":7025:7089   */\n      tag_213\n        /* \"#utility.yul\":7083:7088   */\n      dup3\n        /* \"#utility.yul\":7025:7089   */\n      tag_214\n      jump\t// in\n    tag_213:\n        /* \"#utility.yul\":7105:7201   */\n      tag_215\n        /* \"#utility.yul\":7194:7200   */\n      dup2\n        /* \"#utility.yul\":7189:7192   */\n      dup6\n        /* \"#utility.yul\":7105:7201   */\n      tag_216\n      jump\t// in\n    tag_215:\n        /* \"#utility.yul\":7098:7201   */\n      swap4\n      pop\n        /* \"#utility.yul\":7227:7230   */\n      dup4\n        /* \"#utility.yul\":7272:7276   */\n      0x20\n        /* \"#utility.yul\":7264:7270   */\n      dup3\n        /* \"#utility.yul\":7260:7277   */\n      mul\n        /* \"#utility.yul\":7255:7258   */\n      dup6\n        /* \"#utility.yul\":7251:7278   */\n      add\n        /* \"#utility.yul\":7302:7368   */\n      tag_217\n        /* \"#utility.yul\":7362:7367   */\n      dup6\n        /* \"#utility.yul\":7302:7368   */\n      tag_218\n      jump\t// in\n    tag_217:\n        /* \"#utility.yul\":7391:7398   */\n      dup1\n        /* \"#utility.yul\":7422:7423   */\n      0x00\n        /* \"#utility.yul\":7407:7803   */\n    tag_219:\n        /* \"#utility.yul\":7432:7438   */\n      dup6\n        /* \"#utility.yul\":7429:7430   */\n      dup2\n        /* \"#utility.yul\":7426:7439   */\n      lt\n        /* \"#utility.yul\":7407:7803   */\n      iszero\n      tag_221\n      jumpi\n        /* \"#utility.yul\":7503:7512   */\n      dup5\n        /* \"#utility.yul\":7497:7501   */\n      dup5\n        /* \"#utility.yul\":7493:7513   */\n      sub\n        /* \"#utility.yul\":7488:7491   */\n      dup10\n        /* \"#utility.yul\":7481:7514   */\n      mstore\n        /* \"#utility.yul\":7554:7560   */\n      dup2\n        /* \"#utility.yul\":7548:7561   */\n      mload\n        /* \"#utility.yul\":7582:7666   */\n      tag_222\n        /* \"#utility.yul\":7661:7665   */\n      dup6\n        /* \"#utility.yul\":7646:7659   */\n      dup3\n        /* \"#utility.yul\":7582:7666   */\n      tag_203\n      jump\t// in\n    tag_222:\n        /* \"#utility.yul\":7574:7666   */\n      swap5\n      pop\n        /* \"#utility.yul\":7689:7759   */\n      tag_223\n        /* \"#utility.yul\":7752:7758   */\n      dup4\n        /* \"#utility.yul\":7689:7759   */\n      tag_224\n      jump\t// in\n    tag_223:\n        /* \"#utility.yul\":7679:7759   */\n      swap3\n      pop\n        /* \"#utility.yul\":7788:7792   */\n      0x20\n        /* \"#utility.yul\":7783:7786   */\n      dup11\n        /* \"#utility.yul\":7779:7793   */\n      add\n        /* \"#utility.yul\":7772:7793   */\n      swap10\n      pop\n        /* \"#utility.yul\":7467:7803   */\n      pop\n        /* \"#utility.yul\":7454:7455   */\n      0x01\n        /* \"#utility.yul\":7451:7452   */\n      dup2\n        /* \"#utility.yul\":7447:7456   */\n      add\n        /* \"#utility.yul\":7442:7456   */\n      swap1\n      pop\n        /* \"#utility.yul\":7407:7803   */\n      jump(tag_219)\n    tag_221:\n        /* \"#utility.yul\":7411:7425   */\n      pop\n        /* \"#utility.yul\":7819:7823   */\n      dup3\n        /* \"#utility.yul\":7812:7823   */\n      swap8\n      pop\n        /* \"#utility.yul\":7839:7842   */\n      dup8\n        /* \"#utility.yul\":7832:7842   */\n      swap6\n      pop\n        /* \"#utility.yul\":7001:7848   */\n      pop\n      pop\n      pop\n      pop\n      pop\n        /* \"#utility.yul\":6857:7848   */\n      swap3\n      swap2\n      pop\n      pop\n      jump\t// out\n        /* \"#utility.yul\":7854:8198   */\n    tag_206:\n        /* \"#utility.yul\":7932:7935   */\n      0x00\n        /* \"#utility.yul\":7960:7999   */\n      tag_226\n        /* \"#utility.yul\":7993:7998   */\n      dup3\n        /* \"#utility.yul\":7960:7999   */\n      tag_227\n      jump\t// in\n    tag_226:\n        /* \"#utility.yul\":8015:8076   */\n      tag_228\n        /* \"#utility.yul\":8069:8075   */\n      dup2\n        /* \"#utility.yul\":8064:8067   */\n      dup6\n        /* \"#utility.yul\":8015:8076   */\n      tag_229\n      jump\t// in\n    tag_228:\n        /* \"#utility.yul\":8008:8076   */\n      swap4\n      pop\n        /* \"#utility.yul\":8085:8137   */\n      tag_230\n        /* \"#utility.yul\":8130:8136   */\n      dup2\n        /* \"#utility.yul\":8125:8128   */\n      dup6\n        /* \"#utility.yul\":8118:8122   */\n      0x20\n        /* \"#utility.yul\":8111:8116   */\n      dup7\n        /* \"#utility.yul\":8107:8123   */\n      add\n        /* \"#utility.yul\":8085:8137   */\n      tag_231\n      jump\t// in\n    tag_230:\n        /* \"#utility.yul\":8162:8191   */\n      tag_232\n        /* \"#utility.yul\":8184:8190   */\n      dup2\n        /* \"#utility.yul\":8162:8191   */\n      tag_233\n      jump\t// in\n    tag_232:\n        /* \"#utility.yul\":8157:8160   */\n      dup5\n        /* \"#utility.yul\":8153:8192   */\n      add\n        /* \"#utility.yul\":8146:8192   */\n      swap2\n      pop\n        /* \"#utility.yul\":7936:8198   */\n      pop\n        /* \"#utility.yul\":7854:8198   */\n      swap3\n      swap2\n      pop\n      pop\n      jump\t// out\n        /* \"#utility.yul\":8204:8568   */\n    tag_234:\n        /* \"#utility.yul\":8292:8295   */\n      0x00\n        /* \"#utility.yul\":8320:8359   */\n      tag_236\n        /* \"#utility.yul\":8353:8358   */\n      dup3\n        /* \"#utility.yul\":8320:8359   */\n      tag_227\n      jump\t// in\n    tag_236:\n        /* \"#utility.yul\":8375:8446   */\n      tag_237\n        /* \"#utility.yul\":8439:8445   */\n      dup2\n        /* \"#utility.yul\":8434:8437   */\n      dup6\n        /* \"#utility.yul\":8375:8446   */\n      tag_238\n      jump\t// in\n    tag_237:\n        /* \"#utility.yul\":8368:8446   */\n      swap4\n      pop\n        /* \"#utility.yul\":8455:8507   */\n      tag_239\n        /* \"#utility.yul\":8500:8506   */\n      dup2\n        /* \"#utility.yul\":8495:8498   */\n      dup6\n        /* \"#utility.yul\":8488:8492   */\n      0x20\n        /* \"#utility.yul\":8481:8486   */\n      dup7\n        /* \"#utility.yul\":8477:8493   */\n      add\n        /* \"#utility.yul\":8455:8507   */\n      tag_231\n      jump\t// in\n    tag_239:\n        /* \"#utility.yul\":8532:8561   */\n      tag_240\n        /* \"#utility.yul\":8554:8560   */\n      dup2\n        /* \"#utility.yul\":8532:8561   */\n      tag_233\n      jump\t// in\n    tag_240:\n        /* \"#utility.yul\":8527:8530   */\n      dup5\n        /* \"#utility.yul\":8523:8562   */\n      add\n        /* \"#utility.yul\":8516:8562   */\n      swap2\n      pop\n        /* \"#utility.yul\":8296:8568   */\n      pop\n        /* \"#utility.yul\":8204:8568   */\n      swap3\n      swap2\n      pop\n      pop\n      jump\t// out\n        /* \"#utility.yul\":8574:8951   */\n    tag_241:\n        /* \"#utility.yul\":8680:8683   */\n      0x00\n        /* \"#utility.yul\":8708:8747   */\n      tag_243\n        /* \"#utility.yul\":8741:8746   */\n      dup3\n        /* \"#utility.yul\":8708:8747   */\n      tag_227\n      jump\t// in\n    tag_243:\n        /* \"#utility.yul\":8763:8852   */\n      tag_244\n        /* \"#utility.yul\":8845:8851   */\n      dup2\n        /* \"#utility.yul\":8840:8843   */\n      dup6\n        /* \"#utility.yul\":8763:8852   */\n      tag_245\n      jump\t// in\n    tag_244:\n        /* \"#utility.yul\":8756:8852   */\n      swap4\n      pop\n        /* \"#utility.yul\":8861:8913   */\n      tag_246\n        /* \"#utility.yul\":8906:8912   */\n      dup2\n        /* \"#utility.yul\":8901:8904   */\n      dup6\n        /* \"#utility.yul\":8894:8898   */\n      0x20\n        /* \"#utility.yul\":8887:8892   */\n      dup7\n        /* \"#utility.yul\":8883:8899   */\n      add\n        /* \"#utility.yul\":8861:8913   */\n      tag_231\n      jump\t// in\n    tag_246:\n        /* \"#utility.yul\":8938:8944   */\n      dup1\n        /* \"#utility.yul\":8933:8936   */\n      dup5\n        /* \"#utility.yul\":8929:8945   */\n      add\n        /* \"#utility.yul\":8922:8945   */\n      swap2\n      pop\n        /* \"#utility.yul\":8684:8951   */\n      pop\n        /* \"#utility.yul\":8574:8951   */\n      swap3\n      swap2\n      pop\n      pop\n      jump\t// out\n        /* \"#utility.yul\":8981:9783   */\n    tag_247:\n        /* \"#utility.yul\":9066:9069   */\n      0x00\n        /* \"#utility.yul\":9103:9108   */\n      dup2\n        /* \"#utility.yul\":9097:9109   */\n      sload\n        /* \"#utility.yul\":9132:9168   */\n      tag_249\n        /* \"#utility.yul\":9158:9167   */\n      dup2\n        /* \"#utility.yul\":9132:9168   */\n      tag_96\n      jump\t// in\n    tag_249:\n        /* \"#utility.yul\":9184:9255   */\n      tag_250\n        /* \"#utility.yul\":9248:9254   */\n      dup2\n        /* \"#utility.yul\":9243:9246   */\n      dup7\n        /* \"#utility.yul\":9184:9255   */\n      tag_238\n      jump\t// in\n    tag_250:\n        /* \"#utility.yul\":9177:9255   */\n      swap5\n      pop\n        /* \"#utility.yul\":9286:9287   */\n      0x01\n        /* \"#utility.yul\":9275:9284   */\n      dup3\n        /* \"#utility.yul\":9271:9288   */\n      and\n        /* \"#utility.yul\":9302:9303   */\n      0x00\n        /* \"#utility.yul\":9297:9432   */\n      dup2\n      eq\n      tag_252\n      jumpi\n        /* \"#utility.yul\":9446:9447   */\n      0x01\n        /* \"#utility.yul\":9441:9777   */\n      dup2\n      eq\n      tag_253\n      jumpi\n        /* \"#utility.yul\":9264:9777   */\n      jump(tag_251)\n        /* \"#utility.yul\":9297:9432   */\n    tag_252:\n        /* \"#utility.yul\":9381:9385   */\n      0xff\n        /* \"#utility.yul\":9377:9386   */\n      not\n        /* \"#utility.yul\":9366:9375   */\n      dup4\n        /* \"#utility.yul\":9362:9387   */\n      and\n        /* \"#utility.yul\":9357:9360   */\n      dup7\n        /* \"#utility.yul\":9350:9388   */\n      mstore\n        /* \"#utility.yul\":9417:9421   */\n      0x20\n        /* \"#utility.yul\":9412:9415   */\n      dup7\n        /* \"#utility.yul\":9408:9422   */\n      add\n        /* \"#utility.yul\":9401:9422   */\n      swap4\n      pop\n        /* \"#utility.yul\":9297:9432   */\n      jump(tag_251)\n        /* \"#utility.yul\":9441:9777   */\n    tag_253:\n        /* \"#utility.yul\":9508:9546   */\n      tag_254\n        /* \"#utility.yul\":9540:9545   */\n      dup6\n        /* \"#utility.yul\":9508:9546   */\n      tag_255\n      jump\t// in\n    tag_254:\n        /* \"#utility.yul\":9568:9569   */\n      0x00\n        /* \"#utility.yul\":9582:9736   */\n    tag_256:\n        /* \"#utility.yul\":9596:9602   */\n      dup4\n        /* \"#utility.yul\":9593:9594   */\n      dup2\n        /* \"#utility.yul\":9590:9603   */\n      lt\n        /* \"#utility.yul\":9582:9736   */\n      iszero\n      tag_258\n      jumpi\n        /* \"#utility.yul\":9670:9677   */\n      dup2\n        /* \"#utility.yul\":9664:9678   */\n      sload\n        /* \"#utility.yul\":9660:9661   */\n      dup2\n        /* \"#utility.yul\":9655:9658   */\n      dup10\n        /* \"#utility.yul\":9651:9662   */\n      add\n        /* \"#utility.yul\":9644:9679   */\n      mstore\n        /* \"#utility.yul\":9720:9721   */\n      0x01\n        /* \"#utility.yul\":9711:9718   */\n      dup3\n        /* \"#utility.yul\":9707:9722   */\n      add\n        /* \"#utility.yul\":9696:9722   */\n      swap2\n      pop\n        /* \"#utility.yul\":9618:9622   */\n      0x20\n        /* \"#utility.yul\":9615:9616   */\n      dup2\n        /* \"#utility.yul\":9611:9623   */\n      add\n        /* \"#utility.yul\":9606:9623   */\n      swap1\n      pop\n        /* \"#utility.yul\":9582:9736   */\n      jump(tag_256)\n    tag_258:\n        /* \"#utility.yul\":9765:9766   */\n      dup1\n        /* \"#utility.yul\":9760:9763   */\n      dup9\n        /* \"#utility.yul\":9756:9767   */\n      add\n        /* \"#utility.yul\":9749:9767   */\n      swap6\n      pop\n        /* \"#utility.yul\":9448:9777   */\n      pop\n      pop\n        /* \"#utility.yul\":9264:9777   */\n    tag_251:\n      pop\n        /* \"#utility.yul\":9070:9783   */\n      pop\n      pop\n        /* \"#utility.yul\":8981:9783   */\n      swap3\n      swap2\n      pop\n      pop\n      jump\t// out\n        /* \"#utility.yul\":9813:10658   */\n    tag_259:\n        /* \"#utility.yul\":9916:9919   */\n      0x00\n        /* \"#utility.yul\":9953:9958   */\n      dup2\n        /* \"#utility.yul\":9947:9959   */\n      sload\n        /* \"#utility.yul\":9982:10018   */\n      tag_261\n        /* \"#utility.yul\":10008:10017   */\n      dup2\n        /* \"#utility.yul\":9982:10018   */\n      tag_96\n      jump\t// in\n    tag_261:\n        /* \"#utility.yul\":10034:10123   */\n      tag_262\n        /* \"#utility.yul\":10116:10122   */\n      dup2\n        /* \"#utility.yul\":10111:10114   */\n      dup7\n        /* \"#utility.yul\":10034:10123   */\n      tag_245\n      jump\t// in\n    tag_262:\n        /* \"#utility.yul\":10027:10123   */\n      swap5\n      pop\n        /* \"#utility.yul\":10154:10155   */\n      0x01\n        /* \"#utility.yul\":10143:10152   */\n      dup3\n        /* \"#utility.yul\":10139:10156   */\n      and\n        /* \"#utility.yul\":10170:10171   */\n      0x00\n        /* \"#utility.yul\":10165:10302   */\n      dup2\n      eq\n      tag_264\n      jumpi\n        /* \"#utility.yul\":10316:10317   */\n      0x01\n        /* \"#utility.yul\":10311:10652   */\n      dup2\n      eq\n      tag_265\n      jumpi\n        /* \"#utility.yul\":10132:10652   */\n      jump(tag_263)\n        /* \"#utility.yul\":10165:10302   */\n    tag_264:\n        /* \"#utility.yul\":10249:10253   */\n      0xff\n        /* \"#utility.yul\":10245:10254   */\n      not\n        /* \"#utility.yul\":10234:10243   */\n      dup4\n        /* \"#utility.yul\":10230:10255   */\n      and\n        /* \"#utility.yul\":10225:10228   */\n      dup7\n        /* \"#utility.yul\":10218:10256   */\n      mstore\n        /* \"#utility.yul\":10285:10291   */\n      dup2\n        /* \"#utility.yul\":10280:10283   */\n      dup7\n        /* \"#utility.yul\":10276:10292   */\n      add\n        /* \"#utility.yul\":10269:10292   */\n      swap4\n      pop\n        /* \"#utility.yul\":10165:10302   */\n      jump(tag_263)\n        /* \"#utility.yul\":10311:10652   */\n    tag_265:\n        /* \"#utility.yul\":10378:10416   */\n      tag_266\n        /* \"#utility.yul\":10410:10415   */\n      dup6\n        /* \"#utility.yul\":10378:10416   */\n      tag_255\n      jump\t// in\n    tag_266:\n        /* \"#utility.yul\":10438:10439   */\n      0x00\n        /* \"#utility.yul\":10452:10606   */\n    tag_267:\n        /* \"#utility.yul\":10466:10472   */\n      dup4\n        /* \"#utility.yul\":10463:10464   */\n      dup2\n        /* \"#utility.yul\":10460:10473   */\n      lt\n        /* \"#utility.yul\":10452:10606   */\n      iszero\n      tag_269\n      jumpi\n        /* \"#utility.yul\":10540:10547   */\n      dup2\n        /* \"#utility.yul\":10534:10548   */\n      sload\n        /* \"#utility.yul\":10530:10531   */\n      dup2\n        /* \"#utility.yul\":10525:10528   */\n      dup10\n        /* \"#utility.yul\":10521:10532   */\n      add\n        /* \"#utility.yul\":10514:10549   */\n      mstore\n        /* \"#utility.yul\":10590:10591   */\n      0x01\n        /* \"#utility.yul\":10581:10588   */\n      dup3\n        /* \"#utility.yul\":10577:10592   */\n      add\n        /* \"#utility.yul\":10566:10592   */\n      swap2\n      pop\n        /* \"#utility.yul\":10488:10492   */\n      0x20\n        /* \"#utility.yul\":10485:10486   */\n      dup2\n        /* \"#utility.yul\":10481:10493   */\n      add\n        /* \"#utility.yul\":10476:10493   */\n      swap1\n      pop\n        /* \"#utility.yul\":10452:10606   */\n      jump(tag_267)\n    tag_269:\n        /* \"#utility.yul\":10635:10641   */\n      dup4\n        /* \"#utility.yul\":10630:10633   */\n      dup9\n        /* \"#utility.yul\":10626:10642   */\n      add\n        /* \"#utility.yul\":10619:10642   */\n      swap6\n      pop\n        /* \"#utility.yul\":10318:10652   */\n      pop\n      pop\n        /* \"#utility.yul\":10132:10652   */\n    tag_263:\n      pop\n        /* \"#utility.yul\":9920:10658   */\n      pop\n      pop\n        /* \"#utility.yul\":9813:10658   */\n      swap3\n      swap2\n      pop\n      pop\n      jump\t// out\n        /* \"#utility.yul\":10664:11030   */\n    tag_270:\n        /* \"#utility.yul\":10806:10809   */\n      0x00\n        /* \"#utility.yul\":10827:10894   */\n      tag_272\n        /* \"#utility.yul\":10891:10893   */\n      0x0e\n        /* \"#utility.yul\":10886:10889   */\n      dup4\n        /* \"#utility.yul\":10827:10894   */\n      tag_238\n      jump\t// in\n    tag_272:\n        /* \"#utility.yul\":10820:10894   */\n      swap2\n      pop\n        /* \"#utility.yul\":10903:10996   */\n      tag_273\n        /* \"#utility.yul\":10992:10995   */\n      dup3\n        /* \"#utility.yul\":10903:10996   */\n      tag_274\n      jump\t// in\n    tag_273:\n        /* \"#utility.yul\":11021:11023   */\n      0x20\n        /* \"#utility.yul\":11016:11019   */\n      dup3\n        /* \"#utility.yul\":11012:11024   */\n      add\n        /* \"#utility.yul\":11005:11024   */\n      swap1\n      pop\n        /* \"#utility.yul\":10664:11030   */\n      swap2\n      swap1\n      pop\n      jump\t// out\n        /* \"#utility.yul\":11036:11402   */\n    tag_275:\n        /* \"#utility.yul\":11178:11181   */\n      0x00\n        /* \"#utility.yul\":11199:11266   */\n      tag_277\n        /* \"#utility.yul\":11263:11265   */\n      0x40\n        /* \"#utility.yul\":11258:11261   */\n      dup4\n        /* \"#utility.yul\":11199:11266   */\n      tag_238\n      jump\t// in\n    tag_277:\n        /* \"#utility.yul\":11192:11266   */\n      swap2\n      pop\n        /* \"#utility.yul\":11275:11368   */\n      tag_278\n        /* \"#utility.yul\":11364:11367   */\n      dup3\n        /* \"#utility.yul\":11275:11368   */\n      tag_279\n      jump\t// in\n    tag_278:\n        /* \"#utility.yul\":11393:11395   */\n      0x40\n        /* \"#utility.yul\":11388:11391   */\n      dup3\n        /* \"#utility.yul\":11384:11396   */\n      add\n        /* \"#utility.yul\":11377:11396   */\n      swap1\n      pop\n        /* \"#utility.yul\":11036:11402   */\n      swap2\n      swap1\n      pop\n      jump\t// out\n        /* \"#utility.yul\":11408:11774   */\n    tag_280:\n        /* \"#utility.yul\":11550:11553   */\n      0x00\n        /* \"#utility.yul\":11571:11638   */\n      tag_282\n        /* \"#utility.yul\":11635:11637   */\n      0x37\n        /* \"#utility.yul\":11630:11633   */\n      dup4\n        /* \"#utility.yul\":11571:11638   */\n      tag_238\n      jump\t// in\n    tag_282:\n        /* \"#utility.yul\":11564:11638   */\n      swap2\n      pop\n        /* \"#utility.yul\":11647:11740   */\n      tag_283\n        /* \"#utility.yul\":11736:11739   */\n      dup3\n        /* \"#utility.yul\":11647:11740   */\n      tag_284\n      jump\t// in\n    tag_283:\n        /* \"#utility.yul\":11765:11767   */\n      0x40\n        /* \"#utility.yul\":11760:11763   */\n      dup3\n        /* \"#utility.yul\":11756:11768   */\n      add\n        /* \"#utility.yul\":11749:11768   */\n      swap1\n      pop\n        /* \"#utility.yul\":11408:11774   */\n      swap2\n      swap1\n      pop\n      jump\t// out\n        /* \"#utility.yul\":11780:12146   */\n    tag_285:\n        /* \"#utility.yul\":11922:11925   */\n      0x00\n        /* \"#utility.yul\":11943:12010   */\n      tag_287\n        /* \"#utility.yul\":12007:12009   */\n      0x21\n        /* \"#utility.yul\":12002:12005   */\n      dup4\n        /* \"#utility.yul\":11943:12010   */\n      tag_238\n      jump\t// in\n    tag_287:\n        /* \"#utility.yul\":11936:12010   */\n      swap2\n      pop\n        /* \"#utility.yul\":12019:12112   */\n      tag_288\n        /* \"#utility.yul\":12108:12111   */\n      dup3\n        /* \"#utility.yul\":12019:12112   */\n      tag_289\n      jump\t// in\n    tag_288:\n        /* \"#utility.yul\":12137:12139   */\n      0x40\n        /* \"#utility.yul\":12132:12135   */\n      dup3\n        /* \"#utility.yul\":12128:12140   */\n      add\n        /* \"#utility.yul\":12121:12140   */\n      swap1\n      pop\n        /* \"#utility.yul\":11780:12146   */\n      swap2\n      swap1\n      pop\n      jump\t// out\n        /* \"#utility.yul\":12152:12270   */\n    tag_290:\n        /* \"#utility.yul\":12239:12263   */\n      tag_292\n        /* \"#utility.yul\":12257:12262   */\n      dup2\n        /* \"#utility.yul\":12239:12263   */\n      tag_293\n      jump\t// in\n    tag_292:\n        /* \"#utility.yul\":12234:12237   */\n      dup3\n        /* \"#utility.yul\":12227:12264   */\n      mstore\n        /* \"#utility.yul\":12152:12270   */\n      pop\n      pop\n      jump\t// out\n        /* \"#utility.yul\":12276:12551   */\n    tag_86:\n        /* \"#utility.yul\":12408:12411   */\n      0x00\n        /* \"#utility.yul\":12430:12525   */\n      tag_295\n        /* \"#utility.yul\":12521:12524   */\n      dup3\n        /* \"#utility.yul\":12512:12518   */\n      dup5\n        /* \"#utility.yul\":12430:12525   */\n      tag_241\n      jump\t// in\n    tag_295:\n        /* \"#utility.yul\":12423:12525   */\n      swap2\n      pop\n        /* \"#utility.yul\":12542:12545   */\n      dup2\n        /* \"#utility.yul\":12535:12545   */\n      swap1\n      pop\n        /* \"#utility.yul\":12276:12551   */\n      swap3\n      swap2\n      pop\n      pop\n      jump\t// out\n        /* \"#utility.yul\":12557:12826   */\n    tag_91:\n        /* \"#utility.yul\":12686:12689   */\n      0x00\n        /* \"#utility.yul\":12708:12800   */\n      tag_297\n        /* \"#utility.yul\":12796:12799   */\n      dup3\n        /* \"#utility.yul\":12787:12793   */\n      dup5\n        /* \"#utility.yul\":12708:12800   */\n      tag_259\n      jump\t// in\n    tag_297:\n        /* \"#utility.yul\":12701:12800   */\n      swap2\n      pop\n        /* \"#utility.yul\":12817:12820   */\n      dup2\n        /* \"#utility.yul\":12810:12820   */\n      swap1\n      pop\n        /* \"#utility.yul\":12557:12826   */\n      swap3\n      swap2\n      pop\n      pop\n      jump\t// out\n        /* \"#utility.yul\":12832:13054   */\n    tag_19:\n        /* \"#utility.yul\":12925:12929   */\n      0x00\n        /* \"#utility.yul\":12963:12965   */\n      0x20\n        /* \"#utility.yul\":12952:12961   */\n      dup3\n        /* \"#utility.yul\":12948:12966   */\n      add\n        /* \"#utility.yul\":12940:12966   */\n      swap1\n      pop\n        /* \"#utility.yul\":12976:13047   */\n      tag_299\n        /* \"#utility.yul\":13044:13045   */\n      0x00\n        /* \"#utility.yul\":13033:13042   */\n      dup4\n        /* \"#utility.yul\":13029:13046   */\n      add\n        /* \"#utility.yul\":13020:13026   */\n      dup5\n        /* \"#utility.yul\":12976:13047   */\n      tag_207\n      jump\t// in\n    tag_299:\n        /* \"#utility.yul\":12832:13054   */\n      swap3\n      swap2\n      pop\n      pop\n      jump\t// out\n        /* \"#utility.yul\":13060:14085   */\n    tag_56:\n        /* \"#utility.yul\":13369:13373   */\n      0x00\n        /* \"#utility.yul\":13407:13410   */\n      0xa0\n        /* \"#utility.yul\":13396:13405   */\n      dup3\n        /* \"#utility.yul\":13392:13411   */\n      add\n        /* \"#utility.yul\":13384:13411   */\n      swap1\n      pop\n        /* \"#utility.yul\":13457:13466   */\n      dup2\n        /* \"#utility.yul\":13451:13455   */\n      dup2\n        /* \"#utility.yul\":13447:13467   */\n      sub\n        /* \"#utility.yul\":13443:13444   */\n      0x00\n        /* \"#utility.yul\":13432:13441   */\n      dup4\n        /* \"#utility.yul\":13428:13445   */\n      add\n        /* \"#utility.yul\":13421:13468   */\n      mstore\n        /* \"#utility.yul\":13485:13613   */\n      tag_301\n        /* \"#utility.yul\":13608:13612   */\n      dup2\n        /* \"#utility.yul\":13599:13605   */\n      dup9\n        /* \"#utility.yul\":13485:13613   */\n      tag_211\n      jump\t// in\n    tag_301:\n        /* \"#utility.yul\":13477:13613   */\n      swap1\n      pop\n        /* \"#utility.yul\":13623:13695   */\n      tag_302\n        /* \"#utility.yul\":13691:13693   */\n      0x20\n        /* \"#utility.yul\":13680:13689   */\n      dup4\n        /* \"#utility.yul\":13676:13694   */\n      add\n        /* \"#utility.yul\":13667:13673   */\n      dup8\n        /* \"#utility.yul\":13623:13695   */\n      tag_290\n      jump\t// in\n    tag_302:\n        /* \"#utility.yul\":13705:13777   */\n      tag_303\n        /* \"#utility.yul\":13773:13775   */\n      0x40\n        /* \"#utility.yul\":13762:13771   */\n      dup4\n        /* \"#utility.yul\":13758:13776   */\n      add\n        /* \"#utility.yul\":13749:13755   */\n      dup7\n        /* \"#utility.yul\":13705:13777   */\n      tag_207\n      jump\t// in\n    tag_303:\n        /* \"#utility.yul\":13824:13833   */\n      dup2\n        /* \"#utility.yul\":13818:13822   */\n      dup2\n        /* \"#utility.yul\":13814:13834   */\n      sub\n        /* \"#utility.yul\":13809:13811   */\n      0x60\n        /* \"#utility.yul\":13798:13807   */\n      dup4\n        /* \"#utility.yul\":13794:13812   */\n      add\n        /* \"#utility.yul\":13787:13835   */\n      mstore\n        /* \"#utility.yul\":13852:13927   */\n      tag_304\n        /* \"#utility.yul\":13922:13926   */\n      dup2\n        /* \"#utility.yul\":13913:13919   */\n      dup6\n        /* \"#utility.yul\":13852:13927   */\n      tag_247\n      jump\t// in\n    tag_304:\n        /* \"#utility.yul\":13844:13927   */\n      swap1\n      pop\n        /* \"#utility.yul\":13975:13984   */\n      dup2\n        /* \"#utility.yul\":13969:13973   */\n      dup2\n        /* \"#utility.yul\":13965:13985   */\n      sub\n        /* \"#utility.yul\":13959:13962   */\n      0x80\n        /* \"#utility.yul\":13948:13957   */\n      dup4\n        /* \"#utility.yul\":13944:13963   */\n      add\n        /* \"#utility.yul\":13937:13986   */\n      mstore\n        /* \"#utility.yul\":14003:14078   */\n      tag_305\n        /* \"#utility.yul\":14073:14077   */\n      dup2\n        /* \"#utility.yul\":14064:14070   */\n      dup5\n        /* \"#utility.yul\":14003:14078   */\n      tag_247\n      jump\t// in\n    tag_305:\n        /* \"#utility.yul\":13995:14078   */\n      swap1\n      pop\n        /* \"#utility.yul\":13060:14085   */\n      swap7\n      swap6\n      pop\n      pop\n      pop\n      pop\n      pop\n      pop\n      jump\t// out\n        /* \"#utility.yul\":14091:16364   */\n    tag_72:\n        /* \"#utility.yul\":14704:14708   */\n      0x00\n        /* \"#utility.yul\":14742:14745   */\n      0x0180\n        /* \"#utility.yul\":14731:14740   */\n      dup3\n        /* \"#utility.yul\":14727:14746   */\n      add\n        /* \"#utility.yul\":14719:14746   */\n      swap1\n      pop\n        /* \"#utility.yul\":14792:14801   */\n      dup2\n        /* \"#utility.yul\":14786:14790   */\n      dup2\n        /* \"#utility.yul\":14782:14802   */\n      sub\n        /* \"#utility.yul\":14778:14779   */\n      0x00\n        /* \"#utility.yul\":14767:14776   */\n      dup4\n        /* \"#utility.yul\":14763:14780   */\n      add\n        /* \"#utility.yul\":14756:14803   */\n      mstore\n        /* \"#utility.yul\":14820:14898   */\n      tag_307\n        /* \"#utility.yul\":14893:14897   */\n      dup2\n        /* \"#utility.yul\":14884:14890   */\n      dup16\n        /* \"#utility.yul\":14820:14898   */\n      tag_234\n      jump\t// in\n    tag_307:\n        /* \"#utility.yul\":14812:14898   */\n      swap1\n      pop\n        /* \"#utility.yul\":14945:14954   */\n      dup2\n        /* \"#utility.yul\":14939:14943   */\n      dup2\n        /* \"#utility.yul\":14935:14955   */\n      sub\n        /* \"#utility.yul\":14930:14932   */\n      0x20\n        /* \"#utility.yul\":14919:14928   */\n      dup4\n        /* \"#utility.yul\":14915:14933   */\n      add\n        /* \"#utility.yul\":14908:14956   */\n      mstore\n        /* \"#utility.yul\":14973:15051   */\n      tag_308\n        /* \"#utility.yul\":15046:15050   */\n      dup2\n        /* \"#utility.yul\":15037:15043   */\n      dup15\n        /* \"#utility.yul\":14973:15051   */\n      tag_234\n      jump\t// in\n    tag_308:\n        /* \"#utility.yul\":14965:15051   */\n      swap1\n      pop\n        /* \"#utility.yul\":15098:15107   */\n      dup2\n        /* \"#utility.yul\":15092:15096   */\n      dup2\n        /* \"#utility.yul\":15088:15108   */\n      sub\n        /* \"#utility.yul\":15083:15085   */\n      0x40\n        /* \"#utility.yul\":15072:15081   */\n      dup4\n        /* \"#utility.yul\":15068:15086   */\n      add\n        /* \"#utility.yul\":15061:15109   */\n      mstore\n        /* \"#utility.yul\":15126:15204   */\n      tag_309\n        /* \"#utility.yul\":15199:15203   */\n      dup2\n        /* \"#utility.yul\":15190:15196   */\n      dup14\n        /* \"#utility.yul\":15126:15204   */\n      tag_234\n      jump\t// in\n    tag_309:\n        /* \"#utility.yul\":15118:15204   */\n      swap1\n      pop\n        /* \"#utility.yul\":15251:15260   */\n      dup2\n        /* \"#utility.yul\":15245:15249   */\n      dup2\n        /* \"#utility.yul\":15241:15261   */\n      sub\n        /* \"#utility.yul\":15236:15238   */\n      0x60\n        /* \"#utility.yul\":15225:15234   */\n      dup4\n        /* \"#utility.yul\":15221:15239   */\n      add\n        /* \"#utility.yul\":15214:15262   */\n      mstore\n        /* \"#utility.yul\":15279:15357   */\n      tag_310\n        /* \"#utility.yul\":15352:15356   */\n      dup2\n        /* \"#utility.yul\":15343:15349   */\n      dup13\n        /* \"#utility.yul\":15279:15357   */\n      tag_234\n      jump\t// in\n    tag_310:\n        /* \"#utility.yul\":15271:15357   */\n      swap1\n      pop\n        /* \"#utility.yul\":15405:15414   */\n      dup2\n        /* \"#utility.yul\":15399:15403   */\n      dup2\n        /* \"#utility.yul\":15395:15415   */\n      sub\n        /* \"#utility.yul\":15389:15392   */\n      0x80\n        /* \"#utility.yul\":15378:15387   */\n      dup4\n        /* \"#utility.yul\":15374:15393   */\n      add\n        /* \"#utility.yul\":15367:15416   */\n      mstore\n        /* \"#utility.yul\":15433:15511   */\n      tag_311\n        /* \"#utility.yul\":15506:15510   */\n      dup2\n        /* \"#utility.yul\":15497:15503   */\n      dup12\n        /* \"#utility.yul\":15433:15511   */\n      tag_234\n      jump\t// in\n    tag_311:\n        /* \"#utility.yul\":15425:15511   */\n      swap1\n      pop\n        /* \"#utility.yul\":15559:15568   */\n      dup2\n        /* \"#utility.yul\":15553:15557   */\n      dup2\n        /* \"#utility.yul\":15549:15569   */\n      sub\n        /* \"#utility.yul\":15543:15546   */\n      0xa0\n        /* \"#utility.yul\":15532:15541   */\n      dup4\n        /* \"#utility.yul\":15528:15547   */\n      add\n        /* \"#utility.yul\":15521:15570   */\n      mstore\n        /* \"#utility.yul\":15587:15665   */\n      tag_312\n        /* \"#utility.yul\":15660:15664   */\n      dup2\n        /* \"#utility.yul\":15651:15657   */\n      dup11\n        /* \"#utility.yul\":15587:15665   */\n      tag_234\n      jump\t// in\n    tag_312:\n        /* \"#utility.yul\":15579:15665   */\n      swap1\n      pop\n        /* \"#utility.yul\":15713:15722   */\n      dup2\n        /* \"#utility.yul\":15707:15711   */\n      dup2\n        /* \"#utility.yul\":15703:15723   */\n      sub\n        /* \"#utility.yul\":15697:15700   */\n      0xc0\n        /* \"#utility.yul\":15686:15695   */\n      dup4\n        /* \"#utility.yul\":15682:15701   */\n      add\n        /* \"#utility.yul\":15675:15724   */\n      mstore\n        /* \"#utility.yul\":15741:15819   */\n      tag_313\n        /* \"#utility.yul\":15814:15818   */\n      dup2\n        /* \"#utility.yul\":15805:15811   */\n      dup10\n        /* \"#utility.yul\":15741:15819   */\n      tag_234\n      jump\t// in\n    tag_313:\n        /* \"#utility.yul\":15733:15819   */\n      swap1\n      pop\n        /* \"#utility.yul\":15829:15902   */\n      tag_314\n        /* \"#utility.yul\":15897:15900   */\n      0xe0\n        /* \"#utility.yul\":15886:15895   */\n      dup4\n        /* \"#utility.yul\":15882:15901   */\n      add\n        /* \"#utility.yul\":15873:15879   */\n      dup9\n        /* \"#utility.yul\":15829:15902   */\n      tag_290\n      jump\t// in\n    tag_314:\n        /* \"#utility.yul\":15912:15985   */\n      tag_315\n        /* \"#utility.yul\":15980:15983   */\n      0x0100\n        /* \"#utility.yul\":15969:15978   */\n      dup4\n        /* \"#utility.yul\":15965:15984   */\n      add\n        /* \"#utility.yul\":15956:15962   */\n      dup8\n        /* \"#utility.yul\":15912:15985   */\n      tag_290\n      jump\t// in\n    tag_315:\n        /* \"#utility.yul\":16033:16042   */\n      dup2\n        /* \"#utility.yul\":16027:16031   */\n      dup2\n        /* \"#utility.yul\":16023:16043   */\n      sub\n        /* \"#utility.yul\":16017:16020   */\n      0x0120\n        /* \"#utility.yul\":16006:16015   */\n      dup4\n        /* \"#utility.yul\":16002:16021   */\n      add\n        /* \"#utility.yul\":15995:16044   */\n      mstore\n        /* \"#utility.yul\":16061:16189   */\n      tag_316\n        /* \"#utility.yul\":16184:16188   */\n      dup2\n        /* \"#utility.yul\":16175:16181   */\n      dup7\n        /* \"#utility.yul\":16061:16189   */\n      tag_211\n      jump\t// in\n    tag_316:\n        /* \"#utility.yul\":16053:16189   */\n      swap1\n      pop\n        /* \"#utility.yul\":16199:16273   */\n      tag_317\n        /* \"#utility.yul\":16268:16271   */\n      0x0140\n        /* \"#utility.yul\":16257:16266   */\n      dup4\n        /* \"#utility.yul\":16253:16272   */\n      add\n        /* \"#utility.yul\":16243:16250   */\n      dup6\n        /* \"#utility.yul\":16199:16273   */\n      tag_290\n      jump\t// in\n    tag_317:\n        /* \"#utility.yul\":16283:16357   */\n      tag_318\n        /* \"#utility.yul\":16352:16355   */\n      0x0160\n        /* \"#utility.yul\":16341:16350   */\n      dup4\n        /* \"#utility.yul\":16337:16356   */\n      add\n        /* \"#utility.yul\":16327:16334   */\n      dup5\n        /* \"#utility.yul\":16283:16357   */\n      tag_207\n      jump\t// in\n    tag_318:\n        /* \"#utility.yul\":14091:16364   */\n      swap14\n      swap13\n      pop\n      pop\n      pop\n      pop\n      pop\n      pop\n      pop\n      pop\n      pop\n      pop\n      pop\n      pop\n      pop\n      jump\t// out\n        /* \"#utility.yul\":16370:16789   */\n    tag_30:\n        /* \"#utility.yul\":16536:16540   */\n      0x00\n        /* \"#utility.yul\":16574:16576   */\n      0x20\n        /* \"#utility.yul\":16563:16572   */\n      dup3\n        /* \"#utility.yul\":16559:16577   */\n      add\n        /* \"#utility.yul\":16551:16577   */\n      swap1\n      pop\n        /* \"#utility.yul\":16623:16632   */\n      dup2\n        /* \"#utility.yul\":16617:16621   */\n      dup2\n        /* \"#utility.yul\":16613:16633   */\n      sub\n        /* \"#utility.yul\":16609:16610   */\n      0x00\n        /* \"#utility.yul\":16598:16607   */\n      dup4\n        /* \"#utility.yul\":16594:16611   */\n      add\n        /* \"#utility.yul\":16587:16634   */\n      mstore\n        /* \"#utility.yul\":16651:16782   */\n      tag_320\n        /* \"#utility.yul\":16777:16781   */\n      dup2\n        /* \"#utility.yul\":16651:16782   */\n      tag_270\n      jump\t// in\n    tag_320:\n        /* \"#utility.yul\":16643:16782   */\n      swap1\n      pop\n        /* \"#utility.yul\":16370:16789   */\n      swap2\n      swap1\n      pop\n      jump\t// out\n        /* \"#utility.yul\":16795:17214   */\n    tag_41:\n        /* \"#utility.yul\":16961:16965   */\n      0x00\n        /* \"#utility.yul\":16999:17001   */\n      0x20\n        /* \"#utility.yul\":16988:16997   */\n      dup3\n        /* \"#utility.yul\":16984:17002   */\n      add\n        /* \"#utility.yul\":16976:17002   */\n      swap1\n      pop\n        /* \"#utility.yul\":17048:17057   */\n      dup2\n        /* \"#utility.yul\":17042:17046   */\n      dup2\n        /* \"#utility.yul\":17038:17058   */\n      sub\n        /* \"#utility.yul\":17034:17035   */\n      0x00\n        /* \"#utility.yul\":17023:17032   */\n      dup4\n        /* \"#utility.yul\":17019:17036   */\n      add\n        /* \"#utility.yul\":17012:17059   */\n      mstore\n        /* \"#utility.yul\":17076:17207   */\n      tag_322\n        /* \"#utility.yul\":17202:17206   */\n      dup2\n        /* \"#utility.yul\":17076:17207   */\n      tag_275\n      jump\t// in\n    tag_322:\n        /* \"#utility.yul\":17068:17207   */\n      swap1\n      pop\n        /* \"#utility.yul\":16795:17214   */\n      swap2\n      swap1\n      pop\n      jump\t// out\n        /* \"#utility.yul\":17220:17639   */\n    tag_60:\n        /* \"#utility.yul\":17386:17390   */\n      0x00\n        /* \"#utility.yul\":17424:17426   */\n      0x20\n        /* \"#utility.yul\":17413:17422   */\n      dup3\n        /* \"#utility.yul\":17409:17427   */\n      add\n        /* \"#utility.yul\":17401:17427   */\n      swap1\n      pop\n        /* \"#utility.yul\":17473:17482   */\n      dup2\n        /* \"#utility.yul\":17467:17471   */\n      dup2\n        /* \"#utility.yul\":17463:17483   */\n      sub\n        /* \"#utility.yul\":17459:17460   */\n      0x00\n        /* \"#utility.yul\":17448:17457   */\n      dup4\n        /* \"#utility.yul\":17444:17461   */\n      add\n        /* \"#utility.yul\":17437:17484   */\n      mstore\n        /* \"#utility.yul\":17501:17632   */\n      tag_324\n        /* \"#utility.yul\":17627:17631   */\n      dup2\n        /* \"#utility.yul\":17501:17632   */\n      tag_280\n      jump\t// in\n    tag_324:\n        /* \"#utility.yul\":17493:17632   */\n      swap1\n      pop\n        /* \"#utility.yul\":17220:17639   */\n      swap2\n      swap1\n      pop\n      jump\t// out\n        /* \"#utility.yul\":17645:18064   */\n    tag_35:\n        /* \"#utility.yul\":17811:17815   */\n      0x00\n        /* \"#utility.yul\":17849:17851   */\n      0x20\n        /* \"#utility.yul\":17838:17847   */\n      dup3\n        /* \"#utility.yul\":17834:17852   */\n      add\n        /* \"#utility.yul\":17826:17852   */\n      swap1\n      pop\n        /* \"#utility.yul\":17898:17907   */\n      dup2\n        /* \"#utility.yul\":17892:17896   */\n      dup2\n        /* \"#utility.yul\":17888:17908   */\n      sub\n        /* \"#utility.yul\":17884:17885   */\n      0x00\n        /* \"#utility.yul\":17873:17882   */\n      dup4\n        /* \"#utility.yul\":17869:17886   */\n      add\n        /* \"#utility.yul\":17862:17909   */\n      mstore\n        /* \"#utility.yul\":17926:18057   */\n      tag_326\n        /* \"#utility.yul\":18052:18056   */\n      dup2\n        /* \"#utility.yul\":17926:18057   */\n      tag_285\n      jump\t// in\n    tag_326:\n        /* \"#utility.yul\":17918:18057   */\n      swap1\n      pop\n        /* \"#utility.yul\":17645:18064   */\n      swap2\n      swap1\n      pop\n      jump\t// out\n        /* \"#utility.yul\":18070:18292   */\n    tag_26:\n        /* \"#utility.yul\":18163:18167   */\n      0x00\n        /* \"#utility.yul\":18201:18203   */\n      0x20\n        /* \"#utility.yul\":18190:18199   */\n      dup3\n        /* \"#utility.yul\":18186:18204   */\n      add\n        /* \"#utility.yul\":18178:18204   */\n      swap1\n      pop\n        /* \"#utility.yul\":18214:18285   */\n      tag_328\n        /* \"#utility.yul\":18282:18283   */\n      0x00\n        /* \"#utility.yul\":18271:18280   */\n      dup4\n        /* \"#utility.yul\":18267:18284   */\n      add\n        /* \"#utility.yul\":18258:18264   */\n      dup5\n        /* \"#utility.yul\":18214:18285   */\n      tag_290\n      jump\t// in\n    tag_328:\n        /* \"#utility.yul\":18070:18292   */\n      swap3\n      swap2\n      pop\n      pop\n      jump\t// out\n        /* \"#utility.yul\":18298:18427   */\n    tag_126:\n        /* \"#utility.yul\":18332:18338   */\n      0x00\n        /* \"#utility.yul\":18359:18379   */\n      tag_330\n      tag_331\n      jump\t// in\n    tag_330:\n        /* \"#utility.yul\":18349:18379   */\n      swap1\n      pop\n        /* \"#utility.yul\":18388:18421   */\n      tag_332\n        /* \"#utility.yul\":18416:18420   */\n      dup3\n        /* \"#utility.yul\":18408:18414   */\n      dup3\n        /* \"#utility.yul\":18388:18421   */\n      tag_333\n      jump\t// in\n    tag_332:\n        /* \"#utility.yul\":18298:18427   */\n      swap2\n      swap1\n      pop\n      jump\t// out\n        /* \"#utility.yul\":18433:18508   */\n    tag_331:\n        /* \"#utility.yul\":18466:18472   */\n      0x00\n        /* \"#utility.yul\":18499:18501   */\n      0x40\n        /* \"#utility.yul\":18493:18502   */\n      mload\n        /* \"#utility.yul\":18483:18502   */\n      swap1\n      pop\n        /* \"#utility.yul\":18433:18508   */\n      swap1\n      jump\t// out\n        /* \"#utility.yul\":18514:18835   */\n    tag_125:\n        /* \"#utility.yul\":18601:18605   */\n      0x00\n        /* \"#utility.yul\":18691:18709   */\n      0xffffffffffffffff\n        /* \"#utility.yul\":18683:18689   */\n      dup3\n        /* \"#utility.yul\":18680:18710   */\n      gt\n        /* \"#utility.yul\":18677:18733   */\n      iszero\n      tag_336\n      jumpi\n        /* \"#utility.yul\":18713:18731   */\n      tag_337\n      tag_338\n      jump\t// in\n    tag_337:\n        /* \"#utility.yul\":18677:18733   */\n    tag_336:\n        /* \"#utility.yul\":18763:18767   */\n      0x20\n        /* \"#utility.yul\":18755:18761   */\n      dup3\n        /* \"#utility.yul\":18751:18768   */\n      mul\n        /* \"#utility.yul\":18743:18768   */\n      swap1\n      pop\n        /* \"#utility.yul\":18823:18827   */\n      0x20\n        /* \"#utility.yul\":18817:18821   */\n      dup2\n        /* \"#utility.yul\":18813:18828   */\n      add\n        /* \"#utility.yul\":18805:18828   */\n      swap1\n      pop\n        /* \"#utility.yul\":18514:18835   */\n      swap2\n      swap1\n      pop\n      jump\t// out\n        /* \"#utility.yul\":18841:19149   */\n    tag_142:\n        /* \"#utility.yul\":18903:18907   */\n      0x00\n        /* \"#utility.yul\":18993:19011   */\n      0xffffffffffffffff\n        /* \"#utility.yul\":18985:18991   */\n      dup3\n        /* \"#utility.yul\":18982:19012   */\n      gt\n        /* \"#utility.yul\":18979:19035   */\n      iszero\n      tag_340\n      jumpi\n        /* \"#utility.yul\":19015:19033   */\n      tag_341\n      tag_338\n      jump\t// in\n    tag_341:\n        /* \"#utility.yul\":18979:19035   */\n    tag_340:\n        /* \"#utility.yul\":19053:19082   */\n      tag_342\n        /* \"#utility.yul\":19075:19081   */\n      dup3\n        /* \"#utility.yul\":19053:19082   */\n      tag_233\n      jump\t// in\n    tag_342:\n        /* \"#utility.yul\":19045:19082   */\n      swap1\n      pop\n        /* \"#utility.yul\":19137:19141   */\n      0x20\n        /* \"#utility.yul\":19131:19135   */\n      dup2\n        /* \"#utility.yul\":19127:19142   */\n      add\n        /* \"#utility.yul\":19119:19142   */\n      swap1\n      pop\n        /* \"#utility.yul\":18841:19149   */\n      swap2\n      swap1\n      pop\n      jump\t// out\n        /* \"#utility.yul\":19155:19297   */\n    tag_218:\n        /* \"#utility.yul\":19232:19236   */\n      0x00\n        /* \"#utility.yul\":19255:19258   */\n      dup2\n        /* \"#utility.yul\":19247:19258   */\n      swap1\n      pop\n        /* \"#utility.yul\":19285:19289   */\n      0x20\n        /* \"#utility.yul\":19280:19283   */\n      dup3\n        /* \"#utility.yul\":19276:19290   */\n      add\n        /* \"#utility.yul\":19268:19290   */\n      swap1\n      pop\n        /* \"#utility.yul\":19155:19297   */\n      swap2\n      swap1\n      pop\n      jump\t// out\n        /* \"#utility.yul\":19303:19444   */\n    tag_255:\n        /* \"#utility.yul\":19352:19356   */\n      0x00\n        /* \"#utility.yul\":19375:19378   */\n      dup2\n        /* \"#utility.yul\":19367:19378   */\n      swap1\n      pop\n        /* \"#utility.yul\":19398:19401   */\n      dup2\n        /* \"#utility.yul\":19395:19396   */\n      0x00\n        /* \"#utility.yul\":19388:19402   */\n      mstore\n        /* \"#utility.yul\":19432:19436   */\n      0x20\n        /* \"#utility.yul\":19429:19430   */\n      0x00\n        /* \"#utility.yul\":19419:19437   */\n      keccak256\n        /* \"#utility.yul\":19411:19437   */\n      swap1\n      pop\n        /* \"#utility.yul\":19303:19444   */\n      swap2\n      swap1\n      pop\n      jump\t// out\n        /* \"#utility.yul\":19450:19574   */\n    tag_214:\n        /* \"#utility.yul\":19527:19533   */\n      0x00\n        /* \"#utility.yul\":19561:19566   */\n      dup2\n        /* \"#utility.yul\":19555:19567   */\n      mload\n        /* \"#utility.yul\":19545:19567   */\n      swap1\n      pop\n        /* \"#utility.yul\":19450:19574   */\n      swap2\n      swap1\n      pop\n      jump\t// out\n        /* \"#utility.yul\":19580:19679   */\n    tag_227:\n        /* \"#utility.yul\":19632:19638   */\n      0x00\n        /* \"#utility.yul\":19666:19671   */\n      dup2\n        /* \"#utility.yul\":19660:19672   */\n      mload\n        /* \"#utility.yul\":19650:19672   */\n      swap1\n      pop\n        /* \"#utility.yul\":19580:19679   */\n      swap2\n      swap1\n      pop\n      jump\t// out\n        /* \"#utility.yul\":19685:19808   */\n    tag_224:\n        /* \"#utility.yul\":19765:19769   */\n      0x00\n        /* \"#utility.yul\":19797:19801   */\n      0x20\n        /* \"#utility.yul\":19792:19795   */\n      dup3\n        /* \"#utility.yul\":19788:19802   */\n      add\n        /* \"#utility.yul\":19780:19802   */\n      swap1\n      pop\n        /* \"#utility.yul\":19685:19808   */\n      swap2\n      swap1\n      pop\n      jump\t// out\n        /* \"#utility.yul\":19814:20008   */\n    tag_216:\n        /* \"#utility.yul\":19923:19934   */\n      0x00\n        /* \"#utility.yul\":19957:19963   */\n      dup3\n        /* \"#utility.yul\":19952:19955   */\n      dup3\n        /* \"#utility.yul\":19945:19964   */\n      mstore\n        /* \"#utility.yul\":19997:20001   */\n      0x20\n        /* \"#utility.yul\":19992:19995   */\n      dup3\n        /* \"#utility.yul\":19988:20002   */\n      add\n        /* \"#utility.yul\":19973:20002   */\n      swap1\n      pop\n        /* \"#utility.yul\":19814:20008   */\n      swap3\n      swap2\n      pop\n      pop\n      jump\t// out\n        /* \"#utility.yul\":20014:20173   */\n    tag_229:\n        /* \"#utility.yul\":20088:20099   */\n      0x00\n        /* \"#utility.yul\":20122:20128   */\n      dup3\n        /* \"#utility.yul\":20117:20120   */\n      dup3\n        /* \"#utility.yul\":20110:20129   */\n      mstore\n        /* \"#utility.yul\":20162:20166   */\n      0x20\n        /* \"#utility.yul\":20157:20160   */\n      dup3\n        /* \"#utility.yul\":20153:20167   */\n      add\n        /* \"#utility.yul\":20138:20167   */\n      swap1\n      pop\n        /* \"#utility.yul\":20014:20173   */\n      swap3\n      swap2\n      pop\n      pop\n      jump\t// out\n        /* \"#utility.yul\":20179:20348   */\n    tag_238:\n        /* \"#utility.yul\":20263:20274   */\n      0x00\n        /* \"#utility.yul\":20297:20303   */\n      dup3\n        /* \"#utility.yul\":20292:20295   */\n      dup3\n        /* \"#utility.yul\":20285:20304   */\n      mstore\n        /* \"#utility.yul\":20337:20341   */\n      0x20\n        /* \"#utility.yul\":20332:20335   */\n      dup3\n        /* \"#utility.yul\":20328:20342   */\n      add\n        /* \"#utility.yul\":20313:20342   */\n      swap1\n      pop\n        /* \"#utility.yul\":20179:20348   */\n      swap3\n      swap2\n      pop\n      pop\n      jump\t// out\n        /* \"#utility.yul\":20354:20502   */\n    tag_245:\n        /* \"#utility.yul\":20456:20467   */\n      0x00\n        /* \"#utility.yul\":20493:20496   */\n      dup2\n        /* \"#utility.yul\":20478:20496   */\n      swap1\n      pop\n        /* \"#utility.yul\":20354:20502   */\n      swap3\n      swap2\n      pop\n      pop\n      jump\t// out\n        /* \"#utility.yul\":20508:20856   */\n    tag_37:\n        /* \"#utility.yul\":20548:20555   */\n      0x00\n        /* \"#utility.yul\":20571:20591   */\n      tag_353\n        /* \"#utility.yul\":20589:20590   */\n      dup3\n        /* \"#utility.yul\":20571:20591   */\n      tag_293\n      jump\t// in\n    tag_353:\n        /* \"#utility.yul\":20566:20591   */\n      swap2\n      pop\n        /* \"#utility.yul\":20605:20625   */\n      tag_354\n        /* \"#utility.yul\":20623:20624   */\n      dup4\n        /* \"#utility.yul\":20605:20625   */\n      tag_293\n      jump\t// in\n    tag_354:\n        /* \"#utility.yul\":20600:20625   */\n      swap3\n      pop\n        /* \"#utility.yul\":20793:20794   */\n      dup2\n        /* \"#utility.yul\":20725:20791   */\n      0xffffffffffffffffffffffffffffffffffffffffffffffffffffffffffffffff\n        /* \"#utility.yul\":20721:20795   */\n      div\n        /* \"#utility.yul\":20718:20719   */\n      dup4\n        /* \"#utility.yul\":20715:20796   */\n      gt\n        /* \"#utility.yul\":20710:20711   */\n      dup3\n        /* \"#utility.yul\":20703:20712   */\n      iszero\n        /* \"#utility.yul\":20696:20713   */\n      iszero\n        /* \"#utility.yul\":20692:20797   */\n      and\n        /* \"#utility.yul\":20689:20820   */\n      iszero\n      tag_355\n      jumpi\n        /* \"#utility.yul\":20800:20818   */\n      tag_356\n      tag_357\n      jump\t// in\n    tag_356:\n        /* \"#utility.yul\":20689:20820   */\n    tag_355:\n        /* \"#utility.yul\":20848:20849   */\n      dup3\n        /* \"#utility.yul\":20845:20846   */\n      dup3\n        /* \"#utility.yul\":20841:20850   */\n      mul\n        /* \"#utility.yul\":20830:20850   */\n      swap1\n      pop\n        /* \"#utility.yul\":20508:20856   */\n      swap3\n      swap2\n      pop\n      pop\n      jump\t// out\n        /* \"#utility.yul\":20862:20958   */\n    tag_210:\n        /* \"#utility.yul\":20899:20906   */\n      0x00\n        /* \"#utility.yul\":20928:20952   */\n      tag_359\n        /* \"#utility.yul\":20946:20951   */\n      dup3\n        /* \"#utility.yul\":20928:20952   */\n      tag_360\n      jump\t// in\n    tag_359:\n        /* \"#utility.yul\":20917:20952   */\n      swap1\n      pop\n        /* \"#utility.yul\":20862:20958   */\n      swap2\n      swap1\n      pop\n      jump\t// out\n        /* \"#utility.yul\":20964:21090   */\n    tag_360:\n        /* \"#utility.yul\":21001:21008   */\n      0x00\n        /* \"#utility.yul\":21041:21083   */\n      0xffffffffffffffffffffffffffffffffffffffff\n        /* \"#utility.yul\":21034:21039   */\n      dup3\n        /* \"#utility.yul\":21030:21084   */\n      and\n        /* \"#utility.yul\":21019:21084   */\n      swap1\n      pop\n        /* \"#utility.yul\":20964:21090   */\n      swap2\n      swap1\n      pop\n      jump\t// out\n        /* \"#utility.yul\":21096:21173   */\n    tag_293:\n        /* \"#utility.yul\":21133:21140   */\n      0x00\n        /* \"#utility.yul\":21162:21167   */\n      dup2\n        /* \"#utility.yul\":21151:21167   */\n      swap1\n      pop\n        /* \"#utility.yul\":21096:21173   */\n      swap2\n      swap1\n      pop\n      jump\t// out\n        /* \"#utility.yul\":21179:21333   */\n    tag_147:\n        /* \"#utility.yul\":21263:21269   */\n      dup3\n        /* \"#utility.yul\":21258:21261   */\n      dup2\n        /* \"#utility.yul\":21253:21256   */\n      dup4\n        /* \"#utility.yul\":21240:21270   */\n      calldatacopy\n        /* \"#utility.yul\":21325:21326   */\n      0x00\n        /* \"#utility.yul\":21316:21322   */\n      dup4\n        /* \"#utility.yul\":21311:21314   */\n      dup4\n        /* \"#utility.yul\":21307:21323   */\n      add\n        /* \"#utility.yul\":21300:21327   */\n      mstore\n        /* \"#utility.yul\":21179:21333   */\n      pop\n      pop\n      pop\n      jump\t// out\n        /* \"#utility.yul\":21339:21646   */\n    tag_231:\n        /* \"#utility.yul\":21407:21408   */\n      0x00\n        /* \"#utility.yul\":21417:21530   */\n    tag_365:\n        /* \"#utility.yul\":21431:21437   */\n      dup4\n        /* \"#utility.yul\":21428:21429   */\n      dup2\n        /* \"#utility.yul\":21425:21438   */\n      lt\n        /* \"#utility.yul\":21417:21530   */\n      iszero\n      tag_367\n      jumpi\n        /* \"#utility.yul\":21516:21517   */\n      dup1\n        /* \"#utility.yul\":21511:21514   */\n      dup3\n        /* \"#utility.yul\":21507:21518   */\n      add\n        /* \"#utility.yul\":21501:21519   */\n      mload\n        /* \"#utility.yul\":21497:21498   */\n      dup2\n        /* \"#utility.yul\":21492:21495   */\n      dup5\n        /* \"#utility.yul\":21488:21499   */\n      add\n        /* \"#utility.yul\":21481:21520   */\n      mstore\n        /* \"#utility.yul\":21453:21455   */\n      0x20\n        /* \"#utility.yul\":21450:21451   */\n      dup2\n        /* \"#utility.yul\":21446:21456   */\n      add\n        /* \"#utility.yul\":21441:21456   */\n      swap1\n      pop\n        /* \"#utility.yul\":21417:21530   */\n      jump(tag_365)\n    tag_367:\n        /* \"#utility.yul\":21548:21554   */\n      dup4\n        /* \"#utility.yul\":21545:21546   */\n      dup2\n        /* \"#utility.yul\":21542:21555   */\n      gt\n        /* \"#utility.yul\":21539:21640   */\n      iszero\n      tag_368\n      jumpi\n        /* \"#utility.yul\":21628:21629   */\n      0x00\n        /* \"#utility.yul\":21619:21625   */\n      dup5\n        /* \"#utility.yul\":21614:21617   */\n      dup5\n        /* \"#utility.yul\":21610:21626   */\n      add\n        /* \"#utility.yul\":21603:21630   */\n      mstore\n        /* \"#utility.yul\":21539:21640   */\n    tag_368:\n        /* \"#utility.yul\":21388:21646   */\n      pop\n        /* \"#utility.yul\":21339:21646   */\n      pop\n      pop\n      pop\n      jump\t// out\n        /* \"#utility.yul\":21652:21972   */\n    tag_96:\n        /* \"#utility.yul\":21696:21702   */\n      0x00\n        /* \"#utility.yul\":21733:21734   */\n      0x02\n        /* \"#utility.yul\":21727:21731   */\n      dup3\n        /* \"#utility.yul\":21723:21735   */\n      div\n        /* \"#utility.yul\":21713:21735   */\n      swap1\n      pop\n        /* \"#utility.yul\":21780:21781   */\n      0x01\n        /* \"#utility.yul\":21774:21778   */\n      dup3\n        /* \"#utility.yul\":21770:21782   */\n      and\n        /* \"#utility.yul\":21801:21819   */\n      dup1\n        /* \"#utility.yul\":21791:21872   */\n      tag_370\n      jumpi\n        /* \"#utility.yul\":21857:21861   */\n      0x7f\n        /* \"#utility.yul\":21849:21855   */\n      dup3\n        /* \"#utility.yul\":21845:21862   */\n      and\n        /* \"#utility.yul\":21835:21862   */\n      swap2\n      pop\n        /* \"#utility.yul\":21791:21872   */\n    tag_370:\n        /* \"#utility.yul\":21919:21921   */\n      0x20\n        /* \"#utility.yul\":21911:21917   */\n      dup3\n        /* \"#utility.yul\":21908:21922   */\n      lt\n        /* \"#utility.yul\":21888:21906   */\n      dup2\n        /* \"#utility.yul\":21885:21923   */\n      eq\n        /* \"#utility.yul\":21882:21966   */\n      iszero\n      tag_371\n      jumpi\n        /* \"#utility.yul\":21938:21956   */\n      tag_372\n      tag_373\n      jump\t// in\n    tag_372:\n        /* \"#utility.yul\":21882:21966   */\n    tag_371:\n        /* \"#utility.yul\":21703:21972   */\n      pop\n        /* \"#utility.yul\":21652:21972   */\n      swap2\n      swap1\n      pop\n      jump\t// out\n        /* \"#utility.yul\":21978:22259   */\n    tag_333:\n        /* \"#utility.yul\":22061:22088   */\n      tag_375\n        /* \"#utility.yul\":22083:22087   */\n      dup3\n        /* \"#utility.yul\":22061:22088   */\n      tag_233\n      jump\t// in\n    tag_375:\n        /* \"#utility.yul\":22053:22059   */\n      dup2\n        /* \"#utility.yul\":22049:22089   */\n      add\n        /* \"#utility.yul\":22191:22197   */\n      dup2\n        /* \"#utility.yul\":22179:22189   */\n      dup2\n        /* \"#utility.yul\":22176:22198   */\n      lt\n        /* \"#utility.yul\":22155:22173   */\n      0xffffffffffffffff\n        /* \"#utility.yul\":22143:22153   */\n      dup3\n        /* \"#utility.yul\":22140:22174   */\n      gt\n        /* \"#utility.yul\":22137:22199   */\n      or\n        /* \"#utility.yul\":22134:22222   */\n      iszero\n      tag_376\n      jumpi\n        /* \"#utility.yul\":22202:22220   */\n      tag_377\n      tag_338\n      jump\t// in\n    tag_377:\n        /* \"#utility.yul\":22134:22222   */\n    tag_376:\n        /* \"#utility.yul\":22242:22252   */\n      dup1\n        /* \"#utility.yul\":22238:22240   */\n      0x40\n        /* \"#utility.yul\":22231:22253   */\n      mstore\n        /* \"#utility.yul\":22021:22259   */\n      pop\n        /* \"#utility.yul\":21978:22259   */\n      pop\n      pop\n      jump\t// out\n        /* \"#utility.yul\":22265:22498   */\n    tag_52:\n        /* \"#utility.yul\":22304:22307   */\n      0x00\n        /* \"#utility.yul\":22327:22351   */\n      tag_379\n        /* \"#utility.yul\":22345:22350   */\n      dup3\n        /* \"#utility.yul\":22327:22351   */\n      tag_293\n      jump\t// in\n    tag_379:\n        /* \"#utility.yul\":22318:22351   */\n      swap2\n      pop\n        /* \"#utility.yul\":22373:22439   */\n      0xffffffffffffffffffffffffffffffffffffffffffffffffffffffffffffffff\n        /* \"#utility.yul\":22366:22371   */\n      dup3\n        /* \"#utility.yul\":22363:22440   */\n      eq\n        /* \"#utility.yul\":22360:22463   */\n      iszero\n      tag_380\n      jumpi\n        /* \"#utility.yul\":22443:22461   */\n      tag_381\n      tag_357\n      jump\t// in\n    tag_381:\n        /* \"#utility.yul\":22360:22463   */\n    tag_380:\n        /* \"#utility.yul\":22490:22491   */\n      0x01\n        /* \"#utility.yul\":22483:22488   */\n      dup3\n        /* \"#utility.yul\":22479:22492   */\n      add\n        /* \"#utility.yul\":22472:22492   */\n      swap1\n      pop\n        /* \"#utility.yul\":22265:22498   */\n      swap2\n      swap1\n      pop\n      jump\t// out\n        /* \"#utility.yul\":22504:22684   */\n    tag_357:\n        /* \"#utility.yul\":22552:22629   */\n      0x4e487b7100000000000000000000000000000000000000000000000000000000\n        /* \"#utility.yul\":22549:22550   */\n      0x00\n        /* \"#utility.yul\":22542:22630   */\n      mstore\n        /* \"#utility.yul\":22649:22653   */\n      0x11\n        /* \"#utility.yul\":22646:22647   */\n      0x04\n        /* \"#utility.yul\":22639:22654   */\n      mstore\n        /* \"#utility.yul\":22673:22677   */\n      0x24\n        /* \"#utility.yul\":22670:22671   */\n      0x00\n        /* \"#utility.yul\":22663:22678   */\n      revert\n        /* \"#utility.yul\":22690:22870   */\n    tag_373:\n        /* \"#utility.yul\":22738:22815   */\n      0x4e487b7100000000000000000000000000000000000000000000000000000000\n        /* \"#utility.yul\":22735:22736   */\n      0x00\n        /* \"#utility.yul\":22728:22816   */\n      mstore\n        /* \"#utility.yul\":22835:22839   */\n      0x22\n        /* \"#utility.yul\":22832:22833   */\n      0x04\n        /* \"#utility.yul\":22825:22840   */\n      mstore\n        /* \"#utility.yul\":22859:22863   */\n      0x24\n        /* \"#utility.yul\":22856:22857   */\n      0x00\n        /* \"#utility.yul\":22849:22864   */\n      revert\n        /* \"#utility.yul\":22876:23056   */\n    tag_47:\n        /* \"#utility.yul\":22924:23001   */\n      0x4e487b7100000000000000000000000000000000000000000000000000000000\n        /* \"#utility.yul\":22921:22922   */\n      0x00\n        /* \"#utility.yul\":22914:23002   */\n      mstore\n        /* \"#utility.yul\":23021:23025   */\n      0x32\n        /* \"#utility.yul\":23018:23019   */\n      0x04\n        /* \"#utility.yul\":23011:23026   */\n      mstore\n        /* \"#utility.yul\":23045:23049   */\n      0x24\n        /* \"#utility.yul\":23042:23043   */\n      0x00\n        /* \"#utility.yul\":23035:23050   */\n      revert\n        /* \"#utility.yul\":23062:23242   */\n    tag_338:\n        /* \"#utility.yul\":23110:23187   */\n      0x4e487b7100000000000000000000000000000000000000000000000000000000\n        /* \"#utility.yul\":23107:23108   */\n      0x00\n        /* \"#utility.yul\":23100:23188   */\n      mstore\n        /* \"#utility.yul\":23207:23211   */\n      0x41\n        /* \"#utility.yul\":23204:23205   */\n      0x04\n        /* \"#utility.yul\":23197:23212   */\n      mstore\n        /* \"#utility.yul\":23231:23235   */\n      0x24\n        /* \"#utility.yul\":23228:23229   */\n      0x00\n        /* \"#utility.yul\":23221:23236   */\n      revert\n        /* \"#utility.yul\":23248:23365   */\n    tag_135:\n        /* \"#utility.yul\":23357:23358   */\n      0x00\n        /* \"#utility.yul\":23354:23355   */\n      dup1\n        /* \"#utility.yul\":23347:23359   */\n      revert\n        /* \"#utility.yul\":23371:23488   */\n    tag_129:\n        /* \"#utility.yul\":23480:23481   */\n      0x00\n        /* \"#utility.yul\":23477:23478   */\n      dup1\n        /* \"#utility.yul\":23470:23482   */\n      revert\n        /* \"#utility.yul\":23494:23611   */\n    tag_145:\n        /* \"#utility.yul\":23603:23604   */\n      0x00\n        /* \"#utility.yul\":23600:23601   */\n      dup1\n        /* \"#utility.yul\":23593:23605   */\n      revert\n        /* \"#utility.yul\":23617:23734   */\n    tag_167:\n        /* \"#utility.yul\":23726:23727   */\n      0x00\n        /* \"#utility.yul\":23723:23724   */\n      dup1\n        /* \"#utility.yul\":23716:23728   */\n      revert\n        /* \"#utility.yul\":23740:23857   */\n    tag_164:\n        /* \"#utility.yul\":23849:23850   */\n      0x00\n        /* \"#utility.yul\":23846:23847   */\n      dup1\n        /* \"#utility.yul\":23839:23851   */\n      revert\n        /* \"#utility.yul\":23863:23965   */\n    tag_233:\n        /* \"#utility.yul\":23904:23910   */\n      0x00\n        /* \"#utility.yul\":23955:23957   */\n      0x1f\n        /* \"#utility.yul\":23951:23958   */\n      not\n        /* \"#utility.yul\":23946:23948   */\n      0x1f\n        /* \"#utility.yul\":23939:23944   */\n      dup4\n        /* \"#utility.yul\":23935:23949   */\n      add\n        /* \"#utility.yul\":23931:23959   */\n      and\n        /* \"#utility.yul\":23921:23959   */\n      swap1\n      pop\n        /* \"#utility.yul\":23863:23965   */\n      swap2\n      swap1\n      pop\n      jump\t// out\n        /* \"#utility.yul\":23971:24135   */\n    tag_274:\n        /* \"#utility.yul\":24111:24127   */\n      0x4e6f20737563682052656e74616c000000000000000000000000000000000000\n        /* \"#utility.yul\":24107:24108   */\n      0x00\n        /* \"#utility.yul\":24099:24105   */\n      dup3\n        /* \"#utility.yul\":24095:24109   */\n      add\n        /* \"#utility.yul\":24088:24128   */\n      mstore\n        /* \"#utility.yul\":23971:24135   */\n      pop\n      jump\t// out\n        /* \"#utility.yul\":24141:24392   */\n    tag_279:\n        /* \"#utility.yul\":24281:24315   */\n      0x506c65617365207375626d6974207468652061736b696e672070726963652069\n        /* \"#utility.yul\":24277:24278   */\n      0x00\n        /* \"#utility.yul\":24269:24275   */\n      dup3\n        /* \"#utility.yul\":24265:24279   */\n      add\n        /* \"#utility.yul\":24258:24316   */\n      mstore\n        /* \"#utility.yul\":24350:24384   */\n      0x6e206f7264657220746f20636f6d706c65746520746865207075726368617365\n        /* \"#utility.yul\":24345:24347   */\n      0x20\n        /* \"#utility.yul\":24337:24343   */\n      dup3\n        /* \"#utility.yul\":24333:24348   */\n      add\n        /* \"#utility.yul\":24326:24385   */\n      mstore\n        /* \"#utility.yul\":24141:24392   */\n      pop\n      jump\t// out\n        /* \"#utility.yul\":24398:24640   */\n    tag_284:\n        /* \"#utility.yul\":24538:24572   */\n      0x4f6e6c7920746865206f776e6572206f662074686520736d61727420636f6e74\n        /* \"#utility.yul\":24534:24535   */\n      0x00\n        /* \"#utility.yul\":24526:24532   */\n      dup3\n        /* \"#utility.yul\":24522:24536   */\n      add\n        /* \"#utility.yul\":24515:24573   */\n      mstore\n        /* \"#utility.yul\":24607:24632   */\n      0x726163742063616e207075742075702072656e74616c73000000000000000000\n        /* \"#utility.yul\":24602:24604   */\n      0x20\n        /* \"#utility.yul\":24594:24600   */\n      dup3\n        /* \"#utility.yul\":24590:24605   */\n      add\n        /* \"#utility.yul\":24583:24633   */\n      mstore\n        /* \"#utility.yul\":24398:24640   */\n      pop\n      jump\t// out\n        /* \"#utility.yul\":24646:24866   */\n    tag_289:\n        /* \"#utility.yul\":24786:24820   */\n      0x416c726561647920626f6f6b656420666f722072657175657374656420646174\n        /* \"#utility.yul\":24782:24783   */\n      0x00\n        /* \"#utility.yul\":24774:24780   */\n      dup3\n        /* \"#utility.yul\":24770:24784   */\n      add\n        /* \"#utility.yul\":24763:24821   */\n      mstore\n        /* \"#utility.yul\":24855:24858   */\n      0x6500000000000000000000000000000000000000000000000000000000000000\n        /* \"#utility.yul\":24850:24852   */\n      0x20\n        /* \"#utility.yul\":24842:24848   */\n      dup3\n        /* \"#utility.yul\":24838:24853   */\n      add\n        /* \"#utility.yul\":24831:24859   */\n      mstore\n        /* \"#utility.yul\":24646:24866   */\n      pop\n      jump\t// out\n        /* \"#utility.yul\":24872:24994   */\n    tag_160:\n        /* \"#utility.yul\":24945:24969   */\n      tag_397\n        /* \"#utility.yul\":24963:24968   */\n      dup2\n        /* \"#utility.yul\":24945:24969   */\n      tag_293\n      jump\t// in\n    tag_397:\n        /* \"#utility.yul\":24938:24943   */\n      dup2\n        /* \"#utility.yul\":24935:24970   */\n      eq\n        /* \"#utility.yul\":24925:24988   */\n      tag_398\n      jumpi\n        /* \"#utility.yul\":24984:24985   */\n      0x00\n        /* \"#utility.yul\":24981:24982   */\n      dup1\n        /* \"#utility.yul\":24974:24986   */\n      revert\n        /* \"#utility.yul\":24925:24988   */\n    tag_398:\n        /* \"#utility.yul\":24872:24994   */\n      pop\n      jump\t// out\n\n    auxdata: 0xa2646970667358221220acbe8e8103534e5f83b2cc39be00cfbe0ed3d7544fb55ebd276abaad461d225c64736f6c63430008070033\n}\n",
				"bytecode": {
					"linkReferences": {},
					"object": "608060405234801561001057600080fd5b506000600181905550336000806101000a81548173ffffffffffffffffffffffffffffffffffffffff021916908373ffffffffffffffffffffffffffffffffffffffff16021790555061162f806100686000396000f3fe60806040526004361061003f5760003560e01c80632a23bb7214610044578063611fa0a8146100605780638da5cb5b14610089578063ebfa74c9146100b4575b600080fd5b61005e60048036038101906100599190610beb565b6100f1565b005b34801561006c57600080fd5b50610087600480360381019061008291906109ff565b610353565b005b34801561009557600080fd5b5061009e610601565b6040516100ab9190610f4a565b60405180910390f35b3480156100c057600080fd5b506100db60048036038101906100d69190610bbe565b610625565b6040516100e8919061113f565b60405180910390f35b6001548210610135576040517f08c379a000000000000000000000000000000000000000000000000000000000815260040161012c906110bf565b60405180910390fd5b61013f8282610649565b61017e576040517f08c379a00000000000000000000000000000000000000000000000000000000081526004016101759061111f565b60405180910390fd5b8051670de0b6b3a764000060026000858152602001908152602001600020600801546101aa9190611262565b6101b49190611262565b34146101f5576040517f08c379a00000000000000000000000000000000000000000000000000000000081526004016101ec906110df565b60405180910390fd5b60005b815181101561027e576002600084815260200190815260200160002060090182828151811061022a57610229611444565b5b602002602001015190806001815401808255809150506001900390600052602060002001600090919091909150908051906020019061026a929190610757565b5080806102769061139d565b9150506101f8565b5060008054906101000a900473ffffffffffffffffffffffffffffffffffffffff1673ffffffffffffffffffffffffffffffffffffffff166108fc349081150290604051600060405180830381858888f193505050501580156102e5573d6000803e3d6000fd5b507fdfcc683ac35013d595a2db07bcb6601a1bbc6c91dad13117fd60299c875c61b48183336002600087815260200190815260200160002060010160026000888152602001908152602001600020600601604051610347959493929190610f65565b60405180910390a15050565b60008054906101000a900473ffffffffffffffffffffffffffffffffffffffff1673ffffffffffffffffffffffffffffffffffffffff163373ffffffffffffffffffffffffffffffffffffffff16146103e1576040517f08c379a00000000000000000000000000000000000000000000000000000000081526004016103d8906110ff565b60405180910390fd5b600060026000600154815260200190815260200160002090508a816000019080519060200190610412929190610757565b508981600101908051906020019061042b929190610757565b5088816002019080519060200190610444929190610757565b508781600301908051906020019061045d929190610757565b5086816004019080519060200190610476929190610757565b508581600501908051906020019061048f929190610757565b50848160060190805190602001906104a8929190610757565b50838160070181905550828160080181905550818160090190805190602001906104d39291906107dd565b5060015481600a018190555060008054906101000a900473ffffffffffffffffffffffffffffffffffffffff1681600b0160006101000a81548173ffffffffffffffffffffffffffffffffffffffff021916908373ffffffffffffffffffffffffffffffffffffffff160217905550600360015490806001815401808255809150506001900390600052602060002001600090919091909150557fc06f078c3c74d235829af3e011ff5aae487c78ef8d3acca688417ed86ff145918b8b8b8b8b8b8b8b8b8b60015460008054906101000a900473ffffffffffffffffffffffffffffffffffffffff166040516105d49c9b9a99989796959493929190610fcd565b60405180910390a1600160008154809291906105ef9061139d565b91905055505050505050505050505050565b60008054906101000a900473ffffffffffffffffffffffffffffffffffffffff1681565b6003818154811061063557600080fd5b906000526020600020016000915090505481565b6000805b825181101561074b5760005b60026000868152602001908152602001600020600901805490508110156107375783828151811061068d5761068c611444565b5b60200260200101516040516020016106a59190610f1c565b604051602081830303815290604052805190602001206002600087815260200190815260200160002060090182815481106106e3576106e2611444565b5b906000526020600020016040516020016106fd9190610f33565b60405160208183030381529060405280519060200120141561072457600092505050610751565b808061072f9061139d565b915050610659565b5080806107439061139d565b91505061064d565b50600190505b92915050565b8280546107639061133a565b90600052602060002090601f01602090048101928261078557600085556107cc565b82601f1061079e57805160ff19168380011785556107cc565b828001600101855582156107cc579182015b828111156107cb5782518255916020019190600101906107b0565b5b5090506107d9919061083d565b5090565b82805482825590600052602060002090810192821561082c579160200282015b8281111561082b57825182908051906020019061081b929190610757565b50916020019190600101906107fd565b5b509050610839919061085a565b5090565b5b8082111561085657600081600090555060010161083e565b5090565b5b8082111561087a5760008181610871919061087e565b5060010161085b565b5090565b50805461088a9061133a565b6000825580601f1061089c57506108bb565b601f0160209004906000526020600020908101906108ba919061083d565b5b50565b60006108d16108cc8461117f565b61115a565b905080838252602082019050828560208602820111156108f4576108f36114a7565b5b60005b8581101561094257813567ffffffffffffffff81111561091a576109196114a2565b5b80860161092789826109bc565b855260208501945060208401935050506001810190506108f7565b5050509392505050565b600061095f61095a846111ab565b61115a565b90508281526020810184848401111561097b5761097a6114ac565b5b6109868482856112f8565b509392505050565b600082601f8301126109a3576109a26114a2565b5b81356109b38482602086016108be565b91505092915050565b600082601f8301126109d1576109d06114a2565b5b81356109e184826020860161094c565b91505092915050565b6000813590506109f9816115e2565b92915050565b6000806000806000806000806000806101408b8d031215610a2357610a226114b6565b5b60008b013567ffffffffffffffff811115610a4157610a406114b1565b5b610a4d8d828e016109bc565b9a505060208b013567ffffffffffffffff811115610a6e57610a6d6114b1565b5b610a7a8d828e016109bc565b99505060408b013567ffffffffffffffff811115610a9b57610a9a6114b1565b5b610aa78d828e016109bc565b98505060608b013567ffffffffffffffff811115610ac857610ac76114b1565b5b610ad48d828e016109bc565b97505060808b013567ffffffffffffffff811115610af557610af46114b1565b5b610b018d828e016109bc565b96505060a08b013567ffffffffffffffff811115610b2257610b216114b1565b5b610b2e8d828e016109bc565b95505060c08b013567ffffffffffffffff811115610b4f57610b4e6114b1565b5b610b5b8d828e016109bc565b94505060e0610b6c8d828e016109ea565b935050610100610b7e8d828e016109ea565b9250506101208b013567ffffffffffffffff811115610ba057610b9f6114b1565b5b610bac8d828e0161098e565b9150509295989b9194979a5092959850565b600060208284031215610bd457610bd36114b6565b5b6000610be2848285016109ea565b91505092915050565b60008060408385031215610c0257610c016114b6565b5b6000610c10858286016109ea565b925050602083013567ffffffffffffffff811115610c3157610c306114b1565b5b610c3d8582860161098e565b9150509250929050565b6000610c538383610cdf565b905092915050565b610c64816112bc565b82525050565b6000610c7582611201565b610c7f8185611224565b935083602082028501610c91856111dc565b8060005b85811015610ccd5784840389528151610cae8582610c47565b9450610cb983611217565b925060208a01995050600181019050610c95565b50829750879550505050505092915050565b6000610cea8261120c565b610cf48185611235565b9350610d04818560208601611307565b610d0d816114bb565b840191505092915050565b6000610d238261120c565b610d2d8185611246565b9350610d3d818560208601611307565b610d46816114bb565b840191505092915050565b6000610d5c8261120c565b610d668185611257565b9350610d76818560208601611307565b80840191505092915050565b60008154610d8f8161133a565b610d998186611246565b94506001821660008114610db45760018114610dc657610df9565b60ff1983168652602086019350610df9565b610dcf856111ec565b60005b83811015610df157815481890152600182019150602081019050610dd2565b808801955050505b50505092915050565b60008154610e0f8161133a565b610e198186611257565b94506001821660008114610e345760018114610e4557610e78565b60ff19831686528186019350610e78565b610e4e856111ec565b60005b83811015610e7057815481890152600182019150602081019050610e51565b838801955050505b50505092915050565b6000610e8e600e83611246565b9150610e99826114cc565b602082019050919050565b6000610eb1604083611246565b9150610ebc826114f5565b604082019050919050565b6000610ed4603783611246565b9150610edf82611544565b604082019050919050565b6000610ef7602183611246565b9150610f0282611593565b604082019050919050565b610f16816112ee565b82525050565b6000610f288284610d51565b915081905092915050565b6000610f3f8284610e02565b915081905092915050565b6000602082019050610f5f6000830184610c5b565b92915050565b600060a0820190508181036000830152610f7f8188610c6a565b9050610f8e6020830187610f0d565b610f9b6040830186610c5b565b8181036060830152610fad8185610d82565b90508181036080830152610fc18184610d82565b90509695505050505050565b6000610180820190508181036000830152610fe8818f610d18565b90508181036020830152610ffc818e610d18565b90508181036040830152611010818d610d18565b90508181036060830152611024818c610d18565b90508181036080830152611038818b610d18565b905081810360a083015261104c818a610d18565b905081810360c08301526110608189610d18565b905061106f60e0830188610f0d565b61107d610100830187610f0d565b8181036101208301526110908186610c6a565b90506110a0610140830185610f0d565b6110ae610160830184610c5b565b9d9c50505050505050505050505050565b600060208201905081810360008301526110d881610e81565b9050919050565b600060208201905081810360008301526110f881610ea4565b9050919050565b6000602082019050818103600083015261111881610ec7565b9050919050565b6000602082019050818103600083015261113881610eea565b9050919050565b60006020820190506111546000830184610f0d565b92915050565b6000611164611175565b9050611170828261136c565b919050565b6000604051905090565b600067ffffffffffffffff82111561119a57611199611473565b5b602082029050602081019050919050565b600067ffffffffffffffff8211156111c6576111c5611473565b5b6111cf826114bb565b9050602081019050919050565b6000819050602082019050919050565b60008190508160005260206000209050919050565b600081519050919050565b600081519050919050565b6000602082019050919050565b600082825260208201905092915050565b600082825260208201905092915050565b600082825260208201905092915050565b600081905092915050565b600061126d826112ee565b9150611278836112ee565b9250817fffffffffffffffffffffffffffffffffffffffffffffffffffffffffffffffff04831182151516156112b1576112b06113e6565b5b828202905092915050565b60006112c7826112ce565b9050919050565b600073ffffffffffffffffffffffffffffffffffffffff82169050919050565b6000819050919050565b82818337600083830152505050565b60005b8381101561132557808201518184015260208101905061130a565b83811115611334576000848401525b50505050565b6000600282049050600182168061135257607f821691505b6020821081141561136657611365611415565b5b50919050565b611375826114bb565b810181811067ffffffffffffffff8211171561139457611393611473565b5b80604052505050565b60006113a8826112ee565b91507fffffffffffffffffffffffffffffffffffffffffffffffffffffffffffffffff8214156113db576113da6113e6565b5b600182019050919050565b7f4e487b7100000000000000000000000000000000000000000000000000000000600052601160045260246000fd5b7f4e487b7100000000000000000000000000000000000000000000000000000000600052602260045260246000fd5b7f4e487b7100000000000000000000000000000000000000000000000000000000600052603260045260246000fd5b7f4e487b7100000000000000000000000000000000000000000000000000000000600052604160045260246000fd5b600080fd5b600080fd5b600080fd5b600080fd5b600080fd5b6000601f19601f8301169050919050565b7f4e6f20737563682052656e74616c000000000000000000000000000000000000600082015250565b7f506c65617365207375626d6974207468652061736b696e67207072696365206960008201527f6e206f7264657220746f20636f6d706c65746520746865207075726368617365602082015250565b7f4f6e6c7920746865206f776e6572206f662074686520736d61727420636f6e7460008201527f726163742063616e207075742075702072656e74616c73000000000000000000602082015250565b7f416c726561647920626f6f6b656420666f72207265717565737465642064617460008201527f6500000000000000000000000000000000000000000000000000000000000000602082015250565b6115eb816112ee565b81146115f657600080fd5b5056fea2646970667358221220acbe8e8103534e5f83b2cc39be00cfbe0ed3d7544fb55ebd276abaad461d225c64736f6c63430008070033",
					"opcodes": "PUSH1 0x80 PUSH1 0x40 MSTORE CALLVALUE DUP1 ISZERO PUSH2 0x10 JUMPI PUSH1 0x0 DUP1 REVERT JUMPDEST POP PUSH1 0x0 PUSH1 0x1 DUP2 SWAP1 SSTORE POP CALLER PUSH1 0x0 DUP1 PUSH2 0x100 EXP DUP2 SLOAD DUP2 PUSH20 0xFFFFFFFFFFFFFFFFFFFFFFFFFFFFFFFFFFFFFFFF MUL NOT AND SWAP1 DUP4 PUSH20 0xFFFFFFFFFFFFFFFFFFFFFFFFFFFFFFFFFFFFFFFF AND MUL OR SWAP1 SSTORE POP PUSH2 0x162F DUP1 PUSH2 0x68 PUSH1 0x0 CODECOPY PUSH1 0x0 RETURN INVALID PUSH1 0x80 PUSH1 0x40 MSTORE PUSH1 0x4 CALLDATASIZE LT PUSH2 0x3F JUMPI PUSH1 0x0 CALLDATALOAD PUSH1 0xE0 SHR DUP1 PUSH4 0x2A23BB72 EQ PUSH2 0x44 JUMPI DUP1 PUSH4 0x611FA0A8 EQ PUSH2 0x60 JUMPI DUP1 PUSH4 0x8DA5CB5B EQ PUSH2 0x89 JUMPI DUP1 PUSH4 0xEBFA74C9 EQ PUSH2 0xB4 JUMPI JUMPDEST PUSH1 0x0 DUP1 REVERT JUMPDEST PUSH2 0x5E PUSH1 0x4 DUP1 CALLDATASIZE SUB DUP2 ADD SWAP1 PUSH2 0x59 SWAP2 SWAP1 PUSH2 0xBEB JUMP JUMPDEST PUSH2 0xF1 JUMP JUMPDEST STOP JUMPDEST CALLVALUE DUP1 ISZERO PUSH2 0x6C JUMPI PUSH1 0x0 DUP1 REVERT JUMPDEST POP PUSH2 0x87 PUSH1 0x4 DUP1 CALLDATASIZE SUB DUP2 ADD SWAP1 PUSH2 0x82 SWAP2 SWAP1 PUSH2 0x9FF JUMP JUMPDEST PUSH2 0x353 JUMP JUMPDEST STOP JUMPDEST CALLVALUE DUP1 ISZERO PUSH2 0x95 JUMPI PUSH1 0x0 DUP1 REVERT JUMPDEST POP PUSH2 0x9E PUSH2 0x601 JUMP JUMPDEST PUSH1 0x40 MLOAD PUSH2 0xAB SWAP2 SWAP1 PUSH2 0xF4A JUMP JUMPDEST PUSH1 0x40 MLOAD DUP1 SWAP2 SUB SWAP1 RETURN JUMPDEST CALLVALUE DUP1 ISZERO PUSH2 0xC0 JUMPI PUSH1 0x0 DUP1 REVERT JUMPDEST POP PUSH2 0xDB PUSH1 0x4 DUP1 CALLDATASIZE SUB DUP2 ADD SWAP1 PUSH2 0xD6 SWAP2 SWAP1 PUSH2 0xBBE JUMP JUMPDEST PUSH2 0x625 JUMP JUMPDEST PUSH1 0x40 MLOAD PUSH2 0xE8 SWAP2 SWAP1 PUSH2 0x113F JUMP JUMPDEST PUSH1 0x40 MLOAD DUP1 SWAP2 SUB SWAP1 RETURN JUMPDEST PUSH1 0x1 SLOAD DUP3 LT PUSH2 0x135 JUMPI PUSH1 0x40 MLOAD PUSH32 0x8C379A000000000000000000000000000000000000000000000000000000000 DUP2 MSTORE PUSH1 0x4 ADD PUSH2 0x12C SWAP1 PUSH2 0x10BF JUMP JUMPDEST PUSH1 0x40 MLOAD DUP1 SWAP2 SUB SWAP1 REVERT JUMPDEST PUSH2 0x13F DUP3 DUP3 PUSH2 0x649 JUMP JUMPDEST PUSH2 0x17E JUMPI PUSH1 0x40 MLOAD PUSH32 0x8C379A000000000000000000000000000000000000000000000000000000000 DUP2 MSTORE PUSH1 0x4 ADD PUSH2 0x175 SWAP1 PUSH2 0x111F JUMP JUMPDEST PUSH1 0x40 MLOAD DUP1 SWAP2 SUB SWAP1 REVERT JUMPDEST DUP1 MLOAD PUSH8 0xDE0B6B3A7640000 PUSH1 0x2 PUSH1 0x0 DUP6 DUP2 MSTORE PUSH1 0x20 ADD SWAP1 DUP2 MSTORE PUSH1 0x20 ADD PUSH1 0x0 KECCAK256 PUSH1 0x8 ADD SLOAD PUSH2 0x1AA SWAP2 SWAP1 PUSH2 0x1262 JUMP JUMPDEST PUSH2 0x1B4 SWAP2 SWAP1 PUSH2 0x1262 JUMP JUMPDEST CALLVALUE EQ PUSH2 0x1F5 JUMPI PUSH1 0x40 MLOAD PUSH32 0x8C379A000000000000000000000000000000000000000000000000000000000 DUP2 MSTORE PUSH1 0x4 ADD PUSH2 0x1EC SWAP1 PUSH2 0x10DF JUMP JUMPDEST PUSH1 0x40 MLOAD DUP1 SWAP2 SUB SWAP1 REVERT JUMPDEST PUSH1 0x0 JUMPDEST DUP2 MLOAD DUP2 LT ISZERO PUSH2 0x27E JUMPI PUSH1 0x2 PUSH1 0x0 DUP5 DUP2 MSTORE PUSH1 0x20 ADD SWAP1 DUP2 MSTORE PUSH1 0x20 ADD PUSH1 0x0 KECCAK256 PUSH1 0x9 ADD DUP3 DUP3 DUP2 MLOAD DUP2 LT PUSH2 0x22A JUMPI PUSH2 0x229 PUSH2 0x1444 JUMP JUMPDEST JUMPDEST PUSH1 0x20 MUL PUSH1 0x20 ADD ADD MLOAD SWAP1 DUP1 PUSH1 0x1 DUP2 SLOAD ADD DUP1 DUP3 SSTORE DUP1 SWAP2 POP POP PUSH1 0x1 SWAP1 SUB SWAP1 PUSH1 0x0 MSTORE PUSH1 0x20 PUSH1 0x0 KECCAK256 ADD PUSH1 0x0 SWAP1 SWAP2 SWAP1 SWAP2 SWAP1 SWAP2 POP SWAP1 DUP1 MLOAD SWAP1 PUSH1 0x20 ADD SWAP1 PUSH2 0x26A SWAP3 SWAP2 SWAP1 PUSH2 0x757 JUMP JUMPDEST POP DUP1 DUP1 PUSH2 0x276 SWAP1 PUSH2 0x139D JUMP JUMPDEST SWAP2 POP POP PUSH2 0x1F8 JUMP JUMPDEST POP PUSH1 0x0 DUP1 SLOAD SWAP1 PUSH2 0x100 EXP SWAP1 DIV PUSH20 0xFFFFFFFFFFFFFFFFFFFFFFFFFFFFFFFFFFFFFFFF AND PUSH20 0xFFFFFFFFFFFFFFFFFFFFFFFFFFFFFFFFFFFFFFFF AND PUSH2 0x8FC CALLVALUE SWAP1 DUP2 ISZERO MUL SWAP1 PUSH1 0x40 MLOAD PUSH1 0x0 PUSH1 0x40 MLOAD DUP1 DUP4 SUB DUP2 DUP6 DUP9 DUP9 CALL SWAP4 POP POP POP POP ISZERO DUP1 ISZERO PUSH2 0x2E5 JUMPI RETURNDATASIZE PUSH1 0x0 DUP1 RETURNDATACOPY RETURNDATASIZE PUSH1 0x0 REVERT JUMPDEST POP PUSH32 0xDFCC683AC35013D595A2DB07BCB6601A1BBC6C91DAD13117FD60299C875C61B4 DUP2 DUP4 CALLER PUSH1 0x2 PUSH1 0x0 DUP8 DUP2 MSTORE PUSH1 0x20 ADD SWAP1 DUP2 MSTORE PUSH1 0x20 ADD PUSH1 0x0 KECCAK256 PUSH1 0x1 ADD PUSH1 0x2 PUSH1 0x0 DUP9 DUP2 MSTORE PUSH1 0x20 ADD SWAP1 DUP2 MSTORE PUSH1 0x20 ADD PUSH1 0x0 KECCAK256 PUSH1 0x6 ADD PUSH1 0x40 MLOAD PUSH2 0x347 SWAP6 SWAP5 SWAP4 SWAP3 SWAP2 SWAP1 PUSH2 0xF65 JUMP JUMPDEST PUSH1 0x40 MLOAD DUP1 SWAP2 SUB SWAP1 LOG1 POP POP JUMP JUMPDEST PUSH1 0x0 DUP1 SLOAD SWAP1 PUSH2 0x100 EXP SWAP1 DIV PUSH20 0xFFFFFFFFFFFFFFFFFFFFFFFFFFFFFFFFFFFFFFFF AND PUSH20 0xFFFFFFFFFFFFFFFFFFFFFFFFFFFFFFFFFFFFFFFF AND CALLER PUSH20 0xFFFFFFFFFFFFFFFFFFFFFFFFFFFFFFFFFFFFFFFF AND EQ PUSH2 0x3E1 JUMPI PUSH1 0x40 MLOAD PUSH32 0x8C379A000000000000000000000000000000000000000000000000000000000 DUP2 MSTORE PUSH1 0x4 ADD PUSH2 0x3D8 SWAP1 PUSH2 0x10FF JUMP JUMPDEST PUSH1 0x40 MLOAD DUP1 SWAP2 SUB SWAP1 REVERT JUMPDEST PUSH1 0x0 PUSH1 0x2 PUSH1 0x0 PUSH1 0x1 SLOAD DUP2 MSTORE PUSH1 0x20 ADD SWAP1 DUP2 MSTORE PUSH1 0x20 ADD PUSH1 0x0 KECCAK256 SWAP1 POP DUP11 DUP2 PUSH1 0x0 ADD SWAP1 DUP1 MLOAD SWAP1 PUSH1 0x20 ADD SWAP1 PUSH2 0x412 SWAP3 SWAP2 SWAP1 PUSH2 0x757 JUMP JUMPDEST POP DUP10 DUP2 PUSH1 0x1 ADD SWAP1 DUP1 MLOAD SWAP1 PUSH1 0x20 ADD SWAP1 PUSH2 0x42B SWAP3 SWAP2 SWAP1 PUSH2 0x757 JUMP JUMPDEST POP DUP9 DUP2 PUSH1 0x2 ADD SWAP1 DUP1 MLOAD SWAP1 PUSH1 0x20 ADD SWAP1 PUSH2 0x444 SWAP3 SWAP2 SWAP1 PUSH2 0x757 JUMP JUMPDEST POP DUP8 DUP2 PUSH1 0x3 ADD SWAP1 DUP1 MLOAD SWAP1 PUSH1 0x20 ADD SWAP1 PUSH2 0x45D SWAP3 SWAP2 SWAP1 PUSH2 0x757 JUMP JUMPDEST POP DUP7 DUP2 PUSH1 0x4 ADD SWAP1 DUP1 MLOAD SWAP1 PUSH1 0x20 ADD SWAP1 PUSH2 0x476 SWAP3 SWAP2 SWAP1 PUSH2 0x757 JUMP JUMPDEST POP DUP6 DUP2 PUSH1 0x5 ADD SWAP1 DUP1 MLOAD SWAP1 PUSH1 0x20 ADD SWAP1 PUSH2 0x48F SWAP3 SWAP2 SWAP1 PUSH2 0x757 JUMP JUMPDEST POP DUP5 DUP2 PUSH1 0x6 ADD SWAP1 DUP1 MLOAD SWAP1 PUSH1 0x20 ADD SWAP1 PUSH2 0x4A8 SWAP3 SWAP2 SWAP1 PUSH2 0x757 JUMP JUMPDEST POP DUP4 DUP2 PUSH1 0x7 ADD DUP2 SWAP1 SSTORE POP DUP3 DUP2 PUSH1 0x8 ADD DUP2 SWAP1 SSTORE POP DUP2 DUP2 PUSH1 0x9 ADD SWAP1 DUP1 MLOAD SWAP1 PUSH1 0x20 ADD SWAP1 PUSH2 0x4D3 SWAP3 SWAP2 SWAP1 PUSH2 0x7DD JUMP JUMPDEST POP PUSH1 0x1 SLOAD DUP2 PUSH1 0xA ADD DUP2 SWAP1 SSTORE POP PUSH1 0x0 DUP1 SLOAD SWAP1 PUSH2 0x100 EXP SWAP1 DIV PUSH20 0xFFFFFFFFFFFFFFFFFFFFFFFFFFFFFFFFFFFFFFFF AND DUP2 PUSH1 0xB ADD PUSH1 0x0 PUSH2 0x100 EXP DUP2 SLOAD DUP2 PUSH20 0xFFFFFFFFFFFFFFFFFFFFFFFFFFFFFFFFFFFFFFFF MUL NOT AND SWAP1 DUP4 PUSH20 0xFFFFFFFFFFFFFFFFFFFFFFFFFFFFFFFFFFFFFFFF AND MUL OR SWAP1 SSTORE POP PUSH1 0x3 PUSH1 0x1 SLOAD SWAP1 DUP1 PUSH1 0x1 DUP2 SLOAD ADD DUP1 DUP3 SSTORE DUP1 SWAP2 POP POP PUSH1 0x1 SWAP1 SUB SWAP1 PUSH1 0x0 MSTORE PUSH1 0x20 PUSH1 0x0 KECCAK256 ADD PUSH1 0x0 SWAP1 SWAP2 SWAP1 SWAP2 SWAP1 SWAP2 POP SSTORE PUSH32 0xC06F078C3C74D235829AF3E011FF5AAE487C78EF8D3ACCA688417ED86FF14591 DUP12 DUP12 DUP12 DUP12 DUP12 DUP12 DUP12 DUP12 DUP12 DUP12 PUSH1 0x1 SLOAD PUSH1 0x0 DUP1 SLOAD SWAP1 PUSH2 0x100 EXP SWAP1 DIV PUSH20 0xFFFFFFFFFFFFFFFFFFFFFFFFFFFFFFFFFFFFFFFF AND PUSH1 0x40 MLOAD PUSH2 0x5D4 SWAP13 SWAP12 SWAP11 SWAP10 SWAP9 SWAP8 SWAP7 SWAP6 SWAP5 SWAP4 SWAP3 SWAP2 SWAP1 PUSH2 0xFCD JUMP JUMPDEST PUSH1 0x40 MLOAD DUP1 SWAP2 SUB SWAP1 LOG1 PUSH1 0x1 PUSH1 0x0 DUP2 SLOAD DUP1 SWAP3 SWAP2 SWAP1 PUSH2 0x5EF SWAP1 PUSH2 0x139D JUMP JUMPDEST SWAP2 SWAP1 POP SSTORE POP POP POP POP POP POP POP POP POP POP POP POP JUMP JUMPDEST PUSH1 0x0 DUP1 SLOAD SWAP1 PUSH2 0x100 EXP SWAP1 DIV PUSH20 0xFFFFFFFFFFFFFFFFFFFFFFFFFFFFFFFFFFFFFFFF AND DUP2 JUMP JUMPDEST PUSH1 0x3 DUP2 DUP2 SLOAD DUP2 LT PUSH2 0x635 JUMPI PUSH1 0x0 DUP1 REVERT JUMPDEST SWAP1 PUSH1 0x0 MSTORE PUSH1 0x20 PUSH1 0x0 KECCAK256 ADD PUSH1 0x0 SWAP2 POP SWAP1 POP SLOAD DUP2 JUMP JUMPDEST PUSH1 0x0 DUP1 JUMPDEST DUP3 MLOAD DUP2 LT ISZERO PUSH2 0x74B JUMPI PUSH1 0x0 JUMPDEST PUSH1 0x2 PUSH1 0x0 DUP7 DUP2 MSTORE PUSH1 0x20 ADD SWAP1 DUP2 MSTORE PUSH1 0x20 ADD PUSH1 0x0 KECCAK256 PUSH1 0x9 ADD DUP1 SLOAD SWAP1 POP DUP2 LT ISZERO PUSH2 0x737 JUMPI DUP4 DUP3 DUP2 MLOAD DUP2 LT PUSH2 0x68D JUMPI PUSH2 0x68C PUSH2 0x1444 JUMP JUMPDEST JUMPDEST PUSH1 0x20 MUL PUSH1 0x20 ADD ADD MLOAD PUSH1 0x40 MLOAD PUSH1 0x20 ADD PUSH2 0x6A5 SWAP2 SWAP1 PUSH2 0xF1C JUMP JUMPDEST PUSH1 0x40 MLOAD PUSH1 0x20 DUP2 DUP4 SUB SUB DUP2 MSTORE SWAP1 PUSH1 0x40 MSTORE DUP1 MLOAD SWAP1 PUSH1 0x20 ADD KECCAK256 PUSH1 0x2 PUSH1 0x0 DUP8 DUP2 MSTORE PUSH1 0x20 ADD SWAP1 DUP2 MSTORE PUSH1 0x20 ADD PUSH1 0x0 KECCAK256 PUSH1 0x9 ADD DUP3 DUP2 SLOAD DUP2 LT PUSH2 0x6E3 JUMPI PUSH2 0x6E2 PUSH2 0x1444 JUMP JUMPDEST JUMPDEST SWAP1 PUSH1 0x0 MSTORE PUSH1 0x20 PUSH1 0x0 KECCAK256 ADD PUSH1 0x40 MLOAD PUSH1 0x20 ADD PUSH2 0x6FD SWAP2 SWAP1 PUSH2 0xF33 JUMP JUMPDEST PUSH1 0x40 MLOAD PUSH1 0x20 DUP2 DUP4 SUB SUB DUP2 MSTORE SWAP1 PUSH1 0x40 MSTORE DUP1 MLOAD SWAP1 PUSH1 0x20 ADD KECCAK256 EQ ISZERO PUSH2 0x724 JUMPI PUSH1 0x0 SWAP3 POP POP POP PUSH2 0x751 JUMP JUMPDEST DUP1 DUP1 PUSH2 0x72F SWAP1 PUSH2 0x139D JUMP JUMPDEST SWAP2 POP POP PUSH2 0x659 JUMP JUMPDEST POP DUP1 DUP1 PUSH2 0x743 SWAP1 PUSH2 0x139D JUMP JUMPDEST SWAP2 POP POP PUSH2 0x64D JUMP JUMPDEST POP PUSH1 0x1 SWAP1 POP JUMPDEST SWAP3 SWAP2 POP POP JUMP JUMPDEST DUP3 DUP1 SLOAD PUSH2 0x763 SWAP1 PUSH2 0x133A JUMP JUMPDEST SWAP1 PUSH1 0x0 MSTORE PUSH1 0x20 PUSH1 0x0 KECCAK256 SWAP1 PUSH1 0x1F ADD PUSH1 0x20 SWAP1 DIV DUP2 ADD SWAP3 DUP3 PUSH2 0x785 JUMPI PUSH1 0x0 DUP6 SSTORE PUSH2 0x7CC JUMP JUMPDEST DUP3 PUSH1 0x1F LT PUSH2 0x79E JUMPI DUP1 MLOAD PUSH1 0xFF NOT AND DUP4 DUP1 ADD OR DUP6 SSTORE PUSH2 0x7CC JUMP JUMPDEST DUP3 DUP1 ADD PUSH1 0x1 ADD DUP6 SSTORE DUP3 ISZERO PUSH2 0x7CC JUMPI SWAP2 DUP3 ADD JUMPDEST DUP3 DUP2 GT ISZERO PUSH2 0x7CB JUMPI DUP3 MLOAD DUP3 SSTORE SWAP2 PUSH1 0x20 ADD SWAP2 SWAP1 PUSH1 0x1 ADD SWAP1 PUSH2 0x7B0 JUMP JUMPDEST JUMPDEST POP SWAP1 POP PUSH2 0x7D9 SWAP2 SWAP1 PUSH2 0x83D JUMP JUMPDEST POP SWAP1 JUMP JUMPDEST DUP3 DUP1 SLOAD DUP3 DUP3 SSTORE SWAP1 PUSH1 0x0 MSTORE PUSH1 0x20 PUSH1 0x0 KECCAK256 SWAP1 DUP2 ADD SWAP3 DUP3 ISZERO PUSH2 0x82C JUMPI SWAP2 PUSH1 0x20 MUL DUP3 ADD JUMPDEST DUP3 DUP2 GT ISZERO PUSH2 0x82B JUMPI DUP3 MLOAD DUP3 SWAP1 DUP1 MLOAD SWAP1 PUSH1 0x20 ADD SWAP1 PUSH2 0x81B SWAP3 SWAP2 SWAP1 PUSH2 0x757 JUMP JUMPDEST POP SWAP2 PUSH1 0x20 ADD SWAP2 SWAP1 PUSH1 0x1 ADD SWAP1 PUSH2 0x7FD JUMP JUMPDEST JUMPDEST POP SWAP1 POP PUSH2 0x839 SWAP2 SWAP1 PUSH2 0x85A JUMP JUMPDEST POP SWAP1 JUMP JUMPDEST JUMPDEST DUP1 DUP3 GT ISZERO PUSH2 0x856 JUMPI PUSH1 0x0 DUP2 PUSH1 0x0 SWAP1 SSTORE POP PUSH1 0x1 ADD PUSH2 0x83E JUMP JUMPDEST POP SWAP1 JUMP JUMPDEST JUMPDEST DUP1 DUP3 GT ISZERO PUSH2 0x87A JUMPI PUSH1 0x0 DUP2 DUP2 PUSH2 0x871 SWAP2 SWAP1 PUSH2 0x87E JUMP JUMPDEST POP PUSH1 0x1 ADD PUSH2 0x85B JUMP JUMPDEST POP SWAP1 JUMP JUMPDEST POP DUP1 SLOAD PUSH2 0x88A SWAP1 PUSH2 0x133A JUMP JUMPDEST PUSH1 0x0 DUP3 SSTORE DUP1 PUSH1 0x1F LT PUSH2 0x89C JUMPI POP PUSH2 0x8BB JUMP JUMPDEST PUSH1 0x1F ADD PUSH1 0x20 SWAP1 DIV SWAP1 PUSH1 0x0 MSTORE PUSH1 0x20 PUSH1 0x0 KECCAK256 SWAP1 DUP2 ADD SWAP1 PUSH2 0x8BA SWAP2 SWAP1 PUSH2 0x83D JUMP JUMPDEST JUMPDEST POP JUMP JUMPDEST PUSH1 0x0 PUSH2 0x8D1 PUSH2 0x8CC DUP5 PUSH2 0x117F JUMP JUMPDEST PUSH2 0x115A JUMP JUMPDEST SWAP1 POP DUP1 DUP4 DUP3 MSTORE PUSH1 0x20 DUP3 ADD SWAP1 POP DUP3 DUP6 PUSH1 0x20 DUP7 MUL DUP3 ADD GT ISZERO PUSH2 0x8F4 JUMPI PUSH2 0x8F3 PUSH2 0x14A7 JUMP JUMPDEST JUMPDEST PUSH1 0x0 JUMPDEST DUP6 DUP2 LT ISZERO PUSH2 0x942 JUMPI DUP2 CALLDATALOAD PUSH8 0xFFFFFFFFFFFFFFFF DUP2 GT ISZERO PUSH2 0x91A JUMPI PUSH2 0x919 PUSH2 0x14A2 JUMP JUMPDEST JUMPDEST DUP1 DUP7 ADD PUSH2 0x927 DUP10 DUP3 PUSH2 0x9BC JUMP JUMPDEST DUP6 MSTORE PUSH1 0x20 DUP6 ADD SWAP5 POP PUSH1 0x20 DUP5 ADD SWAP4 POP POP POP PUSH1 0x1 DUP2 ADD SWAP1 POP PUSH2 0x8F7 JUMP JUMPDEST POP POP POP SWAP4 SWAP3 POP POP POP JUMP JUMPDEST PUSH1 0x0 PUSH2 0x95F PUSH2 0x95A DUP5 PUSH2 0x11AB JUMP JUMPDEST PUSH2 0x115A JUMP JUMPDEST SWAP1 POP DUP3 DUP2 MSTORE PUSH1 0x20 DUP2 ADD DUP5 DUP5 DUP5 ADD GT ISZERO PUSH2 0x97B JUMPI PUSH2 0x97A PUSH2 0x14AC JUMP JUMPDEST JUMPDEST PUSH2 0x986 DUP5 DUP3 DUP6 PUSH2 0x12F8 JUMP JUMPDEST POP SWAP4 SWAP3 POP POP POP JUMP JUMPDEST PUSH1 0x0 DUP3 PUSH1 0x1F DUP4 ADD SLT PUSH2 0x9A3 JUMPI PUSH2 0x9A2 PUSH2 0x14A2 JUMP JUMPDEST JUMPDEST DUP2 CALLDATALOAD PUSH2 0x9B3 DUP5 DUP3 PUSH1 0x20 DUP7 ADD PUSH2 0x8BE JUMP JUMPDEST SWAP2 POP POP SWAP3 SWAP2 POP POP JUMP JUMPDEST PUSH1 0x0 DUP3 PUSH1 0x1F DUP4 ADD SLT PUSH2 0x9D1 JUMPI PUSH2 0x9D0 PUSH2 0x14A2 JUMP JUMPDEST JUMPDEST DUP2 CALLDATALOAD PUSH2 0x9E1 DUP5 DUP3 PUSH1 0x20 DUP7 ADD PUSH2 0x94C JUMP JUMPDEST SWAP2 POP POP SWAP3 SWAP2 POP POP JUMP JUMPDEST PUSH1 0x0 DUP2 CALLDATALOAD SWAP1 POP PUSH2 0x9F9 DUP2 PUSH2 0x15E2 JUMP JUMPDEST SWAP3 SWAP2 POP POP JUMP JUMPDEST PUSH1 0x0 DUP1 PUSH1 0x0 DUP1 PUSH1 0x0 DUP1 PUSH1 0x0 DUP1 PUSH1 0x0 DUP1 PUSH2 0x140 DUP12 DUP14 SUB SLT ISZERO PUSH2 0xA23 JUMPI PUSH2 0xA22 PUSH2 0x14B6 JUMP JUMPDEST JUMPDEST PUSH1 0x0 DUP12 ADD CALLDATALOAD PUSH8 0xFFFFFFFFFFFFFFFF DUP2 GT ISZERO PUSH2 0xA41 JUMPI PUSH2 0xA40 PUSH2 0x14B1 JUMP JUMPDEST JUMPDEST PUSH2 0xA4D DUP14 DUP3 DUP15 ADD PUSH2 0x9BC JUMP JUMPDEST SWAP11 POP POP PUSH1 0x20 DUP12 ADD CALLDATALOAD PUSH8 0xFFFFFFFFFFFFFFFF DUP2 GT ISZERO PUSH2 0xA6E JUMPI PUSH2 0xA6D PUSH2 0x14B1 JUMP JUMPDEST JUMPDEST PUSH2 0xA7A DUP14 DUP3 DUP15 ADD PUSH2 0x9BC JUMP JUMPDEST SWAP10 POP POP PUSH1 0x40 DUP12 ADD CALLDATALOAD PUSH8 0xFFFFFFFFFFFFFFFF DUP2 GT ISZERO PUSH2 0xA9B JUMPI PUSH2 0xA9A PUSH2 0x14B1 JUMP JUMPDEST JUMPDEST PUSH2 0xAA7 DUP14 DUP3 DUP15 ADD PUSH2 0x9BC JUMP JUMPDEST SWAP9 POP POP PUSH1 0x60 DUP12 ADD CALLDATALOAD PUSH8 0xFFFFFFFFFFFFFFFF DUP2 GT ISZERO PUSH2 0xAC8 JUMPI PUSH2 0xAC7 PUSH2 0x14B1 JUMP JUMPDEST JUMPDEST PUSH2 0xAD4 DUP14 DUP3 DUP15 ADD PUSH2 0x9BC JUMP JUMPDEST SWAP8 POP POP PUSH1 0x80 DUP12 ADD CALLDATALOAD PUSH8 0xFFFFFFFFFFFFFFFF DUP2 GT ISZERO PUSH2 0xAF5 JUMPI PUSH2 0xAF4 PUSH2 0x14B1 JUMP JUMPDEST JUMPDEST PUSH2 0xB01 DUP14 DUP3 DUP15 ADD PUSH2 0x9BC JUMP JUMPDEST SWAP7 POP POP PUSH1 0xA0 DUP12 ADD CALLDATALOAD PUSH8 0xFFFFFFFFFFFFFFFF DUP2 GT ISZERO PUSH2 0xB22 JUMPI PUSH2 0xB21 PUSH2 0x14B1 JUMP JUMPDEST JUMPDEST PUSH2 0xB2E DUP14 DUP3 DUP15 ADD PUSH2 0x9BC JUMP JUMPDEST SWAP6 POP POP PUSH1 0xC0 DUP12 ADD CALLDATALOAD PUSH8 0xFFFFFFFFFFFFFFFF DUP2 GT ISZERO PUSH2 0xB4F JUMPI PUSH2 0xB4E PUSH2 0x14B1 JUMP JUMPDEST JUMPDEST PUSH2 0xB5B DUP14 DUP3 DUP15 ADD PUSH2 0x9BC JUMP JUMPDEST SWAP5 POP POP PUSH1 0xE0 PUSH2 0xB6C DUP14 DUP3 DUP15 ADD PUSH2 0x9EA JUMP JUMPDEST SWAP4 POP POP PUSH2 0x100 PUSH2 0xB7E DUP14 DUP3 DUP15 ADD PUSH2 0x9EA JUMP JUMPDEST SWAP3 POP POP PUSH2 0x120 DUP12 ADD CALLDATALOAD PUSH8 0xFFFFFFFFFFFFFFFF DUP2 GT ISZERO PUSH2 0xBA0 JUMPI PUSH2 0xB9F PUSH2 0x14B1 JUMP JUMPDEST JUMPDEST PUSH2 0xBAC DUP14 DUP3 DUP15 ADD PUSH2 0x98E JUMP JUMPDEST SWAP2 POP POP SWAP3 SWAP6 SWAP9 SWAP12 SWAP2 SWAP5 SWAP8 SWAP11 POP SWAP3 SWAP6 SWAP9 POP JUMP JUMPDEST PUSH1 0x0 PUSH1 0x20 DUP3 DUP5 SUB SLT ISZERO PUSH2 0xBD4 JUMPI PUSH2 0xBD3 PUSH2 0x14B6 JUMP JUMPDEST JUMPDEST PUSH1 0x0 PUSH2 0xBE2 DUP5 DUP3 DUP6 ADD PUSH2 0x9EA JUMP JUMPDEST SWAP2 POP POP SWAP3 SWAP2 POP POP JUMP JUMPDEST PUSH1 0x0 DUP1 PUSH1 0x40 DUP4 DUP6 SUB SLT ISZERO PUSH2 0xC02 JUMPI PUSH2 0xC01 PUSH2 0x14B6 JUMP JUMPDEST JUMPDEST PUSH1 0x0 PUSH2 0xC10 DUP6 DUP3 DUP7 ADD PUSH2 0x9EA JUMP JUMPDEST SWAP3 POP POP PUSH1 0x20 DUP4 ADD CALLDATALOAD PUSH8 0xFFFFFFFFFFFFFFFF DUP2 GT ISZERO PUSH2 0xC31 JUMPI PUSH2 0xC30 PUSH2 0x14B1 JUMP JUMPDEST JUMPDEST PUSH2 0xC3D DUP6 DUP3 DUP7 ADD PUSH2 0x98E JUMP JUMPDEST SWAP2 POP POP SWAP3 POP SWAP3 SWAP1 POP JUMP JUMPDEST PUSH1 0x0 PUSH2 0xC53 DUP4 DUP4 PUSH2 0xCDF JUMP JUMPDEST SWAP1 POP SWAP3 SWAP2 POP POP JUMP JUMPDEST PUSH2 0xC64 DUP2 PUSH2 0x12BC JUMP JUMPDEST DUP3 MSTORE POP POP JUMP JUMPDEST PUSH1 0x0 PUSH2 0xC75 DUP3 PUSH2 0x1201 JUMP JUMPDEST PUSH2 0xC7F DUP2 DUP6 PUSH2 0x1224 JUMP JUMPDEST SWAP4 POP DUP4 PUSH1 0x20 DUP3 MUL DUP6 ADD PUSH2 0xC91 DUP6 PUSH2 0x11DC JUMP JUMPDEST DUP1 PUSH1 0x0 JUMPDEST DUP6 DUP2 LT ISZERO PUSH2 0xCCD JUMPI DUP5 DUP5 SUB DUP10 MSTORE DUP2 MLOAD PUSH2 0xCAE DUP6 DUP3 PUSH2 0xC47 JUMP JUMPDEST SWAP5 POP PUSH2 0xCB9 DUP4 PUSH2 0x1217 JUMP JUMPDEST SWAP3 POP PUSH1 0x20 DUP11 ADD SWAP10 POP POP PUSH1 0x1 DUP2 ADD SWAP1 POP PUSH2 0xC95 JUMP JUMPDEST POP DUP3 SWAP8 POP DUP8 SWAP6 POP POP POP POP POP POP SWAP3 SWAP2 POP POP JUMP JUMPDEST PUSH1 0x0 PUSH2 0xCEA DUP3 PUSH2 0x120C JUMP JUMPDEST PUSH2 0xCF4 DUP2 DUP6 PUSH2 0x1235 JUMP JUMPDEST SWAP4 POP PUSH2 0xD04 DUP2 DUP6 PUSH1 0x20 DUP7 ADD PUSH2 0x1307 JUMP JUMPDEST PUSH2 0xD0D DUP2 PUSH2 0x14BB JUMP JUMPDEST DUP5 ADD SWAP2 POP POP SWAP3 SWAP2 POP POP JUMP JUMPDEST PUSH1 0x0 PUSH2 0xD23 DUP3 PUSH2 0x120C JUMP JUMPDEST PUSH2 0xD2D DUP2 DUP6 PUSH2 0x1246 JUMP JUMPDEST SWAP4 POP PUSH2 0xD3D DUP2 DUP6 PUSH1 0x20 DUP7 ADD PUSH2 0x1307 JUMP JUMPDEST PUSH2 0xD46 DUP2 PUSH2 0x14BB JUMP JUMPDEST DUP5 ADD SWAP2 POP POP SWAP3 SWAP2 POP POP JUMP JUMPDEST PUSH1 0x0 PUSH2 0xD5C DUP3 PUSH2 0x120C JUMP JUMPDEST PUSH2 0xD66 DUP2 DUP6 PUSH2 0x1257 JUMP JUMPDEST SWAP4 POP PUSH2 0xD76 DUP2 DUP6 PUSH1 0x20 DUP7 ADD PUSH2 0x1307 JUMP JUMPDEST DUP1 DUP5 ADD SWAP2 POP POP SWAP3 SWAP2 POP POP JUMP JUMPDEST PUSH1 0x0 DUP2 SLOAD PUSH2 0xD8F DUP2 PUSH2 0x133A JUMP JUMPDEST PUSH2 0xD99 DUP2 DUP7 PUSH2 0x1246 JUMP JUMPDEST SWAP5 POP PUSH1 0x1 DUP3 AND PUSH1 0x0 DUP2 EQ PUSH2 0xDB4 JUMPI PUSH1 0x1 DUP2 EQ PUSH2 0xDC6 JUMPI PUSH2 0xDF9 JUMP JUMPDEST PUSH1 0xFF NOT DUP4 AND DUP7 MSTORE PUSH1 0x20 DUP7 ADD SWAP4 POP PUSH2 0xDF9 JUMP JUMPDEST PUSH2 0xDCF DUP6 PUSH2 0x11EC JUMP JUMPDEST PUSH1 0x0 JUMPDEST DUP4 DUP2 LT ISZERO PUSH2 0xDF1 JUMPI DUP2 SLOAD DUP2 DUP10 ADD MSTORE PUSH1 0x1 DUP3 ADD SWAP2 POP PUSH1 0x20 DUP2 ADD SWAP1 POP PUSH2 0xDD2 JUMP JUMPDEST DUP1 DUP9 ADD SWAP6 POP POP POP JUMPDEST POP POP POP SWAP3 SWAP2 POP POP JUMP JUMPDEST PUSH1 0x0 DUP2 SLOAD PUSH2 0xE0F DUP2 PUSH2 0x133A JUMP JUMPDEST PUSH2 0xE19 DUP2 DUP7 PUSH2 0x1257 JUMP JUMPDEST SWAP5 POP PUSH1 0x1 DUP3 AND PUSH1 0x0 DUP2 EQ PUSH2 0xE34 JUMPI PUSH1 0x1 DUP2 EQ PUSH2 0xE45 JUMPI PUSH2 0xE78 JUMP JUMPDEST PUSH1 0xFF NOT DUP4 AND DUP7 MSTORE DUP2 DUP7 ADD SWAP4 POP PUSH2 0xE78 JUMP JUMPDEST PUSH2 0xE4E DUP6 PUSH2 0x11EC JUMP JUMPDEST PUSH1 0x0 JUMPDEST DUP4 DUP2 LT ISZERO PUSH2 0xE70 JUMPI DUP2 SLOAD DUP2 DUP10 ADD MSTORE PUSH1 0x1 DUP3 ADD SWAP2 POP PUSH1 0x20 DUP2 ADD SWAP1 POP PUSH2 0xE51 JUMP JUMPDEST DUP4 DUP9 ADD SWAP6 POP POP POP JUMPDEST POP POP POP SWAP3 SWAP2 POP POP JUMP JUMPDEST PUSH1 0x0 PUSH2 0xE8E PUSH1 0xE DUP4 PUSH2 0x1246 JUMP JUMPDEST SWAP2 POP PUSH2 0xE99 DUP3 PUSH2 0x14CC JUMP JUMPDEST PUSH1 0x20 DUP3 ADD SWAP1 POP SWAP2 SWAP1 POP JUMP JUMPDEST PUSH1 0x0 PUSH2 0xEB1 PUSH1 0x40 DUP4 PUSH2 0x1246 JUMP JUMPDEST SWAP2 POP PUSH2 0xEBC DUP3 PUSH2 0x14F5 JUMP JUMPDEST PUSH1 0x40 DUP3 ADD SWAP1 POP SWAP2 SWAP1 POP JUMP JUMPDEST PUSH1 0x0 PUSH2 0xED4 PUSH1 0x37 DUP4 PUSH2 0x1246 JUMP JUMPDEST SWAP2 POP PUSH2 0xEDF DUP3 PUSH2 0x1544 JUMP JUMPDEST PUSH1 0x40 DUP3 ADD SWAP1 POP SWAP2 SWAP1 POP JUMP JUMPDEST PUSH1 0x0 PUSH2 0xEF7 PUSH1 0x21 DUP4 PUSH2 0x1246 JUMP JUMPDEST SWAP2 POP PUSH2 0xF02 DUP3 PUSH2 0x1593 JUMP JUMPDEST PUSH1 0x40 DUP3 ADD SWAP1 POP SWAP2 SWAP1 POP JUMP JUMPDEST PUSH2 0xF16 DUP2 PUSH2 0x12EE JUMP JUMPDEST DUP3 MSTORE POP POP JUMP JUMPDEST PUSH1 0x0 PUSH2 0xF28 DUP3 DUP5 PUSH2 0xD51 JUMP JUMPDEST SWAP2 POP DUP2 SWAP1 POP SWAP3 SWAP2 POP POP JUMP JUMPDEST PUSH1 0x0 PUSH2 0xF3F DUP3 DUP5 PUSH2 0xE02 JUMP JUMPDEST SWAP2 POP DUP2 SWAP1 POP SWAP3 SWAP2 POP POP JUMP JUMPDEST PUSH1 0x0 PUSH1 0x20 DUP3 ADD SWAP1 POP PUSH2 0xF5F PUSH1 0x0 DUP4 ADD DUP5 PUSH2 0xC5B JUMP JUMPDEST SWAP3 SWAP2 POP POP JUMP JUMPDEST PUSH1 0x0 PUSH1 0xA0 DUP3 ADD SWAP1 POP DUP2 DUP2 SUB PUSH1 0x0 DUP4 ADD MSTORE PUSH2 0xF7F DUP2 DUP9 PUSH2 0xC6A JUMP JUMPDEST SWAP1 POP PUSH2 0xF8E PUSH1 0x20 DUP4 ADD DUP8 PUSH2 0xF0D JUMP JUMPDEST PUSH2 0xF9B PUSH1 0x40 DUP4 ADD DUP7 PUSH2 0xC5B JUMP JUMPDEST DUP2 DUP2 SUB PUSH1 0x60 DUP4 ADD MSTORE PUSH2 0xFAD DUP2 DUP6 PUSH2 0xD82 JUMP JUMPDEST SWAP1 POP DUP2 DUP2 SUB PUSH1 0x80 DUP4 ADD MSTORE PUSH2 0xFC1 DUP2 DUP5 PUSH2 0xD82 JUMP JUMPDEST SWAP1 POP SWAP7 SWAP6 POP POP POP POP POP POP JUMP JUMPDEST PUSH1 0x0 PUSH2 0x180 DUP3 ADD SWAP1 POP DUP2 DUP2 SUB PUSH1 0x0 DUP4 ADD MSTORE PUSH2 0xFE8 DUP2 DUP16 PUSH2 0xD18 JUMP JUMPDEST SWAP1 POP DUP2 DUP2 SUB PUSH1 0x20 DUP4 ADD MSTORE PUSH2 0xFFC DUP2 DUP15 PUSH2 0xD18 JUMP JUMPDEST SWAP1 POP DUP2 DUP2 SUB PUSH1 0x40 DUP4 ADD MSTORE PUSH2 0x1010 DUP2 DUP14 PUSH2 0xD18 JUMP JUMPDEST SWAP1 POP DUP2 DUP2 SUB PUSH1 0x60 DUP4 ADD MSTORE PUSH2 0x1024 DUP2 DUP13 PUSH2 0xD18 JUMP JUMPDEST SWAP1 POP DUP2 DUP2 SUB PUSH1 0x80 DUP4 ADD MSTORE PUSH2 0x1038 DUP2 DUP12 PUSH2 0xD18 JUMP JUMPDEST SWAP1 POP DUP2 DUP2 SUB PUSH1 0xA0 DUP4 ADD MSTORE PUSH2 0x104C DUP2 DUP11 PUSH2 0xD18 JUMP JUMPDEST SWAP1 POP DUP2 DUP2 SUB PUSH1 0xC0 DUP4 ADD MSTORE PUSH2 0x1060 DUP2 DUP10 PUSH2 0xD18 JUMP JUMPDEST SWAP1 POP PUSH2 0x106F PUSH1 0xE0 DUP4 ADD DUP9 PUSH2 0xF0D JUMP JUMPDEST PUSH2 0x107D PUSH2 0x100 DUP4 ADD DUP8 PUSH2 0xF0D JUMP JUMPDEST DUP2 DUP2 SUB PUSH2 0x120 DUP4 ADD MSTORE PUSH2 0x1090 DUP2 DUP7 PUSH2 0xC6A JUMP JUMPDEST SWAP1 POP PUSH2 0x10A0 PUSH2 0x140 DUP4 ADD DUP6 PUSH2 0xF0D JUMP JUMPDEST PUSH2 0x10AE PUSH2 0x160 DUP4 ADD DUP5 PUSH2 0xC5B JUMP JUMPDEST SWAP14 SWAP13 POP POP POP POP POP POP POP POP POP POP POP POP POP JUMP JUMPDEST PUSH1 0x0 PUSH1 0x20 DUP3 ADD SWAP1 POP DUP2 DUP2 SUB PUSH1 0x0 DUP4 ADD MSTORE PUSH2 0x10D8 DUP2 PUSH2 0xE81 JUMP JUMPDEST SWAP1 POP SWAP2 SWAP1 POP JUMP JUMPDEST PUSH1 0x0 PUSH1 0x20 DUP3 ADD SWAP1 POP DUP2 DUP2 SUB PUSH1 0x0 DUP4 ADD MSTORE PUSH2 0x10F8 DUP2 PUSH2 0xEA4 JUMP JUMPDEST SWAP1 POP SWAP2 SWAP1 POP JUMP JUMPDEST PUSH1 0x0 PUSH1 0x20 DUP3 ADD SWAP1 POP DUP2 DUP2 SUB PUSH1 0x0 DUP4 ADD MSTORE PUSH2 0x1118 DUP2 PUSH2 0xEC7 JUMP JUMPDEST SWAP1 POP SWAP2 SWAP1 POP JUMP JUMPDEST PUSH1 0x0 PUSH1 0x20 DUP3 ADD SWAP1 POP DUP2 DUP2 SUB PUSH1 0x0 DUP4 ADD MSTORE PUSH2 0x1138 DUP2 PUSH2 0xEEA JUMP JUMPDEST SWAP1 POP SWAP2 SWAP1 POP JUMP JUMPDEST PUSH1 0x0 PUSH1 0x20 DUP3 ADD SWAP1 POP PUSH2 0x1154 PUSH1 0x0 DUP4 ADD DUP5 PUSH2 0xF0D JUMP JUMPDEST SWAP3 SWAP2 POP POP JUMP JUMPDEST PUSH1 0x0 PUSH2 0x1164 PUSH2 0x1175 JUMP JUMPDEST SWAP1 POP PUSH2 0x1170 DUP3 DUP3 PUSH2 0x136C JUMP JUMPDEST SWAP2 SWAP1 POP JUMP JUMPDEST PUSH1 0x0 PUSH1 0x40 MLOAD SWAP1 POP SWAP1 JUMP JUMPDEST PUSH1 0x0 PUSH8 0xFFFFFFFFFFFFFFFF DUP3 GT ISZERO PUSH2 0x119A JUMPI PUSH2 0x1199 PUSH2 0x1473 JUMP JUMPDEST JUMPDEST PUSH1 0x20 DUP3 MUL SWAP1 POP PUSH1 0x20 DUP2 ADD SWAP1 POP SWAP2 SWAP1 POP JUMP JUMPDEST PUSH1 0x0 PUSH8 0xFFFFFFFFFFFFFFFF DUP3 GT ISZERO PUSH2 0x11C6 JUMPI PUSH2 0x11C5 PUSH2 0x1473 JUMP JUMPDEST JUMPDEST PUSH2 0x11CF DUP3 PUSH2 0x14BB JUMP JUMPDEST SWAP1 POP PUSH1 0x20 DUP2 ADD SWAP1 POP SWAP2 SWAP1 POP JUMP JUMPDEST PUSH1 0x0 DUP2 SWAP1 POP PUSH1 0x20 DUP3 ADD SWAP1 POP SWAP2 SWAP1 POP JUMP JUMPDEST PUSH1 0x0 DUP2 SWAP1 POP DUP2 PUSH1 0x0 MSTORE PUSH1 0x20 PUSH1 0x0 KECCAK256 SWAP1 POP SWAP2 SWAP1 POP JUMP JUMPDEST PUSH1 0x0 DUP2 MLOAD SWAP1 POP SWAP2 SWAP1 POP JUMP JUMPDEST PUSH1 0x0 DUP2 MLOAD SWAP1 POP SWAP2 SWAP1 POP JUMP JUMPDEST PUSH1 0x0 PUSH1 0x20 DUP3 ADD SWAP1 POP SWAP2 SWAP1 POP JUMP JUMPDEST PUSH1 0x0 DUP3 DUP3 MSTORE PUSH1 0x20 DUP3 ADD SWAP1 POP SWAP3 SWAP2 POP POP JUMP JUMPDEST PUSH1 0x0 DUP3 DUP3 MSTORE PUSH1 0x20 DUP3 ADD SWAP1 POP SWAP3 SWAP2 POP POP JUMP JUMPDEST PUSH1 0x0 DUP3 DUP3 MSTORE PUSH1 0x20 DUP3 ADD SWAP1 POP SWAP3 SWAP2 POP POP JUMP JUMPDEST PUSH1 0x0 DUP2 SWAP1 POP SWAP3 SWAP2 POP POP JUMP JUMPDEST PUSH1 0x0 PUSH2 0x126D DUP3 PUSH2 0x12EE JUMP JUMPDEST SWAP2 POP PUSH2 0x1278 DUP4 PUSH2 0x12EE JUMP JUMPDEST SWAP3 POP DUP2 PUSH32 0xFFFFFFFFFFFFFFFFFFFFFFFFFFFFFFFFFFFFFFFFFFFFFFFFFFFFFFFFFFFFFFFF DIV DUP4 GT DUP3 ISZERO ISZERO AND ISZERO PUSH2 0x12B1 JUMPI PUSH2 0x12B0 PUSH2 0x13E6 JUMP JUMPDEST JUMPDEST DUP3 DUP3 MUL SWAP1 POP SWAP3 SWAP2 POP POP JUMP JUMPDEST PUSH1 0x0 PUSH2 0x12C7 DUP3 PUSH2 0x12CE JUMP JUMPDEST SWAP1 POP SWAP2 SWAP1 POP JUMP JUMPDEST PUSH1 0x0 PUSH20 0xFFFFFFFFFFFFFFFFFFFFFFFFFFFFFFFFFFFFFFFF DUP3 AND SWAP1 POP SWAP2 SWAP1 POP JUMP JUMPDEST PUSH1 0x0 DUP2 SWAP1 POP SWAP2 SWAP1 POP JUMP JUMPDEST DUP3 DUP2 DUP4 CALLDATACOPY PUSH1 0x0 DUP4 DUP4 ADD MSTORE POP POP POP JUMP JUMPDEST PUSH1 0x0 JUMPDEST DUP4 DUP2 LT ISZERO PUSH2 0x1325 JUMPI DUP1 DUP3 ADD MLOAD DUP2 DUP5 ADD MSTORE PUSH1 0x20 DUP2 ADD SWAP1 POP PUSH2 0x130A JUMP JUMPDEST DUP4 DUP2 GT ISZERO PUSH2 0x1334 JUMPI PUSH1 0x0 DUP5 DUP5 ADD MSTORE JUMPDEST POP POP POP POP JUMP JUMPDEST PUSH1 0x0 PUSH1 0x2 DUP3 DIV SWAP1 POP PUSH1 0x1 DUP3 AND DUP1 PUSH2 0x1352 JUMPI PUSH1 0x7F DUP3 AND SWAP2 POP JUMPDEST PUSH1 0x20 DUP3 LT DUP2 EQ ISZERO PUSH2 0x1366 JUMPI PUSH2 0x1365 PUSH2 0x1415 JUMP JUMPDEST JUMPDEST POP SWAP2 SWAP1 POP JUMP JUMPDEST PUSH2 0x1375 DUP3 PUSH2 0x14BB JUMP JUMPDEST DUP2 ADD DUP2 DUP2 LT PUSH8 0xFFFFFFFFFFFFFFFF DUP3 GT OR ISZERO PUSH2 0x1394 JUMPI PUSH2 0x1393 PUSH2 0x1473 JUMP JUMPDEST JUMPDEST DUP1 PUSH1 0x40 MSTORE POP POP POP JUMP JUMPDEST PUSH1 0x0 PUSH2 0x13A8 DUP3 PUSH2 0x12EE JUMP JUMPDEST SWAP2 POP PUSH32 0xFFFFFFFFFFFFFFFFFFFFFFFFFFFFFFFFFFFFFFFFFFFFFFFFFFFFFFFFFFFFFFFF DUP3 EQ ISZERO PUSH2 0x13DB JUMPI PUSH2 0x13DA PUSH2 0x13E6 JUMP JUMPDEST JUMPDEST PUSH1 0x1 DUP3 ADD SWAP1 POP SWAP2 SWAP1 POP JUMP JUMPDEST PUSH32 0x4E487B7100000000000000000000000000000000000000000000000000000000 PUSH1 0x0 MSTORE PUSH1 0x11 PUSH1 0x4 MSTORE PUSH1 0x24 PUSH1 0x0 REVERT JUMPDEST PUSH32 0x4E487B7100000000000000000000000000000000000000000000000000000000 PUSH1 0x0 MSTORE PUSH1 0x22 PUSH1 0x4 MSTORE PUSH1 0x24 PUSH1 0x0 REVERT JUMPDEST PUSH32 0x4E487B7100000000000000000000000000000000000000000000000000000000 PUSH1 0x0 MSTORE PUSH1 0x32 PUSH1 0x4 MSTORE PUSH1 0x24 PUSH1 0x0 REVERT JUMPDEST PUSH32 0x4E487B7100000000000000000000000000000000000000000000000000000000 PUSH1 0x0 MSTORE PUSH1 0x41 PUSH1 0x4 MSTORE PUSH1 0x24 PUSH1 0x0 REVERT JUMPDEST PUSH1 0x0 DUP1 REVERT JUMPDEST PUSH1 0x0 DUP1 REVERT JUMPDEST PUSH1 0x0 DUP1 REVERT JUMPDEST PUSH1 0x0 DUP1 REVERT JUMPDEST PUSH1 0x0 DUP1 REVERT JUMPDEST PUSH1 0x0 PUSH1 0x1F NOT PUSH1 0x1F DUP4 ADD AND SWAP1 POP SWAP2 SWAP1 POP JUMP JUMPDEST PUSH32 0x4E6F20737563682052656E74616C000000000000000000000000000000000000 PUSH1 0x0 DUP3 ADD MSTORE POP JUMP JUMPDEST PUSH32 0x506C65617365207375626D6974207468652061736B696E672070726963652069 PUSH1 0x0 DUP3 ADD MSTORE PUSH32 0x6E206F7264657220746F20636F6D706C65746520746865207075726368617365 PUSH1 0x20 DUP3 ADD MSTORE POP JUMP JUMPDEST PUSH32 0x4F6E6C7920746865206F776E6572206F662074686520736D61727420636F6E74 PUSH1 0x0 DUP3 ADD MSTORE PUSH32 0x726163742063616E207075742075702072656E74616C73000000000000000000 PUSH1 0x20 DUP3 ADD MSTORE POP JUMP JUMPDEST PUSH32 0x416C726561647920626F6F6B656420666F722072657175657374656420646174 PUSH1 0x0 DUP3 ADD MSTORE PUSH32 0x6500000000000000000000000000000000000000000000000000000000000000 PUSH1 0x20 DUP3 ADD MSTORE POP JUMP JUMPDEST PUSH2 0x15EB DUP2 PUSH2 0x12EE JUMP JUMPDEST DUP2 EQ PUSH2 0x15F6 JUMPI PUSH1 0x0 DUP1 REVERT JUMPDEST POP JUMP INVALID LOG2 PUSH5 0x6970667358 0x22 SLT KECCAK256 0xAC 0xBE DUP15 DUP2 SUB MSTORE8 0x4E 0x5F DUP4 0xB2 0xCC CODECOPY 0xBE STOP 0xCF 0xBE 0xE 0xD3 0xD7 SLOAD 0x4F 0xB5 0x5E 0xBD 0x27 PUSH11 0xBAAD461D225C64736F6C63 NUMBER STOP ADDMOD SMOD STOP CALLER "
				},
				"gasEstimates": {
					"creation": {
						"codeDepositCost": "1135800",
						"executionCost": "30460",
						"totalCost": "1166260"
					},
					"external": {
						"addDatesBooked(uint256,string[])": "infinite",
						"addRentels(string,string,string,string,string,string,string,uint256,uint256,string[])": "infinite",
						"owner()": "2533",
						"rentalIds(uint256)": "infinite"
					},
					"internal": {
						"checkBookings(uint256,string memory[] memory)": "infinite"
					}
				},
				"methodIdentifiers": {
					"addDatesBooked(uint256,string[])": "2a23bb72",
					"addRentels(string,string,string,string,string,string,string,uint256,uint256,string[])": "611fa0a8",
					"owner()": "8da5cb5b",
					"rentalIds(uint256)": "ebfa74c9"
				}
			},
			"storageLayout": {
				"storage": [
					{
						"astId": 3,
						"contract": "contracts/Aquaroom.sol:aquaroom",
						"label": "owner",
						"offset": 0,
						"slot": "0",
						"type": "t_address"
					},
					{
						"astId": 5,
						"contract": "contracts/Aquaroom.sol:aquaroom",
						"label": "counter",
						"offset": 0,
						"slot": "1",
						"type": "t_uint256"
					},
					{
						"astId": 89,
						"contract": "contracts/Aquaroom.sol:aquaroom",
						"label": "rentals",
						"offset": 0,
						"slot": "2",
						"type": "t_mapping(t_uint256,t_struct(rentalInfo)44_storage)"
					},
					{
						"astId": 92,
						"contract": "contracts/Aquaroom.sol:aquaroom",
						"label": "rentalIds",
						"offset": 0,
						"slot": "3",
						"type": "t_array(t_uint256)dyn_storage"
					}
				],
				"types": {
					"t_address": {
						"encoding": "inplace",
						"label": "address",
						"numberOfBytes": "20"
					},
					"t_array(t_string_storage)dyn_storage": {
						"base": "t_string_storage",
						"encoding": "dynamic_array",
						"label": "string[]",
						"numberOfBytes": "32"
					},
					"t_array(t_uint256)dyn_storage": {
						"base": "t_uint256",
						"encoding": "dynamic_array",
						"label": "uint256[]",
						"numberOfBytes": "32"
					},
					"t_mapping(t_uint256,t_struct(rentalInfo)44_storage)": {
						"encoding": "mapping",
						"key": "t_uint256",
						"label": "mapping(uint256 => struct aquaroom.rentalInfo)",
						"numberOfBytes": "32",
						"value": "t_struct(rentalInfo)44_storage"
					},
					"t_string_storage": {
						"encoding": "bytes",
						"label": "string",
						"numberOfBytes": "32"
					},
					"t_struct(rentalInfo)44_storage": {
						"encoding": "inplace",
						"label": "struct aquaroom.rentalInfo",
						"members": [
							{
								"astId": 20,
								"contract": "contracts/Aquaroom.sol:aquaroom",
								"label": "name",
								"offset": 0,
								"slot": "0",
								"type": "t_string_storage"
							},
							{
								"astId": 22,
								"contract": "contracts/Aquaroom.sol:aquaroom",
								"label": "city",
								"offset": 0,
								"slot": "1",
								"type": "t_string_storage"
							},
							{
								"astId": 24,
								"contract": "contracts/Aquaroom.sol:aquaroom",
								"label": "lat",
								"offset": 0,
								"slot": "2",
								"type": "t_string_storage"
							},
							{
								"astId": 26,
								"contract": "contracts/Aquaroom.sol:aquaroom",
								"label": "long",
								"offset": 0,
								"slot": "3",
								"type": "t_string_storage"
							},
							{
								"astId": 28,
								"contract": "contracts/Aquaroom.sol:aquaroom",
								"label": "unoDescription",
								"offset": 0,
								"slot": "4",
								"type": "t_string_storage"
							},
							{
								"astId": 30,
								"contract": "contracts/Aquaroom.sol:aquaroom",
								"label": "dosDescription",
								"offset": 0,
								"slot": "5",
								"type": "t_string_storage"
							},
							{
								"astId": 32,
								"contract": "contracts/Aquaroom.sol:aquaroom",
								"label": "imgUrl",
								"offset": 0,
								"slot": "6",
								"type": "t_string_storage"
							},
							{
								"astId": 34,
								"contract": "contracts/Aquaroom.sol:aquaroom",
								"label": "maxGuests",
								"offset": 0,
								"slot": "7",
								"type": "t_uint256"
							},
							{
								"astId": 36,
								"contract": "contracts/Aquaroom.sol:aquaroom",
								"label": "pricePerDay",
								"offset": 0,
								"slot": "8",
								"type": "t_uint256"
							},
							{
								"astId": 39,
								"contract": "contracts/Aquaroom.sol:aquaroom",
								"label": "datesBooked",
								"offset": 0,
								"slot": "9",
								"type": "t_array(t_string_storage)dyn_storage"
							},
							{
								"astId": 41,
								"contract": "contracts/Aquaroom.sol:aquaroom",
								"label": "id",
								"offset": 0,
								"slot": "10",
								"type": "t_uint256"
							},
							{
								"astId": 43,
								"contract": "contracts/Aquaroom.sol:aquaroom",
								"label": "renter",
								"offset": 0,
								"slot": "11",
								"type": "t_address"
							}
						],
						"numberOfBytes": "384"
					},
					"t_uint256": {
						"encoding": "inplace",
						"label": "uint256",
						"numberOfBytes": "32"
					}
				}
			},
			"userdoc": {
				"kind": "user",
				"methods": {},
				"version": 1
			}
		}
	}
}