{
	"contracts/Aquaroom.sol": {
		"aquaroom": {
			"abi": [
				{
					"inputs": [],
					"stateMutability": "nonpayable",
					"type": "constructor"
				},
				{
					"anonymous": false,
					"inputs": [
						{
							"indexed": false,
							"internalType": "string[]",
							"name": "datesBooked",
							"type": "string[]"
						},
						{
							"indexed": false,
							"internalType": "uint256",
							"name": "id",
							"type": "uint256"
						},
						{
							"indexed": false,
							"internalType": "address",
							"name": "booker",
							"type": "address"
						},
						{
							"indexed": false,
							"internalType": "string",
							"name": "city",
							"type": "string"
						},
						{
							"indexed": false,
							"internalType": "string",
							"name": "imgUrl",
							"type": "string"
						}
					],
					"name": "newDatesBooked",
					"type": "event"
				},
				{
					"anonymous": false,
					"inputs": [
						{
							"indexed": false,
							"internalType": "string",
							"name": "name",
							"type": "string"
						},
						{
							"indexed": false,
							"internalType": "string",
							"name": "city",
							"type": "string"
						},
						{
							"indexed": false,
							"internalType": "string",
							"name": "lat",
							"type": "string"
						},
						{
							"indexed": false,
							"internalType": "string",
							"name": "long",
							"type": "string"
						},
						{
							"indexed": false,
							"internalType": "string",
							"name": "unoDescription",
							"type": "string"
						},
						{
							"indexed": false,
							"internalType": "string",
							"name": "dosDescription",
							"type": "string"
						},
						{
							"indexed": false,
							"internalType": "string",
							"name": "imgUrl",
							"type": "string"
						},
						{
							"indexed": false,
							"internalType": "uint256",
							"name": "maxGuests",
							"type": "uint256"
						},
						{
							"indexed": false,
							"internalType": "uint256",
							"name": "pricePerDay",
							"type": "uint256"
						},
						{
							"indexed": false,
							"internalType": "string[]",
							"name": "datesBooked",
							"type": "string[]"
						},
						{
							"indexed": false,
							"internalType": "uint256",
							"name": "id",
							"type": "uint256"
						},
						{
							"indexed": false,
							"internalType": "address",
							"name": "renter",
							"type": "address"
						}
					],
					"name": "rentalCreated",
					"type": "event"
				},
				{
					"inputs": [
						{
							"internalType": "string",
							"name": "name",
							"type": "string"
						},
						{
							"internalType": "string",
							"name": "city",
							"type": "string"
						},
						{
							"internalType": "string",
							"name": "lat",
							"type": "string"
						},
						{
							"internalType": "string",
							"name": "long",
							"type": "string"
						},
						{
							"internalType": "string",
							"name": "unoDescription",
							"type": "string"
						},
						{
							"internalType": "string",
							"name": "dosDescription",
							"type": "string"
						},
						{
							"internalType": "string",
							"name": "imgUrl",
							"type": "string"
						},
						{
							"internalType": "uint256",
							"name": "maxGuests",
							"type": "uint256"
						},
						{
							"internalType": "uint256",
							"name": "pricePerDay",
							"type": "uint256"
						},
						{
							"internalType": "string[]",
							"name": "datesBooked",
							"type": "string[]"
						}
					],
					"name": "addRentels",
					"outputs": [],
					"stateMutability": "nonpayable",
					"type": "function"
				},
				{
					"inputs": [],
					"name": "owner",
					"outputs": [
						{
							"internalType": "address",
							"name": "",
							"type": "address"
						}
					],
					"stateMutability": "view",
					"type": "function"
				},
				{
					"inputs": [
						{
							"internalType": "uint256",
							"name": "",
							"type": "uint256"
						}
					],
					"name": "rentalIds",
					"outputs": [
						{
							"internalType": "uint256",
							"name": "",
							"type": "uint256"
						}
					],
					"stateMutability": "view",
					"type": "function"
				}
			],
			"devdoc": {
				"kind": "dev",
				"methods": {},
				"version": 1
			},
			"evm": {
				"assembly": "    /* \"contracts/Aquaroom.sol\":60:2187  contract aquaroom {\r... */\n  mstore(0x40, 0x80)\n    /* \"contracts/Aquaroom.sol\":146:220  constructor () {\r... */\n  callvalue\n  dup1\n  iszero\n  tag_1\n  jumpi\n  0x00\n  dup1\n  revert\ntag_1:\n  pop\n    /* \"contracts/Aquaroom.sol\":182:183  0 */\n  0x00\n    /* \"contracts/Aquaroom.sol\":172:179  counter */\n  0x01\n    /* \"contracts/Aquaroom.sol\":172:183  counter = 0 */\n  dup2\n  swap1\n  sstore\n  pop\n    /* \"contracts/Aquaroom.sol\":202:212  msg.sender */\n  caller\n    /* \"contracts/Aquaroom.sol\":194:199  owner */\n  0x00\n  dup1\n    /* \"contracts/Aquaroom.sol\":194:212  owner = msg.sender */\n  0x0100\n  exp\n  dup2\n  sload\n  dup2\n  0xffffffffffffffffffffffffffffffffffffffff\n  mul\n  not\n  and\n  swap1\n  dup4\n  0xffffffffffffffffffffffffffffffffffffffff\n  and\n  mul\n  or\n  swap1\n  sstore\n  pop\n    /* \"contracts/Aquaroom.sol\":60:2187  contract aquaroom {\r... */\n  dataSize(sub_0)\n  dup1\n  dataOffset(sub_0)\n  0x00\n  codecopy\n  0x00\n  return\nstop\n\nsub_0: assembly {\n        /* \"contracts/Aquaroom.sol\":60:2187  contract aquaroom {\r... */\n      mstore(0x40, 0x80)\n      callvalue\n      dup1\n      iszero\n      tag_1\n      jumpi\n      0x00\n      dup1\n      revert\n    tag_1:\n      pop\n      jumpi(tag_2, lt(calldatasize, 0x04))\n      shr(0xe0, calldataload(0x00))\n      dup1\n      0x611fa0a8\n      eq\n      tag_3\n      jumpi\n      dup1\n      0x8da5cb5b\n      eq\n      tag_4\n      jumpi\n      dup1\n      0xebfa74c9\n      eq\n      tag_5\n      jumpi\n    tag_2:\n      0x00\n      dup1\n      revert\n        /* \"contracts/Aquaroom.sol\":1162:2182  function addRentels(\r... */\n    tag_3:\n      tag_6\n      0x04\n      dup1\n      calldatasize\n      sub\n      dup2\n      add\n      swap1\n      tag_7\n      swap2\n      swap1\n      tag_8\n      jump\t// in\n    tag_7:\n      tag_9\n      jump\t// in\n    tag_6:\n      stop\n        /* \"contracts/Aquaroom.sol\":87:107  address public owner */\n    tag_4:\n      tag_10\n      tag_11\n      jump\t// in\n    tag_10:\n      mload(0x40)\n      tag_12\n      swap2\n      swap1\n      tag_13\n      jump\t// in\n    tag_12:\n      mload(0x40)\n      dup1\n      swap2\n      sub\n      swap1\n      return\n        /* \"contracts/Aquaroom.sol\":1127:1153  uint256[] public rentalIds */\n    tag_5:\n      tag_14\n      0x04\n      dup1\n      calldatasize\n      sub\n      dup2\n      add\n      swap1\n      tag_15\n      swap2\n      swap1\n      tag_16\n      jump\t// in\n    tag_15:\n      tag_17\n      jump\t// in\n    tag_14:\n      mload(0x40)\n      tag_18\n      swap2\n      swap1\n      tag_19\n      jump\t// in\n    tag_18:\n      mload(0x40)\n      dup1\n      swap2\n      sub\n      swap1\n      return\n        /* \"contracts/Aquaroom.sol\":1162:2182  function addRentels(\r... */\n    tag_9:\n        /* \"contracts/Aquaroom.sol\":1549:1554  owner */\n      0x00\n      dup1\n      sload\n      swap1\n      0x0100\n      exp\n      swap1\n      div\n      0xffffffffffffffffffffffffffffffffffffffff\n      and\n        /* \"contracts/Aquaroom.sol\":1535:1554  msg.sender == owner */\n      0xffffffffffffffffffffffffffffffffffffffff\n      and\n        /* \"contracts/Aquaroom.sol\":1535:1545  msg.sender */\n      caller\n        /* \"contracts/Aquaroom.sol\":1535:1554  msg.sender == owner */\n      0xffffffffffffffffffffffffffffffffffffffff\n      and\n      eq\n        /* \"contracts/Aquaroom.sol\":1527:1614  require(msg.sender == owner, \"Only the owner of the smart contract can put up rentals\") */\n      tag_21\n      jumpi\n      mload(0x40)\n      0x08c379a000000000000000000000000000000000000000000000000000000000\n      dup2\n      mstore\n      0x04\n      add\n      tag_22\n      swap1\n      tag_23\n      jump\t// in\n    tag_22:\n      mload(0x40)\n      dup1\n      swap2\n      sub\n      swap1\n      revert\n    tag_21:\n        /* \"contracts/Aquaroom.sol\":1625:1653  rentalInfo storage newRental */\n      0x00\n        /* \"contracts/Aquaroom.sol\":1656:1663  rentals */\n      0x02\n        /* \"contracts/Aquaroom.sol\":1656:1672  rentals[counter] */\n      0x00\n        /* \"contracts/Aquaroom.sol\":1664:1671  counter */\n      sload(0x01)\n        /* \"contracts/Aquaroom.sol\":1656:1672  rentals[counter] */\n      dup2\n      mstore\n      0x20\n      add\n      swap1\n      dup2\n      mstore\n      0x20\n      add\n      0x00\n      keccak256\n        /* \"contracts/Aquaroom.sol\":1625:1672  rentalInfo storage newRental = rentals[counter] */\n      swap1\n      pop\n        /* \"contracts/Aquaroom.sol\":1700:1704  name */\n      dup11\n        /* \"contracts/Aquaroom.sol\":1683:1692  newRental */\n      dup2\n        /* \"contracts/Aquaroom.sol\":1683:1697  newRental.name */\n      0x00\n      add\n        /* \"contracts/Aquaroom.sol\":1683:1704  newRental.name = name */\n      swap1\n      dup1\n      mload\n      swap1\n      0x20\n      add\n      swap1\n      tag_24\n      swap3\n      swap2\n      swap1\n      tag_25\n      jump\t// in\n    tag_24:\n      pop\n        /* \"contracts/Aquaroom.sol\":1732:1736  city */\n      dup10\n        /* \"contracts/Aquaroom.sol\":1715:1724  newRental */\n      dup2\n        /* \"contracts/Aquaroom.sol\":1715:1729  newRental.city */\n      0x01\n      add\n        /* \"contracts/Aquaroom.sol\":1715:1736  newRental.city = city */\n      swap1\n      dup1\n      mload\n      swap1\n      0x20\n      add\n      swap1\n      tag_26\n      swap3\n      swap2\n      swap1\n      tag_25\n      jump\t// in\n    tag_26:\n      pop\n        /* \"contracts/Aquaroom.sol\":1763:1766  lat */\n      dup9\n        /* \"contracts/Aquaroom.sol\":1747:1756  newRental */\n      dup2\n        /* \"contracts/Aquaroom.sol\":1747:1760  newRental.lat */\n      0x02\n      add\n        /* \"contracts/Aquaroom.sol\":1747:1766  newRental.lat = lat */\n      swap1\n      dup1\n      mload\n      swap1\n      0x20\n      add\n      swap1\n      tag_27\n      swap3\n      swap2\n      swap1\n      tag_25\n      jump\t// in\n    tag_27:\n      pop\n        /* \"contracts/Aquaroom.sol\":1794:1798  long */\n      dup8\n        /* \"contracts/Aquaroom.sol\":1777:1786  newRental */\n      dup2\n        /* \"contracts/Aquaroom.sol\":1777:1791  newRental.long */\n      0x03\n      add\n        /* \"contracts/Aquaroom.sol\":1777:1798  newRental.long = long */\n      swap1\n      dup1\n      mload\n      swap1\n      0x20\n      add\n      swap1\n      tag_28\n      swap3\n      swap2\n      swap1\n      tag_25\n      jump\t// in\n    tag_28:\n      pop\n        /* \"contracts/Aquaroom.sol\":1836:1850  unoDescription */\n      dup7\n        /* \"contracts/Aquaroom.sol\":1809:1818  newRental */\n      dup2\n        /* \"contracts/Aquaroom.sol\":1809:1833  newRental.unoDescription */\n      0x04\n      add\n        /* \"contracts/Aquaroom.sol\":1809:1850  newRental.unoDescription = unoDescription */\n      swap1\n      dup1\n      mload\n      swap1\n      0x20\n      add\n      swap1\n      tag_29\n      swap3\n      swap2\n      swap1\n      tag_25\n      jump\t// in\n    tag_29:\n      pop\n        /* \"contracts/Aquaroom.sol\":1888:1902  dosDescription */\n      dup6\n        /* \"contracts/Aquaroom.sol\":1861:1870  newRental */\n      dup2\n        /* \"contracts/Aquaroom.sol\":1861:1885  newRental.dosDescription */\n      0x05\n      add\n        /* \"contracts/Aquaroom.sol\":1861:1902  newRental.dosDescription = dosDescription */\n      swap1\n      dup1\n      mload\n      swap1\n      0x20\n      add\n      swap1\n      tag_30\n      swap3\n      swap2\n      swap1\n      tag_25\n      jump\t// in\n    tag_30:\n      pop\n        /* \"contracts/Aquaroom.sol\":1932:1938  imgUrl */\n      dup5\n        /* \"contracts/Aquaroom.sol\":1913:1922  newRental */\n      dup2\n        /* \"contracts/Aquaroom.sol\":1913:1929  newRental.imgUrl */\n      0x06\n      add\n        /* \"contracts/Aquaroom.sol\":1913:1938  newRental.imgUrl = imgUrl */\n      swap1\n      dup1\n      mload\n      swap1\n      0x20\n      add\n      swap1\n      tag_31\n      swap3\n      swap2\n      swap1\n      tag_25\n      jump\t// in\n    tag_31:\n      pop\n        /* \"contracts/Aquaroom.sol\":1971:1980  maxGuests */\n      dup4\n        /* \"contracts/Aquaroom.sol\":1949:1958  newRental */\n      dup2\n        /* \"contracts/Aquaroom.sol\":1949:1968  newRental.maxGuests */\n      0x07\n      add\n        /* \"contracts/Aquaroom.sol\":1949:1980  newRental.maxGuests = maxGuests */\n      dup2\n      swap1\n      sstore\n      pop\n        /* \"contracts/Aquaroom.sol\":2015:2026  pricePerDay */\n      dup3\n        /* \"contracts/Aquaroom.sol\":1991:2000  newRental */\n      dup2\n        /* \"contracts/Aquaroom.sol\":1991:2012  newRental.pricePerDay */\n      0x08\n      add\n        /* \"contracts/Aquaroom.sol\":1991:2026  newRental.pricePerDay = pricePerDay */\n      dup2\n      swap1\n      sstore\n      pop\n        /* \"contracts/Aquaroom.sol\":2061:2072  datesBooked */\n      dup2\n        /* \"contracts/Aquaroom.sol\":2037:2046  newRental */\n      dup2\n        /* \"contracts/Aquaroom.sol\":2037:2058  newRental.datesBooked */\n      0x09\n      add\n        /* \"contracts/Aquaroom.sol\":2037:2072  newRental.datesBooked = datesBooked */\n      swap1\n      dup1\n      mload\n      swap1\n      0x20\n      add\n      swap1\n      tag_32\n      swap3\n      swap2\n      swap1\n      tag_33\n      jump\t// in\n    tag_32:\n      pop\n        /* \"contracts/Aquaroom.sol\":2098:2105  counter */\n      sload(0x01)\n        /* \"contracts/Aquaroom.sol\":2083:2092  newRental */\n      dup2\n        /* \"contracts/Aquaroom.sol\":2083:2095  newRental.id */\n      0x0a\n      add\n        /* \"contracts/Aquaroom.sol\":2083:2105  newRental.id = counter */\n      dup2\n      swap1\n      sstore\n      pop\n        /* \"contracts/Aquaroom.sol\":2135:2140  owner */\n      0x00\n      dup1\n      sload\n      swap1\n      0x0100\n      exp\n      swap1\n      div\n      0xffffffffffffffffffffffffffffffffffffffff\n      and\n        /* \"contracts/Aquaroom.sol\":2116:2125  newRental */\n      dup2\n        /* \"contracts/Aquaroom.sol\":2116:2132  newRental.renter */\n      0x0b\n      add\n      0x00\n        /* \"contracts/Aquaroom.sol\":2116:2140  newRental.renter = owner */\n      0x0100\n      exp\n      dup2\n      sload\n      dup2\n      0xffffffffffffffffffffffffffffffffffffffff\n      mul\n      not\n      and\n      swap1\n      dup4\n      0xffffffffffffffffffffffffffffffffffffffff\n      and\n      mul\n      or\n      swap1\n      sstore\n      pop\n        /* \"contracts/Aquaroom.sol\":2151:2160  rentalIds */\n      0x03\n        /* \"contracts/Aquaroom.sol\":2166:2173  counter */\n      sload(0x01)\n        /* \"contracts/Aquaroom.sol\":2151:2174  rentalIds.push(counter) */\n      swap1\n      dup1\n      0x01\n      dup2\n      sload\n      add\n      dup1\n      dup3\n      sstore\n      dup1\n      swap2\n      pop\n      pop\n      0x01\n      swap1\n      sub\n      swap1\n      0x00\n      mstore\n      keccak256(0x00, 0x20)\n      add\n      0x00\n      swap1\n      swap2\n      swap1\n      swap2\n      swap1\n      swap2\n      pop\n      sstore\n        /* \"contracts/Aquaroom.sol\":1516:2182  {\r... */\n      pop\n        /* \"contracts/Aquaroom.sol\":1162:2182  function addRentels(\r... */\n      pop\n      pop\n      pop\n      pop\n      pop\n      pop\n      pop\n      pop\n      pop\n      pop\n      jump\t// out\n        /* \"contracts/Aquaroom.sol\":87:107  address public owner */\n    tag_11:\n      0x00\n      dup1\n      sload\n      swap1\n      0x0100\n      exp\n      swap1\n      div\n      0xffffffffffffffffffffffffffffffffffffffff\n      and\n      dup2\n      jump\t// out\n        /* \"contracts/Aquaroom.sol\":1127:1153  uint256[] public rentalIds */\n    tag_17:\n      0x03\n      dup2\n      dup2\n      sload\n      dup2\n      lt\n      tag_35\n      jumpi\n      0x00\n      dup1\n      revert\n    tag_35:\n      swap1\n      0x00\n      mstore\n      keccak256(0x00, 0x20)\n      add\n      0x00\n      swap2\n      pop\n      swap1\n      pop\n      sload\n      dup2\n      jump\t// out\n    tag_25:\n      dup3\n      dup1\n      sload\n      tag_37\n      swap1\n      tag_38\n      jump\t// in\n    tag_37:\n      swap1\n      0x00\n      mstore\n      keccak256(0x00, 0x20)\n      swap1\n      0x1f\n      add\n      0x20\n      swap1\n      div\n      dup2\n      add\n      swap3\n      dup3\n      tag_40\n      jumpi\n      0x00\n      dup6\n      sstore\n      jump(tag_39)\n    tag_40:\n      dup3\n      0x1f\n      lt\n      tag_41\n      jumpi\n      dup1\n      mload\n      not(0xff)\n      and\n      dup4\n      dup1\n      add\n      or\n      dup6\n      sstore\n      jump(tag_39)\n    tag_41:\n      dup3\n      dup1\n      add\n      0x01\n      add\n      dup6\n      sstore\n      dup3\n      iszero\n      tag_39\n      jumpi\n      swap2\n      dup3\n      add\n    tag_42:\n      dup3\n      dup2\n      gt\n      iszero\n      tag_43\n      jumpi\n      dup3\n      mload\n      dup3\n      sstore\n      swap2\n      0x20\n      add\n      swap2\n      swap1\n      0x01\n      add\n      swap1\n      jump(tag_42)\n    tag_43:\n    tag_39:\n      pop\n      swap1\n      pop\n      tag_44\n      swap2\n      swap1\n      tag_45\n      jump\t// in\n    tag_44:\n      pop\n      swap1\n      jump\t// out\n    tag_33:\n      dup3\n      dup1\n      sload\n      dup3\n      dup3\n      sstore\n      swap1\n      0x00\n      mstore\n      keccak256(0x00, 0x20)\n      swap1\n      dup2\n      add\n      swap3\n      dup3\n      iszero\n      tag_46\n      jumpi\n      swap2\n      0x20\n      mul\n      dup3\n      add\n    tag_47:\n      dup3\n      dup2\n      gt\n      iszero\n      tag_48\n      jumpi\n      dup3\n      mload\n      dup3\n      swap1\n      dup1\n      mload\n      swap1\n      0x20\n      add\n      swap1\n      tag_49\n      swap3\n      swap2\n      swap1\n      tag_25\n      jump\t// in\n    tag_49:\n      pop\n      swap2\n      0x20\n      add\n      swap2\n      swap1\n      0x01\n      add\n      swap1\n      jump(tag_47)\n    tag_48:\n    tag_46:\n      pop\n      swap1\n      pop\n      tag_50\n      swap2\n      swap1\n      tag_51\n      jump\t// in\n    tag_50:\n      pop\n      swap1\n      jump\t// out\n    tag_45:\n    tag_52:\n      dup1\n      dup3\n      gt\n      iszero\n      tag_53\n      jumpi\n      0x00\n      dup2\n      0x00\n      swap1\n      sstore\n      pop\n      0x01\n      add\n      jump(tag_52)\n    tag_53:\n      pop\n      swap1\n      jump\t// out\n    tag_51:\n    tag_54:\n      dup1\n      dup3\n      gt\n      iszero\n      tag_55\n      jumpi\n      0x00\n      dup2\n      dup2\n      tag_56\n      swap2\n      swap1\n      tag_57\n      jump\t// in\n    tag_56:\n      pop\n      0x01\n      add\n      jump(tag_54)\n    tag_55:\n      pop\n      swap1\n      jump\t// out\n    tag_57:\n      pop\n      dup1\n      sload\n      tag_58\n      swap1\n      tag_38\n      jump\t// in\n    tag_58:\n      0x00\n      dup3\n      sstore\n      dup1\n      0x1f\n      lt\n      tag_60\n      jumpi\n      pop\n      jump(tag_59)\n    tag_60:\n      0x1f\n      add\n      0x20\n      swap1\n      div\n      swap1\n      0x00\n      mstore\n      keccak256(0x00, 0x20)\n      swap1\n      dup2\n      add\n      swap1\n      tag_61\n      swap2\n      swap1\n      tag_45\n      jump\t// in\n    tag_61:\n    tag_59:\n      pop\n      jump\t// out\n        /* \"#utility.yul\":23:980   */\n    tag_63:\n        /* \"#utility.yul\":129:134   */\n      0x00\n        /* \"#utility.yul\":154:245   */\n      tag_65\n        /* \"#utility.yul\":170:244   */\n      tag_66\n        /* \"#utility.yul\":237:243   */\n      dup5\n        /* \"#utility.yul\":170:244   */\n      tag_67\n      jump\t// in\n    tag_66:\n        /* \"#utility.yul\":154:245   */\n      tag_68\n      jump\t// in\n    tag_65:\n        /* \"#utility.yul\":145:245   */\n      swap1\n      pop\n        /* \"#utility.yul\":265:270   */\n      dup1\n        /* \"#utility.yul\":294:300   */\n      dup4\n        /* \"#utility.yul\":287:292   */\n      dup3\n        /* \"#utility.yul\":280:301   */\n      mstore\n        /* \"#utility.yul\":328:332   */\n      0x20\n        /* \"#utility.yul\":321:326   */\n      dup3\n        /* \"#utility.yul\":317:333   */\n      add\n        /* \"#utility.yul\":310:333   */\n      swap1\n      pop\n        /* \"#utility.yul\":354:360   */\n      dup3\n        /* \"#utility.yul\":404:407   */\n      dup6\n        /* \"#utility.yul\":396:400   */\n      0x20\n        /* \"#utility.yul\":388:394   */\n      dup7\n        /* \"#utility.yul\":384:401   */\n      mul\n        /* \"#utility.yul\":379:382   */\n      dup3\n        /* \"#utility.yul\":375:402   */\n      add\n        /* \"#utility.yul\":372:408   */\n      gt\n        /* \"#utility.yul\":369:512   */\n      iszero\n      tag_69\n      jumpi\n        /* \"#utility.yul\":423:502   */\n      tag_70\n      tag_71\n      jump\t// in\n    tag_70:\n        /* \"#utility.yul\":369:512   */\n    tag_69:\n        /* \"#utility.yul\":536:537   */\n      0x00\n        /* \"#utility.yul\":521:974   */\n    tag_72:\n        /* \"#utility.yul\":546:552   */\n      dup6\n        /* \"#utility.yul\":543:544   */\n      dup2\n        /* \"#utility.yul\":540:553   */\n      lt\n        /* \"#utility.yul\":521:974   */\n      iszero\n      tag_74\n      jumpi\n        /* \"#utility.yul\":628:631   */\n      dup2\n        /* \"#utility.yul\":615:632   */\n      calldataload\n        /* \"#utility.yul\":664:682   */\n      0xffffffffffffffff\n        /* \"#utility.yul\":651:662   */\n      dup2\n        /* \"#utility.yul\":648:683   */\n      gt\n        /* \"#utility.yul\":645:767   */\n      iszero\n      tag_75\n      jumpi\n        /* \"#utility.yul\":686:765   */\n      tag_76\n      tag_77\n      jump\t// in\n    tag_76:\n        /* \"#utility.yul\":645:767   */\n    tag_75:\n        /* \"#utility.yul\":810:821   */\n      dup1\n        /* \"#utility.yul\":802:808   */\n      dup7\n        /* \"#utility.yul\":798:822   */\n      add\n        /* \"#utility.yul\":848:895   */\n      tag_78\n        /* \"#utility.yul\":891:894   */\n      dup10\n        /* \"#utility.yul\":879:889   */\n      dup3\n        /* \"#utility.yul\":848:895   */\n      tag_79\n      jump\t// in\n    tag_78:\n        /* \"#utility.yul\":843:846   */\n      dup6\n        /* \"#utility.yul\":836:896   */\n      mstore\n        /* \"#utility.yul\":925:929   */\n      0x20\n        /* \"#utility.yul\":920:923   */\n      dup6\n        /* \"#utility.yul\":916:930   */\n      add\n        /* \"#utility.yul\":909:930   */\n      swap5\n      pop\n        /* \"#utility.yul\":959:963   */\n      0x20\n        /* \"#utility.yul\":954:957   */\n      dup5\n        /* \"#utility.yul\":950:964   */\n      add\n        /* \"#utility.yul\":943:964   */\n      swap4\n      pop\n        /* \"#utility.yul\":581:974   */\n      pop\n      pop\n        /* \"#utility.yul\":568:569   */\n      0x01\n        /* \"#utility.yul\":565:566   */\n      dup2\n        /* \"#utility.yul\":561:570   */\n      add\n        /* \"#utility.yul\":556:570   */\n      swap1\n      pop\n        /* \"#utility.yul\":521:974   */\n      jump(tag_72)\n    tag_74:\n        /* \"#utility.yul\":525:539   */\n      pop\n        /* \"#utility.yul\":135:980   */\n      pop\n      pop\n        /* \"#utility.yul\":23:980   */\n      swap4\n      swap3\n      pop\n      pop\n      pop\n      jump\t// out\n        /* \"#utility.yul\":986:1398   */\n    tag_80:\n        /* \"#utility.yul\":1064:1069   */\n      0x00\n        /* \"#utility.yul\":1089:1155   */\n      tag_82\n        /* \"#utility.yul\":1105:1154   */\n      tag_83\n        /* \"#utility.yul\":1147:1153   */\n      dup5\n        /* \"#utility.yul\":1105:1154   */\n      tag_84\n      jump\t// in\n    tag_83:\n        /* \"#utility.yul\":1089:1155   */\n      tag_68\n      jump\t// in\n    tag_82:\n        /* \"#utility.yul\":1080:1155   */\n      swap1\n      pop\n        /* \"#utility.yul\":1178:1184   */\n      dup3\n        /* \"#utility.yul\":1171:1176   */\n      dup2\n        /* \"#utility.yul\":1164:1185   */\n      mstore\n        /* \"#utility.yul\":1216:1220   */\n      0x20\n        /* \"#utility.yul\":1209:1214   */\n      dup2\n        /* \"#utility.yul\":1205:1221   */\n      add\n        /* \"#utility.yul\":1254:1257   */\n      dup5\n        /* \"#utility.yul\":1245:1251   */\n      dup5\n        /* \"#utility.yul\":1240:1243   */\n      dup5\n        /* \"#utility.yul\":1236:1252   */\n      add\n        /* \"#utility.yul\":1233:1258   */\n      gt\n        /* \"#utility.yul\":1230:1342   */\n      iszero\n      tag_85\n      jumpi\n        /* \"#utility.yul\":1261:1340   */\n      tag_86\n      tag_87\n      jump\t// in\n    tag_86:\n        /* \"#utility.yul\":1230:1342   */\n    tag_85:\n        /* \"#utility.yul\":1351:1392   */\n      tag_88\n        /* \"#utility.yul\":1385:1391   */\n      dup5\n        /* \"#utility.yul\":1380:1383   */\n      dup3\n        /* \"#utility.yul\":1375:1378   */\n      dup6\n        /* \"#utility.yul\":1351:1392   */\n      tag_89\n      jump\t// in\n    tag_88:\n        /* \"#utility.yul\":1070:1398   */\n      pop\n        /* \"#utility.yul\":986:1398   */\n      swap4\n      swap3\n      pop\n      pop\n      pop\n      jump\t// out\n        /* \"#utility.yul\":1420:1810   */\n    tag_90:\n        /* \"#utility.yul\":1501:1506   */\n      0x00\n        /* \"#utility.yul\":1550:1553   */\n      dup3\n        /* \"#utility.yul\":1543:1547   */\n      0x1f\n        /* \"#utility.yul\":1535:1541   */\n      dup4\n        /* \"#utility.yul\":1531:1548   */\n      add\n        /* \"#utility.yul\":1527:1554   */\n      slt\n        /* \"#utility.yul\":1517:1639   */\n      tag_92\n      jumpi\n        /* \"#utility.yul\":1558:1637   */\n      tag_93\n      tag_77\n      jump\t// in\n    tag_93:\n        /* \"#utility.yul\":1517:1639   */\n    tag_92:\n        /* \"#utility.yul\":1675:1681   */\n      dup2\n        /* \"#utility.yul\":1662:1682   */\n      calldataload\n        /* \"#utility.yul\":1700:1804   */\n      tag_94\n        /* \"#utility.yul\":1800:1803   */\n      dup5\n        /* \"#utility.yul\":1792:1798   */\n      dup3\n        /* \"#utility.yul\":1785:1789   */\n      0x20\n        /* \"#utility.yul\":1777:1783   */\n      dup7\n        /* \"#utility.yul\":1773:1790   */\n      add\n        /* \"#utility.yul\":1700:1804   */\n      tag_63\n      jump\t// in\n    tag_94:\n        /* \"#utility.yul\":1691:1804   */\n      swap2\n      pop\n        /* \"#utility.yul\":1507:1810   */\n      pop\n        /* \"#utility.yul\":1420:1810   */\n      swap3\n      swap2\n      pop\n      pop\n      jump\t// out\n        /* \"#utility.yul\":1830:2170   */\n    tag_79:\n        /* \"#utility.yul\":1886:1891   */\n      0x00\n        /* \"#utility.yul\":1935:1938   */\n      dup3\n        /* \"#utility.yul\":1928:1932   */\n      0x1f\n        /* \"#utility.yul\":1920:1926   */\n      dup4\n        /* \"#utility.yul\":1916:1933   */\n      add\n        /* \"#utility.yul\":1912:1939   */\n      slt\n        /* \"#utility.yul\":1902:2024   */\n      tag_96\n      jumpi\n        /* \"#utility.yul\":1943:2022   */\n      tag_97\n      tag_77\n      jump\t// in\n    tag_97:\n        /* \"#utility.yul\":1902:2024   */\n    tag_96:\n        /* \"#utility.yul\":2060:2066   */\n      dup2\n        /* \"#utility.yul\":2047:2067   */\n      calldataload\n        /* \"#utility.yul\":2085:2164   */\n      tag_98\n        /* \"#utility.yul\":2160:2163   */\n      dup5\n        /* \"#utility.yul\":2152:2158   */\n      dup3\n        /* \"#utility.yul\":2145:2149   */\n      0x20\n        /* \"#utility.yul\":2137:2143   */\n      dup7\n        /* \"#utility.yul\":2133:2150   */\n      add\n        /* \"#utility.yul\":2085:2164   */\n      tag_80\n      jump\t// in\n    tag_98:\n        /* \"#utility.yul\":2076:2164   */\n      swap2\n      pop\n        /* \"#utility.yul\":1892:2170   */\n      pop\n        /* \"#utility.yul\":1830:2170   */\n      swap3\n      swap2\n      pop\n      pop\n      jump\t// out\n        /* \"#utility.yul\":2176:2315   */\n    tag_99:\n        /* \"#utility.yul\":2222:2227   */\n      0x00\n        /* \"#utility.yul\":2260:2266   */\n      dup2\n        /* \"#utility.yul\":2247:2267   */\n      calldataload\n        /* \"#utility.yul\":2238:2267   */\n      swap1\n      pop\n        /* \"#utility.yul\":2276:2309   */\n      tag_101\n        /* \"#utility.yul\":2303:2308   */\n      dup2\n        /* \"#utility.yul\":2276:2309   */\n      tag_102\n      jump\t// in\n    tag_101:\n        /* \"#utility.yul\":2176:2315   */\n      swap3\n      swap2\n      pop\n      pop\n      jump\t// out\n        /* \"#utility.yul\":2321:5452   */\n    tag_8:\n        /* \"#utility.yul\":2566:2572   */\n      0x00\n        /* \"#utility.yul\":2574:2580   */\n      dup1\n        /* \"#utility.yul\":2582:2588   */\n      0x00\n        /* \"#utility.yul\":2590:2596   */\n      dup1\n        /* \"#utility.yul\":2598:2604   */\n      0x00\n        /* \"#utility.yul\":2606:2612   */\n      dup1\n        /* \"#utility.yul\":2614:2620   */\n      0x00\n        /* \"#utility.yul\":2622:2628   */\n      dup1\n        /* \"#utility.yul\":2630:2636   */\n      0x00\n        /* \"#utility.yul\":2638:2644   */\n      dup1\n        /* \"#utility.yul\":2687:2690   */\n      0x0140\n        /* \"#utility.yul\":2675:2684   */\n      dup12\n        /* \"#utility.yul\":2666:2673   */\n      dup14\n        /* \"#utility.yul\":2662:2685   */\n      sub\n        /* \"#utility.yul\":2658:2691   */\n      slt\n        /* \"#utility.yul\":2655:2775   */\n      iszero\n      tag_104\n      jumpi\n        /* \"#utility.yul\":2694:2773   */\n      tag_105\n      tag_106\n      jump\t// in\n    tag_105:\n        /* \"#utility.yul\":2655:2775   */\n    tag_104:\n        /* \"#utility.yul\":2842:2843   */\n      0x00\n        /* \"#utility.yul\":2831:2840   */\n      dup12\n        /* \"#utility.yul\":2827:2844   */\n      add\n        /* \"#utility.yul\":2814:2845   */\n      calldataload\n        /* \"#utility.yul\":2872:2890   */\n      0xffffffffffffffff\n        /* \"#utility.yul\":2864:2870   */\n      dup2\n        /* \"#utility.yul\":2861:2891   */\n      gt\n        /* \"#utility.yul\":2858:2975   */\n      iszero\n      tag_107\n      jumpi\n        /* \"#utility.yul\":2894:2973   */\n      tag_108\n      tag_109\n      jump\t// in\n    tag_108:\n        /* \"#utility.yul\":2858:2975   */\n    tag_107:\n        /* \"#utility.yul\":2999:3062   */\n      tag_110\n        /* \"#utility.yul\":3054:3061   */\n      dup14\n        /* \"#utility.yul\":3045:3051   */\n      dup3\n        /* \"#utility.yul\":3034:3043   */\n      dup15\n        /* \"#utility.yul\":3030:3052   */\n      add\n        /* \"#utility.yul\":2999:3062   */\n      tag_79\n      jump\t// in\n    tag_110:\n        /* \"#utility.yul\":2989:3062   */\n      swap11\n      pop\n        /* \"#utility.yul\":2785:3072   */\n      pop\n        /* \"#utility.yul\":3139:3141   */\n      0x20\n        /* \"#utility.yul\":3128:3137   */\n      dup12\n        /* \"#utility.yul\":3124:3142   */\n      add\n        /* \"#utility.yul\":3111:3143   */\n      calldataload\n        /* \"#utility.yul\":3170:3188   */\n      0xffffffffffffffff\n        /* \"#utility.yul\":3162:3168   */\n      dup2\n        /* \"#utility.yul\":3159:3189   */\n      gt\n        /* \"#utility.yul\":3156:3273   */\n      iszero\n      tag_111\n      jumpi\n        /* \"#utility.yul\":3192:3271   */\n      tag_112\n      tag_109\n      jump\t// in\n    tag_112:\n        /* \"#utility.yul\":3156:3273   */\n    tag_111:\n        /* \"#utility.yul\":3297:3360   */\n      tag_113\n        /* \"#utility.yul\":3352:3359   */\n      dup14\n        /* \"#utility.yul\":3343:3349   */\n      dup3\n        /* \"#utility.yul\":3332:3341   */\n      dup15\n        /* \"#utility.yul\":3328:3350   */\n      add\n        /* \"#utility.yul\":3297:3360   */\n      tag_79\n      jump\t// in\n    tag_113:\n        /* \"#utility.yul\":3287:3360   */\n      swap10\n      pop\n        /* \"#utility.yul\":3082:3370   */\n      pop\n        /* \"#utility.yul\":3437:3439   */\n      0x40\n        /* \"#utility.yul\":3426:3435   */\n      dup12\n        /* \"#utility.yul\":3422:3440   */\n      add\n        /* \"#utility.yul\":3409:3441   */\n      calldataload\n        /* \"#utility.yul\":3468:3486   */\n      0xffffffffffffffff\n        /* \"#utility.yul\":3460:3466   */\n      dup2\n        /* \"#utility.yul\":3457:3487   */\n      gt\n        /* \"#utility.yul\":3454:3571   */\n      iszero\n      tag_114\n      jumpi\n        /* \"#utility.yul\":3490:3569   */\n      tag_115\n      tag_109\n      jump\t// in\n    tag_115:\n        /* \"#utility.yul\":3454:3571   */\n    tag_114:\n        /* \"#utility.yul\":3595:3658   */\n      tag_116\n        /* \"#utility.yul\":3650:3657   */\n      dup14\n        /* \"#utility.yul\":3641:3647   */\n      dup3\n        /* \"#utility.yul\":3630:3639   */\n      dup15\n        /* \"#utility.yul\":3626:3648   */\n      add\n        /* \"#utility.yul\":3595:3658   */\n      tag_79\n      jump\t// in\n    tag_116:\n        /* \"#utility.yul\":3585:3658   */\n      swap9\n      pop\n        /* \"#utility.yul\":3380:3668   */\n      pop\n        /* \"#utility.yul\":3735:3737   */\n      0x60\n        /* \"#utility.yul\":3724:3733   */\n      dup12\n        /* \"#utility.yul\":3720:3738   */\n      add\n        /* \"#utility.yul\":3707:3739   */\n      calldataload\n        /* \"#utility.yul\":3766:3784   */\n      0xffffffffffffffff\n        /* \"#utility.yul\":3758:3764   */\n      dup2\n        /* \"#utility.yul\":3755:3785   */\n      gt\n        /* \"#utility.yul\":3752:3869   */\n      iszero\n      tag_117\n      jumpi\n        /* \"#utility.yul\":3788:3867   */\n      tag_118\n      tag_109\n      jump\t// in\n    tag_118:\n        /* \"#utility.yul\":3752:3869   */\n    tag_117:\n        /* \"#utility.yul\":3893:3956   */\n      tag_119\n        /* \"#utility.yul\":3948:3955   */\n      dup14\n        /* \"#utility.yul\":3939:3945   */\n      dup3\n        /* \"#utility.yul\":3928:3937   */\n      dup15\n        /* \"#utility.yul\":3924:3946   */\n      add\n        /* \"#utility.yul\":3893:3956   */\n      tag_79\n      jump\t// in\n    tag_119:\n        /* \"#utility.yul\":3883:3956   */\n      swap8\n      pop\n        /* \"#utility.yul\":3678:3966   */\n      pop\n        /* \"#utility.yul\":4033:4036   */\n      0x80\n        /* \"#utility.yul\":4022:4031   */\n      dup12\n        /* \"#utility.yul\":4018:4037   */\n      add\n        /* \"#utility.yul\":4005:4038   */\n      calldataload\n        /* \"#utility.yul\":4065:4083   */\n      0xffffffffffffffff\n        /* \"#utility.yul\":4057:4063   */\n      dup2\n        /* \"#utility.yul\":4054:4084   */\n      gt\n        /* \"#utility.yul\":4051:4168   */\n      iszero\n      tag_120\n      jumpi\n        /* \"#utility.yul\":4087:4166   */\n      tag_121\n      tag_109\n      jump\t// in\n    tag_121:\n        /* \"#utility.yul\":4051:4168   */\n    tag_120:\n        /* \"#utility.yul\":4192:4255   */\n      tag_122\n        /* \"#utility.yul\":4247:4254   */\n      dup14\n        /* \"#utility.yul\":4238:4244   */\n      dup3\n        /* \"#utility.yul\":4227:4236   */\n      dup15\n        /* \"#utility.yul\":4223:4245   */\n      add\n        /* \"#utility.yul\":4192:4255   */\n      tag_79\n      jump\t// in\n    tag_122:\n        /* \"#utility.yul\":4182:4255   */\n      swap7\n      pop\n        /* \"#utility.yul\":3976:4265   */\n      pop\n        /* \"#utility.yul\":4332:4335   */\n      0xa0\n        /* \"#utility.yul\":4321:4330   */\n      dup12\n        /* \"#utility.yul\":4317:4336   */\n      add\n        /* \"#utility.yul\":4304:4337   */\n      calldataload\n        /* \"#utility.yul\":4364:4382   */\n      0xffffffffffffffff\n        /* \"#utility.yul\":4356:4362   */\n      dup2\n        /* \"#utility.yul\":4353:4383   */\n      gt\n        /* \"#utility.yul\":4350:4467   */\n      iszero\n      tag_123\n      jumpi\n        /* \"#utility.yul\":4386:4465   */\n      tag_124\n      tag_109\n      jump\t// in\n    tag_124:\n        /* \"#utility.yul\":4350:4467   */\n    tag_123:\n        /* \"#utility.yul\":4491:4554   */\n      tag_125\n        /* \"#utility.yul\":4546:4553   */\n      dup14\n        /* \"#utility.yul\":4537:4543   */\n      dup3\n        /* \"#utility.yul\":4526:4535   */\n      dup15\n        /* \"#utility.yul\":4522:4544   */\n      add\n        /* \"#utility.yul\":4491:4554   */\n      tag_79\n      jump\t// in\n    tag_125:\n        /* \"#utility.yul\":4481:4554   */\n      swap6\n      pop\n        /* \"#utility.yul\":4275:4564   */\n      pop\n        /* \"#utility.yul\":4631:4634   */\n      0xc0\n        /* \"#utility.yul\":4620:4629   */\n      dup12\n        /* \"#utility.yul\":4616:4635   */\n      add\n        /* \"#utility.yul\":4603:4636   */\n      calldataload\n        /* \"#utility.yul\":4663:4681   */\n      0xffffffffffffffff\n        /* \"#utility.yul\":4655:4661   */\n      dup2\n        /* \"#utility.yul\":4652:4682   */\n      gt\n        /* \"#utility.yul\":4649:4766   */\n      iszero\n      tag_126\n      jumpi\n        /* \"#utility.yul\":4685:4764   */\n      tag_127\n      tag_109\n      jump\t// in\n    tag_127:\n        /* \"#utility.yul\":4649:4766   */\n    tag_126:\n        /* \"#utility.yul\":4790:4853   */\n      tag_128\n        /* \"#utility.yul\":4845:4852   */\n      dup14\n        /* \"#utility.yul\":4836:4842   */\n      dup3\n        /* \"#utility.yul\":4825:4834   */\n      dup15\n        /* \"#utility.yul\":4821:4843   */\n      add\n        /* \"#utility.yul\":4790:4853   */\n      tag_79\n      jump\t// in\n    tag_128:\n        /* \"#utility.yul\":4780:4853   */\n      swap5\n      pop\n        /* \"#utility.yul\":4574:4863   */\n      pop\n        /* \"#utility.yul\":4902:4905   */\n      0xe0\n        /* \"#utility.yul\":4929:4982   */\n      tag_129\n        /* \"#utility.yul\":4974:4981   */\n      dup14\n        /* \"#utility.yul\":4965:4971   */\n      dup3\n        /* \"#utility.yul\":4954:4963   */\n      dup15\n        /* \"#utility.yul\":4950:4972   */\n      add\n        /* \"#utility.yul\":4929:4982   */\n      tag_99\n      jump\t// in\n    tag_129:\n        /* \"#utility.yul\":4919:4982   */\n      swap4\n      pop\n        /* \"#utility.yul\":4873:4992   */\n      pop\n        /* \"#utility.yul\":5031:5034   */\n      0x0100\n        /* \"#utility.yul\":5058:5111   */\n      tag_130\n        /* \"#utility.yul\":5103:5110   */\n      dup14\n        /* \"#utility.yul\":5094:5100   */\n      dup3\n        /* \"#utility.yul\":5083:5092   */\n      dup15\n        /* \"#utility.yul\":5079:5101   */\n      add\n        /* \"#utility.yul\":5058:5111   */\n      tag_99\n      jump\t// in\n    tag_130:\n        /* \"#utility.yul\":5048:5111   */\n      swap3\n      pop\n        /* \"#utility.yul\":5002:5121   */\n      pop\n        /* \"#utility.yul\":5188:5191   */\n      0x0120\n        /* \"#utility.yul\":5177:5186   */\n      dup12\n        /* \"#utility.yul\":5173:5192   */\n      add\n        /* \"#utility.yul\":5160:5193   */\n      calldataload\n        /* \"#utility.yul\":5220:5238   */\n      0xffffffffffffffff\n        /* \"#utility.yul\":5212:5218   */\n      dup2\n        /* \"#utility.yul\":5209:5239   */\n      gt\n        /* \"#utility.yul\":5206:5323   */\n      iszero\n      tag_131\n      jumpi\n        /* \"#utility.yul\":5242:5321   */\n      tag_132\n      tag_109\n      jump\t// in\n    tag_132:\n        /* \"#utility.yul\":5206:5323   */\n    tag_131:\n        /* \"#utility.yul\":5347:5435   */\n      tag_133\n        /* \"#utility.yul\":5427:5434   */\n      dup14\n        /* \"#utility.yul\":5418:5424   */\n      dup3\n        /* \"#utility.yul\":5407:5416   */\n      dup15\n        /* \"#utility.yul\":5403:5425   */\n      add\n        /* \"#utility.yul\":5347:5435   */\n      tag_90\n      jump\t// in\n    tag_133:\n        /* \"#utility.yul\":5337:5435   */\n      swap2\n      pop\n        /* \"#utility.yul\":5131:5445   */\n      pop\n        /* \"#utility.yul\":2321:5452   */\n      swap3\n      swap6\n      swap9\n      swap12\n      swap2\n      swap5\n      swap8\n      swap11\n      pop\n      swap3\n      swap6\n      swap9\n      pop\n      jump\t// out\n        /* \"#utility.yul\":5458:5787   */\n    tag_16:\n        /* \"#utility.yul\":5517:5523   */\n      0x00\n        /* \"#utility.yul\":5566:5568   */\n      0x20\n        /* \"#utility.yul\":5554:5563   */\n      dup3\n        /* \"#utility.yul\":5545:5552   */\n      dup5\n        /* \"#utility.yul\":5541:5564   */\n      sub\n        /* \"#utility.yul\":5537:5569   */\n      slt\n        /* \"#utility.yul\":5534:5653   */\n      iszero\n      tag_135\n      jumpi\n        /* \"#utility.yul\":5572:5651   */\n      tag_136\n      tag_106\n      jump\t// in\n    tag_136:\n        /* \"#utility.yul\":5534:5653   */\n    tag_135:\n        /* \"#utility.yul\":5692:5693   */\n      0x00\n        /* \"#utility.yul\":5717:5770   */\n      tag_137\n        /* \"#utility.yul\":5762:5769   */\n      dup5\n        /* \"#utility.yul\":5753:5759   */\n      dup3\n        /* \"#utility.yul\":5742:5751   */\n      dup6\n        /* \"#utility.yul\":5738:5760   */\n      add\n        /* \"#utility.yul\":5717:5770   */\n      tag_99\n      jump\t// in\n    tag_137:\n        /* \"#utility.yul\":5707:5770   */\n      swap2\n      pop\n        /* \"#utility.yul\":5663:5780   */\n      pop\n        /* \"#utility.yul\":5458:5787   */\n      swap3\n      swap2\n      pop\n      pop\n      jump\t// out\n        /* \"#utility.yul\":5793:5911   */\n    tag_138:\n        /* \"#utility.yul\":5880:5904   */\n      tag_140\n        /* \"#utility.yul\":5898:5903   */\n      dup2\n        /* \"#utility.yul\":5880:5904   */\n      tag_141\n      jump\t// in\n    tag_140:\n        /* \"#utility.yul\":5875:5878   */\n      dup3\n        /* \"#utility.yul\":5868:5905   */\n      mstore\n        /* \"#utility.yul\":5793:5911   */\n      pop\n      pop\n      jump\t// out\n        /* \"#utility.yul\":5917:6283   */\n    tag_142:\n        /* \"#utility.yul\":6059:6062   */\n      0x00\n        /* \"#utility.yul\":6080:6147   */\n      tag_144\n        /* \"#utility.yul\":6144:6146   */\n      0x37\n        /* \"#utility.yul\":6139:6142   */\n      dup4\n        /* \"#utility.yul\":6080:6147   */\n      tag_145\n      jump\t// in\n    tag_144:\n        /* \"#utility.yul\":6073:6147   */\n      swap2\n      pop\n        /* \"#utility.yul\":6156:6249   */\n      tag_146\n        /* \"#utility.yul\":6245:6248   */\n      dup3\n        /* \"#utility.yul\":6156:6249   */\n      tag_147\n      jump\t// in\n    tag_146:\n        /* \"#utility.yul\":6274:6276   */\n      0x40\n        /* \"#utility.yul\":6269:6272   */\n      dup3\n        /* \"#utility.yul\":6265:6277   */\n      add\n        /* \"#utility.yul\":6258:6277   */\n      swap1\n      pop\n        /* \"#utility.yul\":5917:6283   */\n      swap2\n      swap1\n      pop\n      jump\t// out\n        /* \"#utility.yul\":6289:6407   */\n    tag_148:\n        /* \"#utility.yul\":6376:6400   */\n      tag_150\n        /* \"#utility.yul\":6394:6399   */\n      dup2\n        /* \"#utility.yul\":6376:6400   */\n      tag_151\n      jump\t// in\n    tag_150:\n        /* \"#utility.yul\":6371:6374   */\n      dup3\n        /* \"#utility.yul\":6364:6401   */\n      mstore\n        /* \"#utility.yul\":6289:6407   */\n      pop\n      pop\n      jump\t// out\n        /* \"#utility.yul\":6413:6635   */\n    tag_13:\n        /* \"#utility.yul\":6506:6510   */\n      0x00\n        /* \"#utility.yul\":6544:6546   */\n      0x20\n        /* \"#utility.yul\":6533:6542   */\n      dup3\n        /* \"#utility.yul\":6529:6547   */\n      add\n        /* \"#utility.yul\":6521:6547   */\n      swap1\n      pop\n        /* \"#utility.yul\":6557:6628   */\n      tag_153\n        /* \"#utility.yul\":6625:6626   */\n      0x00\n        /* \"#utility.yul\":6614:6623   */\n      dup4\n        /* \"#utility.yul\":6610:6627   */\n      add\n        /* \"#utility.yul\":6601:6607   */\n      dup5\n        /* \"#utility.yul\":6557:6628   */\n      tag_138\n      jump\t// in\n    tag_153:\n        /* \"#utility.yul\":6413:6635   */\n      swap3\n      swap2\n      pop\n      pop\n      jump\t// out\n        /* \"#utility.yul\":6641:7060   */\n    tag_23:\n        /* \"#utility.yul\":6807:6811   */\n      0x00\n        /* \"#utility.yul\":6845:6847   */\n      0x20\n        /* \"#utility.yul\":6834:6843   */\n      dup3\n        /* \"#utility.yul\":6830:6848   */\n      add\n        /* \"#utility.yul\":6822:6848   */\n      swap1\n      pop\n        /* \"#utility.yul\":6894:6903   */\n      dup2\n        /* \"#utility.yul\":6888:6892   */\n      dup2\n        /* \"#utility.yul\":6884:6904   */\n      sub\n        /* \"#utility.yul\":6880:6881   */\n      0x00\n        /* \"#utility.yul\":6869:6878   */\n      dup4\n        /* \"#utility.yul\":6865:6882   */\n      add\n        /* \"#utility.yul\":6858:6905   */\n      mstore\n        /* \"#utility.yul\":6922:7053   */\n      tag_155\n        /* \"#utility.yul\":7048:7052   */\n      dup2\n        /* \"#utility.yul\":6922:7053   */\n      tag_142\n      jump\t// in\n    tag_155:\n        /* \"#utility.yul\":6914:7053   */\n      swap1\n      pop\n        /* \"#utility.yul\":6641:7060   */\n      swap2\n      swap1\n      pop\n      jump\t// out\n        /* \"#utility.yul\":7066:7288   */\n    tag_19:\n        /* \"#utility.yul\":7159:7163   */\n      0x00\n        /* \"#utility.yul\":7197:7199   */\n      0x20\n        /* \"#utility.yul\":7186:7195   */\n      dup3\n        /* \"#utility.yul\":7182:7200   */\n      add\n        /* \"#utility.yul\":7174:7200   */\n      swap1\n      pop\n        /* \"#utility.yul\":7210:7281   */\n      tag_157\n        /* \"#utility.yul\":7278:7279   */\n      0x00\n        /* \"#utility.yul\":7267:7276   */\n      dup4\n        /* \"#utility.yul\":7263:7280   */\n      add\n        /* \"#utility.yul\":7254:7260   */\n      dup5\n        /* \"#utility.yul\":7210:7281   */\n      tag_148\n      jump\t// in\n    tag_157:\n        /* \"#utility.yul\":7066:7288   */\n      swap3\n      swap2\n      pop\n      pop\n      jump\t// out\n        /* \"#utility.yul\":7294:7423   */\n    tag_68:\n        /* \"#utility.yul\":7328:7334   */\n      0x00\n        /* \"#utility.yul\":7355:7375   */\n      tag_159\n      tag_160\n      jump\t// in\n    tag_159:\n        /* \"#utility.yul\":7345:7375   */\n      swap1\n      pop\n        /* \"#utility.yul\":7384:7417   */\n      tag_161\n        /* \"#utility.yul\":7412:7416   */\n      dup3\n        /* \"#utility.yul\":7404:7410   */\n      dup3\n        /* \"#utility.yul\":7384:7417   */\n      tag_162\n      jump\t// in\n    tag_161:\n        /* \"#utility.yul\":7294:7423   */\n      swap2\n      swap1\n      pop\n      jump\t// out\n        /* \"#utility.yul\":7429:7504   */\n    tag_160:\n        /* \"#utility.yul\":7462:7468   */\n      0x00\n        /* \"#utility.yul\":7495:7497   */\n      0x40\n        /* \"#utility.yul\":7489:7498   */\n      mload\n        /* \"#utility.yul\":7479:7498   */\n      swap1\n      pop\n        /* \"#utility.yul\":7429:7504   */\n      swap1\n      jump\t// out\n        /* \"#utility.yul\":7510:7831   */\n    tag_67:\n        /* \"#utility.yul\":7597:7601   */\n      0x00\n        /* \"#utility.yul\":7687:7705   */\n      0xffffffffffffffff\n        /* \"#utility.yul\":7679:7685   */\n      dup3\n        /* \"#utility.yul\":7676:7706   */\n      gt\n        /* \"#utility.yul\":7673:7729   */\n      iszero\n      tag_165\n      jumpi\n        /* \"#utility.yul\":7709:7727   */\n      tag_166\n      tag_167\n      jump\t// in\n    tag_166:\n        /* \"#utility.yul\":7673:7729   */\n    tag_165:\n        /* \"#utility.yul\":7759:7763   */\n      0x20\n        /* \"#utility.yul\":7751:7757   */\n      dup3\n        /* \"#utility.yul\":7747:7764   */\n      mul\n        /* \"#utility.yul\":7739:7764   */\n      swap1\n      pop\n        /* \"#utility.yul\":7819:7823   */\n      0x20\n        /* \"#utility.yul\":7813:7817   */\n      dup2\n        /* \"#utility.yul\":7809:7824   */\n      add\n        /* \"#utility.yul\":7801:7824   */\n      swap1\n      pop\n        /* \"#utility.yul\":7510:7831   */\n      swap2\n      swap1\n      pop\n      jump\t// out\n        /* \"#utility.yul\":7837:8145   */\n    tag_84:\n        /* \"#utility.yul\":7899:7903   */\n      0x00\n        /* \"#utility.yul\":7989:8007   */\n      0xffffffffffffffff\n        /* \"#utility.yul\":7981:7987   */\n      dup3\n        /* \"#utility.yul\":7978:8008   */\n      gt\n        /* \"#utility.yul\":7975:8031   */\n      iszero\n      tag_169\n      jumpi\n        /* \"#utility.yul\":8011:8029   */\n      tag_170\n      tag_167\n      jump\t// in\n    tag_170:\n        /* \"#utility.yul\":7975:8031   */\n    tag_169:\n        /* \"#utility.yul\":8049:8078   */\n      tag_171\n        /* \"#utility.yul\":8071:8077   */\n      dup3\n        /* \"#utility.yul\":8049:8078   */\n      tag_172\n      jump\t// in\n    tag_171:\n        /* \"#utility.yul\":8041:8078   */\n      swap1\n      pop\n        /* \"#utility.yul\":8133:8137   */\n      0x20\n        /* \"#utility.yul\":8127:8131   */\n      dup2\n        /* \"#utility.yul\":8123:8138   */\n      add\n        /* \"#utility.yul\":8115:8138   */\n      swap1\n      pop\n        /* \"#utility.yul\":7837:8145   */\n      swap2\n      swap1\n      pop\n      jump\t// out\n        /* \"#utility.yul\":8151:8320   */\n    tag_145:\n        /* \"#utility.yul\":8235:8246   */\n      0x00\n        /* \"#utility.yul\":8269:8275   */\n      dup3\n        /* \"#utility.yul\":8264:8267   */\n      dup3\n        /* \"#utility.yul\":8257:8276   */\n      mstore\n        /* \"#utility.yul\":8309:8313   */\n      0x20\n        /* \"#utility.yul\":8304:8307   */\n      dup3\n        /* \"#utility.yul\":8300:8314   */\n      add\n        /* \"#utility.yul\":8285:8314   */\n      swap1\n      pop\n        /* \"#utility.yul\":8151:8320   */\n      swap3\n      swap2\n      pop\n      pop\n      jump\t// out\n        /* \"#utility.yul\":8326:8422   */\n    tag_141:\n        /* \"#utility.yul\":8363:8370   */\n      0x00\n        /* \"#utility.yul\":8392:8416   */\n      tag_175\n        /* \"#utility.yul\":8410:8415   */\n      dup3\n        /* \"#utility.yul\":8392:8416   */\n      tag_176\n      jump\t// in\n    tag_175:\n        /* \"#utility.yul\":8381:8416   */\n      swap1\n      pop\n        /* \"#utility.yul\":8326:8422   */\n      swap2\n      swap1\n      pop\n      jump\t// out\n        /* \"#utility.yul\":8428:8554   */\n    tag_176:\n        /* \"#utility.yul\":8465:8472   */\n      0x00\n        /* \"#utility.yul\":8505:8547   */\n      0xffffffffffffffffffffffffffffffffffffffff\n        /* \"#utility.yul\":8498:8503   */\n      dup3\n        /* \"#utility.yul\":8494:8548   */\n      and\n        /* \"#utility.yul\":8483:8548   */\n      swap1\n      pop\n        /* \"#utility.yul\":8428:8554   */\n      swap2\n      swap1\n      pop\n      jump\t// out\n        /* \"#utility.yul\":8560:8637   */\n    tag_151:\n        /* \"#utility.yul\":8597:8604   */\n      0x00\n        /* \"#utility.yul\":8626:8631   */\n      dup2\n        /* \"#utility.yul\":8615:8631   */\n      swap1\n      pop\n        /* \"#utility.yul\":8560:8637   */\n      swap2\n      swap1\n      pop\n      jump\t// out\n        /* \"#utility.yul\":8643:8797   */\n    tag_89:\n        /* \"#utility.yul\":8727:8733   */\n      dup3\n        /* \"#utility.yul\":8722:8725   */\n      dup2\n        /* \"#utility.yul\":8717:8720   */\n      dup4\n        /* \"#utility.yul\":8704:8734   */\n      calldatacopy\n        /* \"#utility.yul\":8789:8790   */\n      0x00\n        /* \"#utility.yul\":8780:8786   */\n      dup4\n        /* \"#utility.yul\":8775:8778   */\n      dup4\n        /* \"#utility.yul\":8771:8787   */\n      add\n        /* \"#utility.yul\":8764:8791   */\n      mstore\n        /* \"#utility.yul\":8643:8797   */\n      pop\n      pop\n      pop\n      jump\t// out\n        /* \"#utility.yul\":8803:9123   */\n    tag_38:\n        /* \"#utility.yul\":8847:8853   */\n      0x00\n        /* \"#utility.yul\":8884:8885   */\n      0x02\n        /* \"#utility.yul\":8878:8882   */\n      dup3\n        /* \"#utility.yul\":8874:8886   */\n      div\n        /* \"#utility.yul\":8864:8886   */\n      swap1\n      pop\n        /* \"#utility.yul\":8931:8932   */\n      0x01\n        /* \"#utility.yul\":8925:8929   */\n      dup3\n        /* \"#utility.yul\":8921:8933   */\n      and\n        /* \"#utility.yul\":8952:8970   */\n      dup1\n        /* \"#utility.yul\":8942:9023   */\n      tag_181\n      jumpi\n        /* \"#utility.yul\":9008:9012   */\n      0x7f\n        /* \"#utility.yul\":9000:9006   */\n      dup3\n        /* \"#utility.yul\":8996:9013   */\n      and\n        /* \"#utility.yul\":8986:9013   */\n      swap2\n      pop\n        /* \"#utility.yul\":8942:9023   */\n    tag_181:\n        /* \"#utility.yul\":9070:9072   */\n      0x20\n        /* \"#utility.yul\":9062:9068   */\n      dup3\n        /* \"#utility.yul\":9059:9073   */\n      lt\n        /* \"#utility.yul\":9039:9057   */\n      dup2\n        /* \"#utility.yul\":9036:9074   */\n      eq\n        /* \"#utility.yul\":9033:9117   */\n      iszero\n      tag_182\n      jumpi\n        /* \"#utility.yul\":9089:9107   */\n      tag_183\n      tag_184\n      jump\t// in\n    tag_183:\n        /* \"#utility.yul\":9033:9117   */\n    tag_182:\n        /* \"#utility.yul\":8854:9123   */\n      pop\n        /* \"#utility.yul\":8803:9123   */\n      swap2\n      swap1\n      pop\n      jump\t// out\n        /* \"#utility.yul\":9129:9410   */\n    tag_162:\n        /* \"#utility.yul\":9212:9239   */\n      tag_186\n        /* \"#utility.yul\":9234:9238   */\n      dup3\n        /* \"#utility.yul\":9212:9239   */\n      tag_172\n      jump\t// in\n    tag_186:\n        /* \"#utility.yul\":9204:9210   */\n      dup2\n        /* \"#utility.yul\":9200:9240   */\n      add\n        /* \"#utility.yul\":9342:9348   */\n      dup2\n        /* \"#utility.yul\":9330:9340   */\n      dup2\n        /* \"#utility.yul\":9327:9349   */\n      lt\n        /* \"#utility.yul\":9306:9324   */\n      0xffffffffffffffff\n        /* \"#utility.yul\":9294:9304   */\n      dup3\n        /* \"#utility.yul\":9291:9325   */\n      gt\n        /* \"#utility.yul\":9288:9350   */\n      or\n        /* \"#utility.yul\":9285:9373   */\n      iszero\n      tag_187\n      jumpi\n        /* \"#utility.yul\":9353:9371   */\n      tag_188\n      tag_167\n      jump\t// in\n    tag_188:\n        /* \"#utility.yul\":9285:9373   */\n    tag_187:\n        /* \"#utility.yul\":9393:9403   */\n      dup1\n        /* \"#utility.yul\":9389:9391   */\n      0x40\n        /* \"#utility.yul\":9382:9404   */\n      mstore\n        /* \"#utility.yul\":9172:9410   */\n      pop\n        /* \"#utility.yul\":9129:9410   */\n      pop\n      pop\n      jump\t// out\n        /* \"#utility.yul\":9416:9596   */\n    tag_184:\n        /* \"#utility.yul\":9464:9541   */\n      0x4e487b7100000000000000000000000000000000000000000000000000000000\n        /* \"#utility.yul\":9461:9462   */\n      0x00\n        /* \"#utility.yul\":9454:9542   */\n      mstore\n        /* \"#utility.yul\":9561:9565   */\n      0x22\n        /* \"#utility.yul\":9558:9559   */\n      0x04\n        /* \"#utility.yul\":9551:9566   */\n      mstore\n        /* \"#utility.yul\":9585:9589   */\n      0x24\n        /* \"#utility.yul\":9582:9583   */\n      0x00\n        /* \"#utility.yul\":9575:9590   */\n      revert\n        /* \"#utility.yul\":9602:9782   */\n    tag_167:\n        /* \"#utility.yul\":9650:9727   */\n      0x4e487b7100000000000000000000000000000000000000000000000000000000\n        /* \"#utility.yul\":9647:9648   */\n      0x00\n        /* \"#utility.yul\":9640:9728   */\n      mstore\n        /* \"#utility.yul\":9747:9751   */\n      0x41\n        /* \"#utility.yul\":9744:9745   */\n      0x04\n        /* \"#utility.yul\":9737:9752   */\n      mstore\n        /* \"#utility.yul\":9771:9775   */\n      0x24\n        /* \"#utility.yul\":9768:9769   */\n      0x00\n        /* \"#utility.yul\":9761:9776   */\n      revert\n        /* \"#utility.yul\":9788:9905   */\n    tag_77:\n        /* \"#utility.yul\":9897:9898   */\n      0x00\n        /* \"#utility.yul\":9894:9895   */\n      dup1\n        /* \"#utility.yul\":9887:9899   */\n      revert\n        /* \"#utility.yul\":9911:10028   */\n    tag_71:\n        /* \"#utility.yul\":10020:10021   */\n      0x00\n        /* \"#utility.yul\":10017:10018   */\n      dup1\n        /* \"#utility.yul\":10010:10022   */\n      revert\n        /* \"#utility.yul\":10034:10151   */\n    tag_87:\n        /* \"#utility.yul\":10143:10144   */\n      0x00\n        /* \"#utility.yul\":10140:10141   */\n      dup1\n        /* \"#utility.yul\":10133:10145   */\n      revert\n        /* \"#utility.yul\":10157:10274   */\n    tag_109:\n        /* \"#utility.yul\":10266:10267   */\n      0x00\n        /* \"#utility.yul\":10263:10264   */\n      dup1\n        /* \"#utility.yul\":10256:10268   */\n      revert\n        /* \"#utility.yul\":10280:10397   */\n    tag_106:\n        /* \"#utility.yul\":10389:10390   */\n      0x00\n        /* \"#utility.yul\":10386:10387   */\n      dup1\n        /* \"#utility.yul\":10379:10391   */\n      revert\n        /* \"#utility.yul\":10403:10505   */\n    tag_172:\n        /* \"#utility.yul\":10444:10450   */\n      0x00\n        /* \"#utility.yul\":10495:10497   */\n      0x1f\n        /* \"#utility.yul\":10491:10498   */\n      not\n        /* \"#utility.yul\":10486:10488   */\n      0x1f\n        /* \"#utility.yul\":10479:10484   */\n      dup4\n        /* \"#utility.yul\":10475:10489   */\n      add\n        /* \"#utility.yul\":10471:10499   */\n      and\n        /* \"#utility.yul\":10461:10499   */\n      swap1\n      pop\n        /* \"#utility.yul\":10403:10505   */\n      swap2\n      swap1\n      pop\n      jump\t// out\n        /* \"#utility.yul\":10511:10753   */\n    tag_147:\n        /* \"#utility.yul\":10651:10685   */\n      0x4f6e6c7920746865206f776e6572206f662074686520736d61727420636f6e74\n        /* \"#utility.yul\":10647:10648   */\n      0x00\n        /* \"#utility.yul\":10639:10645   */\n      dup3\n        /* \"#utility.yul\":10635:10649   */\n      add\n        /* \"#utility.yul\":10628:10686   */\n      mstore\n        /* \"#utility.yul\":10720:10745   */\n      0x726163742063616e207075742075702072656e74616c73000000000000000000\n        /* \"#utility.yul\":10715:10717   */\n      0x20\n        /* \"#utility.yul\":10707:10713   */\n      dup3\n        /* \"#utility.yul\":10703:10718   */\n      add\n        /* \"#utility.yul\":10696:10746   */\n      mstore\n        /* \"#utility.yul\":10511:10753   */\n      pop\n      jump\t// out\n        /* \"#utility.yul\":10759:10881   */\n    tag_102:\n        /* \"#utility.yul\":10832:10856   */\n      tag_199\n        /* \"#utility.yul\":10850:10855   */\n      dup2\n        /* \"#utility.yul\":10832:10856   */\n      tag_151\n      jump\t// in\n    tag_199:\n        /* \"#utility.yul\":10825:10830   */\n      dup2\n        /* \"#utility.yul\":10822:10857   */\n      eq\n        /* \"#utility.yul\":10812:10875   */\n      tag_200\n      jumpi\n        /* \"#utility.yul\":10871:10872   */\n      0x00\n        /* \"#utility.yul\":10868:10869   */\n      dup1\n        /* \"#utility.yul\":10861:10873   */\n      revert\n        /* \"#utility.yul\":10812:10875   */\n    tag_200:\n        /* \"#utility.yul\":10759:10881   */\n      pop\n      jump\t// out\n\n    auxdata: 0xa2646970667358221220dbf3def08f2d4de911bcc0744c17bcb748665e6a9dafdf77b3498954e76502a864736f6c63430008070033\n}\n",
				"bytecode": {
					"linkReferences": {},
					"object": "608060405234801561001057600080fd5b506000600181905550336000806101000a81548173ffffffffffffffffffffffffffffffffffffffff021916908373ffffffffffffffffffffffffffffffffffffffff160217905550610aaf806100686000396000f3fe608060405234801561001057600080fd5b50600436106100415760003560e01c8063611fa0a8146100465780638da5cb5b14610062578063ebfa74c914610080575b600080fd5b610060600480360381019061005b91906105c7565b6100b0565b005b61006a6102d7565b60405161007791906107f4565b60405180910390f35b61009a60048036038101906100959190610786565b6102fb565b6040516100a7919061082f565b60405180910390f35b60008054906101000a900473ffffffffffffffffffffffffffffffffffffffff1673ffffffffffffffffffffffffffffffffffffffff163373ffffffffffffffffffffffffffffffffffffffff161461013e576040517f08c379a00000000000000000000000000000000000000000000000000000000081526004016101359061080f565b60405180910390fd5b600060026000600154815260200190815260200160002090508a81600001908051906020019061016f92919061031f565b508981600101908051906020019061018892919061031f565b50888160020190805190602001906101a192919061031f565b50878160030190805190602001906101ba92919061031f565b50868160040190805190602001906101d392919061031f565b50858160050190805190602001906101ec92919061031f565b508481600601908051906020019061020592919061031f565b50838160070181905550828160080181905550818160090190805190602001906102309291906103a5565b5060015481600a018190555060008054906101000a900473ffffffffffffffffffffffffffffffffffffffff1681600b0160006101000a81548173ffffffffffffffffffffffffffffffffffffffff021916908373ffffffffffffffffffffffffffffffffffffffff160217905550600360015490806001815401808255809150506001900390600052602060002001600090919091909150555050505050505050505050565b60008054906101000a900473ffffffffffffffffffffffffffffffffffffffff1681565b6003818154811061030b57600080fd5b906000526020600020016000915090505481565b82805461032b90610928565b90600052602060002090601f01602090048101928261034d5760008555610394565b82601f1061036657805160ff1916838001178555610394565b82800160010185558215610394579182015b82811115610393578251825591602001919060010190610378565b5b5090506103a19190610405565b5090565b8280548282559060005260206000209081019282156103f4579160200282015b828111156103f35782518290805190602001906103e392919061031f565b50916020019190600101906103c5565b5b5090506104019190610422565b5090565b5b8082111561041e576000816000905550600101610406565b5090565b5b8082111561044257600081816104399190610446565b50600101610423565b5090565b50805461045290610928565b6000825580601f106104645750610483565b601f0160209004906000526020600020908101906104829190610405565b5b50565b60006104996104948461086f565b61084a565b905080838252602082019050828560208602820111156104bc576104bb6109ee565b5b60005b8581101561050a57813567ffffffffffffffff8111156104e2576104e16109e9565b5b8086016104ef8982610584565b855260208501945060208401935050506001810190506104bf565b5050509392505050565b60006105276105228461089b565b61084a565b905082815260208101848484011115610543576105426109f3565b5b61054e848285610919565b509392505050565b600082601f83011261056b5761056a6109e9565b5b813561057b848260208601610486565b91505092915050565b600082601f830112610599576105986109e9565b5b81356105a9848260208601610514565b91505092915050565b6000813590506105c181610a62565b92915050565b6000806000806000806000806000806101408b8d0312156105eb576105ea6109fd565b5b60008b013567ffffffffffffffff811115610609576106086109f8565b5b6106158d828e01610584565b9a505060208b013567ffffffffffffffff811115610636576106356109f8565b5b6106428d828e01610584565b99505060408b013567ffffffffffffffff811115610663576106626109f8565b5b61066f8d828e01610584565b98505060608b013567ffffffffffffffff8111156106905761068f6109f8565b5b61069c8d828e01610584565b97505060808b013567ffffffffffffffff8111156106bd576106bc6109f8565b5b6106c98d828e01610584565b96505060a08b013567ffffffffffffffff8111156106ea576106e96109f8565b5b6106f68d828e01610584565b95505060c08b013567ffffffffffffffff811115610717576107166109f8565b5b6107238d828e01610584565b94505060e06107348d828e016105b2565b9350506101006107468d828e016105b2565b9250506101208b013567ffffffffffffffff811115610768576107676109f8565b5b6107748d828e01610556565b9150509295989b9194979a5092959850565b60006020828403121561079c5761079b6109fd565b5b60006107aa848285016105b2565b91505092915050565b6107bc816108dd565b82525050565b60006107cf6037836108cc565b91506107da82610a13565b604082019050919050565b6107ee8161090f565b82525050565b600060208201905061080960008301846107b3565b92915050565b60006020820190508181036000830152610828816107c2565b9050919050565b600060208201905061084460008301846107e5565b92915050565b6000610854610865565b9050610860828261095a565b919050565b6000604051905090565b600067ffffffffffffffff82111561088a576108896109ba565b5b602082029050602081019050919050565b600067ffffffffffffffff8211156108b6576108b56109ba565b5b6108bf82610a02565b9050602081019050919050565b600082825260208201905092915050565b60006108e8826108ef565b9050919050565b600073ffffffffffffffffffffffffffffffffffffffff82169050919050565b6000819050919050565b82818337600083830152505050565b6000600282049050600182168061094057607f821691505b602082108114156109545761095361098b565b5b50919050565b61096382610a02565b810181811067ffffffffffffffff82111715610982576109816109ba565b5b80604052505050565b7f4e487b7100000000000000000000000000000000000000000000000000000000600052602260045260246000fd5b7f4e487b7100000000000000000000000000000000000000000000000000000000600052604160045260246000fd5b600080fd5b600080fd5b600080fd5b600080fd5b600080fd5b6000601f19601f8301169050919050565b7f4f6e6c7920746865206f776e6572206f662074686520736d61727420636f6e7460008201527f726163742063616e207075742075702072656e74616c73000000000000000000602082015250565b610a6b8161090f565b8114610a7657600080fd5b5056fea2646970667358221220dbf3def08f2d4de911bcc0744c17bcb748665e6a9dafdf77b3498954e76502a864736f6c63430008070033",
					"opcodes": "PUSH1 0x80 PUSH1 0x40 MSTORE CALLVALUE DUP1 ISZERO PUSH2 0x10 JUMPI PUSH1 0x0 DUP1 REVERT JUMPDEST POP PUSH1 0x0 PUSH1 0x1 DUP2 SWAP1 SSTORE POP CALLER PUSH1 0x0 DUP1 PUSH2 0x100 EXP DUP2 SLOAD DUP2 PUSH20 0xFFFFFFFFFFFFFFFFFFFFFFFFFFFFFFFFFFFFFFFF MUL NOT AND SWAP1 DUP4 PUSH20 0xFFFFFFFFFFFFFFFFFFFFFFFFFFFFFFFFFFFFFFFF AND MUL OR SWAP1 SSTORE POP PUSH2 0xAAF DUP1 PUSH2 0x68 PUSH1 0x0 CODECOPY PUSH1 0x0 RETURN INVALID PUSH1 0x80 PUSH1 0x40 MSTORE CALLVALUE DUP1 ISZERO PUSH2 0x10 JUMPI PUSH1 0x0 DUP1 REVERT JUMPDEST POP PUSH1 0x4 CALLDATASIZE LT PUSH2 0x41 JUMPI PUSH1 0x0 CALLDATALOAD PUSH1 0xE0 SHR DUP1 PUSH4 0x611FA0A8 EQ PUSH2 0x46 JUMPI DUP1 PUSH4 0x8DA5CB5B EQ PUSH2 0x62 JUMPI DUP1 PUSH4 0xEBFA74C9 EQ PUSH2 0x80 JUMPI JUMPDEST PUSH1 0x0 DUP1 REVERT JUMPDEST PUSH2 0x60 PUSH1 0x4 DUP1 CALLDATASIZE SUB DUP2 ADD SWAP1 PUSH2 0x5B SWAP2 SWAP1 PUSH2 0x5C7 JUMP JUMPDEST PUSH2 0xB0 JUMP JUMPDEST STOP JUMPDEST PUSH2 0x6A PUSH2 0x2D7 JUMP JUMPDEST PUSH1 0x40 MLOAD PUSH2 0x77 SWAP2 SWAP1 PUSH2 0x7F4 JUMP JUMPDEST PUSH1 0x40 MLOAD DUP1 SWAP2 SUB SWAP1 RETURN JUMPDEST PUSH2 0x9A PUSH1 0x4 DUP1 CALLDATASIZE SUB DUP2 ADD SWAP1 PUSH2 0x95 SWAP2 SWAP1 PUSH2 0x786 JUMP JUMPDEST PUSH2 0x2FB JUMP JUMPDEST PUSH1 0x40 MLOAD PUSH2 0xA7 SWAP2 SWAP1 PUSH2 0x82F JUMP JUMPDEST PUSH1 0x40 MLOAD DUP1 SWAP2 SUB SWAP1 RETURN JUMPDEST PUSH1 0x0 DUP1 SLOAD SWAP1 PUSH2 0x100 EXP SWAP1 DIV PUSH20 0xFFFFFFFFFFFFFFFFFFFFFFFFFFFFFFFFFFFFFFFF AND PUSH20 0xFFFFFFFFFFFFFFFFFFFFFFFFFFFFFFFFFFFFFFFF AND CALLER PUSH20 0xFFFFFFFFFFFFFFFFFFFFFFFFFFFFFFFFFFFFFFFF AND EQ PUSH2 0x13E JUMPI PUSH1 0x40 MLOAD PUSH32 0x8C379A000000000000000000000000000000000000000000000000000000000 DUP2 MSTORE PUSH1 0x4 ADD PUSH2 0x135 SWAP1 PUSH2 0x80F JUMP JUMPDEST PUSH1 0x40 MLOAD DUP1 SWAP2 SUB SWAP1 REVERT JUMPDEST PUSH1 0x0 PUSH1 0x2 PUSH1 0x0 PUSH1 0x1 SLOAD DUP2 MSTORE PUSH1 0x20 ADD SWAP1 DUP2 MSTORE PUSH1 0x20 ADD PUSH1 0x0 KECCAK256 SWAP1 POP DUP11 DUP2 PUSH1 0x0 ADD SWAP1 DUP1 MLOAD SWAP1 PUSH1 0x20 ADD SWAP1 PUSH2 0x16F SWAP3 SWAP2 SWAP1 PUSH2 0x31F JUMP JUMPDEST POP DUP10 DUP2 PUSH1 0x1 ADD SWAP1 DUP1 MLOAD SWAP1 PUSH1 0x20 ADD SWAP1 PUSH2 0x188 SWAP3 SWAP2 SWAP1 PUSH2 0x31F JUMP JUMPDEST POP DUP9 DUP2 PUSH1 0x2 ADD SWAP1 DUP1 MLOAD SWAP1 PUSH1 0x20 ADD SWAP1 PUSH2 0x1A1 SWAP3 SWAP2 SWAP1 PUSH2 0x31F JUMP JUMPDEST POP DUP8 DUP2 PUSH1 0x3 ADD SWAP1 DUP1 MLOAD SWAP1 PUSH1 0x20 ADD SWAP1 PUSH2 0x1BA SWAP3 SWAP2 SWAP1 PUSH2 0x31F JUMP JUMPDEST POP DUP7 DUP2 PUSH1 0x4 ADD SWAP1 DUP1 MLOAD SWAP1 PUSH1 0x20 ADD SWAP1 PUSH2 0x1D3 SWAP3 SWAP2 SWAP1 PUSH2 0x31F JUMP JUMPDEST POP DUP6 DUP2 PUSH1 0x5 ADD SWAP1 DUP1 MLOAD SWAP1 PUSH1 0x20 ADD SWAP1 PUSH2 0x1EC SWAP3 SWAP2 SWAP1 PUSH2 0x31F JUMP JUMPDEST POP DUP5 DUP2 PUSH1 0x6 ADD SWAP1 DUP1 MLOAD SWAP1 PUSH1 0x20 ADD SWAP1 PUSH2 0x205 SWAP3 SWAP2 SWAP1 PUSH2 0x31F JUMP JUMPDEST POP DUP4 DUP2 PUSH1 0x7 ADD DUP2 SWAP1 SSTORE POP DUP3 DUP2 PUSH1 0x8 ADD DUP2 SWAP1 SSTORE POP DUP2 DUP2 PUSH1 0x9 ADD SWAP1 DUP1 MLOAD SWAP1 PUSH1 0x20 ADD SWAP1 PUSH2 0x230 SWAP3 SWAP2 SWAP1 PUSH2 0x3A5 JUMP JUMPDEST POP PUSH1 0x1 SLOAD DUP2 PUSH1 0xA ADD DUP2 SWAP1 SSTORE POP PUSH1 0x0 DUP1 SLOAD SWAP1 PUSH2 0x100 EXP SWAP1 DIV PUSH20 0xFFFFFFFFFFFFFFFFFFFFFFFFFFFFFFFFFFFFFFFF AND DUP2 PUSH1 0xB ADD PUSH1 0x0 PUSH2 0x100 EXP DUP2 SLOAD DUP2 PUSH20 0xFFFFFFFFFFFFFFFFFFFFFFFFFFFFFFFFFFFFFFFF MUL NOT AND SWAP1 DUP4 PUSH20 0xFFFFFFFFFFFFFFFFFFFFFFFFFFFFFFFFFFFFFFFF AND MUL OR SWAP1 SSTORE POP PUSH1 0x3 PUSH1 0x1 SLOAD SWAP1 DUP1 PUSH1 0x1 DUP2 SLOAD ADD DUP1 DUP3 SSTORE DUP1 SWAP2 POP POP PUSH1 0x1 SWAP1 SUB SWAP1 PUSH1 0x0 MSTORE PUSH1 0x20 PUSH1 0x0 KECCAK256 ADD PUSH1 0x0 SWAP1 SWAP2 SWAP1 SWAP2 SWAP1 SWAP2 POP SSTORE POP POP POP POP POP POP POP POP POP POP POP JUMP JUMPDEST PUSH1 0x0 DUP1 SLOAD SWAP1 PUSH2 0x100 EXP SWAP1 DIV PUSH20 0xFFFFFFFFFFFFFFFFFFFFFFFFFFFFFFFFFFFFFFFF AND DUP2 JUMP JUMPDEST PUSH1 0x3 DUP2 DUP2 SLOAD DUP2 LT PUSH2 0x30B JUMPI PUSH1 0x0 DUP1 REVERT JUMPDEST SWAP1 PUSH1 0x0 MSTORE PUSH1 0x20 PUSH1 0x0 KECCAK256 ADD PUSH1 0x0 SWAP2 POP SWAP1 POP SLOAD DUP2 JUMP JUMPDEST DUP3 DUP1 SLOAD PUSH2 0x32B SWAP1 PUSH2 0x928 JUMP JUMPDEST SWAP1 PUSH1 0x0 MSTORE PUSH1 0x20 PUSH1 0x0 KECCAK256 SWAP1 PUSH1 0x1F ADD PUSH1 0x20 SWAP1 DIV DUP2 ADD SWAP3 DUP3 PUSH2 0x34D JUMPI PUSH1 0x0 DUP6 SSTORE PUSH2 0x394 JUMP JUMPDEST DUP3 PUSH1 0x1F LT PUSH2 0x366 JUMPI DUP1 MLOAD PUSH1 0xFF NOT AND DUP4 DUP1 ADD OR DUP6 SSTORE PUSH2 0x394 JUMP JUMPDEST DUP3 DUP1 ADD PUSH1 0x1 ADD DUP6 SSTORE DUP3 ISZERO PUSH2 0x394 JUMPI SWAP2 DUP3 ADD JUMPDEST DUP3 DUP2 GT ISZERO PUSH2 0x393 JUMPI DUP3 MLOAD DUP3 SSTORE SWAP2 PUSH1 0x20 ADD SWAP2 SWAP1 PUSH1 0x1 ADD SWAP1 PUSH2 0x378 JUMP JUMPDEST JUMPDEST POP SWAP1 POP PUSH2 0x3A1 SWAP2 SWAP1 PUSH2 0x405 JUMP JUMPDEST POP SWAP1 JUMP JUMPDEST DUP3 DUP1 SLOAD DUP3 DUP3 SSTORE SWAP1 PUSH1 0x0 MSTORE PUSH1 0x20 PUSH1 0x0 KECCAK256 SWAP1 DUP2 ADD SWAP3 DUP3 ISZERO PUSH2 0x3F4 JUMPI SWAP2 PUSH1 0x20 MUL DUP3 ADD JUMPDEST DUP3 DUP2 GT ISZERO PUSH2 0x3F3 JUMPI DUP3 MLOAD DUP3 SWAP1 DUP1 MLOAD SWAP1 PUSH1 0x20 ADD SWAP1 PUSH2 0x3E3 SWAP3 SWAP2 SWAP1 PUSH2 0x31F JUMP JUMPDEST POP SWAP2 PUSH1 0x20 ADD SWAP2 SWAP1 PUSH1 0x1 ADD SWAP1 PUSH2 0x3C5 JUMP JUMPDEST JUMPDEST POP SWAP1 POP PUSH2 0x401 SWAP2 SWAP1 PUSH2 0x422 JUMP JUMPDEST POP SWAP1 JUMP JUMPDEST JUMPDEST DUP1 DUP3 GT ISZERO PUSH2 0x41E JUMPI PUSH1 0x0 DUP2 PUSH1 0x0 SWAP1 SSTORE POP PUSH1 0x1 ADD PUSH2 0x406 JUMP JUMPDEST POP SWAP1 JUMP JUMPDEST JUMPDEST DUP1 DUP3 GT ISZERO PUSH2 0x442 JUMPI PUSH1 0x0 DUP2 DUP2 PUSH2 0x439 SWAP2 SWAP1 PUSH2 0x446 JUMP JUMPDEST POP PUSH1 0x1 ADD PUSH2 0x423 JUMP JUMPDEST POP SWAP1 JUMP JUMPDEST POP DUP1 SLOAD PUSH2 0x452 SWAP1 PUSH2 0x928 JUMP JUMPDEST PUSH1 0x0 DUP3 SSTORE DUP1 PUSH1 0x1F LT PUSH2 0x464 JUMPI POP PUSH2 0x483 JUMP JUMPDEST PUSH1 0x1F ADD PUSH1 0x20 SWAP1 DIV SWAP1 PUSH1 0x0 MSTORE PUSH1 0x20 PUSH1 0x0 KECCAK256 SWAP1 DUP2 ADD SWAP1 PUSH2 0x482 SWAP2 SWAP1 PUSH2 0x405 JUMP JUMPDEST JUMPDEST POP JUMP JUMPDEST PUSH1 0x0 PUSH2 0x499 PUSH2 0x494 DUP5 PUSH2 0x86F JUMP JUMPDEST PUSH2 0x84A JUMP JUMPDEST SWAP1 POP DUP1 DUP4 DUP3 MSTORE PUSH1 0x20 DUP3 ADD SWAP1 POP DUP3 DUP6 PUSH1 0x20 DUP7 MUL DUP3 ADD GT ISZERO PUSH2 0x4BC JUMPI PUSH2 0x4BB PUSH2 0x9EE JUMP JUMPDEST JUMPDEST PUSH1 0x0 JUMPDEST DUP6 DUP2 LT ISZERO PUSH2 0x50A JUMPI DUP2 CALLDATALOAD PUSH8 0xFFFFFFFFFFFFFFFF DUP2 GT ISZERO PUSH2 0x4E2 JUMPI PUSH2 0x4E1 PUSH2 0x9E9 JUMP JUMPDEST JUMPDEST DUP1 DUP7 ADD PUSH2 0x4EF DUP10 DUP3 PUSH2 0x584 JUMP JUMPDEST DUP6 MSTORE PUSH1 0x20 DUP6 ADD SWAP5 POP PUSH1 0x20 DUP5 ADD SWAP4 POP POP POP PUSH1 0x1 DUP2 ADD SWAP1 POP PUSH2 0x4BF JUMP JUMPDEST POP POP POP SWAP4 SWAP3 POP POP POP JUMP JUMPDEST PUSH1 0x0 PUSH2 0x527 PUSH2 0x522 DUP5 PUSH2 0x89B JUMP JUMPDEST PUSH2 0x84A JUMP JUMPDEST SWAP1 POP DUP3 DUP2 MSTORE PUSH1 0x20 DUP2 ADD DUP5 DUP5 DUP5 ADD GT ISZERO PUSH2 0x543 JUMPI PUSH2 0x542 PUSH2 0x9F3 JUMP JUMPDEST JUMPDEST PUSH2 0x54E DUP5 DUP3 DUP6 PUSH2 0x919 JUMP JUMPDEST POP SWAP4 SWAP3 POP POP POP JUMP JUMPDEST PUSH1 0x0 DUP3 PUSH1 0x1F DUP4 ADD SLT PUSH2 0x56B JUMPI PUSH2 0x56A PUSH2 0x9E9 JUMP JUMPDEST JUMPDEST DUP2 CALLDATALOAD PUSH2 0x57B DUP5 DUP3 PUSH1 0x20 DUP7 ADD PUSH2 0x486 JUMP JUMPDEST SWAP2 POP POP SWAP3 SWAP2 POP POP JUMP JUMPDEST PUSH1 0x0 DUP3 PUSH1 0x1F DUP4 ADD SLT PUSH2 0x599 JUMPI PUSH2 0x598 PUSH2 0x9E9 JUMP JUMPDEST JUMPDEST DUP2 CALLDATALOAD PUSH2 0x5A9 DUP5 DUP3 PUSH1 0x20 DUP7 ADD PUSH2 0x514 JUMP JUMPDEST SWAP2 POP POP SWAP3 SWAP2 POP POP JUMP JUMPDEST PUSH1 0x0 DUP2 CALLDATALOAD SWAP1 POP PUSH2 0x5C1 DUP2 PUSH2 0xA62 JUMP JUMPDEST SWAP3 SWAP2 POP POP JUMP JUMPDEST PUSH1 0x0 DUP1 PUSH1 0x0 DUP1 PUSH1 0x0 DUP1 PUSH1 0x0 DUP1 PUSH1 0x0 DUP1 PUSH2 0x140 DUP12 DUP14 SUB SLT ISZERO PUSH2 0x5EB JUMPI PUSH2 0x5EA PUSH2 0x9FD JUMP JUMPDEST JUMPDEST PUSH1 0x0 DUP12 ADD CALLDATALOAD PUSH8 0xFFFFFFFFFFFFFFFF DUP2 GT ISZERO PUSH2 0x609 JUMPI PUSH2 0x608 PUSH2 0x9F8 JUMP JUMPDEST JUMPDEST PUSH2 0x615 DUP14 DUP3 DUP15 ADD PUSH2 0x584 JUMP JUMPDEST SWAP11 POP POP PUSH1 0x20 DUP12 ADD CALLDATALOAD PUSH8 0xFFFFFFFFFFFFFFFF DUP2 GT ISZERO PUSH2 0x636 JUMPI PUSH2 0x635 PUSH2 0x9F8 JUMP JUMPDEST JUMPDEST PUSH2 0x642 DUP14 DUP3 DUP15 ADD PUSH2 0x584 JUMP JUMPDEST SWAP10 POP POP PUSH1 0x40 DUP12 ADD CALLDATALOAD PUSH8 0xFFFFFFFFFFFFFFFF DUP2 GT ISZERO PUSH2 0x663 JUMPI PUSH2 0x662 PUSH2 0x9F8 JUMP JUMPDEST JUMPDEST PUSH2 0x66F DUP14 DUP3 DUP15 ADD PUSH2 0x584 JUMP JUMPDEST SWAP9 POP POP PUSH1 0x60 DUP12 ADD CALLDATALOAD PUSH8 0xFFFFFFFFFFFFFFFF DUP2 GT ISZERO PUSH2 0x690 JUMPI PUSH2 0x68F PUSH2 0x9F8 JUMP JUMPDEST JUMPDEST PUSH2 0x69C DUP14 DUP3 DUP15 ADD PUSH2 0x584 JUMP JUMPDEST SWAP8 POP POP PUSH1 0x80 DUP12 ADD CALLDATALOAD PUSH8 0xFFFFFFFFFFFFFFFF DUP2 GT ISZERO PUSH2 0x6BD JUMPI PUSH2 0x6BC PUSH2 0x9F8 JUMP JUMPDEST JUMPDEST PUSH2 0x6C9 DUP14 DUP3 DUP15 ADD PUSH2 0x584 JUMP JUMPDEST SWAP7 POP POP PUSH1 0xA0 DUP12 ADD CALLDATALOAD PUSH8 0xFFFFFFFFFFFFFFFF DUP2 GT ISZERO PUSH2 0x6EA JUMPI PUSH2 0x6E9 PUSH2 0x9F8 JUMP JUMPDEST JUMPDEST PUSH2 0x6F6 DUP14 DUP3 DUP15 ADD PUSH2 0x584 JUMP JUMPDEST SWAP6 POP POP PUSH1 0xC0 DUP12 ADD CALLDATALOAD PUSH8 0xFFFFFFFFFFFFFFFF DUP2 GT ISZERO PUSH2 0x717 JUMPI PUSH2 0x716 PUSH2 0x9F8 JUMP JUMPDEST JUMPDEST PUSH2 0x723 DUP14 DUP3 DUP15 ADD PUSH2 0x584 JUMP JUMPDEST SWAP5 POP POP PUSH1 0xE0 PUSH2 0x734 DUP14 DUP3 DUP15 ADD PUSH2 0x5B2 JUMP JUMPDEST SWAP4 POP POP PUSH2 0x100 PUSH2 0x746 DUP14 DUP3 DUP15 ADD PUSH2 0x5B2 JUMP JUMPDEST SWAP3 POP POP PUSH2 0x120 DUP12 ADD CALLDATALOAD PUSH8 0xFFFFFFFFFFFFFFFF DUP2 GT ISZERO PUSH2 0x768 JUMPI PUSH2 0x767 PUSH2 0x9F8 JUMP JUMPDEST JUMPDEST PUSH2 0x774 DUP14 DUP3 DUP15 ADD PUSH2 0x556 JUMP JUMPDEST SWAP2 POP POP SWAP3 SWAP6 SWAP9 SWAP12 SWAP2 SWAP5 SWAP8 SWAP11 POP SWAP3 SWAP6 SWAP9 POP JUMP JUMPDEST PUSH1 0x0 PUSH1 0x20 DUP3 DUP5 SUB SLT ISZERO PUSH2 0x79C JUMPI PUSH2 0x79B PUSH2 0x9FD JUMP JUMPDEST JUMPDEST PUSH1 0x0 PUSH2 0x7AA DUP5 DUP3 DUP6 ADD PUSH2 0x5B2 JUMP JUMPDEST SWAP2 POP POP SWAP3 SWAP2 POP POP JUMP JUMPDEST PUSH2 0x7BC DUP2 PUSH2 0x8DD JUMP JUMPDEST DUP3 MSTORE POP POP JUMP JUMPDEST PUSH1 0x0 PUSH2 0x7CF PUSH1 0x37 DUP4 PUSH2 0x8CC JUMP JUMPDEST SWAP2 POP PUSH2 0x7DA DUP3 PUSH2 0xA13 JUMP JUMPDEST PUSH1 0x40 DUP3 ADD SWAP1 POP SWAP2 SWAP1 POP JUMP JUMPDEST PUSH2 0x7EE DUP2 PUSH2 0x90F JUMP JUMPDEST DUP3 MSTORE POP POP JUMP JUMPDEST PUSH1 0x0 PUSH1 0x20 DUP3 ADD SWAP1 POP PUSH2 0x809 PUSH1 0x0 DUP4 ADD DUP5 PUSH2 0x7B3 JUMP JUMPDEST SWAP3 SWAP2 POP POP JUMP JUMPDEST PUSH1 0x0 PUSH1 0x20 DUP3 ADD SWAP1 POP DUP2 DUP2 SUB PUSH1 0x0 DUP4 ADD MSTORE PUSH2 0x828 DUP2 PUSH2 0x7C2 JUMP JUMPDEST SWAP1 POP SWAP2 SWAP1 POP JUMP JUMPDEST PUSH1 0x0 PUSH1 0x20 DUP3 ADD SWAP1 POP PUSH2 0x844 PUSH1 0x0 DUP4 ADD DUP5 PUSH2 0x7E5 JUMP JUMPDEST SWAP3 SWAP2 POP POP JUMP JUMPDEST PUSH1 0x0 PUSH2 0x854 PUSH2 0x865 JUMP JUMPDEST SWAP1 POP PUSH2 0x860 DUP3 DUP3 PUSH2 0x95A JUMP JUMPDEST SWAP2 SWAP1 POP JUMP JUMPDEST PUSH1 0x0 PUSH1 0x40 MLOAD SWAP1 POP SWAP1 JUMP JUMPDEST PUSH1 0x0 PUSH8 0xFFFFFFFFFFFFFFFF DUP3 GT ISZERO PUSH2 0x88A JUMPI PUSH2 0x889 PUSH2 0x9BA JUMP JUMPDEST JUMPDEST PUSH1 0x20 DUP3 MUL SWAP1 POP PUSH1 0x20 DUP2 ADD SWAP1 POP SWAP2 SWAP1 POP JUMP JUMPDEST PUSH1 0x0 PUSH8 0xFFFFFFFFFFFFFFFF DUP3 GT ISZERO PUSH2 0x8B6 JUMPI PUSH2 0x8B5 PUSH2 0x9BA JUMP JUMPDEST JUMPDEST PUSH2 0x8BF DUP3 PUSH2 0xA02 JUMP JUMPDEST SWAP1 POP PUSH1 0x20 DUP2 ADD SWAP1 POP SWAP2 SWAP1 POP JUMP JUMPDEST PUSH1 0x0 DUP3 DUP3 MSTORE PUSH1 0x20 DUP3 ADD SWAP1 POP SWAP3 SWAP2 POP POP JUMP JUMPDEST PUSH1 0x0 PUSH2 0x8E8 DUP3 PUSH2 0x8EF JUMP JUMPDEST SWAP1 POP SWAP2 SWAP1 POP JUMP JUMPDEST PUSH1 0x0 PUSH20 0xFFFFFFFFFFFFFFFFFFFFFFFFFFFFFFFFFFFFFFFF DUP3 AND SWAP1 POP SWAP2 SWAP1 POP JUMP JUMPDEST PUSH1 0x0 DUP2 SWAP1 POP SWAP2 SWAP1 POP JUMP JUMPDEST DUP3 DUP2 DUP4 CALLDATACOPY PUSH1 0x0 DUP4 DUP4 ADD MSTORE POP POP POP JUMP JUMPDEST PUSH1 0x0 PUSH1 0x2 DUP3 DIV SWAP1 POP PUSH1 0x1 DUP3 AND DUP1 PUSH2 0x940 JUMPI PUSH1 0x7F DUP3 AND SWAP2 POP JUMPDEST PUSH1 0x20 DUP3 LT DUP2 EQ ISZERO PUSH2 0x954 JUMPI PUSH2 0x953 PUSH2 0x98B JUMP JUMPDEST JUMPDEST POP SWAP2 SWAP1 POP JUMP JUMPDEST PUSH2 0x963 DUP3 PUSH2 0xA02 JUMP JUMPDEST DUP2 ADD DUP2 DUP2 LT PUSH8 0xFFFFFFFFFFFFFFFF DUP3 GT OR ISZERO PUSH2 0x982 JUMPI PUSH2 0x981 PUSH2 0x9BA JUMP JUMPDEST JUMPDEST DUP1 PUSH1 0x40 MSTORE POP POP POP JUMP JUMPDEST PUSH32 0x4E487B7100000000000000000000000000000000000000000000000000000000 PUSH1 0x0 MSTORE PUSH1 0x22 PUSH1 0x4 MSTORE PUSH1 0x24 PUSH1 0x0 REVERT JUMPDEST PUSH32 0x4E487B7100000000000000000000000000000000000000000000000000000000 PUSH1 0x0 MSTORE PUSH1 0x41 PUSH1 0x4 MSTORE PUSH1 0x24 PUSH1 0x0 REVERT JUMPDEST PUSH1 0x0 DUP1 REVERT JUMPDEST PUSH1 0x0 DUP1 REVERT JUMPDEST PUSH1 0x0 DUP1 REVERT JUMPDEST PUSH1 0x0 DUP1 REVERT JUMPDEST PUSH1 0x0 DUP1 REVERT JUMPDEST PUSH1 0x0 PUSH1 0x1F NOT PUSH1 0x1F DUP4 ADD AND SWAP1 POP SWAP2 SWAP1 POP JUMP JUMPDEST PUSH32 0x4F6E6C7920746865206F776E6572206F662074686520736D61727420636F6E74 PUSH1 0x0 DUP3 ADD MSTORE PUSH32 0x726163742063616E207075742075702072656E74616C73000000000000000000 PUSH1 0x20 DUP3 ADD MSTORE POP JUMP JUMPDEST PUSH2 0xA6B DUP2 PUSH2 0x90F JUMP JUMPDEST DUP2 EQ PUSH2 0xA76 JUMPI PUSH1 0x0 DUP1 REVERT JUMPDEST POP JUMP INVALID LOG2 PUSH5 0x6970667358 0x22 SLT KECCAK256 0xDB RETURN 0xDE CREATE DUP16 0x2D 0x4D 0xE9 GT 0xBC 0xC0 PUSH21 0x4C17BCB748665E6A9DAFDF77B3498954E76502A864 PUSH20 0x6F6C634300080700330000000000000000000000 "
				},
				"gasEstimates": {
					"creation": {
						"codeDepositCost": "547000",
						"executionCost": "29861",
						"totalCost": "576861"
					},
					"external": {
						"addRentels(string,string,string,string,string,string,string,uint256,uint256,string[])": "infinite",
						"owner()": "2511",
						"rentalIds(uint256)": "infinite"
					}
				},
				"methodIdentifiers": {
					"addRentels(string,string,string,string,string,string,string,uint256,uint256,string[])": "611fa0a8",
					"owner()": "8da5cb5b",
					"rentalIds(uint256)": "ebfa74c9"
				}
			},
			"storageLayout": {
				"storage": [
					{
						"astId": 3,
						"contract": "contracts/Aquaroom.sol:aquaroom",
						"label": "owner",
						"offset": 0,
						"slot": "0",
						"type": "t_address"
					},
					{
						"astId": 5,
						"contract": "contracts/Aquaroom.sol:aquaroom",
						"label": "counter",
						"offset": 0,
						"slot": "1",
						"type": "t_uint256"
					},
					{
						"astId": 89,
						"contract": "contracts/Aquaroom.sol:aquaroom",
						"label": "rentals",
						"offset": 0,
						"slot": "2",
						"type": "t_mapping(t_uint256,t_struct(rentalInfo)44_storage)"
					},
					{
						"astId": 92,
						"contract": "contracts/Aquaroom.sol:aquaroom",
						"label": "rentalIds",
						"offset": 0,
						"slot": "3",
						"type": "t_array(t_uint256)dyn_storage"
					}
				],
				"types": {
					"t_address": {
						"encoding": "inplace",
						"label": "address",
						"numberOfBytes": "20"
					},
					"t_array(t_string_storage)dyn_storage": {
						"base": "t_string_storage",
						"encoding": "dynamic_array",
						"label": "string[]",
						"numberOfBytes": "32"
					},
					"t_array(t_uint256)dyn_storage": {
						"base": "t_uint256",
						"encoding": "dynamic_array",
						"label": "uint256[]",
						"numberOfBytes": "32"
					},
					"t_mapping(t_uint256,t_struct(rentalInfo)44_storage)": {
						"encoding": "mapping",
						"key": "t_uint256",
						"label": "mapping(uint256 => struct aquaroom.rentalInfo)",
						"numberOfBytes": "32",
						"value": "t_struct(rentalInfo)44_storage"
					},
					"t_string_storage": {
						"encoding": "bytes",
						"label": "string",
						"numberOfBytes": "32"
					},
					"t_struct(rentalInfo)44_storage": {
						"encoding": "inplace",
						"label": "struct aquaroom.rentalInfo",
						"members": [
							{
								"astId": 20,
								"contract": "contracts/Aquaroom.sol:aquaroom",
								"label": "name",
								"offset": 0,
								"slot": "0",
								"type": "t_string_storage"
							},
							{
								"astId": 22,
								"contract": "contracts/Aquaroom.sol:aquaroom",
								"label": "city",
								"offset": 0,
								"slot": "1",
								"type": "t_string_storage"
							},
							{
								"astId": 24,
								"contract": "contracts/Aquaroom.sol:aquaroom",
								"label": "lat",
								"offset": 0,
								"slot": "2",
								"type": "t_string_storage"
							},
							{
								"astId": 26,
								"contract": "contracts/Aquaroom.sol:aquaroom",
								"label": "long",
								"offset": 0,
								"slot": "3",
								"type": "t_string_storage"
							},
							{
								"astId": 28,
								"contract": "contracts/Aquaroom.sol:aquaroom",
								"label": "unoDescription",
								"offset": 0,
								"slot": "4",
								"type": "t_string_storage"
							},
							{
								"astId": 30,
								"contract": "contracts/Aquaroom.sol:aquaroom",
								"label": "dosDescription",
								"offset": 0,
								"slot": "5",
								"type": "t_string_storage"
							},
							{
								"astId": 32,
								"contract": "contracts/Aquaroom.sol:aquaroom",
								"label": "imgUrl",
								"offset": 0,
								"slot": "6",
								"type": "t_string_storage"
							},
							{
								"astId": 34,
								"contract": "contracts/Aquaroom.sol:aquaroom",
								"label": "maxGuests",
								"offset": 0,
								"slot": "7",
								"type": "t_uint256"
							},
							{
								"astId": 36,
								"contract": "contracts/Aquaroom.sol:aquaroom",
								"label": "pricePerDay",
								"offset": 0,
								"slot": "8",
								"type": "t_uint256"
							},
							{
								"astId": 39,
								"contract": "contracts/Aquaroom.sol:aquaroom",
								"label": "datesBooked",
								"offset": 0,
								"slot": "9",
								"type": "t_array(t_string_storage)dyn_storage"
							},
							{
								"astId": 41,
								"contract": "contracts/Aquaroom.sol:aquaroom",
								"label": "id",
								"offset": 0,
								"slot": "10",
								"type": "t_uint256"
							},
							{
								"astId": 43,
								"contract": "contracts/Aquaroom.sol:aquaroom",
								"label": "renter",
								"offset": 0,
								"slot": "11",
								"type": "t_address"
							}
						],
						"numberOfBytes": "384"
					},
					"t_uint256": {
						"encoding": "inplace",
						"label": "uint256",
						"numberOfBytes": "32"
					}
				}
			},
			"userdoc": {
				"kind": "user",
				"methods": {},
				"version": 1
			}
		}
	}
}