{
	"contracts/Aquaroom.sol": {
		"aquaroom": {
			"abi": [
				{
					"inputs": [],
					"stateMutability": "nonpayable",
					"type": "constructor"
				},
				{
					"anonymous": false,
					"inputs": [
						{
							"indexed": false,
							"internalType": "string[]",
							"name": "datesBooked",
							"type": "string[]"
						},
						{
							"indexed": false,
							"internalType": "uint256",
							"name": "id",
							"type": "uint256"
						},
						{
							"indexed": false,
							"internalType": "address",
							"name": "booker",
							"type": "address"
						},
						{
							"indexed": false,
							"internalType": "string",
							"name": "city",
							"type": "string"
						},
						{
							"indexed": false,
							"internalType": "string",
							"name": "imgUrl",
							"type": "string"
						}
					],
					"name": "newDatesBooked",
					"type": "event"
				},
				{
					"anonymous": false,
					"inputs": [
						{
							"indexed": false,
							"internalType": "string",
							"name": "name",
							"type": "string"
						},
						{
							"indexed": false,
							"internalType": "string",
							"name": "city",
							"type": "string"
						},
						{
							"indexed": false,
							"internalType": "string",
							"name": "lat",
							"type": "string"
						},
						{
							"indexed": false,
							"internalType": "string",
							"name": "long",
							"type": "string"
						},
						{
							"indexed": false,
							"internalType": "string",
							"name": "unoDescription",
							"type": "string"
						},
						{
							"indexed": false,
							"internalType": "string",
							"name": "dosDescription",
							"type": "string"
						},
						{
							"indexed": false,
							"internalType": "string",
							"name": "imgUrl",
							"type": "string"
						},
						{
							"indexed": false,
							"internalType": "uint256",
							"name": "maxGuests",
							"type": "uint256"
						},
						{
							"indexed": false,
							"internalType": "uint256",
							"name": "pricePerDay",
							"type": "uint256"
						},
						{
							"indexed": false,
							"internalType": "string[]",
							"name": "datesBooked",
							"type": "string[]"
						},
						{
							"indexed": false,
							"internalType": "uint256",
							"name": "id",
							"type": "uint256"
						},
						{
							"indexed": false,
							"internalType": "address",
							"name": "renter",
							"type": "address"
						}
					],
					"name": "rentalCreated",
					"type": "event"
				},
				{
					"inputs": [
						{
							"internalType": "string",
							"name": "name",
							"type": "string"
						},
						{
							"internalType": "string",
							"name": "city",
							"type": "string"
						},
						{
							"internalType": "string",
							"name": "lat",
							"type": "string"
						},
						{
							"internalType": "string",
							"name": "long",
							"type": "string"
						},
						{
							"internalType": "string",
							"name": "unoDescription",
							"type": "string"
						},
						{
							"internalType": "string",
							"name": "dosDescription",
							"type": "string"
						},
						{
							"internalType": "string",
							"name": "imgUrl",
							"type": "string"
						},
						{
							"internalType": "uint256",
							"name": "maxGuests",
							"type": "uint256"
						},
						{
							"internalType": "uint256",
							"name": "pricePerDay",
							"type": "uint256"
						},
						{
							"internalType": "string[]",
							"name": "datesBooked",
							"type": "string[]"
						}
					],
					"name": "addRentels",
					"outputs": [],
					"stateMutability": "nonpayable",
					"type": "function"
				},
				{
					"inputs": [],
					"name": "owner",
					"outputs": [
						{
							"internalType": "address",
							"name": "",
							"type": "address"
						}
					],
					"stateMutability": "view",
					"type": "function"
				},
				{
					"inputs": [
						{
							"internalType": "uint256",
							"name": "",
							"type": "uint256"
						}
					],
					"name": "rentalIds",
					"outputs": [
						{
							"internalType": "uint256",
							"name": "",
							"type": "uint256"
						}
					],
					"stateMutability": "view",
					"type": "function"
				}
			],
			"devdoc": {
				"kind": "dev",
				"methods": {},
				"version": 1
			},
			"evm": {
				"assembly": "    /* \"contracts/Aquaroom.sol\":60:1568  contract aquaroom {\r... */\n  mstore(0x40, 0x80)\n    /* \"contracts/Aquaroom.sol\":146:220  constructor () {\r... */\n  callvalue\n  dup1\n  iszero\n  tag_1\n  jumpi\n  0x00\n  dup1\n  revert\ntag_1:\n  pop\n    /* \"contracts/Aquaroom.sol\":182:183  0 */\n  0x00\n    /* \"contracts/Aquaroom.sol\":172:179  counter */\n  0x01\n    /* \"contracts/Aquaroom.sol\":172:183  counter = 0 */\n  dup2\n  swap1\n  sstore\n  pop\n    /* \"contracts/Aquaroom.sol\":202:212  msg.sender */\n  caller\n    /* \"contracts/Aquaroom.sol\":194:199  owner */\n  0x00\n  dup1\n    /* \"contracts/Aquaroom.sol\":194:212  owner = msg.sender */\n  0x0100\n  exp\n  dup2\n  sload\n  dup2\n  0xffffffffffffffffffffffffffffffffffffffff\n  mul\n  not\n  and\n  swap1\n  dup4\n  0xffffffffffffffffffffffffffffffffffffffff\n  and\n  mul\n  or\n  swap1\n  sstore\n  pop\n    /* \"contracts/Aquaroom.sol\":60:1568  contract aquaroom {\r... */\n  dataSize(sub_0)\n  dup1\n  dataOffset(sub_0)\n  0x00\n  codecopy\n  0x00\n  return\nstop\n\nsub_0: assembly {\n        /* \"contracts/Aquaroom.sol\":60:1568  contract aquaroom {\r... */\n      mstore(0x40, 0x80)\n      callvalue\n      dup1\n      iszero\n      tag_1\n      jumpi\n      0x00\n      dup1\n      revert\n    tag_1:\n      pop\n      jumpi(tag_2, lt(calldatasize, 0x04))\n      shr(0xe0, calldataload(0x00))\n      dup1\n      0x611fa0a8\n      eq\n      tag_3\n      jumpi\n      dup1\n      0x8da5cb5b\n      eq\n      tag_4\n      jumpi\n      dup1\n      0xebfa74c9\n      eq\n      tag_5\n      jumpi\n    tag_2:\n      0x00\n      dup1\n      revert\n        /* \"contracts/Aquaroom.sol\":1162:1563  function addRentels(\r... */\n    tag_3:\n      tag_6\n      0x04\n      dup1\n      calldatasize\n      sub\n      dup2\n      add\n      swap1\n      tag_7\n      swap2\n      swap1\n      tag_8\n      jump\t// in\n    tag_7:\n      tag_9\n      jump\t// in\n    tag_6:\n      stop\n        /* \"contracts/Aquaroom.sol\":87:107  address public owner */\n    tag_4:\n      tag_10\n      tag_11\n      jump\t// in\n    tag_10:\n      mload(0x40)\n      tag_12\n      swap2\n      swap1\n      tag_13\n      jump\t// in\n    tag_12:\n      mload(0x40)\n      dup1\n      swap2\n      sub\n      swap1\n      return\n        /* \"contracts/Aquaroom.sol\":1127:1153  uint256[] public rentalIds */\n    tag_5:\n      tag_14\n      0x04\n      dup1\n      calldatasize\n      sub\n      dup2\n      add\n      swap1\n      tag_15\n      swap2\n      swap1\n      tag_16\n      jump\t// in\n    tag_15:\n      tag_17\n      jump\t// in\n    tag_14:\n      mload(0x40)\n      tag_18\n      swap2\n      swap1\n      tag_19\n      jump\t// in\n    tag_18:\n      mload(0x40)\n      dup1\n      swap2\n      sub\n      swap1\n      return\n        /* \"contracts/Aquaroom.sol\":1162:1563  function addRentels(\r... */\n    tag_9:\n        /* \"contracts/Aquaroom.sol\":1549:1554  owner */\n      0x00\n      dup1\n      sload\n      swap1\n      0x0100\n      exp\n      swap1\n      div\n      0xffffffffffffffffffffffffffffffffffffffff\n      and\n        /* \"contracts/Aquaroom.sol\":1535:1554  msg.sender == owner */\n      0xffffffffffffffffffffffffffffffffffffffff\n      and\n        /* \"contracts/Aquaroom.sol\":1535:1545  msg.sender */\n      caller\n        /* \"contracts/Aquaroom.sol\":1535:1554  msg.sender == owner */\n      0xffffffffffffffffffffffffffffffffffffffff\n      and\n      eq\n        /* \"contracts/Aquaroom.sol\":1527:1555  require(msg.sender == owner) */\n      tag_21\n      jumpi\n      0x00\n      dup1\n      revert\n    tag_21:\n        /* \"contracts/Aquaroom.sol\":1162:1563  function addRentels(\r... */\n      pop\n      pop\n      pop\n      pop\n      pop\n      pop\n      pop\n      pop\n      pop\n      pop\n      jump\t// out\n        /* \"contracts/Aquaroom.sol\":87:107  address public owner */\n    tag_11:\n      0x00\n      dup1\n      sload\n      swap1\n      0x0100\n      exp\n      swap1\n      div\n      0xffffffffffffffffffffffffffffffffffffffff\n      and\n      dup2\n      jump\t// out\n        /* \"contracts/Aquaroom.sol\":1127:1153  uint256[] public rentalIds */\n    tag_17:\n      0x03\n      dup2\n      dup2\n      sload\n      dup2\n      lt\n      tag_22\n      jumpi\n      0x00\n      dup1\n      revert\n    tag_22:\n      swap1\n      0x00\n      mstore\n      keccak256(0x00, 0x20)\n      add\n      0x00\n      swap2\n      pop\n      swap1\n      pop\n      sload\n      dup2\n      jump\t// out\n        /* \"#utility.yul\":23:980   */\n    tag_25:\n        /* \"#utility.yul\":129:134   */\n      0x00\n        /* \"#utility.yul\":154:245   */\n      tag_27\n        /* \"#utility.yul\":170:244   */\n      tag_28\n        /* \"#utility.yul\":237:243   */\n      dup5\n        /* \"#utility.yul\":170:244   */\n      tag_29\n      jump\t// in\n    tag_28:\n        /* \"#utility.yul\":154:245   */\n      tag_30\n      jump\t// in\n    tag_27:\n        /* \"#utility.yul\":145:245   */\n      swap1\n      pop\n        /* \"#utility.yul\":265:270   */\n      dup1\n        /* \"#utility.yul\":294:300   */\n      dup4\n        /* \"#utility.yul\":287:292   */\n      dup3\n        /* \"#utility.yul\":280:301   */\n      mstore\n        /* \"#utility.yul\":328:332   */\n      0x20\n        /* \"#utility.yul\":321:326   */\n      dup3\n        /* \"#utility.yul\":317:333   */\n      add\n        /* \"#utility.yul\":310:333   */\n      swap1\n      pop\n        /* \"#utility.yul\":354:360   */\n      dup3\n        /* \"#utility.yul\":404:407   */\n      dup6\n        /* \"#utility.yul\":396:400   */\n      0x20\n        /* \"#utility.yul\":388:394   */\n      dup7\n        /* \"#utility.yul\":384:401   */\n      mul\n        /* \"#utility.yul\":379:382   */\n      dup3\n        /* \"#utility.yul\":375:402   */\n      add\n        /* \"#utility.yul\":372:408   */\n      gt\n        /* \"#utility.yul\":369:512   */\n      iszero\n      tag_31\n      jumpi\n        /* \"#utility.yul\":423:502   */\n      tag_32\n      tag_33\n      jump\t// in\n    tag_32:\n        /* \"#utility.yul\":369:512   */\n    tag_31:\n        /* \"#utility.yul\":536:537   */\n      0x00\n        /* \"#utility.yul\":521:974   */\n    tag_34:\n        /* \"#utility.yul\":546:552   */\n      dup6\n        /* \"#utility.yul\":543:544   */\n      dup2\n        /* \"#utility.yul\":540:553   */\n      lt\n        /* \"#utility.yul\":521:974   */\n      iszero\n      tag_36\n      jumpi\n        /* \"#utility.yul\":628:631   */\n      dup2\n        /* \"#utility.yul\":615:632   */\n      calldataload\n        /* \"#utility.yul\":664:682   */\n      0xffffffffffffffff\n        /* \"#utility.yul\":651:662   */\n      dup2\n        /* \"#utility.yul\":648:683   */\n      gt\n        /* \"#utility.yul\":645:767   */\n      iszero\n      tag_37\n      jumpi\n        /* \"#utility.yul\":686:765   */\n      tag_38\n      tag_39\n      jump\t// in\n    tag_38:\n        /* \"#utility.yul\":645:767   */\n    tag_37:\n        /* \"#utility.yul\":810:821   */\n      dup1\n        /* \"#utility.yul\":802:808   */\n      dup7\n        /* \"#utility.yul\":798:822   */\n      add\n        /* \"#utility.yul\":848:895   */\n      tag_40\n        /* \"#utility.yul\":891:894   */\n      dup10\n        /* \"#utility.yul\":879:889   */\n      dup3\n        /* \"#utility.yul\":848:895   */\n      tag_41\n      jump\t// in\n    tag_40:\n        /* \"#utility.yul\":843:846   */\n      dup6\n        /* \"#utility.yul\":836:896   */\n      mstore\n        /* \"#utility.yul\":925:929   */\n      0x20\n        /* \"#utility.yul\":920:923   */\n      dup6\n        /* \"#utility.yul\":916:930   */\n      add\n        /* \"#utility.yul\":909:930   */\n      swap5\n      pop\n        /* \"#utility.yul\":959:963   */\n      0x20\n        /* \"#utility.yul\":954:957   */\n      dup5\n        /* \"#utility.yul\":950:964   */\n      add\n        /* \"#utility.yul\":943:964   */\n      swap4\n      pop\n        /* \"#utility.yul\":581:974   */\n      pop\n      pop\n        /* \"#utility.yul\":568:569   */\n      0x01\n        /* \"#utility.yul\":565:566   */\n      dup2\n        /* \"#utility.yul\":561:570   */\n      add\n        /* \"#utility.yul\":556:570   */\n      swap1\n      pop\n        /* \"#utility.yul\":521:974   */\n      jump(tag_34)\n    tag_36:\n        /* \"#utility.yul\":525:539   */\n      pop\n        /* \"#utility.yul\":135:980   */\n      pop\n      pop\n        /* \"#utility.yul\":23:980   */\n      swap4\n      swap3\n      pop\n      pop\n      pop\n      jump\t// out\n        /* \"#utility.yul\":986:1398   */\n    tag_42:\n        /* \"#utility.yul\":1064:1069   */\n      0x00\n        /* \"#utility.yul\":1089:1155   */\n      tag_44\n        /* \"#utility.yul\":1105:1154   */\n      tag_45\n        /* \"#utility.yul\":1147:1153   */\n      dup5\n        /* \"#utility.yul\":1105:1154   */\n      tag_46\n      jump\t// in\n    tag_45:\n        /* \"#utility.yul\":1089:1155   */\n      tag_30\n      jump\t// in\n    tag_44:\n        /* \"#utility.yul\":1080:1155   */\n      swap1\n      pop\n        /* \"#utility.yul\":1178:1184   */\n      dup3\n        /* \"#utility.yul\":1171:1176   */\n      dup2\n        /* \"#utility.yul\":1164:1185   */\n      mstore\n        /* \"#utility.yul\":1216:1220   */\n      0x20\n        /* \"#utility.yul\":1209:1214   */\n      dup2\n        /* \"#utility.yul\":1205:1221   */\n      add\n        /* \"#utility.yul\":1254:1257   */\n      dup5\n        /* \"#utility.yul\":1245:1251   */\n      dup5\n        /* \"#utility.yul\":1240:1243   */\n      dup5\n        /* \"#utility.yul\":1236:1252   */\n      add\n        /* \"#utility.yul\":1233:1258   */\n      gt\n        /* \"#utility.yul\":1230:1342   */\n      iszero\n      tag_47\n      jumpi\n        /* \"#utility.yul\":1261:1340   */\n      tag_48\n      tag_49\n      jump\t// in\n    tag_48:\n        /* \"#utility.yul\":1230:1342   */\n    tag_47:\n        /* \"#utility.yul\":1351:1392   */\n      tag_50\n        /* \"#utility.yul\":1385:1391   */\n      dup5\n        /* \"#utility.yul\":1380:1383   */\n      dup3\n        /* \"#utility.yul\":1375:1378   */\n      dup6\n        /* \"#utility.yul\":1351:1392   */\n      tag_51\n      jump\t// in\n    tag_50:\n        /* \"#utility.yul\":1070:1398   */\n      pop\n        /* \"#utility.yul\":986:1398   */\n      swap4\n      swap3\n      pop\n      pop\n      pop\n      jump\t// out\n        /* \"#utility.yul\":1420:1810   */\n    tag_52:\n        /* \"#utility.yul\":1501:1506   */\n      0x00\n        /* \"#utility.yul\":1550:1553   */\n      dup3\n        /* \"#utility.yul\":1543:1547   */\n      0x1f\n        /* \"#utility.yul\":1535:1541   */\n      dup4\n        /* \"#utility.yul\":1531:1548   */\n      add\n        /* \"#utility.yul\":1527:1554   */\n      slt\n        /* \"#utility.yul\":1517:1639   */\n      tag_54\n      jumpi\n        /* \"#utility.yul\":1558:1637   */\n      tag_55\n      tag_39\n      jump\t// in\n    tag_55:\n        /* \"#utility.yul\":1517:1639   */\n    tag_54:\n        /* \"#utility.yul\":1675:1681   */\n      dup2\n        /* \"#utility.yul\":1662:1682   */\n      calldataload\n        /* \"#utility.yul\":1700:1804   */\n      tag_56\n        /* \"#utility.yul\":1800:1803   */\n      dup5\n        /* \"#utility.yul\":1792:1798   */\n      dup3\n        /* \"#utility.yul\":1785:1789   */\n      0x20\n        /* \"#utility.yul\":1777:1783   */\n      dup7\n        /* \"#utility.yul\":1773:1790   */\n      add\n        /* \"#utility.yul\":1700:1804   */\n      tag_25\n      jump\t// in\n    tag_56:\n        /* \"#utility.yul\":1691:1804   */\n      swap2\n      pop\n        /* \"#utility.yul\":1507:1810   */\n      pop\n        /* \"#utility.yul\":1420:1810   */\n      swap3\n      swap2\n      pop\n      pop\n      jump\t// out\n        /* \"#utility.yul\":1830:2170   */\n    tag_41:\n        /* \"#utility.yul\":1886:1891   */\n      0x00\n        /* \"#utility.yul\":1935:1938   */\n      dup3\n        /* \"#utility.yul\":1928:1932   */\n      0x1f\n        /* \"#utility.yul\":1920:1926   */\n      dup4\n        /* \"#utility.yul\":1916:1933   */\n      add\n        /* \"#utility.yul\":1912:1939   */\n      slt\n        /* \"#utility.yul\":1902:2024   */\n      tag_58\n      jumpi\n        /* \"#utility.yul\":1943:2022   */\n      tag_59\n      tag_39\n      jump\t// in\n    tag_59:\n        /* \"#utility.yul\":1902:2024   */\n    tag_58:\n        /* \"#utility.yul\":2060:2066   */\n      dup2\n        /* \"#utility.yul\":2047:2067   */\n      calldataload\n        /* \"#utility.yul\":2085:2164   */\n      tag_60\n        /* \"#utility.yul\":2160:2163   */\n      dup5\n        /* \"#utility.yul\":2152:2158   */\n      dup3\n        /* \"#utility.yul\":2145:2149   */\n      0x20\n        /* \"#utility.yul\":2137:2143   */\n      dup7\n        /* \"#utility.yul\":2133:2150   */\n      add\n        /* \"#utility.yul\":2085:2164   */\n      tag_42\n      jump\t// in\n    tag_60:\n        /* \"#utility.yul\":2076:2164   */\n      swap2\n      pop\n        /* \"#utility.yul\":1892:2170   */\n      pop\n        /* \"#utility.yul\":1830:2170   */\n      swap3\n      swap2\n      pop\n      pop\n      jump\t// out\n        /* \"#utility.yul\":2176:2315   */\n    tag_61:\n        /* \"#utility.yul\":2222:2227   */\n      0x00\n        /* \"#utility.yul\":2260:2266   */\n      dup2\n        /* \"#utility.yul\":2247:2267   */\n      calldataload\n        /* \"#utility.yul\":2238:2267   */\n      swap1\n      pop\n        /* \"#utility.yul\":2276:2309   */\n      tag_63\n        /* \"#utility.yul\":2303:2308   */\n      dup2\n        /* \"#utility.yul\":2276:2309   */\n      tag_64\n      jump\t// in\n    tag_63:\n        /* \"#utility.yul\":2176:2315   */\n      swap3\n      swap2\n      pop\n      pop\n      jump\t// out\n        /* \"#utility.yul\":2321:5452   */\n    tag_8:\n        /* \"#utility.yul\":2566:2572   */\n      0x00\n        /* \"#utility.yul\":2574:2580   */\n      dup1\n        /* \"#utility.yul\":2582:2588   */\n      0x00\n        /* \"#utility.yul\":2590:2596   */\n      dup1\n        /* \"#utility.yul\":2598:2604   */\n      0x00\n        /* \"#utility.yul\":2606:2612   */\n      dup1\n        /* \"#utility.yul\":2614:2620   */\n      0x00\n        /* \"#utility.yul\":2622:2628   */\n      dup1\n        /* \"#utility.yul\":2630:2636   */\n      0x00\n        /* \"#utility.yul\":2638:2644   */\n      dup1\n        /* \"#utility.yul\":2687:2690   */\n      0x0140\n        /* \"#utility.yul\":2675:2684   */\n      dup12\n        /* \"#utility.yul\":2666:2673   */\n      dup14\n        /* \"#utility.yul\":2662:2685   */\n      sub\n        /* \"#utility.yul\":2658:2691   */\n      slt\n        /* \"#utility.yul\":2655:2775   */\n      iszero\n      tag_66\n      jumpi\n        /* \"#utility.yul\":2694:2773   */\n      tag_67\n      tag_68\n      jump\t// in\n    tag_67:\n        /* \"#utility.yul\":2655:2775   */\n    tag_66:\n        /* \"#utility.yul\":2842:2843   */\n      0x00\n        /* \"#utility.yul\":2831:2840   */\n      dup12\n        /* \"#utility.yul\":2827:2844   */\n      add\n        /* \"#utility.yul\":2814:2845   */\n      calldataload\n        /* \"#utility.yul\":2872:2890   */\n      0xffffffffffffffff\n        /* \"#utility.yul\":2864:2870   */\n      dup2\n        /* \"#utility.yul\":2861:2891   */\n      gt\n        /* \"#utility.yul\":2858:2975   */\n      iszero\n      tag_69\n      jumpi\n        /* \"#utility.yul\":2894:2973   */\n      tag_70\n      tag_71\n      jump\t// in\n    tag_70:\n        /* \"#utility.yul\":2858:2975   */\n    tag_69:\n        /* \"#utility.yul\":2999:3062   */\n      tag_72\n        /* \"#utility.yul\":3054:3061   */\n      dup14\n        /* \"#utility.yul\":3045:3051   */\n      dup3\n        /* \"#utility.yul\":3034:3043   */\n      dup15\n        /* \"#utility.yul\":3030:3052   */\n      add\n        /* \"#utility.yul\":2999:3062   */\n      tag_41\n      jump\t// in\n    tag_72:\n        /* \"#utility.yul\":2989:3062   */\n      swap11\n      pop\n        /* \"#utility.yul\":2785:3072   */\n      pop\n        /* \"#utility.yul\":3139:3141   */\n      0x20\n        /* \"#utility.yul\":3128:3137   */\n      dup12\n        /* \"#utility.yul\":3124:3142   */\n      add\n        /* \"#utility.yul\":3111:3143   */\n      calldataload\n        /* \"#utility.yul\":3170:3188   */\n      0xffffffffffffffff\n        /* \"#utility.yul\":3162:3168   */\n      dup2\n        /* \"#utility.yul\":3159:3189   */\n      gt\n        /* \"#utility.yul\":3156:3273   */\n      iszero\n      tag_73\n      jumpi\n        /* \"#utility.yul\":3192:3271   */\n      tag_74\n      tag_71\n      jump\t// in\n    tag_74:\n        /* \"#utility.yul\":3156:3273   */\n    tag_73:\n        /* \"#utility.yul\":3297:3360   */\n      tag_75\n        /* \"#utility.yul\":3352:3359   */\n      dup14\n        /* \"#utility.yul\":3343:3349   */\n      dup3\n        /* \"#utility.yul\":3332:3341   */\n      dup15\n        /* \"#utility.yul\":3328:3350   */\n      add\n        /* \"#utility.yul\":3297:3360   */\n      tag_41\n      jump\t// in\n    tag_75:\n        /* \"#utility.yul\":3287:3360   */\n      swap10\n      pop\n        /* \"#utility.yul\":3082:3370   */\n      pop\n        /* \"#utility.yul\":3437:3439   */\n      0x40\n        /* \"#utility.yul\":3426:3435   */\n      dup12\n        /* \"#utility.yul\":3422:3440   */\n      add\n        /* \"#utility.yul\":3409:3441   */\n      calldataload\n        /* \"#utility.yul\":3468:3486   */\n      0xffffffffffffffff\n        /* \"#utility.yul\":3460:3466   */\n      dup2\n        /* \"#utility.yul\":3457:3487   */\n      gt\n        /* \"#utility.yul\":3454:3571   */\n      iszero\n      tag_76\n      jumpi\n        /* \"#utility.yul\":3490:3569   */\n      tag_77\n      tag_71\n      jump\t// in\n    tag_77:\n        /* \"#utility.yul\":3454:3571   */\n    tag_76:\n        /* \"#utility.yul\":3595:3658   */\n      tag_78\n        /* \"#utility.yul\":3650:3657   */\n      dup14\n        /* \"#utility.yul\":3641:3647   */\n      dup3\n        /* \"#utility.yul\":3630:3639   */\n      dup15\n        /* \"#utility.yul\":3626:3648   */\n      add\n        /* \"#utility.yul\":3595:3658   */\n      tag_41\n      jump\t// in\n    tag_78:\n        /* \"#utility.yul\":3585:3658   */\n      swap9\n      pop\n        /* \"#utility.yul\":3380:3668   */\n      pop\n        /* \"#utility.yul\":3735:3737   */\n      0x60\n        /* \"#utility.yul\":3724:3733   */\n      dup12\n        /* \"#utility.yul\":3720:3738   */\n      add\n        /* \"#utility.yul\":3707:3739   */\n      calldataload\n        /* \"#utility.yul\":3766:3784   */\n      0xffffffffffffffff\n        /* \"#utility.yul\":3758:3764   */\n      dup2\n        /* \"#utility.yul\":3755:3785   */\n      gt\n        /* \"#utility.yul\":3752:3869   */\n      iszero\n      tag_79\n      jumpi\n        /* \"#utility.yul\":3788:3867   */\n      tag_80\n      tag_71\n      jump\t// in\n    tag_80:\n        /* \"#utility.yul\":3752:3869   */\n    tag_79:\n        /* \"#utility.yul\":3893:3956   */\n      tag_81\n        /* \"#utility.yul\":3948:3955   */\n      dup14\n        /* \"#utility.yul\":3939:3945   */\n      dup3\n        /* \"#utility.yul\":3928:3937   */\n      dup15\n        /* \"#utility.yul\":3924:3946   */\n      add\n        /* \"#utility.yul\":3893:3956   */\n      tag_41\n      jump\t// in\n    tag_81:\n        /* \"#utility.yul\":3883:3956   */\n      swap8\n      pop\n        /* \"#utility.yul\":3678:3966   */\n      pop\n        /* \"#utility.yul\":4033:4036   */\n      0x80\n        /* \"#utility.yul\":4022:4031   */\n      dup12\n        /* \"#utility.yul\":4018:4037   */\n      add\n        /* \"#utility.yul\":4005:4038   */\n      calldataload\n        /* \"#utility.yul\":4065:4083   */\n      0xffffffffffffffff\n        /* \"#utility.yul\":4057:4063   */\n      dup2\n        /* \"#utility.yul\":4054:4084   */\n      gt\n        /* \"#utility.yul\":4051:4168   */\n      iszero\n      tag_82\n      jumpi\n        /* \"#utility.yul\":4087:4166   */\n      tag_83\n      tag_71\n      jump\t// in\n    tag_83:\n        /* \"#utility.yul\":4051:4168   */\n    tag_82:\n        /* \"#utility.yul\":4192:4255   */\n      tag_84\n        /* \"#utility.yul\":4247:4254   */\n      dup14\n        /* \"#utility.yul\":4238:4244   */\n      dup3\n        /* \"#utility.yul\":4227:4236   */\n      dup15\n        /* \"#utility.yul\":4223:4245   */\n      add\n        /* \"#utility.yul\":4192:4255   */\n      tag_41\n      jump\t// in\n    tag_84:\n        /* \"#utility.yul\":4182:4255   */\n      swap7\n      pop\n        /* \"#utility.yul\":3976:4265   */\n      pop\n        /* \"#utility.yul\":4332:4335   */\n      0xa0\n        /* \"#utility.yul\":4321:4330   */\n      dup12\n        /* \"#utility.yul\":4317:4336   */\n      add\n        /* \"#utility.yul\":4304:4337   */\n      calldataload\n        /* \"#utility.yul\":4364:4382   */\n      0xffffffffffffffff\n        /* \"#utility.yul\":4356:4362   */\n      dup2\n        /* \"#utility.yul\":4353:4383   */\n      gt\n        /* \"#utility.yul\":4350:4467   */\n      iszero\n      tag_85\n      jumpi\n        /* \"#utility.yul\":4386:4465   */\n      tag_86\n      tag_71\n      jump\t// in\n    tag_86:\n        /* \"#utility.yul\":4350:4467   */\n    tag_85:\n        /* \"#utility.yul\":4491:4554   */\n      tag_87\n        /* \"#utility.yul\":4546:4553   */\n      dup14\n        /* \"#utility.yul\":4537:4543   */\n      dup3\n        /* \"#utility.yul\":4526:4535   */\n      dup15\n        /* \"#utility.yul\":4522:4544   */\n      add\n        /* \"#utility.yul\":4491:4554   */\n      tag_41\n      jump\t// in\n    tag_87:\n        /* \"#utility.yul\":4481:4554   */\n      swap6\n      pop\n        /* \"#utility.yul\":4275:4564   */\n      pop\n        /* \"#utility.yul\":4631:4634   */\n      0xc0\n        /* \"#utility.yul\":4620:4629   */\n      dup12\n        /* \"#utility.yul\":4616:4635   */\n      add\n        /* \"#utility.yul\":4603:4636   */\n      calldataload\n        /* \"#utility.yul\":4663:4681   */\n      0xffffffffffffffff\n        /* \"#utility.yul\":4655:4661   */\n      dup2\n        /* \"#utility.yul\":4652:4682   */\n      gt\n        /* \"#utility.yul\":4649:4766   */\n      iszero\n      tag_88\n      jumpi\n        /* \"#utility.yul\":4685:4764   */\n      tag_89\n      tag_71\n      jump\t// in\n    tag_89:\n        /* \"#utility.yul\":4649:4766   */\n    tag_88:\n        /* \"#utility.yul\":4790:4853   */\n      tag_90\n        /* \"#utility.yul\":4845:4852   */\n      dup14\n        /* \"#utility.yul\":4836:4842   */\n      dup3\n        /* \"#utility.yul\":4825:4834   */\n      dup15\n        /* \"#utility.yul\":4821:4843   */\n      add\n        /* \"#utility.yul\":4790:4853   */\n      tag_41\n      jump\t// in\n    tag_90:\n        /* \"#utility.yul\":4780:4853   */\n      swap5\n      pop\n        /* \"#utility.yul\":4574:4863   */\n      pop\n        /* \"#utility.yul\":4902:4905   */\n      0xe0\n        /* \"#utility.yul\":4929:4982   */\n      tag_91\n        /* \"#utility.yul\":4974:4981   */\n      dup14\n        /* \"#utility.yul\":4965:4971   */\n      dup3\n        /* \"#utility.yul\":4954:4963   */\n      dup15\n        /* \"#utility.yul\":4950:4972   */\n      add\n        /* \"#utility.yul\":4929:4982   */\n      tag_61\n      jump\t// in\n    tag_91:\n        /* \"#utility.yul\":4919:4982   */\n      swap4\n      pop\n        /* \"#utility.yul\":4873:4992   */\n      pop\n        /* \"#utility.yul\":5031:5034   */\n      0x0100\n        /* \"#utility.yul\":5058:5111   */\n      tag_92\n        /* \"#utility.yul\":5103:5110   */\n      dup14\n        /* \"#utility.yul\":5094:5100   */\n      dup3\n        /* \"#utility.yul\":5083:5092   */\n      dup15\n        /* \"#utility.yul\":5079:5101   */\n      add\n        /* \"#utility.yul\":5058:5111   */\n      tag_61\n      jump\t// in\n    tag_92:\n        /* \"#utility.yul\":5048:5111   */\n      swap3\n      pop\n        /* \"#utility.yul\":5002:5121   */\n      pop\n        /* \"#utility.yul\":5188:5191   */\n      0x0120\n        /* \"#utility.yul\":5177:5186   */\n      dup12\n        /* \"#utility.yul\":5173:5192   */\n      add\n        /* \"#utility.yul\":5160:5193   */\n      calldataload\n        /* \"#utility.yul\":5220:5238   */\n      0xffffffffffffffff\n        /* \"#utility.yul\":5212:5218   */\n      dup2\n        /* \"#utility.yul\":5209:5239   */\n      gt\n        /* \"#utility.yul\":5206:5323   */\n      iszero\n      tag_93\n      jumpi\n        /* \"#utility.yul\":5242:5321   */\n      tag_94\n      tag_71\n      jump\t// in\n    tag_94:\n        /* \"#utility.yul\":5206:5323   */\n    tag_93:\n        /* \"#utility.yul\":5347:5435   */\n      tag_95\n        /* \"#utility.yul\":5427:5434   */\n      dup14\n        /* \"#utility.yul\":5418:5424   */\n      dup3\n        /* \"#utility.yul\":5407:5416   */\n      dup15\n        /* \"#utility.yul\":5403:5425   */\n      add\n        /* \"#utility.yul\":5347:5435   */\n      tag_52\n      jump\t// in\n    tag_95:\n        /* \"#utility.yul\":5337:5435   */\n      swap2\n      pop\n        /* \"#utility.yul\":5131:5445   */\n      pop\n        /* \"#utility.yul\":2321:5452   */\n      swap3\n      swap6\n      swap9\n      swap12\n      swap2\n      swap5\n      swap8\n      swap11\n      pop\n      swap3\n      swap6\n      swap9\n      pop\n      jump\t// out\n        /* \"#utility.yul\":5458:5787   */\n    tag_16:\n        /* \"#utility.yul\":5517:5523   */\n      0x00\n        /* \"#utility.yul\":5566:5568   */\n      0x20\n        /* \"#utility.yul\":5554:5563   */\n      dup3\n        /* \"#utility.yul\":5545:5552   */\n      dup5\n        /* \"#utility.yul\":5541:5564   */\n      sub\n        /* \"#utility.yul\":5537:5569   */\n      slt\n        /* \"#utility.yul\":5534:5653   */\n      iszero\n      tag_97\n      jumpi\n        /* \"#utility.yul\":5572:5651   */\n      tag_98\n      tag_68\n      jump\t// in\n    tag_98:\n        /* \"#utility.yul\":5534:5653   */\n    tag_97:\n        /* \"#utility.yul\":5692:5693   */\n      0x00\n        /* \"#utility.yul\":5717:5770   */\n      tag_99\n        /* \"#utility.yul\":5762:5769   */\n      dup5\n        /* \"#utility.yul\":5753:5759   */\n      dup3\n        /* \"#utility.yul\":5742:5751   */\n      dup6\n        /* \"#utility.yul\":5738:5760   */\n      add\n        /* \"#utility.yul\":5717:5770   */\n      tag_61\n      jump\t// in\n    tag_99:\n        /* \"#utility.yul\":5707:5770   */\n      swap2\n      pop\n        /* \"#utility.yul\":5663:5780   */\n      pop\n        /* \"#utility.yul\":5458:5787   */\n      swap3\n      swap2\n      pop\n      pop\n      jump\t// out\n        /* \"#utility.yul\":5793:5911   */\n    tag_100:\n        /* \"#utility.yul\":5880:5904   */\n      tag_102\n        /* \"#utility.yul\":5898:5903   */\n      dup2\n        /* \"#utility.yul\":5880:5904   */\n      tag_103\n      jump\t// in\n    tag_102:\n        /* \"#utility.yul\":5875:5878   */\n      dup3\n        /* \"#utility.yul\":5868:5905   */\n      mstore\n        /* \"#utility.yul\":5793:5911   */\n      pop\n      pop\n      jump\t// out\n        /* \"#utility.yul\":5917:6035   */\n    tag_104:\n        /* \"#utility.yul\":6004:6028   */\n      tag_106\n        /* \"#utility.yul\":6022:6027   */\n      dup2\n        /* \"#utility.yul\":6004:6028   */\n      tag_107\n      jump\t// in\n    tag_106:\n        /* \"#utility.yul\":5999:6002   */\n      dup3\n        /* \"#utility.yul\":5992:6029   */\n      mstore\n        /* \"#utility.yul\":5917:6035   */\n      pop\n      pop\n      jump\t// out\n        /* \"#utility.yul\":6041:6263   */\n    tag_13:\n        /* \"#utility.yul\":6134:6138   */\n      0x00\n        /* \"#utility.yul\":6172:6174   */\n      0x20\n        /* \"#utility.yul\":6161:6170   */\n      dup3\n        /* \"#utility.yul\":6157:6175   */\n      add\n        /* \"#utility.yul\":6149:6175   */\n      swap1\n      pop\n        /* \"#utility.yul\":6185:6256   */\n      tag_109\n        /* \"#utility.yul\":6253:6254   */\n      0x00\n        /* \"#utility.yul\":6242:6251   */\n      dup4\n        /* \"#utility.yul\":6238:6255   */\n      add\n        /* \"#utility.yul\":6229:6235   */\n      dup5\n        /* \"#utility.yul\":6185:6256   */\n      tag_100\n      jump\t// in\n    tag_109:\n        /* \"#utility.yul\":6041:6263   */\n      swap3\n      swap2\n      pop\n      pop\n      jump\t// out\n        /* \"#utility.yul\":6269:6491   */\n    tag_19:\n        /* \"#utility.yul\":6362:6366   */\n      0x00\n        /* \"#utility.yul\":6400:6402   */\n      0x20\n        /* \"#utility.yul\":6389:6398   */\n      dup3\n        /* \"#utility.yul\":6385:6403   */\n      add\n        /* \"#utility.yul\":6377:6403   */\n      swap1\n      pop\n        /* \"#utility.yul\":6413:6484   */\n      tag_111\n        /* \"#utility.yul\":6481:6482   */\n      0x00\n        /* \"#utility.yul\":6470:6479   */\n      dup4\n        /* \"#utility.yul\":6466:6483   */\n      add\n        /* \"#utility.yul\":6457:6463   */\n      dup5\n        /* \"#utility.yul\":6413:6484   */\n      tag_104\n      jump\t// in\n    tag_111:\n        /* \"#utility.yul\":6269:6491   */\n      swap3\n      swap2\n      pop\n      pop\n      jump\t// out\n        /* \"#utility.yul\":6497:6626   */\n    tag_30:\n        /* \"#utility.yul\":6531:6537   */\n      0x00\n        /* \"#utility.yul\":6558:6578   */\n      tag_113\n      tag_114\n      jump\t// in\n    tag_113:\n        /* \"#utility.yul\":6548:6578   */\n      swap1\n      pop\n        /* \"#utility.yul\":6587:6620   */\n      tag_115\n        /* \"#utility.yul\":6615:6619   */\n      dup3\n        /* \"#utility.yul\":6607:6613   */\n      dup3\n        /* \"#utility.yul\":6587:6620   */\n      tag_116\n      jump\t// in\n    tag_115:\n        /* \"#utility.yul\":6497:6626   */\n      swap2\n      swap1\n      pop\n      jump\t// out\n        /* \"#utility.yul\":6632:6707   */\n    tag_114:\n        /* \"#utility.yul\":6665:6671   */\n      0x00\n        /* \"#utility.yul\":6698:6700   */\n      0x40\n        /* \"#utility.yul\":6692:6701   */\n      mload\n        /* \"#utility.yul\":6682:6701   */\n      swap1\n      pop\n        /* \"#utility.yul\":6632:6707   */\n      swap1\n      jump\t// out\n        /* \"#utility.yul\":6713:7034   */\n    tag_29:\n        /* \"#utility.yul\":6800:6804   */\n      0x00\n        /* \"#utility.yul\":6890:6908   */\n      0xffffffffffffffff\n        /* \"#utility.yul\":6882:6888   */\n      dup3\n        /* \"#utility.yul\":6879:6909   */\n      gt\n        /* \"#utility.yul\":6876:6932   */\n      iszero\n      tag_119\n      jumpi\n        /* \"#utility.yul\":6912:6930   */\n      tag_120\n      tag_121\n      jump\t// in\n    tag_120:\n        /* \"#utility.yul\":6876:6932   */\n    tag_119:\n        /* \"#utility.yul\":6962:6966   */\n      0x20\n        /* \"#utility.yul\":6954:6960   */\n      dup3\n        /* \"#utility.yul\":6950:6967   */\n      mul\n        /* \"#utility.yul\":6942:6967   */\n      swap1\n      pop\n        /* \"#utility.yul\":7022:7026   */\n      0x20\n        /* \"#utility.yul\":7016:7020   */\n      dup2\n        /* \"#utility.yul\":7012:7027   */\n      add\n        /* \"#utility.yul\":7004:7027   */\n      swap1\n      pop\n        /* \"#utility.yul\":6713:7034   */\n      swap2\n      swap1\n      pop\n      jump\t// out\n        /* \"#utility.yul\":7040:7348   */\n    tag_46:\n        /* \"#utility.yul\":7102:7106   */\n      0x00\n        /* \"#utility.yul\":7192:7210   */\n      0xffffffffffffffff\n        /* \"#utility.yul\":7184:7190   */\n      dup3\n        /* \"#utility.yul\":7181:7211   */\n      gt\n        /* \"#utility.yul\":7178:7234   */\n      iszero\n      tag_123\n      jumpi\n        /* \"#utility.yul\":7214:7232   */\n      tag_124\n      tag_121\n      jump\t// in\n    tag_124:\n        /* \"#utility.yul\":7178:7234   */\n    tag_123:\n        /* \"#utility.yul\":7252:7281   */\n      tag_125\n        /* \"#utility.yul\":7274:7280   */\n      dup3\n        /* \"#utility.yul\":7252:7281   */\n      tag_126\n      jump\t// in\n    tag_125:\n        /* \"#utility.yul\":7244:7281   */\n      swap1\n      pop\n        /* \"#utility.yul\":7336:7340   */\n      0x20\n        /* \"#utility.yul\":7330:7334   */\n      dup2\n        /* \"#utility.yul\":7326:7341   */\n      add\n        /* \"#utility.yul\":7318:7341   */\n      swap1\n      pop\n        /* \"#utility.yul\":7040:7348   */\n      swap2\n      swap1\n      pop\n      jump\t// out\n        /* \"#utility.yul\":7354:7450   */\n    tag_103:\n        /* \"#utility.yul\":7391:7398   */\n      0x00\n        /* \"#utility.yul\":7420:7444   */\n      tag_128\n        /* \"#utility.yul\":7438:7443   */\n      dup3\n        /* \"#utility.yul\":7420:7444   */\n      tag_129\n      jump\t// in\n    tag_128:\n        /* \"#utility.yul\":7409:7444   */\n      swap1\n      pop\n        /* \"#utility.yul\":7354:7450   */\n      swap2\n      swap1\n      pop\n      jump\t// out\n        /* \"#utility.yul\":7456:7582   */\n    tag_129:\n        /* \"#utility.yul\":7493:7500   */\n      0x00\n        /* \"#utility.yul\":7533:7575   */\n      0xffffffffffffffffffffffffffffffffffffffff\n        /* \"#utility.yul\":7526:7531   */\n      dup3\n        /* \"#utility.yul\":7522:7576   */\n      and\n        /* \"#utility.yul\":7511:7576   */\n      swap1\n      pop\n        /* \"#utility.yul\":7456:7582   */\n      swap2\n      swap1\n      pop\n      jump\t// out\n        /* \"#utility.yul\":7588:7665   */\n    tag_107:\n        /* \"#utility.yul\":7625:7632   */\n      0x00\n        /* \"#utility.yul\":7654:7659   */\n      dup2\n        /* \"#utility.yul\":7643:7659   */\n      swap1\n      pop\n        /* \"#utility.yul\":7588:7665   */\n      swap2\n      swap1\n      pop\n      jump\t// out\n        /* \"#utility.yul\":7671:7825   */\n    tag_51:\n        /* \"#utility.yul\":7755:7761   */\n      dup3\n        /* \"#utility.yul\":7750:7753   */\n      dup2\n        /* \"#utility.yul\":7745:7748   */\n      dup4\n        /* \"#utility.yul\":7732:7762   */\n      calldatacopy\n        /* \"#utility.yul\":7817:7818   */\n      0x00\n        /* \"#utility.yul\":7808:7814   */\n      dup4\n        /* \"#utility.yul\":7803:7806   */\n      dup4\n        /* \"#utility.yul\":7799:7815   */\n      add\n        /* \"#utility.yul\":7792:7819   */\n      mstore\n        /* \"#utility.yul\":7671:7825   */\n      pop\n      pop\n      pop\n      jump\t// out\n        /* \"#utility.yul\":7831:8112   */\n    tag_116:\n        /* \"#utility.yul\":7914:7941   */\n      tag_134\n        /* \"#utility.yul\":7936:7940   */\n      dup3\n        /* \"#utility.yul\":7914:7941   */\n      tag_126\n      jump\t// in\n    tag_134:\n        /* \"#utility.yul\":7906:7912   */\n      dup2\n        /* \"#utility.yul\":7902:7942   */\n      add\n        /* \"#utility.yul\":8044:8050   */\n      dup2\n        /* \"#utility.yul\":8032:8042   */\n      dup2\n        /* \"#utility.yul\":8029:8051   */\n      lt\n        /* \"#utility.yul\":8008:8026   */\n      0xffffffffffffffff\n        /* \"#utility.yul\":7996:8006   */\n      dup3\n        /* \"#utility.yul\":7993:8027   */\n      gt\n        /* \"#utility.yul\":7990:8052   */\n      or\n        /* \"#utility.yul\":7987:8075   */\n      iszero\n      tag_135\n      jumpi\n        /* \"#utility.yul\":8055:8073   */\n      tag_136\n      tag_121\n      jump\t// in\n    tag_136:\n        /* \"#utility.yul\":7987:8075   */\n    tag_135:\n        /* \"#utility.yul\":8095:8105   */\n      dup1\n        /* \"#utility.yul\":8091:8093   */\n      0x40\n        /* \"#utility.yul\":8084:8106   */\n      mstore\n        /* \"#utility.yul\":7874:8112   */\n      pop\n        /* \"#utility.yul\":7831:8112   */\n      pop\n      pop\n      jump\t// out\n        /* \"#utility.yul\":8118:8298   */\n    tag_121:\n        /* \"#utility.yul\":8166:8243   */\n      0x4e487b7100000000000000000000000000000000000000000000000000000000\n        /* \"#utility.yul\":8163:8164   */\n      0x00\n        /* \"#utility.yul\":8156:8244   */\n      mstore\n        /* \"#utility.yul\":8263:8267   */\n      0x41\n        /* \"#utility.yul\":8260:8261   */\n      0x04\n        /* \"#utility.yul\":8253:8268   */\n      mstore\n        /* \"#utility.yul\":8287:8291   */\n      0x24\n        /* \"#utility.yul\":8284:8285   */\n      0x00\n        /* \"#utility.yul\":8277:8292   */\n      revert\n        /* \"#utility.yul\":8304:8421   */\n    tag_39:\n        /* \"#utility.yul\":8413:8414   */\n      0x00\n        /* \"#utility.yul\":8410:8411   */\n      dup1\n        /* \"#utility.yul\":8403:8415   */\n      revert\n        /* \"#utility.yul\":8427:8544   */\n    tag_33:\n        /* \"#utility.yul\":8536:8537   */\n      0x00\n        /* \"#utility.yul\":8533:8534   */\n      dup1\n        /* \"#utility.yul\":8526:8538   */\n      revert\n        /* \"#utility.yul\":8550:8667   */\n    tag_49:\n        /* \"#utility.yul\":8659:8660   */\n      0x00\n        /* \"#utility.yul\":8656:8657   */\n      dup1\n        /* \"#utility.yul\":8649:8661   */\n      revert\n        /* \"#utility.yul\":8673:8790   */\n    tag_71:\n        /* \"#utility.yul\":8782:8783   */\n      0x00\n        /* \"#utility.yul\":8779:8780   */\n      dup1\n        /* \"#utility.yul\":8772:8784   */\n      revert\n        /* \"#utility.yul\":8796:8913   */\n    tag_68:\n        /* \"#utility.yul\":8905:8906   */\n      0x00\n        /* \"#utility.yul\":8902:8903   */\n      dup1\n        /* \"#utility.yul\":8895:8907   */\n      revert\n        /* \"#utility.yul\":8919:9021   */\n    tag_126:\n        /* \"#utility.yul\":8960:8966   */\n      0x00\n        /* \"#utility.yul\":9011:9013   */\n      0x1f\n        /* \"#utility.yul\":9007:9014   */\n      not\n        /* \"#utility.yul\":9002:9004   */\n      0x1f\n        /* \"#utility.yul\":8995:9000   */\n      dup4\n        /* \"#utility.yul\":8991:9005   */\n      add\n        /* \"#utility.yul\":8987:9015   */\n      and\n        /* \"#utility.yul\":8977:9015   */\n      swap1\n      pop\n        /* \"#utility.yul\":8919:9021   */\n      swap2\n      swap1\n      pop\n      jump\t// out\n        /* \"#utility.yul\":9027:9149   */\n    tag_64:\n        /* \"#utility.yul\":9100:9124   */\n      tag_145\n        /* \"#utility.yul\":9118:9123   */\n      dup2\n        /* \"#utility.yul\":9100:9124   */\n      tag_107\n      jump\t// in\n    tag_145:\n        /* \"#utility.yul\":9093:9098   */\n      dup2\n        /* \"#utility.yul\":9090:9125   */\n      eq\n        /* \"#utility.yul\":9080:9143   */\n      tag_146\n      jumpi\n        /* \"#utility.yul\":9139:9140   */\n      0x00\n        /* \"#utility.yul\":9136:9137   */\n      dup1\n        /* \"#utility.yul\":9129:9141   */\n      revert\n        /* \"#utility.yul\":9080:9143   */\n    tag_146:\n        /* \"#utility.yul\":9027:9149   */\n      pop\n      jump\t// out\n\n    auxdata: 0xa26469706673582212208227164cf8db126244f2078f17aef283abae670e2ab06da5776ca8e12fc67bd164736f6c63430008070033\n}\n",
				"bytecode": {
					"linkReferences": {},
					"object": "608060405234801561001057600080fd5b506000600181905550336000806101000a81548173ffffffffffffffffffffffffffffffffffffffff021916908373ffffffffffffffffffffffffffffffffffffffff160217905550610681806100686000396000f3fe608060405234801561001057600080fd5b50600436106100415760003560e01c8063611fa0a8146100465780638da5cb5b14610062578063ebfa74c914610080575b600080fd5b610060600480360381019061005b919061029d565b6100b0565b005b61006a610114565b60405161007791906104a7565b60405180910390f35b61009a6004803603810190610095919061045c565b610138565b6040516100a791906104c2565b60405180910390f35b60008054906101000a900473ffffffffffffffffffffffffffffffffffffffff1673ffffffffffffffffffffffffffffffffffffffff163373ffffffffffffffffffffffffffffffffffffffff161461010857600080fd5b50505050505050505050565b60008054906101000a900473ffffffffffffffffffffffffffffffffffffffff1681565b6003818154811061014857600080fd5b906000526020600020016000915090505481565b600061016f61016a84610502565b6104dd565b905080838252602082019050828560208602820111156101925761019161060f565b5b60005b858110156101e057813567ffffffffffffffff8111156101b8576101b761060a565b5b8086016101c5898261025a565b85526020850194506020840193505050600181019050610195565b5050509392505050565b60006101fd6101f88461052e565b6104dd565b90508281526020810184848401111561021957610218610614565b5b61022484828561059b565b509392505050565b600082601f8301126102415761024061060a565b5b813561025184826020860161015c565b91505092915050565b600082601f83011261026f5761026e61060a565b5b813561027f8482602086016101ea565b91505092915050565b60008135905061029781610634565b92915050565b6000806000806000806000806000806101408b8d0312156102c1576102c061061e565b5b60008b013567ffffffffffffffff8111156102df576102de610619565b5b6102eb8d828e0161025a565b9a505060208b013567ffffffffffffffff81111561030c5761030b610619565b5b6103188d828e0161025a565b99505060408b013567ffffffffffffffff81111561033957610338610619565b5b6103458d828e0161025a565b98505060608b013567ffffffffffffffff81111561036657610365610619565b5b6103728d828e0161025a565b97505060808b013567ffffffffffffffff81111561039357610392610619565b5b61039f8d828e0161025a565b96505060a08b013567ffffffffffffffff8111156103c0576103bf610619565b5b6103cc8d828e0161025a565b95505060c08b013567ffffffffffffffff8111156103ed576103ec610619565b5b6103f98d828e0161025a565b94505060e061040a8d828e01610288565b93505061010061041c8d828e01610288565b9250506101208b013567ffffffffffffffff81111561043e5761043d610619565b5b61044a8d828e0161022c565b9150509295989b9194979a5092959850565b6000602082840312156104725761047161061e565b5b600061048084828501610288565b91505092915050565b6104928161055f565b82525050565b6104a181610591565b82525050565b60006020820190506104bc6000830184610489565b92915050565b60006020820190506104d76000830184610498565b92915050565b60006104e76104f8565b90506104f382826105aa565b919050565b6000604051905090565b600067ffffffffffffffff82111561051d5761051c6105db565b5b602082029050602081019050919050565b600067ffffffffffffffff821115610549576105486105db565b5b61055282610623565b9050602081019050919050565b600061056a82610571565b9050919050565b600073ffffffffffffffffffffffffffffffffffffffff82169050919050565b6000819050919050565b82818337600083830152505050565b6105b382610623565b810181811067ffffffffffffffff821117156105d2576105d16105db565b5b80604052505050565b7f4e487b7100000000000000000000000000000000000000000000000000000000600052604160045260246000fd5b600080fd5b600080fd5b600080fd5b600080fd5b600080fd5b6000601f19601f8301169050919050565b61063d81610591565b811461064857600080fd5b5056fea26469706673582212208227164cf8db126244f2078f17aef283abae670e2ab06da5776ca8e12fc67bd164736f6c63430008070033",
					"opcodes": "PUSH1 0x80 PUSH1 0x40 MSTORE CALLVALUE DUP1 ISZERO PUSH2 0x10 JUMPI PUSH1 0x0 DUP1 REVERT JUMPDEST POP PUSH1 0x0 PUSH1 0x1 DUP2 SWAP1 SSTORE POP CALLER PUSH1 0x0 DUP1 PUSH2 0x100 EXP DUP2 SLOAD DUP2 PUSH20 0xFFFFFFFFFFFFFFFFFFFFFFFFFFFFFFFFFFFFFFFF MUL NOT AND SWAP1 DUP4 PUSH20 0xFFFFFFFFFFFFFFFFFFFFFFFFFFFFFFFFFFFFFFFF AND MUL OR SWAP1 SSTORE POP PUSH2 0x681 DUP1 PUSH2 0x68 PUSH1 0x0 CODECOPY PUSH1 0x0 RETURN INVALID PUSH1 0x80 PUSH1 0x40 MSTORE CALLVALUE DUP1 ISZERO PUSH2 0x10 JUMPI PUSH1 0x0 DUP1 REVERT JUMPDEST POP PUSH1 0x4 CALLDATASIZE LT PUSH2 0x41 JUMPI PUSH1 0x0 CALLDATALOAD PUSH1 0xE0 SHR DUP1 PUSH4 0x611FA0A8 EQ PUSH2 0x46 JUMPI DUP1 PUSH4 0x8DA5CB5B EQ PUSH2 0x62 JUMPI DUP1 PUSH4 0xEBFA74C9 EQ PUSH2 0x80 JUMPI JUMPDEST PUSH1 0x0 DUP1 REVERT JUMPDEST PUSH2 0x60 PUSH1 0x4 DUP1 CALLDATASIZE SUB DUP2 ADD SWAP1 PUSH2 0x5B SWAP2 SWAP1 PUSH2 0x29D JUMP JUMPDEST PUSH2 0xB0 JUMP JUMPDEST STOP JUMPDEST PUSH2 0x6A PUSH2 0x114 JUMP JUMPDEST PUSH1 0x40 MLOAD PUSH2 0x77 SWAP2 SWAP1 PUSH2 0x4A7 JUMP JUMPDEST PUSH1 0x40 MLOAD DUP1 SWAP2 SUB SWAP1 RETURN JUMPDEST PUSH2 0x9A PUSH1 0x4 DUP1 CALLDATASIZE SUB DUP2 ADD SWAP1 PUSH2 0x95 SWAP2 SWAP1 PUSH2 0x45C JUMP JUMPDEST PUSH2 0x138 JUMP JUMPDEST PUSH1 0x40 MLOAD PUSH2 0xA7 SWAP2 SWAP1 PUSH2 0x4C2 JUMP JUMPDEST PUSH1 0x40 MLOAD DUP1 SWAP2 SUB SWAP1 RETURN JUMPDEST PUSH1 0x0 DUP1 SLOAD SWAP1 PUSH2 0x100 EXP SWAP1 DIV PUSH20 0xFFFFFFFFFFFFFFFFFFFFFFFFFFFFFFFFFFFFFFFF AND PUSH20 0xFFFFFFFFFFFFFFFFFFFFFFFFFFFFFFFFFFFFFFFF AND CALLER PUSH20 0xFFFFFFFFFFFFFFFFFFFFFFFFFFFFFFFFFFFFFFFF AND EQ PUSH2 0x108 JUMPI PUSH1 0x0 DUP1 REVERT JUMPDEST POP POP POP POP POP POP POP POP POP POP JUMP JUMPDEST PUSH1 0x0 DUP1 SLOAD SWAP1 PUSH2 0x100 EXP SWAP1 DIV PUSH20 0xFFFFFFFFFFFFFFFFFFFFFFFFFFFFFFFFFFFFFFFF AND DUP2 JUMP JUMPDEST PUSH1 0x3 DUP2 DUP2 SLOAD DUP2 LT PUSH2 0x148 JUMPI PUSH1 0x0 DUP1 REVERT JUMPDEST SWAP1 PUSH1 0x0 MSTORE PUSH1 0x20 PUSH1 0x0 KECCAK256 ADD PUSH1 0x0 SWAP2 POP SWAP1 POP SLOAD DUP2 JUMP JUMPDEST PUSH1 0x0 PUSH2 0x16F PUSH2 0x16A DUP5 PUSH2 0x502 JUMP JUMPDEST PUSH2 0x4DD JUMP JUMPDEST SWAP1 POP DUP1 DUP4 DUP3 MSTORE PUSH1 0x20 DUP3 ADD SWAP1 POP DUP3 DUP6 PUSH1 0x20 DUP7 MUL DUP3 ADD GT ISZERO PUSH2 0x192 JUMPI PUSH2 0x191 PUSH2 0x60F JUMP JUMPDEST JUMPDEST PUSH1 0x0 JUMPDEST DUP6 DUP2 LT ISZERO PUSH2 0x1E0 JUMPI DUP2 CALLDATALOAD PUSH8 0xFFFFFFFFFFFFFFFF DUP2 GT ISZERO PUSH2 0x1B8 JUMPI PUSH2 0x1B7 PUSH2 0x60A JUMP JUMPDEST JUMPDEST DUP1 DUP7 ADD PUSH2 0x1C5 DUP10 DUP3 PUSH2 0x25A JUMP JUMPDEST DUP6 MSTORE PUSH1 0x20 DUP6 ADD SWAP5 POP PUSH1 0x20 DUP5 ADD SWAP4 POP POP POP PUSH1 0x1 DUP2 ADD SWAP1 POP PUSH2 0x195 JUMP JUMPDEST POP POP POP SWAP4 SWAP3 POP POP POP JUMP JUMPDEST PUSH1 0x0 PUSH2 0x1FD PUSH2 0x1F8 DUP5 PUSH2 0x52E JUMP JUMPDEST PUSH2 0x4DD JUMP JUMPDEST SWAP1 POP DUP3 DUP2 MSTORE PUSH1 0x20 DUP2 ADD DUP5 DUP5 DUP5 ADD GT ISZERO PUSH2 0x219 JUMPI PUSH2 0x218 PUSH2 0x614 JUMP JUMPDEST JUMPDEST PUSH2 0x224 DUP5 DUP3 DUP6 PUSH2 0x59B JUMP JUMPDEST POP SWAP4 SWAP3 POP POP POP JUMP JUMPDEST PUSH1 0x0 DUP3 PUSH1 0x1F DUP4 ADD SLT PUSH2 0x241 JUMPI PUSH2 0x240 PUSH2 0x60A JUMP JUMPDEST JUMPDEST DUP2 CALLDATALOAD PUSH2 0x251 DUP5 DUP3 PUSH1 0x20 DUP7 ADD PUSH2 0x15C JUMP JUMPDEST SWAP2 POP POP SWAP3 SWAP2 POP POP JUMP JUMPDEST PUSH1 0x0 DUP3 PUSH1 0x1F DUP4 ADD SLT PUSH2 0x26F JUMPI PUSH2 0x26E PUSH2 0x60A JUMP JUMPDEST JUMPDEST DUP2 CALLDATALOAD PUSH2 0x27F DUP5 DUP3 PUSH1 0x20 DUP7 ADD PUSH2 0x1EA JUMP JUMPDEST SWAP2 POP POP SWAP3 SWAP2 POP POP JUMP JUMPDEST PUSH1 0x0 DUP2 CALLDATALOAD SWAP1 POP PUSH2 0x297 DUP2 PUSH2 0x634 JUMP JUMPDEST SWAP3 SWAP2 POP POP JUMP JUMPDEST PUSH1 0x0 DUP1 PUSH1 0x0 DUP1 PUSH1 0x0 DUP1 PUSH1 0x0 DUP1 PUSH1 0x0 DUP1 PUSH2 0x140 DUP12 DUP14 SUB SLT ISZERO PUSH2 0x2C1 JUMPI PUSH2 0x2C0 PUSH2 0x61E JUMP JUMPDEST JUMPDEST PUSH1 0x0 DUP12 ADD CALLDATALOAD PUSH8 0xFFFFFFFFFFFFFFFF DUP2 GT ISZERO PUSH2 0x2DF JUMPI PUSH2 0x2DE PUSH2 0x619 JUMP JUMPDEST JUMPDEST PUSH2 0x2EB DUP14 DUP3 DUP15 ADD PUSH2 0x25A JUMP JUMPDEST SWAP11 POP POP PUSH1 0x20 DUP12 ADD CALLDATALOAD PUSH8 0xFFFFFFFFFFFFFFFF DUP2 GT ISZERO PUSH2 0x30C JUMPI PUSH2 0x30B PUSH2 0x619 JUMP JUMPDEST JUMPDEST PUSH2 0x318 DUP14 DUP3 DUP15 ADD PUSH2 0x25A JUMP JUMPDEST SWAP10 POP POP PUSH1 0x40 DUP12 ADD CALLDATALOAD PUSH8 0xFFFFFFFFFFFFFFFF DUP2 GT ISZERO PUSH2 0x339 JUMPI PUSH2 0x338 PUSH2 0x619 JUMP JUMPDEST JUMPDEST PUSH2 0x345 DUP14 DUP3 DUP15 ADD PUSH2 0x25A JUMP JUMPDEST SWAP9 POP POP PUSH1 0x60 DUP12 ADD CALLDATALOAD PUSH8 0xFFFFFFFFFFFFFFFF DUP2 GT ISZERO PUSH2 0x366 JUMPI PUSH2 0x365 PUSH2 0x619 JUMP JUMPDEST JUMPDEST PUSH2 0x372 DUP14 DUP3 DUP15 ADD PUSH2 0x25A JUMP JUMPDEST SWAP8 POP POP PUSH1 0x80 DUP12 ADD CALLDATALOAD PUSH8 0xFFFFFFFFFFFFFFFF DUP2 GT ISZERO PUSH2 0x393 JUMPI PUSH2 0x392 PUSH2 0x619 JUMP JUMPDEST JUMPDEST PUSH2 0x39F DUP14 DUP3 DUP15 ADD PUSH2 0x25A JUMP JUMPDEST SWAP7 POP POP PUSH1 0xA0 DUP12 ADD CALLDATALOAD PUSH8 0xFFFFFFFFFFFFFFFF DUP2 GT ISZERO PUSH2 0x3C0 JUMPI PUSH2 0x3BF PUSH2 0x619 JUMP JUMPDEST JUMPDEST PUSH2 0x3CC DUP14 DUP3 DUP15 ADD PUSH2 0x25A JUMP JUMPDEST SWAP6 POP POP PUSH1 0xC0 DUP12 ADD CALLDATALOAD PUSH8 0xFFFFFFFFFFFFFFFF DUP2 GT ISZERO PUSH2 0x3ED JUMPI PUSH2 0x3EC PUSH2 0x619 JUMP JUMPDEST JUMPDEST PUSH2 0x3F9 DUP14 DUP3 DUP15 ADD PUSH2 0x25A JUMP JUMPDEST SWAP5 POP POP PUSH1 0xE0 PUSH2 0x40A DUP14 DUP3 DUP15 ADD PUSH2 0x288 JUMP JUMPDEST SWAP4 POP POP PUSH2 0x100 PUSH2 0x41C DUP14 DUP3 DUP15 ADD PUSH2 0x288 JUMP JUMPDEST SWAP3 POP POP PUSH2 0x120 DUP12 ADD CALLDATALOAD PUSH8 0xFFFFFFFFFFFFFFFF DUP2 GT ISZERO PUSH2 0x43E JUMPI PUSH2 0x43D PUSH2 0x619 JUMP JUMPDEST JUMPDEST PUSH2 0x44A DUP14 DUP3 DUP15 ADD PUSH2 0x22C JUMP JUMPDEST SWAP2 POP POP SWAP3 SWAP6 SWAP9 SWAP12 SWAP2 SWAP5 SWAP8 SWAP11 POP SWAP3 SWAP6 SWAP9 POP JUMP JUMPDEST PUSH1 0x0 PUSH1 0x20 DUP3 DUP5 SUB SLT ISZERO PUSH2 0x472 JUMPI PUSH2 0x471 PUSH2 0x61E JUMP JUMPDEST JUMPDEST PUSH1 0x0 PUSH2 0x480 DUP5 DUP3 DUP6 ADD PUSH2 0x288 JUMP JUMPDEST SWAP2 POP POP SWAP3 SWAP2 POP POP JUMP JUMPDEST PUSH2 0x492 DUP2 PUSH2 0x55F JUMP JUMPDEST DUP3 MSTORE POP POP JUMP JUMPDEST PUSH2 0x4A1 DUP2 PUSH2 0x591 JUMP JUMPDEST DUP3 MSTORE POP POP JUMP JUMPDEST PUSH1 0x0 PUSH1 0x20 DUP3 ADD SWAP1 POP PUSH2 0x4BC PUSH1 0x0 DUP4 ADD DUP5 PUSH2 0x489 JUMP JUMPDEST SWAP3 SWAP2 POP POP JUMP JUMPDEST PUSH1 0x0 PUSH1 0x20 DUP3 ADD SWAP1 POP PUSH2 0x4D7 PUSH1 0x0 DUP4 ADD DUP5 PUSH2 0x498 JUMP JUMPDEST SWAP3 SWAP2 POP POP JUMP JUMPDEST PUSH1 0x0 PUSH2 0x4E7 PUSH2 0x4F8 JUMP JUMPDEST SWAP1 POP PUSH2 0x4F3 DUP3 DUP3 PUSH2 0x5AA JUMP JUMPDEST SWAP2 SWAP1 POP JUMP JUMPDEST PUSH1 0x0 PUSH1 0x40 MLOAD SWAP1 POP SWAP1 JUMP JUMPDEST PUSH1 0x0 PUSH8 0xFFFFFFFFFFFFFFFF DUP3 GT ISZERO PUSH2 0x51D JUMPI PUSH2 0x51C PUSH2 0x5DB JUMP JUMPDEST JUMPDEST PUSH1 0x20 DUP3 MUL SWAP1 POP PUSH1 0x20 DUP2 ADD SWAP1 POP SWAP2 SWAP1 POP JUMP JUMPDEST PUSH1 0x0 PUSH8 0xFFFFFFFFFFFFFFFF DUP3 GT ISZERO PUSH2 0x549 JUMPI PUSH2 0x548 PUSH2 0x5DB JUMP JUMPDEST JUMPDEST PUSH2 0x552 DUP3 PUSH2 0x623 JUMP JUMPDEST SWAP1 POP PUSH1 0x20 DUP2 ADD SWAP1 POP SWAP2 SWAP1 POP JUMP JUMPDEST PUSH1 0x0 PUSH2 0x56A DUP3 PUSH2 0x571 JUMP JUMPDEST SWAP1 POP SWAP2 SWAP1 POP JUMP JUMPDEST PUSH1 0x0 PUSH20 0xFFFFFFFFFFFFFFFFFFFFFFFFFFFFFFFFFFFFFFFF DUP3 AND SWAP1 POP SWAP2 SWAP1 POP JUMP JUMPDEST PUSH1 0x0 DUP2 SWAP1 POP SWAP2 SWAP1 POP JUMP JUMPDEST DUP3 DUP2 DUP4 CALLDATACOPY PUSH1 0x0 DUP4 DUP4 ADD MSTORE POP POP POP JUMP JUMPDEST PUSH2 0x5B3 DUP3 PUSH2 0x623 JUMP JUMPDEST DUP2 ADD DUP2 DUP2 LT PUSH8 0xFFFFFFFFFFFFFFFF DUP3 GT OR ISZERO PUSH2 0x5D2 JUMPI PUSH2 0x5D1 PUSH2 0x5DB JUMP JUMPDEST JUMPDEST DUP1 PUSH1 0x40 MSTORE POP POP POP JUMP JUMPDEST PUSH32 0x4E487B7100000000000000000000000000000000000000000000000000000000 PUSH1 0x0 MSTORE PUSH1 0x41 PUSH1 0x4 MSTORE PUSH1 0x24 PUSH1 0x0 REVERT JUMPDEST PUSH1 0x0 DUP1 REVERT JUMPDEST PUSH1 0x0 DUP1 REVERT JUMPDEST PUSH1 0x0 DUP1 REVERT JUMPDEST PUSH1 0x0 DUP1 REVERT JUMPDEST PUSH1 0x0 DUP1 REVERT JUMPDEST PUSH1 0x0 PUSH1 0x1F NOT PUSH1 0x1F DUP4 ADD AND SWAP1 POP SWAP2 SWAP1 POP JUMP JUMPDEST PUSH2 0x63D DUP2 PUSH2 0x591 JUMP JUMPDEST DUP2 EQ PUSH2 0x648 JUMPI PUSH1 0x0 DUP1 REVERT JUMPDEST POP JUMP INVALID LOG2 PUSH5 0x6970667358 0x22 SLT KECCAK256 DUP3 0x27 AND 0x4C 0xF8 0xDB SLT PUSH3 0x44F207 DUP16 OR 0xAE CALLCODE DUP4 0xAB 0xAE PUSH8 0xE2AB06DA5776CA8 0xE1 0x2F 0xC6 PUSH28 0xD164736F6C6343000807003300000000000000000000000000000000 "
				},
				"gasEstimates": {
					"creation": {
						"codeDepositCost": "333000",
						"executionCost": "29654",
						"totalCost": "362654"
					},
					"external": {
						"addRentels(string,string,string,string,string,string,string,uint256,uint256,string[])": "infinite",
						"owner()": "2511",
						"rentalIds(uint256)": "infinite"
					}
				},
				"methodIdentifiers": {
					"addRentels(string,string,string,string,string,string,string,uint256,uint256,string[])": "611fa0a8",
					"owner()": "8da5cb5b",
					"rentalIds(uint256)": "ebfa74c9"
				}
			},
			"storageLayout": {
				"storage": [
					{
						"astId": 3,
						"contract": "contracts/Aquaroom.sol:aquaroom",
						"label": "owner",
						"offset": 0,
						"slot": "0",
						"type": "t_address"
					},
					{
						"astId": 5,
						"contract": "contracts/Aquaroom.sol:aquaroom",
						"label": "counter",
						"offset": 0,
						"slot": "1",
						"type": "t_uint256"
					},
					{
						"astId": 89,
						"contract": "contracts/Aquaroom.sol:aquaroom",
						"label": "rentals",
						"offset": 0,
						"slot": "2",
						"type": "t_mapping(t_uint256,t_struct(rentalInfo)44_storage)"
					},
					{
						"astId": 92,
						"contract": "contracts/Aquaroom.sol:aquaroom",
						"label": "rentalIds",
						"offset": 0,
						"slot": "3",
						"type": "t_array(t_uint256)dyn_storage"
					}
				],
				"types": {
					"t_address": {
						"encoding": "inplace",
						"label": "address",
						"numberOfBytes": "20"
					},
					"t_array(t_string_storage)dyn_storage": {
						"base": "t_string_storage",
						"encoding": "dynamic_array",
						"label": "string[]",
						"numberOfBytes": "32"
					},
					"t_array(t_uint256)dyn_storage": {
						"base": "t_uint256",
						"encoding": "dynamic_array",
						"label": "uint256[]",
						"numberOfBytes": "32"
					},
					"t_mapping(t_uint256,t_struct(rentalInfo)44_storage)": {
						"encoding": "mapping",
						"key": "t_uint256",
						"label": "mapping(uint256 => struct aquaroom.rentalInfo)",
						"numberOfBytes": "32",
						"value": "t_struct(rentalInfo)44_storage"
					},
					"t_string_storage": {
						"encoding": "bytes",
						"label": "string",
						"numberOfBytes": "32"
					},
					"t_struct(rentalInfo)44_storage": {
						"encoding": "inplace",
						"label": "struct aquaroom.rentalInfo",
						"members": [
							{
								"astId": 20,
								"contract": "contracts/Aquaroom.sol:aquaroom",
								"label": "name",
								"offset": 0,
								"slot": "0",
								"type": "t_string_storage"
							},
							{
								"astId": 22,
								"contract": "contracts/Aquaroom.sol:aquaroom",
								"label": "city",
								"offset": 0,
								"slot": "1",
								"type": "t_string_storage"
							},
							{
								"astId": 24,
								"contract": "contracts/Aquaroom.sol:aquaroom",
								"label": "lat",
								"offset": 0,
								"slot": "2",
								"type": "t_string_storage"
							},
							{
								"astId": 26,
								"contract": "contracts/Aquaroom.sol:aquaroom",
								"label": "long",
								"offset": 0,
								"slot": "3",
								"type": "t_string_storage"
							},
							{
								"astId": 28,
								"contract": "contracts/Aquaroom.sol:aquaroom",
								"label": "unoDescription",
								"offset": 0,
								"slot": "4",
								"type": "t_string_storage"
							},
							{
								"astId": 30,
								"contract": "contracts/Aquaroom.sol:aquaroom",
								"label": "dosDescription",
								"offset": 0,
								"slot": "5",
								"type": "t_string_storage"
							},
							{
								"astId": 32,
								"contract": "contracts/Aquaroom.sol:aquaroom",
								"label": "imgUrl",
								"offset": 0,
								"slot": "6",
								"type": "t_string_storage"
							},
							{
								"astId": 34,
								"contract": "contracts/Aquaroom.sol:aquaroom",
								"label": "maxGuests",
								"offset": 0,
								"slot": "7",
								"type": "t_uint256"
							},
							{
								"astId": 36,
								"contract": "contracts/Aquaroom.sol:aquaroom",
								"label": "pricePerDay",
								"offset": 0,
								"slot": "8",
								"type": "t_uint256"
							},
							{
								"astId": 39,
								"contract": "contracts/Aquaroom.sol:aquaroom",
								"label": "datesBooked",
								"offset": 0,
								"slot": "9",
								"type": "t_array(t_string_storage)dyn_storage"
							},
							{
								"astId": 41,
								"contract": "contracts/Aquaroom.sol:aquaroom",
								"label": "id",
								"offset": 0,
								"slot": "10",
								"type": "t_uint256"
							},
							{
								"astId": 43,
								"contract": "contracts/Aquaroom.sol:aquaroom",
								"label": "renter",
								"offset": 0,
								"slot": "11",
								"type": "t_address"
							}
						],
						"numberOfBytes": "384"
					},
					"t_uint256": {
						"encoding": "inplace",
						"label": "uint256",
						"numberOfBytes": "32"
					}
				}
			},
			"userdoc": {
				"kind": "user",
				"methods": {},
				"version": 1
			}
		}
	}
}